:020000040800F2
:1000000000000220DDF100082DF2000887800008C2
:100010002DF200088F800008978000080000000083
:100020000000000000000000000000002182000825
:100030002DF2000800000000C182000839D300083A
:100040002DF200082DF200082DF200082DF2000814
:100050002DF200082DF200086DD5000877D50008B4
:1000600081D500088BD5000895D500082DF2000831
:100070002DF200082DF200082DF200082DF20008E4
:100080002DF200082DF200082DF200082DF20008D4
:100090002DF200082DF200082DF200089FD500086F
:1000A000D5CB0008F5CA0008E9CB000815CB00083D
:1000B00029CB00083DCB000851CB0008518900082E
:1000C0006189000871890008818900082DF2000803
:1000D0002DF2000831E6000849E6000861E6000854
:1000E000B5D500082DF200082DF20008FDCB000860
:1000F000A1CB000811CC0008C1CB00082DF20008EC
:100100002DF200082DF2000865CB00082DF2000842
:1001100079E6000891E6000879CB00088DCB00084D
:100120002DF200082DF200082DF200082DF2000833
:100130002DF200082DF200082DF200082DF2000823
:100140002DF200082DF200082DF200082DF2000813
:100150002DF200082DF200082DF20008A9E6000893
:1001600091890008A18900082DF200082DF20008ED
:100170002DF200082DF200082DF20008000000000A
:080180002DF200082DF2000829
:1001900010F8012B11F8013B012A28BF9A42F7D031
:1001A000D01A7047000000000000000000000000AE
:1001B00001F0FF01102A2BDB10F0070F08D010F818
:1001C000013B013A8B422DD010F0070F42B3F6D11C
:1001D000F0B441EA012141EA014122F007047FF035
:1001E00000070023F0E80256083C85EA010586EA8C
:1001F000010685FA47F5A3FA87F586FA47F6A5FAC8
:1002000087F68EB9EED1F0BC01F0FF0102F00702D3
:1002100032B110F8013B013A83EA010313B1F8D17E
:100220000020704701387047002D06BF354603385F
:10023000073815F0010F07D1013015F4807F02BF98
:10024000013015F4C03F0130F0BC0138704700BFE9
:10025000034613F8012B002AFBD1181A0138704706
:1002600081F0004102E000BF83F0004330B54FEA67
:1002700041044FEA430594EA050F08BF90EA020FD4
:100280001FBF54EA000C55EA020C7FEA645C7FEA67
:10029000655C00F0E2804FEA5454D4EB5555B8BF8A
:1002A0006D420CDD2C4480EA020281EA030382EAFB
:1002B000000083EA010180EA020281EA0303362D8D
:1002C00088BF30BD11F0004F4FEA01314FF4801C60
:1002D0004CEA113102D0404261EB410113F0004F72
:1002E0004FEA03334CEA133302D0524263EB430329
:1002F00094EA050F00F0A780A4F10104D5F1200EC7
:100300000DDB02FA0EFC22FA05F2801841F1000121
:1003100003FA0EF2801843FA05F359410EE0A5F1F5
:1003200020050EF1200E012A03FA0EFC28BF4CF026
:10033000020C43FA05F3C01851EBE37101F00045DC
:1003400007D54FF0000EDCF1000C7EEB00006EEBE9
:100350000101B1F5801F1BD3B1F5001F0CD3490873
:100360005FEA30004FEA3C0C04F101044FEA4452CA
:1003700012F5800F80F09A80BCF1004F08BF5FEA51
:10038000500C50F1000041EB045141EA050130BD31
:100390005FEA4C0C404141EB0101013C28BFB1F543
:1003A000801FE9D291F0000F04BF01460020B1FA8E
:1003B00081F308BF2033A3F10B03B3F120020CDA61
:1003C0000C3208DD02F1140CC2F10C0201FA0CF03F
:1003D00021FA02F10CE002F11402D8BFC2F1200CA4
:1003E00001FA02F120FA0CFCDCBF41EA0C0190405A
:1003F000E41AA2BF01EB0451294330BD6FEA0404A3
:100400001F3C1CDA0C340EDC04F11404C4F120028D
:1004100020FA04F001FA02F340EA030021FA04F39F
:1004200045EA030130BDC4F10C04C4F1200220FAF6
:1004300002F001FA04F340EA0300294630BD21FA34
:1004400004F0294630BD94F0000F83F4801306BFFA
:1004500081F480110134013D4EE77FEA645C18BFEE
:100460007FEA655C29D094EA050F08BF90EA020F85
:1004700005D054EA000C04BF1946104630BD91EA7D
:10048000030F1EBF0021002030BD5FEA545C05D180
:100490004000494128BF41F0004130BD14F58004BF
:1004A0003CBF01F5801130BD01F0004545F0FE4133
:1004B00041F470014FF0000030BD7FEA645C1ABF68
:1004C000194610467FEA655C1CBF0B46024650EA9F
:1004D000013406BF52EA033591EA030F41F40021CB
:1004E00030BD00BF90F0000F04BF0021704730B551
:1004F0004FF4806404F132044FF000054FF0000126
:1005000050E700BF90F0000F04BF0021704730B5E6
:100510004FF4806404F1320410F0004548BF4042BB
:100520004FF000013EE700BF42004FEAE2014FEA10
:1005300031014FEA02701FBF12F07F4393F07F4FEB
:1005400081F06051704732F07F4208BF704793F0EE
:100550007F4F04BF41F40021704730B54FF4607401
:1005600001F0004521F000411CE700BF50EA010204
:1005700008BF704730B54FF000050AE050EA0102AD
:1005800008BF704730B511F0004502D5404261EB1D
:1005900041014FF4806404F132045FEA915C3FF45E
:1005A000D8AE4FF003025FEADC0C18BF03325FEAFB
:1005B000DC0C18BF033202EBDC02C2F1200300FAAC
:1005C00003FC20FA02F001FA03FE40EA0E0021FAD1
:1005D00002F11444BDE600BF70B54FF0FF0C4CF4BF
:1005E000E06C1CEA11541DBF1CEA135594EA0C0F71
:1005F00095EA0C0F00F0DEF82C4481EA030621EAAC
:100600004C5123EA4C5350EA013518BF52EA0335E6
:1006100041F4801143F4801338D0A0FB02CE4FF098
:100620000005E1FB02E506F00042E0FB03E54FF0C8
:100630000006E1FB03569CF0000F18BF4EF0010EC0
:10064000A4F1FF04B6F5007F64F5407404D25FEABC
:100650004E0E6D4146EB060642EAC62141EA55516F
:100660004FEAC52040EA5E504FEACE2EB4F1FD0CB1
:1006700088BFBCF5E06F1ED8BEF1004F08BF5FEA2F
:10068000500E50F1000041EB045170BD06F00046E1
:1006900046EA010140EA020081EA0301B4EB5C048E
:1006A000C2BFD4EB0C0541EA045170BD41F4801186
:1006B0004FF0000E013C00F3AB8014F1360FDEBFAB
:1006C000002001F0004170BDC4F10004203C35DA87
:1006D0000C341BDC04F11404C4F1200500FA05F30A
:1006E00020FA04F001FA05F240EA020001F00042AB
:1006F00021F0004110EBD37021FA04F642EB060121
:100700005EEA430E08BF20EAD37070BDC4F10C044A
:10071000C4F1200500FA04F320FA05F001FA04F20E
:1007200040EA020001F0004110EBD37041F10001FA
:100730005EEA430E08BF20EAD37070BDC4F1200505
:1007400000FA05F24EEA020E20FA04F301FA05F26D
:1007500043EA020321FA04F001F0004121FA04F215
:1007600020EA020000EBD3705EEA430E08BF20EAE5
:10077000D37070BD94F0000F0FD101F0004640001F
:1007800041EB010111F4801F08BF013CF7D041EAA1
:10079000060195F0000F18BF704703F000465200A5
:1007A00043EB030313F4801F08BF013DF7D043EA76
:1007B0000603704794EA0C0F0CEA135518BF95EA2C
:1007C0000C0F0CD050EA410618BF52EA4306D1D1B3
:1007D00081EA030101F000414FF0000070BD50EAD2
:1007E000410606BF1046194652EA430619D094EA5C
:1007F0000C0F02D150EA013613D195EA0C0F05D146
:1008000052EA03361CBF104619460AD181EA030199
:1008100001F0004141F0FE4141F470014FF0000051
:1008200070BD41F0FE4141F4780170BD70B54FF0EC
:10083000FF0C4CF4E06C1CEA11541DBF1CEA13556C
:1008400094EA0C0F95EA0C0F00F0A7F8A4EB05044E
:1008500081EA030E52EA03354FEA013100F0888045
:100860004FEA03334FF0805545EA131343EA12630E
:100870004FEA022245EA111545EA10654FEA0026C3
:100880000EF000419D4208BF964244F1FD0404F57C
:10089000407402D25B084FEA3202B61A65EB0305D8
:1008A0005B084FEA32024FF480104FF4002CB6EB95
:1008B000020E75EB030E22BFB61A754640EA0C0015
:1008C0005B084FEA3202B6EB020E75EB030E22BF55
:1008D000B61A754640EA5C005B084FEA3202B6EB96
:1008E000020E75EB030E22BFB61A754640EA9C0055
:1008F0005B084FEA3202B6EB020E75EB030E22BF25
:10090000B61A754640EADC0055EA060E18D04FEAE2
:10091000051545EA16754FEA06164FEAC30343EA82
:1009200052734FEAC2025FEA1C1CC0D111F4801F4F
:100930000BD141EA00014FF000004FF0004CB6E748
:1009400011F4801F04BF01430020B4F1FD0C88BFE7
:10095000BCF5E06F3FF6AFAEB5EB030C04BFB6EBF2
:10096000020C5FEA500C50F1000041EB045170BDE5
:100970000EF0004E4EEA113114EB5C04C2BFD4EB12
:100980000C0541EA045170BD41F480114FF0000E96
:10099000013C90E645EA060E8DE60CEA135594EA12
:1009A0000C0F08BF95EA0C0F3FF43BAF94EA0C0F15
:1009B0000AD150EA01347FF434AF95EA0C0F7FF48A
:1009C00025AF104619462CE795EA0C0F06D152EADE
:1009D00003353FF4FDAE1046194622E750EA4106C2
:1009E00018BF52EA43067FF4C5AE50EA41047FF4D3
:1009F0000DAF52EA43057FF4EBAE12E74FF0FF3C38
:100A000006E000BF4FF0010C02E000BF4FF0010C08
:100A10004DF804CD4FEA410C7FEA6C5C4FEA430C81
:100A200018BF7FEA6C5C1BD001B050EA410C0CBFD0
:100A300052EA430C91EA030F02BF90EA020F002032
:100A4000704710F1000F91EA030F58BF994208BF99
:100A500090422CBFD8176FEAE37040F00100704756
:100A60004FEA410C7FEA6C5C02D150EA013C07D1AD
:100A70004FEA430C7FEA6C5CD6D152EA033CD3D0F8
:100A80005DF8040B704700BF8446104662468C46F2
:100A90001946634600E000BF01B5FFF7B7FF002825
:100AA00048BF10F1000F01BD4DF808EDFFF7F4FF4E
:100AB0000CBF012000205DF808FB00BF4DF808EDD9
:100AC000FFF7EAFF34BF012000205DF808FB00BFFC
:100AD0004DF808EDFFF7E0FF94BF012000205DF81E
:100AE00008FB00BF4DF808EDFFF7CEFF94BF0120D3
:100AF00000205DF808FB00BF4DF808EDFFF7C4FFCC
:100B000034BF012000205DF808FB00BF4FEA410C14
:100B10007FEA6C5C02D150EA013C0AD14FEA430CF7
:100B20007FEA6C5C02D152EA033C02D14FF0000034
:100B300070474FF0010070474FEA410212F5001272
:100B400015D211D56FF47873B3EB625212D94FEA14
:100B5000C12343F0004343EA505311F0004F23FAFE
:100B600002F018BF404270474FF00000704750EA53
:100B7000013005D111F0004008BF6FF00040704710
:100B80004FF00000704700BF4FEA4102B2F1E0436E
:100B900024BFB3F5001CDCF1FE5C0DD901F0004C64
:100BA0004FEAC0024CEA5070B2F1004F40EB8300B4
:100BB00008BF20F00100704711F0804F21D113F1E0
:100BC0003872BCBF01F00040704741F480114FEA19
:100BD0005252C2F11802C2F1200C10FA0CF320FAA2
:100BE00002F018BF40F001004FEAC1234FEAD323BF
:100BF00003FA0CFC40EA0C0023FA02F34FEA430329
:100C0000CCE77FEA625307D150EA01331EBF4FF0B1
:100C1000FE4040F44000704701F0004040F0FE40CC
:100C200040F40000704700BF53B94AB9002908BF1B
:100C300000281CBF4FF0FF314FF0FF3000F00CB820
:100C4000ADF1080C6DE904CE12F0E0FFDDF804E030
:100C5000DDE9022304B07047704700BF10B5054CB2
:100C6000237833B9044B13B10448AFF30080012358
:100C7000237010BD7001002000000000D03E01086C
:100C800008B5034B1BB103490348AFF3008008BD0F
:100C90000000000074010020D03E010808B5036880
:100CA000984708BD00B583B00023019301A9094B03
:100CB000186805F0C0FF019B4BB14FF0E0234FF0E7
:100CC0008052C3F8042DBFF34F8FBFF36F8F03B073
:100CD0005DF804FB5404002038B504460D46012895
:100CE00005D01CB94FF6FF739D423FD038BD4FF67B
:100CF000FF739942F5D100221E491F480DF086FE70
:100D000000221E491E480DF081FE00221D491E488A
:100D10000DF07CFE1D4B64229A6000221A82C3F8FB
:100D2000AC201A605A60FF2283F8B0204FF6FF72A1
:100D3000A3F8B220A3F8B420A3F8B620A3F8B820F3
:100D4000A3F8BA20124807F013FF124807F010FF6B
:100D5000114807F00DFF114807F00AFF104807F08F
:100D600007FF104910480BF0B7FFBAE70E480BF029
:100D70003DFEBBE7004400404C0800200048004016
:100D800034070020001401401C060020200500202C
:100D90001C05002018050020140500201005002067
:100DA0000C050020001000405804002010B5044637
:100DB000836813B1032201469847204610BD70474F
:100DC00008B52DED028B284B93ED008ADFED277AD5
:100DD000B4EEE78AF1EE10FA3CD8254BD3ED006A69
:100DE000244B93ED007A37EE667AB2EE046AC7EED2
:100DF000067A77EEA77A204BC3ED007A68EE277A61
:100E0000DFED1E5A87EEA57A67EE067A76EEA77AB0
:100E100017EE900AFFF788FB11A3D3E90023FFF731
:100E2000DBFBFFF789FE164B1860164BD3ED007AFB
:100E300038EE278A0C4B83ED008ADFED0C7AB4EE96
:100E4000E78AF1EE10FA05DD0F4B00221A70064B0F
:100E500000221A60BDEC028B08BD00BFAFF300801A
:100E600048E17A14AE470B40F403002000003443FD
:100E7000FC030020F80300200C0400200000B44311
:100E8000E803002008040020E20300201F4BD3EDFC
:100E9000007A9FED1F7AF4EEC77AF1EE10FA34D89B
:100EA0001C4BD3ED006A1C4B93ED006A36EE666A6C
:100EB000F2EE045A86EE257A37EE077A174B83ED69
:100EC000007A27EE877A9FED165A87EE056A26EE9E
:100ED000257A76EE876AFDEEE66A124BC3ED006A6C
:100EE000114B93ED007A77EE877A084BC3ED007AC9
:100EF0009FED077AF4EEC77AF1EE10FA05DD0B4BA1
:100F000000221A70014B00221A607047F003002083
:100F100000003443040400200004002010040020DA
:100F20000000B443E403002008040020E103002093
:100F300008B5434B1B78002B35D1424B1B78002B57
:100F400031D1414B01221A70B42393FBF0F307EE29
:100F5000903AF8EEE77A3D4BC3ED007A3C4B1B68C4
:100F6000042B15D8DFE803F0032038495B00394B28
:100F7000394A1A60394B3A4A1A603A4B3A4A1A606F
:100F80003A4B3B4A1A6001232D4A13702D4A1370C5
:100F90002F4A136801331360052B04DD00232A4A0E
:100FA00013702B4A136008BD8721324807F016FEE4
:100FB0002821314807F012FE294B264A1360274AA0
:100FC00013602B4B274A1360284A136001231C4AE5
:100FD00013701C4A1370DBE71E4B214A1A601F4B2B
:100FE000264A1A60224B1F4A1360204A13600123CD
:100FF000134A1370134A1370CAE7164B1F4A1A603C
:10100000164B154A1A60174B194A1A60174B164AA5
:101010001A6001230A4A13700A4A1370B8E70E4B8C
:101020000C4A13600D4A13600F4B0E4A13600F4AAF
:1010300013600123024A1370024A1370A8E700BF2D
:10104000E2030020E1030020E00300200804002068
:10105000EC030020040400200000A442000400204F
:1010600000004842FC03002000007043F803002009
:10107000000006431C050020180500200000B842AF
:1010800010B52DED028B90B0DFED837AC0EE277A9C
:1010900017EE900AFFF748FA7DA3D3E90023FFF784
:1010A0009BFAFFF771FD08EE100A2422002107A821
:1010B0000FF066F84FF07E530F93B0EE480A0FF032
:1010C00003FD10EE104A8DED070AB0EE480A0FF04E
:1010D0003BFDF1EE407ACDED087A8DED0A0A0B94D6
:1010E000002204920592069201920292039231E04C
:1010F00002EB0C0310A800EB830313ED0C7A02EB58
:101100004200084410AC04EB800050ED097A0CEB6F
:10111000010E624800EB8E00D0ED006A67EEA66A11
:1011200037EE267A03ED0C7A13ED0F7A5C4800EB6C
:101130008E00D0ED006A67EEA67A77EE277A43ED4F
:101140000F7A01310129D3DD0CF1010CBCF1000F44
:1011500005DD0132012A04DC4FF0000CF6E7002126
:10116000F0E7504BD3ED008AF5EEC08AF1EE10FAAD
:101170002ED4F5EEC08AF1EE10FA25DDB5EEC08A68
:10118000F1EE10FA67D4B5EEC08AF1EE10FA1BDB6F
:101190009DED040A0FF072FD434B83ED000A9DEDB7
:1011A000050A0FF06BFD414B83ED000A9DED010A2E
:1011B0000FF064FD3E4B83ED000A9DED020A0FF037
:1011C0005DFD3C4B83ED000A10B0BDEC028B10BD01
:1011D000B5EEC08AF1EE10FA1BDB9DED040A0FF0AC
:1011E0004DFD354B83ED000A9DED050A0FF046FDE0
:1011F000324B83ED000A9DED010A0FF03FFD304BAD
:1012000083ED000A9DED020A0FF038FD2D4B83EDB2
:10121000000AB5EEC08AF1EE10FAAAD59DED040AD7
:101220000FF02CFD204B83ED000A9DED050A0FF019
:1012300025FD1E4B83ED000A9DED010A0FF01EFDFA
:101240001B4B83ED000A9DED020A0FF017FD194BB1
:1012500083ED000A8DE79DED040A0FF00FFD164B9C
:1012600083ED000A9DED050A0FF008FD134B83ED99
:10127000000A9DED010A0FF001FD114B83ED000AFC
:101280009DED020A0FF0FAFC0E4B83ED000A7AE79F
:10129000182D4454FB21094000003443343F010819
:1012A000283F0108C80100204803002078030020DF
:1012B0003803002068030020600300209003002012
:1012C000500300208003002010B52DED028B10EE9E
:1012D000904AF3EE0E7AB4EEE70AF1EE10FA01DD71
:1012E000B0EE670AFBEE0E7AB4EEE70AF1EE10FA02
:1012F00001D5B0EE670AAB4B83ED000A9FEDAA7AE9
:10130000C7EE017AA94BC3ED007AA94B1B78002BDD
:1013100040F0B680A74B1B68032B00F2A880DFE8E3
:1013200013F00400B200B1015402DFEDA38A77EE9E
:10133000A87AA24BC3ED007AA14BA24A1A60F6EE3E
:10134000007A20EE278AB0EE480AFFF799FEB1EE48
:10135000480AFFF795FE9C4BD3ED006AF1EE664A12
:101360009A4BC3ED004A9A4B93ED005A994B83ED8B
:10137000005A994B93ED006AB1EE464A974B83EDC4
:10138000004A974BD3ED005A964BC3ED005A964B4B
:10139000C3ED008A954B1C60954B93ED007A954BFD
:1013A00083ED007A944B1A68944B1A60944BD3EDFA
:1013B000007A944BC3ED007A934B1B6893490B6002
:1013C0009349C1ED008A93490C60934981ED004A2D
:1013D000B1EE654A914981ED004A9149C1ED004A5B
:1013E000F1EE454A8F49C1ED004A8F49C1ED008AAF
:1013F0008E490C608E49C1ED006A8E4981ED005A1C
:101400008D4981ED006A8D49C1ED005A8C49C1EDCD
:10141000008A8C49C1ED008AB1EE477A8A4981ED94
:10142000007A8A490A60F1EE677A894AC2ED007A49
:10143000884A1360884BC3ED008A884BC3ED008A4D
:10144000874B83ED006A874B83ED004A864BC3EDE3
:10145000006A864BC3ED004A854BC3ED008A854B7D
:10146000C3ED008A0123844A1370514A1370514A14
:10147000136801331360032B02DD134600221A6048
:10148000BDEC028B10BD9FED7D7A77EE877A4B4BDA
:10149000C3ED007A4A4B83ED007A4F4BD3ED006ADF
:1014A000F1EE664A494BC3ED004A4D4B93ED005AAD
:1014B000484B83ED005A444B93ED006AB1EE464A27
:1014C000464B83ED004A424BD3ED005A454BC3EDEA
:1014D000005A0023444A1360444A1360484A92ED7C
:1014E000007A444A82ED007A474A1168434A116003
:1014F0003F4AD2ED007A434AC2ED007A3E4A126872
:10150000424802604248036042480360424880ED1E
:10151000004AB1EE654A414880ED004A4048C0EDBE
:10152000004AF1EE454A3F48C0ED004A3E4803609C
:101530003E4803603E48C0ED006A3E4880ED005AD8
:101540003D4880ED006A3D48C0ED005A3C480360CC
:101550003C480460B1EE477A3B4880ED007A3B4856
:101560000160F1EE677A3A49C1ED007A39490A60C3
:10157000394A1360394A1460394A82ED006A394A9F
:1015800082ED004A384AC2ED006A384AC2ED004A8C
:10159000374A1360374B1C600123374A1370044AE3
:1015A000137064E7C8010020000034437402002077
:1015B000200400201C04002000000000180400206B
:1015C00014040020000034434803002004030020DA
:1015D000780300200003002060030020FC020020AC
:1015E00090030020F8020020F4020020F002002006
:1015F00050030020EC02002080030020E8020020BD
:1016000038030020E402002068030020E0020020EC
:10161000DC020020D8020020D4020020D0020020EA
:10162000CC020020C8020020C4020020C00200201A
:10163000BC020020B8020020B4020020B00200204A
:10164000AC020020A8020020A4020020A00200207A
:101650009C020020980200209402002090020020AA
:101660008C020020880200208402002080020020DA
:101670007C02002078020020200000200000B442FC
:10168000000000005FED028A77EEA87A964BC3ED6A
:10169000007A964B964A1A60F6EE007A20EE278A78
:1016A000B0EE480AFFF7ECFCB1EE480AFFF7E8FCA1
:1016B000904BD3ED006AF1EE664A8F4BC3ED004AC2
:1016C0008E4B93ED005A8E4B83ED005A8D4B93ED6C
:1016D000006AB1EE464A8C4B83ED004A8B4BD3ED4A
:1016E000005A8B4BC3ED005A8A4BC3ED008A8A4BDC
:1016F000C3ED008A894B93ED007A894B83ED007A24
:10170000884B1A68884B1A60884BD3ED007A884B57
:10171000C3ED007A874B1B6887490B608749C1ED91
:10172000008A8749C1ED008A864981ED004AB1EE01
:10173000654A854981ED004A8449C1ED004AF1EED0
:10174000454A8349C1ED004A8249C1ED008A824978
:10175000C1ED008A8149C1ED006A814981ED005ADD
:10176000804981ED006A8049C1ED005A7F49C1ED91
:10177000008A7F490C60B1EE477A7E4981ED007A9C
:101780007D490A60F1EE677A7C4AC2ED007A7C4AB4
:1017900013607C4BC3ED008A7B4B1C607B4B83ED5D
:1017A000006A7B4B83ED004A7A4BC3ED006A7A4BAB
:1017B000C3ED004A794BC3ED008A794B1C600123CD
:1017C000784A1370784A137051E69FED787A77EE75
:1017D000877A454BC3ED007A444B83ED007A494B41
:1017E000D3ED006AF1EE664A434BC3ED004A474B26
:1017F00093ED005A424B83ED005A3E4B93ED006A45
:10180000B1EE464A404B83ED004A3C4BD3ED005AC3
:101810003F4BC3ED005A00233E4A13603E4A14601A
:10182000424A92ED007A3E4A82ED007A414A1168BE
:101830003D4A1160394AD2ED007A3D4AC2ED007A44
:10184000384A12683C4802603C4803603C480460E7
:101850003C4880ED004AB1EE654A3B4880ED004AC5
:101860003A48C0ED004AF1EE454A3948C0ED004A19
:1018700038480360384804603848C0ED006A38488A
:1018800080ED005A374880ED006A3748C0ED005AB5
:101890003648036036480360B1EE477A354880ED3C
:1018A000007A35480160F1EE677A3449C1ED007A7B
:1018B00033490A60334A1360334A1360334A82ED76
:1018C000006A334A82ED004A324AC2ED006A324A67
:1018D000C2ED004A314A1360314A13600123314A94
:1018E0001370314A1370C2E518040020140400205C
:1018F0000000344360030020040300209003002014
:101900000003002048030020FC0200207803002090
:10191000F8020020F4020020F0020020380300202A
:10192000EC02002068030020E802002050030020A1
:10193000E402002080030020E0020020DC020020FE
:10194000D8020020D4020020D0020020CC020020C7
:10195000C8020020C4020020C0020020BC020020F7
:10196000B8020020B4020020B0020020AC02002027
:10197000A8020020A4020020A00200209C02002057
:101980009802002094020020900200208C02002087
:101990008802002084020020800200207C020020B7
:1019A0007802002020000020200400200000B44223
:1019B00010B400202A4B186000232A4A13602A4AD8
:1019C00013602A4A2A490A602A492B4C21602B4C71
:1019D00022602B4C21602B4C2360DFF818C12A4C6D
:1019E000C4F800C0294C2360294CC4F800C0294C1D
:1019F0002360294C2360294C2260294C2260294C09
:101A00002260294C2260294C2360294C2160294CFA
:101A10002160294C2160294C2160294C2360DFF88A
:101A2000D8C0284CC4F800C0274C2360274CC4F809
:101A300000C0274C2360274C2360274C2160274C93
:101A40002260274C216027490A60274A1360274BF0
:101A500001221A70264B18705DF8044B704700BFC6
:101A60001C0400201C0000201404002000005CC2A4
:101A70000403002000005C4200030020FC02002060
:101A8000F8020020F0020020EC020020E802002012
:101A9000E4020020E0020020D8020020D40200204E
:101AA000D0020020CC020020C8020020C00200208A
:101AB000BC020020B8020020B4020020B0020020C6
:101AC000A8020020A4020020A00200209C02002006
:101AD00098020020900200208C0200208802002042
:101AE00084020020800200207802002020000020D4
:101AF0002004002000009642000096C20000000072
:101B000038B52DED068BF0EE408AB0EE608AF0EE2F
:101B100041AA80EEA80A0EF0FDFEDFED959A60EE78
:101B2000297A17EE900AFEF7FFFC8BA3D3E9002376
:101B3000FEF77CFE00228F4BFEF798FB41EC100B6A
:101B40000FF04CF851EC100BFFF71EF807EE900A5F
:101B5000894B18609FED897A77EEC77A9FED887A76
:101B600077EE877AB0EE007A77EEC77A854B93ED01
:101B7000007A77EE877A17EE900AFEF7D5FC78A305
:101B8000D3E90023FEF728FDFEF7FEFF0AEE100A58
:101B90007D4B18607D4B93ED009AB8EEC99A39EEF3
:101BA0002A9A7B4B83ED009A68EEA88A28EE088A71
:101BB00038EE880A0EF08CFE764B83ED000AF3EEC9
:101BC000067A30EE678A744B83ED008A28EE080AA5
:101BD00069EE097A30EE270A0EF07AFEF0EE408ABE
:101BE0006E4B83ED000A89EE080A0EF093FEB0EE0C
:101BF000408A6B4B83ED000A28EEA89A9FED690A94
:101C000039EE000ADFED687A30EE670ADFED677AB9
:101C100068EEA78A80EE280A0EF02EFE644B83ED54
:101C2000000A38EE008A634B83ED008A68EE297A59
:101C300017EE900AFEF778FC47A3D3E90023FEF7DE
:101C4000F5FD41EC100B0EF0C9FF51EC100B00221A
:101C5000594BFEF70BFB02460B4643A1D1E90001AD
:101C6000FEF702FB04460D46544B1868FEF75CFC79
:101C700002460B4620462946FEF7F8FA38A3D3E978
:101C80000023FEF7A9FCFEF77FFF08EE900A4C4BFD
:101C90001860DFED4C7A77EEC97A9FED4B0A87EE3C
:101CA000800A0EF0E9FD494B83ED000A60EE297AC7
:101CB00017EE900AFEF738FC27A3D3E90023FEF7BE
:101CC000B5FD00223C4BFEF7CFFA41EC100B0EF0B5
:101CD00085FF53EC102B00203749FEF7C5FA02466A
:101CE0000B4621A1D1E90001FEF7BEFA04460D46DC
:101CF000374B1868FEF718FC02460B46204629466B
:101D0000FEF7B4FA16A3D3E90023FEF765FCFEF74D
:101D10003BFF08EE100A2F4B1860B0EE4A0A0EF097
:101D2000ADFF2D4CBDEEC00A84ED000AB0EE680A8E
:101D30000EF0A4FFBDEEC00A84ED010AB0EE480A21
:101D40000EF09CFFBDEEC00A84ED020ABDEC068BCE
:101D500038BD00BFAFF30080182D4454FB2109406B
:101D600048E17A14AE470B400000000000C072400A
:101D7000000034430080664010020020000007434A
:101D800000004343EC010020240200201800002042
:101D9000280200200C02002004020020080200207B
:101DA0000002002000902F45002099450000D442F9
:101DB000FC0100201802002000805640D8010020BD
:101DC0002002002000E8F04500E0E7451402002072
:101DD000D40100201C0200202C0200200000000082
:101DE00038B52DED068BF0EE408AB0EE608AB0EE8D
:101DF00041AA80EEA80A0EF08DFD9FED9D9A60EE3F
:101E0000097A17EE900AFEF78FFB93A3D3E900231C
:101E1000FEF70CFD0022974BFEF728FA41EC100B61
:101E20000EF0DCFE51EC100BFEF7AEFE07EE900A52
:101E3000914B186077EEC97A9FED907A77EE877AAA
:101E4000B0EE080A37EEC00A0EF018FF8C4B83ED97
:101E5000000AB4EEC90AF1EE10FA05DDDFED897A69
:101E600030EE670A83ED000A854C2068FEF75CFBC4
:101E70007BA3D3E90023FEF7AFFBFEF785FE09EE57
:101E8000900A2060804B93ED009AB8EEC99A39EE23
:101E90000A9A7E4B83ED009A68EEA88A28EE088A9B
:101EA00038EE880A0EF014FD794B83ED000AF3EE4C
:101EB000067A30EE678A774B83ED008A28EE080AAF
:101EC00069EE097A30EE270A0EF002FDF0EE408A44
:101ED000714B83ED000A89EE080A0EF01BFDB0EE8F
:101EE000408A6E4B83ED000A28EEA89ADFED6C7AEB
:101EF00079EE277A9FED6B7A77EEC77A9FED6A7A53
:101F000068EE878A87EEA80A0EF0B6FC674B83ED71
:101F1000000A30EE080A664B83ED000A9FED548AF2
:101F200060EE087A17EE900AFEF7FEFA4AA3D3E9AC
:101F30000023FEF77BFC41EC100B0EF04FFE51EC42
:101F4000100B00225B4BFEF791F902460B4646A1AF
:101F5000D1E90001FEF788F900224FF08043FEF737
:101F600085F904460D46544B1868FEF7DDFA024623
:101F70000B4620462946FEF779F939A3D3E9002319
:101F8000FEF72AFBFEF700FE08EE900A4B4B1860A6
:101F9000DFED4B7A77EEC97A9FED4A0A87EE800A29
:101FA0000EF06AFC484B83ED000A60EE087A17EEEB
:101FB000900AFEF7B9FA28A3D3E90023FEF736FC0E
:101FC00000223C4BFEF750F941EC100B0EF006FEE0
:101FD00053EC102B00203749FEF746F902460B461A
:101FE00021A1D1E90001FEF73FF90022374BFEF7AE
:101FF0003DF904460D46364B1868FEF795FA024641
:102000000B4620462946FEF731F915A3D3E90023F4
:10201000FEF7E2FAFEF7B8FD08EE100A2D4B186045
:10202000B0EE690A0EF02AFE2B4CBDEEC00A84ED1C
:10203000030AB0EE680A0EF021FEBDEEC00A84ED80
:10204000040AB0EE480A0EF019FEBDEEC00A84ED97
:10205000050ABDEC068B38BD182D4454FB21094000
:1020600048E17A14AE470B400000000000C0724007
:102070000000344300806640100200200000164338
:10208000240200200000B443140000202802002095
:102090000C020020040200200802002000020020A0
:1020A00000902F45002099450000D442FC010020FB
:1020B0001802002000805640E80100202002002085
:1020C00000E8F04500E0E745140200200000314040
:1020D000E40100201C0200202C020020000000006F
:1020E00038B52DED068BF0EE408AB0EE608AF0EE4A
:1020F00041AA80EEA80A0EF00DFCDFED959A60EE85
:10210000297A17EE900AFEF70FFA8BA3D3E9002382
:10211000FEF78CFB00228F4BFEF7A8F841EC100B6A
:102120000EF05CFD51EC100BFEF72EFD07EE900A51
:10213000894B18609FED897A77EEC77A9FED887A90
:1021400077EE877A874B93ED017A77EE877A17EEF1
:10215000900AFEF7E9F97AA3D3E90023FEF73CFAE7
:10216000FEF712FD0AEE100A7F4B18607F4B93EDCD
:10217000009AB8EEC99A39EE2A9A7D4B83ED009AFF
:1021800068EEA88A28EE088A38EE880A0EF0A0FBCE
:10219000784B83ED000AF3EE067A30EE678A764BD1
:1021A00083ED008A28EE080A69EE097A30EE270AE4
:1021B0000EF08EFBF0EE408A704B83ED000A89EE44
:1021C000080A0EF0A7FBB0EE408A6D4B83ED000AC3
:1021D00028EEA89A9FED6B0A39EE000ADFED6A7AC5
:1021E00030EE670ADFED697A68EEA78A80EE280A8A
:1021F0000EF042FB664B83ED000A38EE008A654B19
:1022000083ED008A68EE297A17EE900AFEF78CF9C2
:1022100049A3D3E90023FEF709FB41EC100B0EF0B4
:10222000DDFC51EC100B00225B4BFEF71FF8024661
:102230000B4645A1D1E90001FEF716F804460D460C
:10224000564B1868FEF770F902460B4620462946A1
:10225000FEF70CF83AA3D3E90023FEF7BDF9FEF729
:1022600093FC08EE900A4E4B1860DFED4E7A77EE45
:10227000C97A9FED4D0A87EE800A0EF0FDFA4B4BAE
:1022800083ED000A60EE297A17EE900AFEF74CF90A
:1022900029A3D3E90023FEF7C9FA00223E4BFDF73C
:1022A000E3FF41EC100B0EF099FC53EC102B0020D7
:1022B0003949FDF7D9FF02460B4623A1D1E90001B8
:1022C000FDF7D2FF00223A4BFDF7CEFF04460D4644
:1022D000384B1868FEF728F902460B462046294677
:1022E000FDF7C4FF16A3D3E90023FEF775F9FEF747
:1022F0004BFC08EE100A304B1860B0EE4A0A0EF0A4
:10230000BDFC2E4CBDEEC00A84ED060AB0EE680A94
:102310000EF0B4FCBDEEC00A84ED070AB0EE480A28
:102320000EF0ACFCBDEEC00A84ED080ABDEC068BD5
:1023300038BD00BFAFF30080182D4454FB21094085
:1023400048E17A14AE470B400000000000C0724024
:10235000000034430080664010020020000061430A
:102360000000D242EC0100202402002010000020D6
:10237000280200200C020020040200200802002095
:102380000002002000902F45002099450000D44213
:10239000FC0100201802002000805640D8010020D7
:1023A0002002002000E8F04500E0E745140200208C
:1023B00000000840D40100201C0200202C02002054
:1023C00038B52DED068BF0EE408AB0EE608AF0EE67
:1023D00041AA80EEA80A0EF09DFADFED8B9A60EE1E
:1023E000297A17EE900AFEF79FF883A3D3E900231A
:1023F000FEF71CFA0022854BFDF738FF41EC100B6D
:102400000EF0ECFB51EC100BFEF7BEFB07EE900A52
:102410007F4B18609FED7F7A77EEC77A9FED7E7ACB
:1024200077EE877A7D4B93ED027A77EE877A17EE17
:10243000900AFEF779F872A3D3E90023FEF7CCF8EF
:10244000FEF7A2FB0AEE100A754B1860754B93ED70
:10245000009AB8EEC99A39EE2A9A734B83ED009A26
:1024600068EEA88A28EE088A38EE880A0EF030FA5C
:102470006E4B83ED000AF3EE067A30EE678A6C4B02
:1024800083ED008A28EE080A69EE097A30EE270A01
:102490000EF01EFAF0EE408A664B83ED000A89EEDC
:1024A000080A0EF037FAB0EE408A634B83ED000A5B
:1024B00028EEA89A9FED610A39EE000ADFED607AF6
:1024C00030EE670ADFED5F7A68EEA78A80EE280AB1
:1024D0000EF0D2F95C4B83ED000A38EE008A5B4BBC
:1024E00083ED008A68EE297A17EE900AFEF71CF851
:1024F00041A3D3E90023FEF799F941EC100B0EF04C
:102500006DFB51EC100B0022514BFDF7AFFE044662
:102510000D46504B1868FEF707F802460B4620465A
:102520002946FDF7A3FE00224FF08043FDF79EFEF3
:1025300033A3D3E90023FEF74FF8FEF725FB08EE9F
:10254000900A454B1860DFED457A77EEC97A9FED2A
:10255000440A87EE800A0EF08FF9424B83ED000AA1
:1025600060EE297A17EE900AFDF7DEFF22A3D3E989
:102570000023FEF75BF90022354BFDF775FE41ECB9
:10258000100B0EF02BFB53EC102B00203049FDF705
:102590006BFE04460D46344B1868FDF7C5FF024636
:1025A0000B4620462946FDF761FE15A3D3E900231B
:1025B000FEF712F8FEF7E8FA08EE100A2B4B186047
:1025C000B0EE4A0A0EF05AFB294CBDEEC00A84ED6B
:1025D000090AB0EE680A0EF051FBBDEEC00A84EDA8
:1025E0000A0AB0EE480A0EF049FBBDEEC00A84EDBF
:1025F0000B0ABDEC068B38BD182D4454FB21094055
:1026000048E17A14AE470B40000034430080764026
:102610001002002000809D4300004343EC01002095
:102620002402002010000020280200200C020020BC
:1026300004020020080200200002002000902F4524
:10264000002099450000D442FC010020180200201F
:1026500000805640D00100202002002000E8F04514
:1026600000E0E74514020020CC0100201C020020FD
:102670002C0200200000000038B52DED048BF0EE98
:10268000408AB0EE608A944B93ED009AB8EEC99AF6
:1026900039EE019A914B83ED009A80EEA80A0EF074
:1026A00039F9DFED8F9A60EE297A17EE900AFDF77F
:1026B0003BFF85A3D3E90023FEF7B8F841EC100BEC
:1026C0000EF08CFA51EC100BFEF75EFA00EE100AD9
:1026D000844B1860DFED847A30EE270AF0EE087A3A
:1026E00030EE270A0EF0CAFA804B83ED000AB4EEF2
:1026F000E90AF1EE10FA05DDDFED7D7A30EE670ACA
:1027000083ED000A794C2068FDF70EFF70A3D3E932
:102710000023FDF761FFFEF737FA09EE900A20600B
:1027200068EEA88A28EE088A38EE880A0EF0D0F8FB
:10273000704B83ED000AF3EE067A30EE678A6E4B3B
:1027400083ED008A28EE080A69EE097A30EE270A3E
:102750000EF0BEF8F0EE408A684B83ED000A89EE79
:10276000080A0EF0D7F8B0EE408A654B83ED000AF8
:1027700028EEA89ADFED637A79EE277A9FED627AE8
:1027800077EEC77A9FED617A68EE878A87EEA80AAE
:102790000EF072F85E4B83ED000A30EE080A5D4BD6
:1027A00083ED000A9FED4E8A60EE087A17EE900ADC
:1027B000FDF7BAFE44A3D3E90023FEF737F841EC56
:1027C000100B0EF00BFA51EC100B0022524BFDF7E0
:1027D0004DFD00224FF08043FDF746FD04460D46B7
:1027E0004E4B1868FDF7A0FE02460B4620462946D0
:1027F000FDF73CFD36A3D3E90023FDF7EDFEFEF720
:10280000C3F908EE900A464B1860DFED467A77EE82
:10281000C97A9FED450A87EE800A0EF02DF8434BEA
:1028200083ED000A60EE087A17EE900AFDF77CFE51
:1028300025A3D3E90023FDF7F9FF0022364BFDF76E
:1028400013FD41EC100B0EF0C9F953EC102B0020D6
:102850003149FDF709FD0022354BFDF707FD044620
:102860000D46344B1868FDF75FFE02460B462046C6
:102870002946FDF7FBFC16A3D3E90023FDF7ACFEC8
:10288000FEF782F908EE100A2B4B1860B0EE690AC9
:102890000EF0F4F9294CBDEEC00A84ED0C0AB0EE3E
:1028A000680A0EF0EBF9BDEEC00A84ED0D0AB0EE39
:1028B000480A0EF0E3F9BDEEC00A84ED0E0ABDEC45
:1028C000048B38BDAFF30080182D4454FB21094020
:1028D00048E17A14AE470B40140000202802002083
:1028E00000003443100200200000164324020020A0
:1028F0000000B4430C020020040200200802002063
:102900000002002000902F45002099450000D4428D
:10291000FC0100201802002000805640E001002049
:102920002002002000E8F04500E0E7451402002006
:1029300000000840DC0100201C0200202C020020C6
:1029400038B52DED068BF0EE408AB0EE608AF0EEE1
:1029500041AA80EEA80A0DF0DDFFDFED8D9A60EE52
:10296000297A17EE900AFDF7DFFD85A3D3E900234E
:10297000FDF75CFF41EC100B0EF030F951EC100B41
:10298000FEF702F907EE900A824B18609FED827AFB
:1029900077EEC77A9FED817A77EE877AB0EE087A84
:1029A00077EEC77A7E4B93ED037A77EE877A17EE50
:1029B000900AFDF7B9FD74A3D3E90023FDF70CFEDF
:1029C000FEF7E2F80AEE100A764B1860764B93EDAC
:1029D000009AB8EEC99A39EE2A9A744B83ED009AA0
:1029E00068EEA88A28EE088A38EE880A0DF070FF93
:1029F0006F4B83ED000AF3EE067A30EE678A6D4B7B
:102A000083ED008A28EE080A69EE097A30EE270A7B
:102A10000DF05EFFF0EE408A674B83ED000A89EE11
:102A2000080A0DF077FFB0EE408A644B83ED000A90
:102A300028EEA89A9FED620A39EE000ADFED617A6E
:102A400030EE670ADFED607A68EEA78A80EE280A2A
:102A50000DF012FF5D4B83ED000A38EE008A5C4BEF
:102A600083ED008A68EE297A17EE900AFDF75CFD87
:102A700043A3D3E90023FDF7D9FE41EC100B0EF080
:102A8000ADF851EC100B0022524BFDF7EFFB044662
:102A90000D46514B1868FDF747FD02460B46204690
:102AA0002946FDF7E3FB00224FF08043FDF7DEFBF4
:102AB00035A3D3E90023FDF78FFDFEF765F808EE97
:102AC000900A464B1860DFED467A77EEC97A9FEDA3
:102AD000450A87EE800A0DF0CFFE434B83ED000AD6
:102AE00060EE297A17EE900AFDF71EFD24A3D3E9C4
:102AF0000023FDF79BFE0022364BFDF7B5FB41ECB2
:102B0000100B0EF06BF853EC102B00203149FDF741
:102B1000ABFB0022354BFDF7A9FB04460D46344BB9
:102B20001868FDF701FD02460B4620462946FDF7D1
:102B30009DFB15A3D3E90023FDF74EFDFEF724F816
:102B400008EE100A2B4B1860B0EE4A0A0EF096F809
:102B5000294CBDEEC00A84ED0F0AB0EE680A0EF0F3
:102B60008DF8BDEEC00A84ED100AB0EE480A0EF0F2
:102B700085F8BDEEC00A84ED110ABDEC068B38BDA8
:102B8000182D4454FB21094048E17A14AE470B400C
:102B90000000344310020020000034420000D24202
:102BA000EC01002024020020180000202802002050
:102BB0000C02002004020020080200200002002075
:102BC00000902F45002099450000D442FC010020D0
:102BD0001802002000805640D00100202002002072
:102BE00000E8F04500E0E74514020020000008403E
:102BF000CC0100201C0200202C02002010B504464D
:102C000001210CF057FB002120460CF0D1FB0220E3
:102C100004F082FD012120460CF0CAFB032004F0E1
:102C20007BFD002120460CF0C3FB002120460CF068
:102C300041FB084A012120460CF0E4FB064B1860DA
:102C4000064B83FB00230344C017C0EB6310044B07
:102C5000186010BD40420F003004002009CB3D8DAC
:102C60003404002038B52DED028B0C46FFF7C6FF6B
:102C7000284D28602046FFF7C1FF274B1860274BDF
:102C800093ED007AF7EE008A78EEC78A244B93ED35
:102C9000000A28EE800AD5ED007AF8EEE77A67EEB2
:102CA000877A30EE270A83ED000A1E4BD3ED007AB7
:102CB00068EEA78A07EE900AF8EEE77A67EE877A61
:102CC00078EEA78AC3ED008A0DF0D8FFB0EE408AF7
:102CD000B0EE680A0DF0D2FF38EE408AF0EE087AC6
:102CE00028EE278AFDEEC87A17EE903A0E4AC2ED1A
:102CF000007A192B02DD134619221A600A4B1B6851
:102D000013F1190F03DA084B6FF018021A60BDECCB
:102D1000028B38BD24040020280400200400002079
:102D2000900100208C0100202C040020012906DDE8
:102D300001F1FF3C00239C4514DD10B403E0704713
:102D400001339C450BDD50F823105A1C50F82240EB
:102D5000A142F5DD40F8234040F82210F0E75DF88D
:102D6000044B70477047000030B59DB00546002405
:102D700008E028460CF070FA1CAB03EB840343F820
:102D8000640C0134182CF4DD192103A8FFF7CEFFE1
:102D900041F288330093002340F2FF3219460F9826
:102DA0000CF050F8FDF7AEFB00220F4BFDF73EFD97
:102DB0009FED091B41EC100B0DF09EFC51EC100B2C
:102DC00007A3D3E90023FDF707FCFDF7B5FE1DB00F
:102DD00030BD00BFAFF300801283C0CAA145F3BF6E
:102DE000EE7C3F355EBA3B4000408F4008B5FFF7B0
:102DF000BBFF034B1860022004F08EFC08BD00BF2F
:102E0000080500200000000008B52DED028B1E4BC8
:102E1000D3ED008A1D4B93ED008A28EE888A1C4B67
:102E200083ED008A1B4B1868FDF77EFB14A3D3E9E2
:102E30000023FDF743FE10B1164B174A1A60174BDB
:102E4000D3ED007A78EEE78A124B93ED007AC8EE64
:102E5000877A134B93ED007A67EE877A114BC3EDB7
:102E6000007A38EE278AF2EE047A28EE278A0E4B93
:102E700083ED008ABDEC028B08BD00BFAFF300807C
:102E800095D626E80B2E113EC40100200C00002030
:102E9000C0010020B00100205F708930A80100202F
:102EA000A4010020BC010020B80100200023054A35
:102EB0001360054A1360054A1360054A1360054A0A
:102EC00013607047C0010020BC010020C401002035
:102ED000A8010020B801002070B504461546084638
:102EE000FFF78CFE3A4E30602846FFF787FE394BDD
:102EF000186033681B1A07EE903AF8EEE77A364B03
:102F0000C3ED007AFFF780FF07EE904AF8EEE77A0C
:102F1000324B93ED007AF4EEC77AF1EE10FA01D855
:102F2000C3ED007A644207EE904AF8EEE77A2B4B45
:102F300093ED007AF4EEC77AF1EE10FA01DBC3EDFF
:102F4000007A264BD3ED007AF5EEC07AF1EE10FA56
:102F500026DDF1EE677A224BC3ED007A214BC3EDFB
:102F6000007A214B00221A60204C214D2B682360EF
:102F70000CF0ECFA07EE900AF8EE677AC5ED007AED
:102F800094ED007A77EEC77ADFED1A6A87EEA67ABB
:102F9000194B83ED007A104B1A68184B1A6070BDFC
:102FA000F5EEC07AF1EE10FA07D400230C4A136054
:102FB0000C4A13600C4A1360D6E70A4B00221A60D1
:102FC000094BC3ED007A064BC3ED007ACCE700BF96
:102FD0002404002028040020C4010020B80100209F
:102FE00098010020A00100209C010020AC010020DD
:102FF000B401002000007A44B0010020A8010020A4
:1030000070B5044615460846FFF7F8FD3A4E3060A5
:103010002846FFF7F3FD394B18603368C01A07EEF6
:10302000900AF8EEE77A364BC3ED007AFFF7ECFE34
:1030300007EE904AF8EEE77A324B93ED007AF4EE21
:10304000C77AF1EE10FA01D8C3ED007A644207EEB8
:10305000904AF8EEE77A2B4B93ED007AF4EEC77ABC
:10306000F1EE10FA01DBC3ED007A264BD3ED007AC6
:10307000F5EEC07AF1EE10FA24DD234B00221A603F
:10308000224BC3ED007A224BC3ED007A214C224D36
:103090002B6823600CF05AFA07EE900AF8EE677A74
:1030A000C5ED007A94ED007A77EEC77ADFED1B6A02
:1030B00087EEA67A1A4B83ED007A114B1A68194BEA
:1030C0001A6070BDF5EEC07AF1EE10FA07D4002355
:1030D0000F4A13600C4A13600C4A1360D6E7F1EEF6
:1030E000677A0B4BC3ED007A074BC3ED007A074BB1
:1030F00000221A60CAE700BF240400202804002030
:10310000C4010020B8010020A00100209C01002083
:1031100098010020AC010020B401002000007A4496
:10312000B0010020A801002070B5044615460846ED
:10313000FFF764FD3A4E30602846FFF75FFD394BDC
:10314000186033681B1A07EE903AF8EEE77A364BB0
:10315000C3ED007AFFF758FE07EE904AF8EEE77AE3
:10316000324B93ED007AF4EEC77AF1EE10FA01D803
:10317000C3ED007A644207EE904AF8EEE77A2B4BF3
:1031800093ED007AF4EEC77AF1EE10FA01DBC3EDAD
:10319000007A264BD3ED007AF5EEC07AF1EE10FA04
:1031A00026DDF1EE677A224BC3ED007A214B002237
:1031B0001A60214BC3ED007A204C214D2B6823600F
:1031C0000CF0C4F907EE900AF8EE677AC5ED007AC4
:1031D00094ED007A77EEC77ADFED1A6A87EEA67A69
:1031E000194B83ED007A104B1A68184B1A6070BDAA
:1031F000F5EEC07AF1EE10FA07D400230C4A136002
:103200000C4A13600C4A1360D6E70A4BC3ED007AF0
:10321000094B00221A60064BC3ED007ACCE700BFD1
:103220002404002028040020C4010020B80100204C
:1032300098010020A00100209C010020AC0100208A
:10324000B401002000007A44B0010020A801002051
:1032500070B5044615460846FFF7D0FC3A4E30607C
:103260002846FFF7CBFC394B186033681B1A07EE72
:10327000903AF8EEE77A364BC3ED007AFFF7C4FDDB
:1032800007EE904AF8EEE77A324B93ED007AF4EECF
:10329000C77AF1EE10FA01D8C3ED007A644207EE66
:1032A000904AF8EEE77A2B4B93ED007AF4EEC77A6A
:1032B000F1EE10FA01DBC3ED007A264BD3ED007A74
:1032C000F5EEC07AF1EE10FA24DD234B00221A60ED
:1032D000224BC3ED007A224BC3ED007A214C224DE4
:1032E0002B6823600CF032F907EE900AF8EE677A4B
:1032F000C5ED007A94ED007A77EEC77ADFED1B6AB0
:1033000087EEA67A1A4B83ED007A114B1A68194B97
:103310001A6070BDF5EEC07AF1EE10FA07D4002302
:103320000F4A13600C4A13600C4A1360D6E7F1EEA3
:10333000677A0B4BC3ED007A074BC3ED007A074B5E
:1033400000221A60CAE700BF2404002028040020DD
:10335000C4010020B8010020A00100209C01002031
:1033600098010020AC010020B401002000007A4444
:10337000B0010020A80100209FED275A35EE406AD9
:1033800076EE017A254BC3ED007A70EE055A75EEA4
:10339000C17A234BC3ED007ADFED227A77EEC06A63
:1033A00036EEE07A204B83ED007A70EE277A37EE26
:1033B000A07A1E4B83ED007A9FED1D7A37EE407A9E
:1033C00077EE014A1B4BC3ED004A30EE450A30EE62
:1033D000415A194B83ED005A75EEA05A174BC3EDB5
:1033E000005A36EE606A164B83ED006A77EEC17ABA
:1033F000144BC3ED007A76EE816A134BC3ED006A7D
:1034000030EE200A114B83ED000A37EE607A104B44
:1034100083ED007A704700BF00005C4294030020F7
:103420007C030020000000008003002068030020CF
:1034300000005CC28803002070030020900300207D
:1034400078030020840300206C0300208C030020FC
:1034500074030020844B1B78002B40F0518210B580
:103460002DED028B10EE904AF0EE410AB42393FB4F
:10347000F0F307EE903AF8EEE77A7C4BC3ED007A72
:103480007B4B1B68032B73D8DFE813F004007E002E
:103490005E01CD019FED778A77EE887A764BC3ED9A
:1034A000007A764B764A1A60B0EE611AFFF764FF35
:1034B000744B754A1360754A1168754A1160754AF4
:1034C0001360754A1168754A1160754A1460754A2F
:1034D00075490A60754908687549086075490A6048
:1034E000754A1168754A1160754A1460754A13600F
:1034F000754A1168754A1160754A1360754B1A68F0
:10350000754B1A60754B1C60754B764A1360764A92
:103510001168764A1160764A1360764A1168764AD5
:103520001160764A82ED008A754A76490A607649CA
:1035300008687649086076490A60764A1168764AD2
:103540001160764A82ED008A754A1360754A1168E7
:10355000754A1160754A1360754B1A68754B1A608D
:10356000754B83ED008A0123744A13703E4A137031
:103570003F4A136801331360032B02DD1346002218
:103580001A60BDEC028B10BD9FED6D7A77EE877AE5
:10359000394BC3ED007A394B83ED007AB0EE611AF6
:1035A000FFF7EAFE374B384A13603B4A1168384A46
:1035B0001160384A1360354A1168384A1160002298
:1035C00037490A603749384801603B48D0F800C0A5
:1035D0003748C0F800C037480160344908683749A7
:1035E000086037490A6037490B603A49086837492B
:1035F000086037490B60344B1968374B1960374BFB
:103600001A60374B374A13603A4A1168374A1160DB
:10361000374A1360344A1168374A1160374A1460D8
:10362000374A38490A603B490868384908603849D0
:103630000A60354A1168384A1160384A1460384ABD
:1036400013603B4A1168384A1160384A1360354BA1
:103650001A68384B1A60384B1C600123374A1370C4
:10366000014A137084E700BF200400207402002088
:103670001C04002000000000180400201404002096
:103680000000344300005CC20403002094030020C7
:1036900000030020FC0200207C030020F802002030
:1036A000F002002000009842EC020020800300207D
:1036B000E8020020E402002068030020E00200206D
:1036C000D8020020D402002088030020D00200206D
:1036D000CC02002070030020C8020020C00200209D
:1036E00000005C42BC02002090030020B8020020D1
:1036F000B402002078030020B0020020A8020020BD
:10370000000098C2A402002084030020A002002030
:103710009C0200206C0300209802002090020020F0
:103720008C0200208C0300208802002084020020EC
:103730007403002080020020780200202000002076
:103740000000B442000000001FED028A77EE887A84
:103750006C4BC3ED007A6C4B6C4A1A60B0EE611A88
:10376000FFF70AFE6A4B6B4A13606B4A11686B4A9B
:1037700011606B4A13606B4A11686B4A11606B4AA7
:1037800082ED008A6A4A6B490A606B4908686B4996
:1037900008606B490A606B4A11686B4A11606B4A9A
:1037A00082ED008A6A4A13606A4A11686A4A1160A7
:1037B0006A4A13606A4B1A686A4B1A606A4B83ED57
:1037C000008A6A4B6A4A13606A4A11686A4A116041
:1037D0006A4A13606A4A11686A4A11606A4A146048
:1037E0006A4A6B490A606B4908686B4908606B4913
:1037F0000A606B4A11686B4A11606B4A14606B4A2D
:1038000013606B4A11686B4A11606B4A13606B4B13
:103810001A686B4B1A606B4B1C6001236A4A137069
:103820006A4A1370A4E69FED6A7A77EE877A354B81
:10383000C3ED007A344B83ED007AB0EE611AFFF7E6
:103840009BFD334B334A1360364A1168334A11608B
:10385000334A1360304A1168334A1160334A1460A6
:10386000334A34490A6037490868344908603449A2
:103870000A60314A1168344A1160344A1460344A8B
:103880001360374A1168344A1160344A1360314B6F
:103890001A68344B1A60344B1C60344B344A136042
:1038A000374A1168344A1160344A1360314A11684A
:1038B000344A1160002234490A60344934480160B6
:1038C0003748046834480460344801603149086866
:1038D0003449086034490A6034490B603749086844
:1038E0003449086034490B60314B1968344B196016
:1038F000344B1A600123344A1370344A137037E68C
:10390000704700BF18040020140400200000344356
:1039100000005CC2040300207C03002000030020A0
:10392000FC02002094030020F8020020F002002096
:1039300000009842EC02002068030020E80200200A
:10394000E402002080030020E0020020D8020020D2
:10395000D402002070030020D0020020CC020020FE
:1039600088030020C8020020C002002000005C4242
:10397000BC02002078030020B8020020B40200201E
:1039800090030020B0020020A8020020000098C28E
:10399000A40200206C030020A00200209C02002052
:1039A0008403002098020020900200208C02002056
:1039B0007403002088020020840200208C03002071
:1039C0008002002078020020200000202004002037
:1039D0000000B442DFED2A6A76EEC06A76EE817AA4
:1039E000284BC3ED007ADFED287A30EE676A36EEB9
:1039F000417A264B83ED007A9FED257A77EE405A87
:103A000075EEA15A234BC3ED005A70EE075A75EEBE
:103A1000E15A214BC3ED005A76EEA06A1F4BC3ED6D
:103A2000006A36EE606A1E4B83ED006A70EE276A0C
:103A300036EEC16A1B4B83ED006A77EEC07A37EE33
:103A4000811A194B83ED001A30EE477A37EE617A0E
:103A5000164B83ED007A9FED167A37EE407A37EEFB
:103A6000217A144B83ED007A76EEE06A124BC3EDB7
:103A7000006A77EEA07A114BC3ED007A704700BF61
:103A800000005CC26403002000005C424C03002084
:103A90000000984250030020380300205803002003
:103AA000400300206003002048030020540300204E
:103AB000000098C23C0300205C0300204403002067
:103AC000904B1B78002B40F0638210B52DED028BDC
:103AD00010EE904AF0EE410AB0EE611AF3EE047A6D
:103AE000B4EEE70AF1EE10FA01DDB0EE670AFBEE84
:103AF000047AB4EEE70AF1EE10FA01D5B0EE670AE7
:103B0000F6EE007A62EE271AB42393FBF0F307EE89
:103B1000903AF8EEE77A7C4BC3ED007A7B4B1B685A
:103B2000032B73D8DFE813F004007E005A01C901AB
:103B30009FED778A77EE887A764BC3ED007A764BE5
:103B4000764A1A60FFF746FF754B1A68754B1A6084
:103B5000754A764B1A60764B1968764B1960764B2E
:103B60001A60764B1C60764B1968764B1960764B61
:103B700083ED008A754B1968754B1960754B83EDA1
:103B8000008A754B1C60754B1968754B1960754B35
:103B900075490B60754908687549086075490B607F
:103BA00075490C60754908687549086075490A606F
:103BB000754908687549086075490A60754A82ED5B
:103BC000008A754A1168754A1160754A82ED008A4B
:103BD000744A1168744A1160744A82ED008A744A0A
:103BE00082ED008A734A1168734A1160734A136048
:103BF000734A1168734A1160734A1360734B83ED03
:103C0000008A0123724A13703E4A13703F4A1368B8
:103C100001331360032B02DD134600221A60BDEC52
:103C2000028B10BD9FED6B7A77EE877A394BC3ED2F
:103C3000007A394B83ED007AFFF7CCFE3C4B1A68D3
:103C4000384B1A603849394B1960354B1A68394B73
:103C50001A60394B19600023384A13603B4A1068D8
:103C6000384A1060384A1360354A1068384A106084
:103C7000384A1360384A13603C4A1068384A10606A
:103C8000384A394802603548D0F800C03848C0F892
:103C900000C038480260384803603B48D0F800C094
:103CA0003748C0F800C0374801603448D0F800C039
:103CB0003648C0F800C03648016036490C603949C2
:103CC00008683649086036490B6033490868364948
:103CD000086036490B60364B1C60394B1968364B0F
:103CE0001960364B1A60334B1968364B1960364BE6
:103CF0001A60364B1C600123354A1370014A137059
:103D000084E700BF20040020740200201C0400206F
:103D100000000000180400201404002000003443B8
:103D2000640300200403002000005C420003002024
:103D30004C030020FC020020F8020020F0020020CA
:103D400050030020EC020020E8020020380300208D
:103D5000E4020020E0020020D802002058030020E6
:103D6000D402002000005CC2D002002040030020EA
:103D7000CC020020C8020020C00200206003002006
:103D8000BC020020B802002048030020B40200203A
:103D9000B0020020A802002054030020A40200204A
:103DA000A00200203C0300209C020020980200207A
:103DB000900200205C0300208C020020880200207A
:103DC00044030020840200208002002078020020AA
:103DD000200000200000B442000000001FED028A15
:103DE00077EE887A6B4BC3ED007A6B4B6B4A1A60A7
:103DF000FFF7F0FD6A4B1A686A4B1A606A4A6B4B10
:103E00001A606B4B19686B4B19606B4B1A606B4BEC
:103E100083ED008A6A4B19686A4B19606A4B83ED1F
:103E2000008A6A4B19686A4B19606A4B83ED008AF5
:103E3000694B83ED008A694B1968694B1960694BBE
:103E400069490B60694908686949086069490B60FC
:103E5000694981ED008A69490868694908606949CA
:103E60000A60694908686949086069490A60694ADD
:103E70001460694A1168694A1160694A82ED008AD2
:103E8000684A1168684A1160684A82ED008A684A87
:103E90001460684A1168684A1160684A1360684A89
:103EA0001168684A1160684A1360684B1C600123FE
:103EB000674A1370674A1370A8E69FED677A77EE3A
:103EC000877A344BC3ED007A334B83ED007AFFF7EA
:103ED00081FD374B1A68334B1A603349334B1960F5
:103EE0002F4B1A68334B1A60334B1960334B1C60ED
:103EF000364B1A68334B1A600023334A1360304A3A
:103F00001068334A1060334A1360334A1460374AEA
:103F10001068334A1060334A334802602F48D0F8A3
:103F200000C03348C0F800C0324802603248046024
:103F30003548046832480460324801602F480468FC
:103F4000324804603248016032490B6035490868E4
:103F50003249086032490B602F49086832490860CD
:103F600032490B6032490B603549086832490860B4
:103F700032490A602F4908683249086032490A60AC
:103F8000324A13600123324A1370324A13703DE6FD
:103F9000704700BF180400201404002000003443C0
:103FA0004C0300200403002000005C4200030020BA
:103FB00064030020FC020020F8020020F002002030
:103FC00038030020EC020020E8020020500300200B
:103FD000E4020020E0020020D8020020400300207C
:103FE000D402002000005CC2D00200205803002050
:103FF000CC020020C8020020C0020020480300209C
:10400000BC020020B802002060030020B40200209F
:10401000B0020020A80200203C030020A4020020DF
:10402000A0020020540300209C02002098020020DF
:1040300090020020440300208C020020880200200F
:104040005C0300208402002080020020780200200F
:1040500020000020200400200000B44200000000E6
:104060002DE9F84F2DED068B664B1B78002B00F0E9
:10407000B980654BD3ED006A644BD3ED007A76EEE0
:10408000E76AF2EE047A86EEA77A37EE077A604B9B
:1040900083ED007A5F4BD3ED006A5F4B93ED007ABE
:1040A00076EEC76A86EEA77A37EE077A5B4B83ED2A
:1040B000007A5B4BD3ED006A5A4B93ED007A76EEB3
:1040C000C76A86EEA77A37EE077A574B83ED007AF8
:1040D000564BD3ED006A564B93ED007A76EEC76AE5
:1040E00086EEA77A37EE077A524B83ED007A524B71
:1040F000D3ED006A514B93ED007A76EEC76A86EEF7
:10410000A77A37EE077A4E4B83ED007A4D4BD3ED0D
:10411000006A4D4B93ED007A76EEC76A86EEA77A79
:1041200037EE077A494B83ED007A494BD3ED006AAD
:10413000484B93ED007A76EEC76A86EEA77A37EEA3
:10414000077A454B83ED007A444BD3ED006A444B2C
:1041500093ED007A76EEC76A86EEA77A37EE077A95
:10416000404B83ED007A404BD3ED006A3F4B93ED1B
:10417000007A76EEC76A86EEA77A37EE077A3C4B6E
:1041800083ED007A3B4BD3ED006A3B4B93ED007A15
:1041900076EEC76A86EEA77A37EE077A374B83ED5D
:1041A000007A374BD3ED006A364B93ED007A76EE0A
:1041B000C76A86EEA77A37EE077A334B83ED007A2B
:1041C000324BD3ED006A324B93ED007A76EEC76A3C
:1041D00086EEA77A37EE077A2E4B83ED007A094BED
:1041E00000221A702C4B93ED008A2C4BD3ED007AF1
:1041F000B4EEE78AF1EE10FA52D9BDEC068BBDE8B9
:10420000F88F00BF20000020FC02002004030020E3
:1042100034030020F80200200003002030030020B7
:10422000E4020020EC02002014030020E002002041
:10423000E802002010030020CC020020D40200205D
:1042400024030020C8020020D00200202003002008
:10425000B4020020BC0200200C030020B0020020A9
:10426000B8020020080300209C020020A4020020C5
:104270002C03002098020020A00200202803002028
:10428000840200208C0200201C03002080020020F9
:1042900088020020180300201C00002014040020C5
:1042A000C94BD3ED007A68EE277A9FEDC89AC7EE26
:1042B000899AF2EE048A69EEA89AC54BD3ED007A8A
:1042C00079EEA79AC34BC3ED009AC34BD3ED007AA6
:1042D00068EE277A87EE89AA2AEE28AABF4BD3ED8B
:1042E000007A3AEE27AABE4B83ED00AABD4B1868B0
:1042F000FCF71AF904460D4618EE100AFCF714F9FB
:10430000AFA3D3E90023FCF767F941EC100B0CF0E5
:104310006BFA57EC106B32463B4620462946FCF7B9
:104320005BF9FCF731FC0AEE900AAF4B1860AF4B1B
:1043300093ED007A28EE077AC7EE097A67EEA87A3D
:10434000AB4B93ED007A77EE877AAA4BC3ED007AF8
:10435000A94B93ED007A28EE077AC7EE097A67EE4B
:10436000A87AA64B93ED007A77EE877AA44AC2ED3D
:10437000007AA44B1868FCF7D7F802460B46304683
:104380003946FCF729F9FCF7FFFB9F4908609F4B72
:1043900093ED007A28EE077AC7EE097A67EEA87ADD
:1043A0009B4B93ED007A77EE877A9A48C0ED007ABE
:1043B000994B93ED007A28EE077AC7EE097A67EEFB
:1043C000A87A964B93ED007A77EE877A944CC4EDF9
:1043D000007A944B1868FCF7A7F802460B46304663
:1043E0003946FCF7F9F8FCF7CFFBDFF8A482C8F8F0
:1043F00000008D4B93ED007A28EE077AC7EE097A1C
:1044000067EEA87A894B93ED007A77EE877A884D2C
:10441000C5ED007A874B93ED007A28EE077AC7EE58
:10442000097A67EEA87A844B93ED007A77EE877A63
:10443000824CC4ED007A824B1868FCF775F802468E
:104440000B4630463946FCF7C7F8FCF79DFB7D4C20
:1044500020607D4B93ED007A28EE077AC7EE097A4B
:1044600067EEA87A794B93ED007A77EE877ADFF8DA
:104470002492C9ED007A764B93ED007A28EE077A04
:10448000C7EE097A67EEA87A724B93ED007A77EE61
:10449000877ADFF804A2CAED007A6F4B1868FCF740
:1044A00043F802460B4630463946FCF795F8FCF7D0
:1044B0006BFBDFF8E8B1CBF80000684B93ED007AB6
:1044C00028EE077AC7EE097A67EEA87A644B93ED77
:1044D000007A77EE877A634DC5ED007A624BD3EDB3
:1044E000007A28EE278AC8EE097A67EEA87A5F4B31
:1044F00093ED007A77EE877A5D4BC3ED007A5D4BE2
:104500001868FCF711F802460B4630463946FCF7AE
:1045100063F8FCF739FB584F3860B0EE6A1AF0EEDA
:104520004A0AB0EE690AFDF7EBFA9BED001ADAEDE4
:10453000000A99ED000AFDF753FC98ED001A384E79
:10454000D6ED000A334890ED000AFDF7C9FD97ED5E
:10455000001A4748D0ED000A95ED000AFDF730FF3C
:10456000294991ED001A264AD2ED000A214B93ED1C
:10457000000AFEF781F894ED001A304CD4ED000AE1
:104580002B4D95ED000AFEF7DBF93C4BD3ED007A9D
:104590003B4A92ED007A77EE877AC3ED007A394B89
:1045A00093ED007AF4EEC77AF1EE10FA7FF725AEBC
:1045B000354B1A68314B1A60344B00221A701CE6D6
:1045C000399D52A246DF913F340300200000B443DE
:1045D00004030020DC03002030030020000300203F
:1045E000D8030020F0020020D40300201403002090
:1045F000EC020020A003002010030020E8020020AD
:104600009C030020D80200209803002024030020EF
:10461000D4020020C403002020030020D002002088
:10462000C0030020C00200200C030020BC020020B8
:10463000D003002008030020B8020020CC03002093
:10464000A8020020C80300202C030020A4020020A0
:1046500028030020A0020020900200201C0300205C
:104660008C020020B80300201803002088020020DC
:10467000B403002078020020B00300201C000020BA
:1046800074020020140400201804002020040020DC
:10469000BC030020AC030020A8030020A4030020DA
:1046A000022A05D8DFE802F00206080000230360B2
:1046B000002070470160FBE70B680360F8E7012A00
:1046C00002D101600020704708B5FFF7E9FF002024
:1046D00008BD08B54FF6FF710120FCF7FDFA08BDD3
:1046E00008B54FF6FF710020FCF7F6FA08BD000090
:1046F00070B505460E46002404E0315D03480AF01B
:104700008AF80134A542F8DC70BD00BF4C080020D7
:1047100000B585B0FF238DF800308DF80130FE2301
:104720008DF8023009238DF8033083238DF804308F
:104730001E238DF8053004238DF80630C0F30722C0
:10474000C0B2831813218DF807108DF808008DF87A
:1047500009200C228DF80A2003228DF80B20C3F1CA
:104760007F4303F57F0303F57E4331338DF80C302F
:1047700069460D20FFF7BCFF05B05DF804FB0000A3
:1047800070B505460E46002404E0315D03480AF08A
:1047900042F80134A542F8DC70BD00BF4C0800208F
:1047A00030B59BB0C0F30723C0B2FF228DF80420C0
:1047B0008DF80520FE228DF806205E228DF8072058
:1047C00083228DF808201E228DF809204FF0040E58
:1047D0008DF80AE0C54A1168C1F30725CCB261190A
:1047E0000144194401F202214FF0010C8DF80BC075
:1047F0008DF80C408DF80D508DF80E008DF80F30AF
:104800005468C4F30725E4B204EB050C84449C44CB
:104810000CF1020C8C4402218DF810108DF811401F
:104820008DF812508DF813008DF814309168C1F393
:104830000725CCB2611901441944033161444FF09A
:10484000030C8DF815C08DF816408DF817508DF8B3
:1048500018008DF81930D468C4F30725E4B204EBCE
:10486000050C84449C44F4448C448DF81AE08DF883
:104870001B408DF81C508DF81D008DF81E301169FD
:10488000C1F3072ECCB204EB0E01014419440531EB
:10489000614405258DF81F508DF820408DF821E0EA
:1048A0008DF822008DF823305469C4F3072EE4B24A
:1048B00004EB0E0C84449C440CF1060C8C44062141
:1048C0008DF824108DF825408DF826E08DF827000E
:1048D0008DF828309169C1F3072ECCB204EB0E019C
:1048E000014419440731614407258DF829508DF89A
:1048F0002A408DF82BE08DF82C008DF82D30D469EE
:10490000C4F3072EE4B204EB0E0C84449C440CF177
:10491000080C8C4408218DF82E108DF82F408DF84E
:1049200030E08DF831008DF83230116AC1F3072E76
:10493000CCB204EB0E01014419440931614409254C
:104940008DF833508DF834408DF835E08DF8360011
:104950008DF83730546AC4F3072EE4B204EB0E0C22
:1049600084449C440CF10A0C8C440A218DF83810C4
:104970008DF839408DF83AE08DF83B008DF83C30E9
:10498000916AC1F3072ECCB204EB0E010144194425
:104990000B3161440B258DF83D508DF83E408DF86C
:1049A0003FE08DF840008DF84130D46AC4F3072E03
:1049B000E4B204EB0E0C84449C440CF10C0C8C44CB
:1049C0000C218DF842108DF843408DF844E08DF8AD
:1049D00045008DF84630116BC1F3072ECCB204EBC5
:1049E0000E01014419440D3161440D258DF84750E5
:1049F0008DF848408DF849E08DF84A008DF84B302D
:104A0000546BC4F3072EE4B204EB0E0C84449C44B4
:104A10000CF10E0C8C440E218DF84C108DF84D408D
:104A20008DF84EE08DF84F008DF85030916BC1F34A
:104A3000072ECCB204EB0E01014419440F3161443E
:104A40000F258DF851508DF852408DF853E08DF8B8
:104A500054008DF85530D46BC4F3072EE4B204EB48
:104A60000E0C84449C440CF1100C8C4410218DF8E5
:104A700056108DF857408DF858E08DF859008DF894
:104A80005A30116CC1F307245FFA81FE0EEB04016A
:104A9000014419441131614411258DF85B508DF8A2
:104AA0005CE08DF85D408DF85E008DF85F30526CF3
:104AB000C2F307245FFA82FC0CEB040202441A449E
:104AC00012320A4412218DF860108DF861C08DF801
:104AD00062408DF863008DF86430D3438DF8653003
:104AE00001A96220FFF74CFE1BB030BD2C02002054
:104AF00008B52DED068BDFED3C8A9FED3C9AB3EEB9
:104B0000041AF0EE680AB0EE490AFCF7F9FF9FEDCF
:104B1000388A9FED38AAB3EE041AF0EE480AB0EED8
:104B20004A0AFDF75DF9B3EE041AF0EE490AB0EE59
:104B3000490AFDF7D5FAB3EE041AF0EE490AB0EED1
:104B4000680AFDF73DFCDFED2C9AB3EE041AF0EE97
:104B5000480AB0EE690AFDF78FFDB3EE041AF0EED5
:104B6000680AB0EE680AFDF7EBFE4FF40070FFF73D
:104B700017FE4FF4FA700AF0F1FCB0EE481AF0EEAE
:104B8000680AB0EE490AFCF7BBFFB0EE481AF0EE37
:104B9000480AB0EE4A0AFDF723F9B0EE481AF0EEE3
:104BA000490AB0EE490AFDF79BFAB0EE481AF0EE5A
:104BB000490AB0EE680AFDF703FCB0EE481AF0EEC1
:104BC000480AB0EE690AFDF757FDB0EE481AF0EE5C
:104BD000680AB0EE680AFDF7B3FE4FF40070FFF705
:104BE000DFFDBDEC068B08BD00005C4200005CC22E
:104BF00000000000000096C20000964208B50CE0DC
:104C0000234B1B78ABBB00231A461946214800688A
:104C100001F0CFFE112002F07FFD4FF0FF311E4B5F
:104C2000186802F010F94FF0FF311A4B186802F0C3
:104C30000AF90128EED1FFF713FA184BD3ED007AE9
:104C4000F4EE677AF1EE10FADAD6154BD3ED007A6E
:104C5000F4EE677AF1EE10FAD2D6124BD3ED007A69
:104C6000F4EE677AF1EE10FACAD60020FFF798FD4D
:104C7000C6E7FCF70BF9FCF7A3F80B4B19680B48D8
:104C800003F0ACFF0A4B1868FFF742FDBBE700BF1B
:104C9000E0030020500400205404002024020020DF
:104CA000200200201C020020E40300201405002044
:104CB000E803002010B58AB0404803681B68312122
:104CC00098473F4C214607A80AF010F9214604A84E
:104CD0000AF00CF9214601A80AF008F9002406E0C0
:104CE000364809F0FBFFC1B27C2911D101343348A9
:104CF00009F06BFD002834D0002CF1D0012C24D019
:104D00002E4809F0EBFFC1B201A80AF01AF9EEE74C
:104D100007A80AF016F9099B032BE8D929492A4864
:104D20000AF02AF802E0254809F0D8FF264809F0E1
:104D30004CFD0028F7D101A80AF090F804A80AF069
:104D40008DF807A80AF08AF819E01C4809F0C6FF98
:104D5000C1B27C2901D10234C9E704A80AF0F1F8F4
:104D6000C5E7174907A80AF0FAF850B101A80AF0F8
:104D700075F804A80AF072F807A80AF06FF80AB0EC
:104D800010BD0F4904A80AF0EAF80028EED10C493A
:104D900001A80AF0E4F80028E8D107A80AF0F9F819
:104DA0000A4B186004A80AF0F4F8094B186001A82F
:104DB0000AF0EFF8074B1860D8E700BF340700206F
:104DC000E0410108E83E0108BC0E0020340000204C
:104DD0004404002040040020F0B587B06F4CC62189
:104DE000204609F0EBFDC721204609F0BFFD062251
:104DF0006B49204609F01AFF4FF4FA600AF0AEFB47
:104E0000684C2421204609F0D9FD2321204609F0D1
:104E1000ADFD06224FF4E131204609F007FF624C58
:104E20001721204609F0CAFD1621204609F09EFDF3
:104E300006224FF41651204609F0F8FE4FF4FA60AE
:104E40000AF08CFB0021CC200AF034FA01213E202C
:104E50000AF030FA554E40F2DC524421304603F05D
:104E600015FF534D40F2DC524221284603F00EFF5D
:104E7000504C40F2DC523C21204603F007FF4E4FDD
:104E800040F2DC524321384603F000FF4FF4FA7041
:104E90000AF064FB4FF44D70FFF73AFC48213846A6
:104EA00003F09CFE8721304603F098FEB42128468B
:104EB00003F094FE0021204603F090FE4FF4FA70B8
:104EC0000AF04CFBFFF714FE4FF47A600AF046FB41
:104ED000FDF7ECFF04E0FFF7EDFE0F200AF03EFBCC
:104EE000364B1B68002BF6DB03220021012001F06A
:104EF0003FFD334C2060012001F02BFE314B186048
:104F00002368002B45D000240194012600962346F7
:104F10004FF480622C492D4802F05EFA019402237E
:104F2000009323464FF4007229492A4802F054FAAC
:104F3000294D284607F06CFA5321284607F0E9FC72
:104F4000324644F26721284607F0A6FD02940394F6
:104F500004940594214B0293214B0593214B049318
:104F600002A9284607F01CFF02A8FBF71FFF0094C8
:104F70004FF0FF3332463146284607F09DFB284666
:104F800007F09DFC284607F075FB02F057FA07B0C2
:104F9000F0BD1549044809F0EFFEB4E74C080020C5
:104FA00040420F0034070020BC0E00201C050020EA
:104FB000100500200C0500201405002034000020FE
:104FC0005404002050040020183F010879540008C0
:104FD000203F0108FD4B000858040020A50C0008E4
:104FE0009D0C0008BF460008FC3E010810B5D9B969
:104FF000FFF760FE0F2002F08FFB184B1B68184A6A
:1050000012689B1A174A136013F1B40F03DA03F501
:10501000B47214490A60134A1268B42A03DDA3F576
:10502000B473104A136010BD0446FFF743FE0F200F
:1050300002F072FB0A4B1B681C44084B1C60B4F561
:10504000B47F02DBA4F5B4701860044B1B68002B1E
:10505000CEDA03F5B473014A1360C9E748040020AF
:10506000340000204C04002038B50446FFF722FE2F
:105070000F2002F051FB444B1B68444A12689B1AF4
:1050800007EE903AF8EEE77A414AC2ED007A9FEDDA
:10509000417AF4EEC77AF1EE10FA08D503F5B4724E
:1050A00007EE902AF8EEE77A394AC2ED007A384ADC
:1050B00092ED007ADFED387AB4EEE77AF1EE10FA8D
:1050C00007DDA3F5B47307EE903AF8EEE77AC2ED88
:1050D000007AFDF799FE07EE904AF8EEE77A2F4B3B
:1050E00093ED007AF4EEC77AF1EE10FA01D8C3ED31
:1050F000007A644207EE904AF8EEE77A274B93ED88
:10510000007AF4EEC77AF1EE10FA01DBC3ED007A13
:10511000224BD3ED007AF5EEC07AF1EE10FA21DDE4
:105120001F4BC3ED007A1F4B00221A601E4C1F4D0F
:105130002B6823600AF00AFA07EE900AF8EE677A05
:10514000C5ED007A94ED007A77EEC77ADFED186A44
:1051500087EEA67A174B83ED007A0D4B1A68164B33
:105160001A6038BDF5EEC07AF1EE10FA05D40023CE
:105170000C4A13600A4A1360D8E7094B00221A60F0
:10518000084BC3ED007AD1E73C0400203400002036
:10519000C4010020000034C300003443B8010020E3
:1051A0009C010020A0010020AC010020B4010020DF
:1051B00000007A44B0010020A801002038B5044660
:1051C000FFF778FD0F2002F0A7FA444B1B68444A12
:1051D00012689B1A07EE903AF8EEE77A414AC2ED60
:1051E000007A9FED417AF4EEC77AF1EE10FA08D515
:1051F00003F5B47207EE902AF8EEE77A394AC2ED69
:10520000007A384A92ED007ADFED387AB4EEE77A28
:10521000F1EE10FA07DDA3F5B47307EE903AF8EE5D
:10522000E77AC2ED007AFDF7EFFD07EE904AF8EE5F
:10523000E77A2F4B93ED007AF4EEC77AF1EE10FA8D
:1052400001D8C3ED007A644207EE904AF8EEE77A9F
:10525000274B93ED007AF4EEC77AF1EE10FA01DBFA
:10526000C3ED007A224BD3ED007AF5EEC07AF1EE71
:1052700010FA21DD1F4B00221A601F4BC3ED007A8C
:105280001E4C1F4D2B6823600AF060F907EE900A50
:10529000F8EE677AC5ED007A94ED007A77EEC77A7A
:1052A000DFED186A87EEA67A174B83ED007A0D4B77
:1052B0001A68164B1A6038BDF5EEC07AF1EE10FA96
:1052C00005D400230C4A13600A4A1360D8E70A4B3E
:1052D00000221A60074BC3ED007AD1E73C0400209E
:1052E00034000020C4010020000034C30000344317
:1052F000B80100209C010020A0010020AC0100208A
:10530000B401002000007A44B0010020A801002070
:1053100038B50446FFF7CEFC0F2002F0FDF9484BEC
:105320001B68484A12689B1A07EE903AF8EEE77A33
:10533000454AC2ED007A9FED457AF4EEC77AF1EE68
:1053400010FA08D503F5B47207EE902AF8EEE77A62
:105350003D4AC2ED007A3C4A92ED007ADFED3C7A9C
:10536000B4EEE77AF1EE10FA07DDA3F5B47307EEB9
:10537000903AF8EEE77AC2ED007AFDF745FD07EEC8
:10538000904AF8EEE77A334B93ED007AF4EEC77A61
:10539000F1EE10FA01D8C3ED007A644207EE904AAC
:1053A000F8EEE77A2B4B93ED007AF4EEC77AF1EE44
:1053B00010FA01DBC3ED007A264BD3ED007AF5EE4F
:1053C000C07AF1EE10FA24DD234B00221A60234B41
:1053D000C3ED007A224BC3ED007A224C224D2B689C
:1053E00023600AF0B3F807EE900AF8EE677AC5ED8D
:1053F000007A94ED007A77EEC77ADFED1C6A87EECB
:10540000A67A1B4B83ED007A0F4B1A68194B1A6072
:1054100038BDF5EEC07AF1EE10FA05D400230E4A3D
:1054200013600E4A1360D8E7F1EE677A0C4BC3EDB8
:10543000007A094BC3ED007A084B00221A60CCE7D2
:105440003C04002034000020C4010020000034C3CC
:1054500000003443B8010020A00100209C0100207E
:1054600098010020AC010020B401002000007A4423
:10547000B0010020A801002008B5AE4B1968AE4B62
:105480001868FDF7EFFB1CE0AC4C4FF0FF312068D3
:1054900001F0D9FCAA4B93ED000AB3EE081ADFED38
:1054A000A90AB8EEC00AFBF70FFFA24B1968A24B7E
:1054B0001868FDF7D7FB00231A461946206801F04B
:1054C00078FA9F4B1B68002BB8BF5B42012BDBDCDB
:1054D0009D4B1B68012BD7D0032BD5D0954B18685B
:1054E000FDF78CFB994B186022E0924B1A68924BA7
:1054F00019681820FDF7ACFE904C4FF0FF31206882
:1055000001F0A1FC924B93ED002A924BD3ED001ACF
:10551000914B93ED001A1A20DFED900AB3EE060AC4
:10552000FEF7CEFA00231A461946206801F041FA28
:10553000864B1B680F2BD8DD834B1B68012BD4D007
:10554000032BD2D022E07B4B1A687B4B19681820C2
:10555000FDF7C2FC794C4FF0FF31206801F073FC7D
:105560007B4B93ED002A7B4BD3ED001A7A4B93EDE6
:10557000001A1A20DFED790AB3EE060AFEF7A0FA48
:1055800000231A461946206801F013FA6F4B1B6876
:10559000142BD8DC6C4B1B68012BD4D0032BD2D03E
:1055A000644B1968644B1868FDF75CFB1CE0634CA6
:1055B0004FF0FF31206801F046FC614B93ED000A8B
:1055C000B3EE061ADFED650AB8EEC00AFBF77CFE03
:1055D000584B1968584B1868FDF744FB00231A46CE
:1055E0001946206801F0E5F9554B1B68002BB8BF40
:1055F0005B42012BDBDC544B1B68012BD7D0032B08
:10560000D5D0FFF757FB0F2002F086F8544B1A68ED
:10561000544B1A603C21544803F0E0FA0F2002F08A
:105620007BF8A521514803F0D9FAC420FDF7DEFB31
:105630004F4BD3ED006AF7EE007A77EEE67A4D4BEA
:1056400093ED007A67EE877A4B4A92ED007AB8EED6
:10565000C77A27EE267A77EE877AC3ED007A3DE0A7
:10566000CA20FDF7C3FB444B1B680D2B40F3AF80F2
:105670001A20FFF7F9FC314C4FF0FF31206801F0A0
:10568000E2FB344BD3ED001A334B93ED001A1E208E
:10569000DFED3A0AB3EE0A0AFDF7DCFE00231A46F4
:1056A0001946206801F085F9C420FDF79FFB304BB7
:1056B000D3ED006AF7EE007A77EEE67A2D4B93EDA4
:1056C000007A67EE877A2C4A92ED007AB8EEC77AB4
:1056D00027EE267A77EE877AC3ED007A254B93ED95
:1056E000007AF1EE0C7AB4EEE77AF1EE10FAB7DC5C
:1056F000154B1B68012BB3D0032BB1D0C420FDF791
:1057000075FB1B4BD3ED006AF7EE007A77EEE67A75
:10571000184B93ED007A67EE877A174A92ED007A7C
:10572000B8EEC77A27EE267A77EE877AC3ED007A4D
:1057300095E000BF300000202C0000205004002025
:105740002C040020000008421C0400202804002033
:10575000980100209C010020A001002000000C42C4
:10576000340000203C040020100500201C0500200F
:1057700008000020940100200805002000002042BD
:105780001E20FFF7C5FDA04C4FF0FF31206801F04F
:105790005AFB9E4B93ED002A9D4BD3ED001A9D4B77
:1057A00093ED001A1E20DFED9C0AB3EE0E0AFEF701
:1057B00087F900231A461946206801F0FAF8CA2032
:1057C000FDF714FB954B1B681B2B3FF751AF934B19
:1057D0001B681B2BD4DD924B1B68012BD0D0032BF5
:1057E000CED045E7CA20FDF701FB8C4B1B680D2B83
:1057F00077DD1A20FFF738FC834C4FF0FF3120682B
:1058000001F021FB824BD3ED001A824B93ED001A7D
:105810001E20DFED840AB3EE0A0AFDF71BFE00230B
:105820001A461946206801F0C4F8C420FDF7DEFAD4
:105830007D4BD3ED006AF7EE007A77EEE67A7B4B8C
:1058400093ED007A67EE877A744A92ED007AB8EEAB
:10585000C77A27EE267A77EE877AC3ED007A734B04
:1058600093ED007AF1EE0C7AB4EEE77AF1EE10FAED
:10587000B8DC6B4B1B68012BB4D0032BB2D0B42126
:105880006B4803F0ABF90F2001F046FF01215A20CD
:10589000FFF7ACFB4BE01E20FFF73AFD5A4C4FF0F0
:1058A000FF31206801F0CFFA584B93ED002A584B96
:1058B000D3ED001A574B93ED001A1E20DFED560A68
:1058C000B3EE0E0AFEF7FCF800231A4619462068CC
:1058D00001F06FF8CA20FDF789FA504B1B681B2BAB
:1058E00087DC4E4B1B681B2BD5DD4D4B1B68012BFA
:1058F000D1D0032BCFD07CE7434C4FF0FF31206851
:1059000001F0A1FA4B4B93ED000AB3EE0A1ADFED5A
:105910004A0AB8EEC00AFBF7D7FC00231A4619461C
:10592000206801F046F800210846FFF75FFB414B75
:105930001B68002BB8BF5B42052BDDDC384B1B68B6
:10594000012BD9D0032BD7D03C4B1A683C4B1A60A3
:105950006FF05B033B4A13603B4A13603B4A1360A2
:105960003B4B1868FDF74AF93A4B18603A4B1868F8
:10597000FDF744F9394B186029E0354B1A68364B6E
:1059800019681220FDF73CFB1F4C4FF0FF312068D7
:1059900001F059FA1D4B93ED002A1D4BD3ED001A6F
:1059A0001C4B93ED001A1A20DFED2D0AB3EE020A0C
:1059B000FEF786F800231A461946206800F0F9FF22
:1059C000C420FDF713FA154B1B680E2B6DDD214B20
:1059D0001B680A2BD1DC214B1B680A2BCDDC104B3A
:1059E0001B68012BC9D0032BC7D01B4B1868FDF7D0
:1059F00005F91A4B1860092862DC174B1968144B1B
:105A00001868FDF72FF9E6E0500400209801002007
:105A10009C010020A0010020000030420805002069
:105A20001C040020000020420800002094010020F7
:105A3000100500204C04002000000C42340000201F
:105A40003C0400201800002014000020100000205A
:105A50002800002028040020240000202404002026
:105A6000000000421220FFF7A9FBAE4C4FF0FF31BF
:105A7000206801F0E8F9AC4BD3ED001AAB4B93ED85
:105A8000001A1A20DFEDAA0ABBEE020AFDF7E2FCBB
:105A900000231A461946206800F08BFFC420FDF74A
:105AA000A5F9A44B1B68102B91DCA24B1B68102B93
:105AB000D8DDA14B1B68012BD4D0032BD2D086E7B5
:105AC0009E4B1868FDF79AF89D4B186029E09B4B98
:105AD0001A689C4B19681220FDF792FA914C4FF00E
