:020000040800F2
:10000000000002202DEA00087DEA0008BD880008F3
:100010007DEA0008CB880008D988000800000000AD
:10002000000000000000000000000000418A0008FD
:100030007DEA000800000000D18A000851D30008C2
:100040007DEA00087DEA00087DEA00087DEA0008F4
:100050007DEA00087DEA000849D400084FD4000872
:1000600055D400085BD4000861D400087DEA00087C
:100070007DEA00087DEA00087DEA00087DEA0008C4
:100080007DEA00087DEA00087DEA00087DEA0008B4
:100090007DEA00087DEA00087DEA000867D40008D0
:1000A00021CD000839CC000835CD00085DCC000812
:1000B00071CC000885CC000899CC00087594000824
:1000C000819400088D940008999400087DEA000846
:1000D0007DEA0008E1E10008F9E1000815E2000806
:1000E0007DD400087DEA00087DEA000849CD0008BB
:1000F000E9CC00085DCD00080DCD00087DEA0008C0
:100100007DEA00087DEA0008ADCC00087DEA000821
:1001100031E2000849E20008C1CC0008D5CC000853
:100120007DEA00087DEA00087DEA00087DEA000813
:100130007DEA00087DEA00087DEA00087DEA000803
:100140007DEA00087DEA00087DEA00087DEA0008F3
:100150007DEA00087DEA00087DEA000861E2000807
:10016000A5940008B19400087DEA00087DEA000823
:100170007DEA00087DEA00087DEA00080000000032
:080180007DEA00087DEA000899
:1001900010F8012B11F8013B012A28BF9A42F7D031
:1001A000D01A7047034613F8012B002AFBD1181A06
:1001B0000138704781F0004102E000BF83F0004346
:1001C00030B54FEA41044FEA430594EA050F08BFF2
:1001D00090EA020F1FBF54EA000C55EA020C7FEAB6
:1001E000645C7FEA655C00F0E2804FEA5454D4EB33
:1001F0005555B8BF6D420CDD2C4480EA020281EAFD
:10020000030382EA000083EA010180EA020281EA34
:100210000303362D88BF30BD11F0004F4FEA013186
:100220004FF4801C4CEA113102D0404261EB410195
:1002300013F0004F4FEA03334CEA133302D052421B
:1002400063EB430394EA050F00F0A780A4F10104D7
:10025000D5F1200E0DDB02FA0EFC22FA05F2801811
:1002600041F1000103FA0EF2801843FA05F35941F7
:100270000EE0A5F120050EF1200E012A03FA0EFC76
:1002800028BF4CF0020C43FA05F3C01851EBE371A0
:1002900001F0004507D54FF0000EDCF1000C7EEBBD
:1002A00000006EEB0101B1F5801F1BD3B1F5001FFB
:1002B0000CD349085FEA30004FEA3C0C04F101041A
:1002C0004FEA445212F5800F80F09A80BCF1004F43
:1002D00008BF5FEA500C50F1000041EB045141EAC5
:1002E000050130BD5FEA4C0C404141EB0101013C8E
:1002F00028BFB1F5801FE9D291F0000F04BF01467D
:100300000020B1FA81F308BF2033A3F10B03B3F14E
:1003100020020CDA0C3208DD02F1140CC2F10C02DE
:1003200001FA0CF021FA02F10CE002F11402D8BF3C
:10033000C2F1200C01FA02F120FA0CFCDCBF41EA08
:100340000C019040E41AA2BF01EB0451294330BDD7
:100350006FEA04041F3C1CDA0C340EDC04F11404B4
:10036000C4F1200220FA04F001FA02F340EA03008B
:1003700021FA04F345EA030130BDC4F10C04C4F1D1
:10038000200220FA02F001FA04F340EA03002946B1
:1003900030BD21FA04F0294630BD94F0000F83F4FB
:1003A000801306BF81F480110134013D4EE77FEADE
:1003B000645C18BF7FEA655C29D094EA050F08BF2A
:1003C00090EA020F05D054EA000C04BF194610460B
:1003D00030BD91EA030F1EBF0021002030BD5FEA4F
:1003E000545C05D14000494128BF41F0004130BD77
:1003F00014F580043CBF01F5801130BD01F00045CB
:1004000045F0FE4141F470014FF0000030BD7FEA3D
:10041000645C1ABF194610467FEA655C1CBF0B4638
:10042000024650EA013406BF52EA033591EA030F4F
:1004300041F4002130BD00BF90F0000F04BF002147
:10044000704730B54FF4806404F132044FF000057A
:100450004FF0000150E700BF90F0000F04BF0021F3
:10046000704730B54FF4806404F1320410F0004559
:1004700048BF40424FF000013EE700BF42004FEA54
:10048000E2014FEA31014FEA02701FBF12F07F43D1
:1004900093F07F4F81F06051704732F07F4208BF88
:1004A000704793F07F4F04BF41F40021704730B58F
:1004B0004FF4607401F0004521F000411CE700BFDB
:1004C00050EA010208BF704730B54FF000050AE05E
:1004D00050EA010208BF704730B511F0004502D55F
:1004E000404261EB41014FF4806404F132045FEA61
:1004F000915C3FF4D8AE4FF003025FEADC0C18BF0A
:1005000003325FEADC0C18BF033202EBDC02C2F1FB
:10051000200300FA03FC20FA02F001FA03FE40EA8D
:100520000E0021FA02F11444BDE600BF70B54FF091
:10053000FF0C4CF4E06C1CEA11541DBF1CEA13556F
:1005400094EA0C0F95EA0C0F00F0DEF82C4481EAD7
:10055000030621EA4C5123EA4C5350EA013518BFF7
:1005600052EA033541F4801143F4801338D0A0FBE4
:1005700002CE4FF00005E1FB02E506F00042E0FB91
:1005800003E54FF00006E1FB03569CF0000F18BF97
:100590004EF0010EA4F1FF04B6F5007F64F540743F
:1005A00004D25FEA4E0E6D4146EB060642EAC621D2
:1005B00041EA55514FEAC52040EA5E504FEACE2E3F
:1005C000B4F1FD0C88BFBCF5E06F1ED8BEF1004F42
:1005D00008BF5FEA500E50F1000041EB045170BDBE
:1005E00006F0004646EA010140EA020081EA030102
:1005F000B4EB5C04C2BFD4EB0C0541EA045170BDFE
:1006000041F480114FF0000E013C00F3AB8014F177
:10061000360FDEBF002001F0004170BDC4F10004C0
:10062000203C35DA0C341BDC04F11404C4F1200541
:1006300000FA05F320FA04F001FA05F240EA02009C
:1006400001F0004221F0004110EBD37021FA04F6D2
:1006500042EB06015EEA430E08BF20EAD37070BD8C
:10066000C4F10C04C4F1200500FA04F320FA05F0EB
:1006700001FA04F240EA020001F0004110EBD370ED
:1006800041F100015EEA430E08BF20EAD37070BD5D
:10069000C4F1200500FA05F24EEA020E20FA04F336
:1006A00001FA05F243EA020321FA04F001F00041E5
:1006B00021FA04F220EA020000EBD3705EEA430E56
:1006C00008BF20EAD37070BD94F0000F0FD101F085
:1006D0000046400041EB010111F4801F08BF013CBE
:1006E000F7D041EA060195F0000F18BF704703F0FC
:1006F0000046520043EB030313F4801F08BF013D83
:10070000F7D043EA0603704794EA0C0F0CEA13553E
:1007100018BF95EA0C0F0CD050EA410618BF52EAF8
:100720004306D1D181EA030101F000414FF00000FE
:1007300070BD50EA410606BF1046194652EA43060C
:1007400019D094EA0C0F02D150EA013613D195EA80
:100750000C0F05D152EA03361CBF104619460AD1C8
:1007600081EA030101F0004141F0FE4141F47001D2
:100770004FF0000070BD41F0FE4141F4780170BDC2
:1007800070B54FF0FF0C4CF4E06C1CEA11541DBF27
:100790001CEA135594EA0C0F95EA0C0F00F0A7F829
:1007A000A4EB050481EA030E52EA03354FEA013156
:1007B00000F088804FEA03334FF0805545EA131369
:1007C00043EA12634FEA022245EA111545EA106531
:1007D0004FEA00260EF000419D4208BF964244F1C8
:1007E000FD0404F5407402D25B084FEA3202B61AE7
:1007F00065EB03055B084FEA32024FF480104FF4BB
:10080000002CB6EB020E75EB030E22BFB61A75462E
:1008100040EA0C005B084FEA3202B6EB020E75EBC1
:10082000030E22BFB61A754640EA5C005B084FEA29
:100830003202B6EB020E75EB030E22BFB61A7546F6
:1008400040EA9C005B084FEA3202B6EB020E75EB01
:10085000030E22BFB61A754640EADC0055EA060EC2
:1008600018D04FEA051545EA16754FEA06164FEA05
:10087000C30343EA52734FEAC2025FEA1C1CC0D1B1
:1008800011F4801F0BD141EA00014FF000004FF03E
:10089000004CB6E711F4801F04BF01430020B4F1FF
:1008A000FD0C88BFBCF5E06F3FF6AFAEB5EB030CB7
:1008B00004BFB6EB020C5FEA500C50F1000041EBB4
:1008C000045170BD0EF0004E4EEA113114EB5C0481
:1008D000C2BFD4EB0C0541EA045170BD41F4801154
:1008E0004FF0000E013C90E645EA060E8DE60CEA5C
:1008F000135594EA0C0F08BF95EA0C0F3FF43BAF79
:1009000094EA0C0F0AD150EA01347FF434AF95EA2F
:100910000C0F7FF425AF104619462CE795EA0C0F13
:1009200006D152EA03353FF4FDAE1046194622E7E0
:1009300050EA410618BF52EA43067FF4C5AE50EABA
:1009400041047FF40DAF52EA43057FF4EBAE12E7AA
:100950004FF0FF3C06E000BF4FF0010C02E000BF8B
:100960004FF0010C4DF804CD4FEA410C7FEA6C5C6E
:100970004FEA430C18BF7FEA6C5C1BD001B050EA11
:10098000410C0CBF52EA430C91EA030F02BF90EAFC
:10099000020F0020704710F1000F91EA030F58BFBB
:1009A000994208BF90422CBFD8176FEAE37040F01D
:1009B000010070474FEA410C7FEA6C5C02D150EABB
:1009C000013C07D14FEA430C7FEA6C5CD6D152EA76
:1009D000033CD3D05DF8040B704700BF844610463B
:1009E00062468C461946634600E000BF01B5FFF73A
:1009F000B7FF002848BF10F1000F01BD4DF808ED0A
:100A0000FFF7F4FF0CBF012000205DF808FB00BFDA
:100A10004DF808EDFFF7EAFF34BF012000205DF834
:100A200008FB00BF4DF808EDFFF7E0FF94BF012081
:100A300000205DF808FB00BF4DF808EDFFF7CEFF82
:100A400094BF012000205DF808FB00BF4DF808EDC1
:100A5000FFF7C4FF34BF012000205DF808FB00BF92
:100A60004FEA410C7FEA6C5C02D150EA013C0AD1AA
:100A70004FEA430C7FEA6C5C02D152EA033C02D19C
:100A80004FF0000070474FF0010070474FEA4102FD
:100A900012F5001215D211D56FF47873B3EB6252D0
:100AA00012D94FEAC12343F0004343EA505311F0F7
:100AB000004F23FA02F018BF404270474FF0000089
:100AC000704750EA013005D111F0004008BF6FF0C7
:100AD000004070474FF00000704700BF4FEA4102EE
:100AE000B2F1E04324BFB3F5001CDCF1FE5C0DD98C
:100AF00001F0004C4FEAC0024CEA5070B2F1004FD6
:100B000040EB830008BF20F00100704711F0804FD8
:100B100021D113F13872BCBF01F00040704741F49D
:100B200080114FEA5252C2F11802C2F1200C10FAA1
:100B30000CF320FA02F018BF40F001004FEAC12385
:100B40004FEAD32303FA0CFC40EA0C0023FA02F329
:100B50004FEA4303CCE77FEA625307D150EA0133FF
:100B60001EBF4FF0FE4040F44000704701F00040CF
:100B700040F0FE4040F40000704700BF53B94AB94E
:100B8000002908BF00281CBF4FF0FF314FF0FF3095
:100B900000F00CB8ADF1080C6DE904CE11F0F6FDD3
:100BA000DDF804E0DDE9022304B07047704700BFC0
:100BB00010B5054C237833B9044B13B10448AFF397
:100BC00000800123237010BDE00000200000000021
:100BD000502A010808B5034B1BB103490348AFF382
:100BE000008008BD00000000E4000020502A010839
:100BF00007B5002301930A4B01A9186806F03BFDD5
:100C0000019B4BB14FF0E0234FF08052C3F8042D0D
:100C1000BFF34F8FBFF36F8F03B05DF804FB00BFCE
:100C2000C0030020012A02D1016000207047022A7F
:100C300005D0032AF9D0002AF7D10260F5E70B6846
:100C40000360F2E70368184770B5044608460E468D
:100C500008F096F8054688B1267008F0A9F860807B
:100C600008F0A6F8A08008F0A3F8E08008F0A0F84B
:100C7000208108F09DF8608108F0BAF8284670BD20
:100C800070B5044600680D46164668B1322108F07A
:100C900063F920680368324629465B6898472068F4
:100CA000BDE8704008F050BA606820B10368BDE844
:100CB00070405B68184770BD10B504460068D0B13D
:100CC00003681B69984720B920681022322108F078
:100CD00036FA206803681B69984708B9002009E0C4
:100CE000206803685B699847C0B208F017F80028CD
:100CF000EFD0012010BD6368002BEFD0606803685F
:100D00001B6998470028E9D0606803685B699847C9
:100D1000C0B208F003F80028F0D0EAE770B5044646
:100D20000E460DF0D7FFE0600DF0D4FFE368C01A67
:100D3000A368984201D900250BE02046FFF7BCFFCD
:100D400005460028F0D026B1304608F019F80028F2
:100D5000EAD0284670BD2DE9F04100250582292101
:100D60000446FFF7DBFF074618B900273846BDE801
:100D7000F081292104F16000FFF766FFB4F96210E9
:100D8000D4F8AC000129B8BF01214FF04C0801FB99
:100D900008F10EF071F8C4F8AC00B4F96230AB425F
:100DA000E4DD00212046FFF7B9FF0028DDD0D4F8AC
:100DB000AC0008FB05F62A213044FFF745FF08B1D7
:100DC0000135EAE7D4F8AC002B213044FFF73CFFB3
:100DD0000028CAD0F4E7B0F962200346B0F9100049
:100DE0009042A8BF10461882101A704738B50A7092
:100DF0000446104608F012F8054608F03BF829466C
:100E000002462046FFF73CFF38BD10B594B00446BB
:100E1000202201A9FFF7EAFF2046FFF79CFF14B04C
:100E200010BD70472DE9F043894F3978002940F013
:100E30009B80B42393FBF0F307EE903A854B8648F2
:100E4000864CF8EEE77A0122C3ED007A844B2270DB
:100E5000C3ED007A03684BB1934200F08780013301
:100E6000022B0360C4BF217001607DE07D497E4C90
:100E7000DFF890E27D4D7E4EDFF88C82DFF874C2A1
:100E8000DFF8889200230B607A490B607A490C6086
:100E90007A497B4C0C607B49C1F800E07A490C60D0
:100EA0007A4929607A4D2B607A4D35607A4EC6F8C2
:100EB00000807A4E35607A4D7A4EC5F800C07A4D82
:100EC0002B607A4D2C607A4D2E607A4D2C607A4CD6
:100ED0007A4D25607A4C23607A4CC9F80040DFF8DF
:100EE0003092C9F800E0DFF82CE2DFF82C92CEF85F
:100EF0000040DFF828E2CEF80010DFF824E2CEF858
:100F00000030DFF820E2C9F800E0DFF81C92C9F8F1
:100F10000080DFF81882C8F800E0DFF814E2CEF8AD
:100F200000C0DFF8D4C1CCF80030DFF8D0C1CCF875
:100F30000040DFF8CCC1CCF80060634E3460634CF5
:100F40002560634C2360634B3A701960624B02600A
:100F500019606249624B0B6062490B60624B1A7008
:100F6000624B1A70624B1A70BDE8F083434A444DDD
:100F700044491560454A0A604349454C0D603B4968
:100F80003B4E0A6000212160DFF80CC1414C346007
:100F9000584ECCF80060DFF804C1DFF87CE1CCF8F3
:100FA00000403F4CDFF808C126603F4C21603F4CB9
:100FB0002560424CCCF80040DFF8F8C0CCF8005077
:100FC0003D4DDFF848C12C603D4D29603D4DCCF8CA
:100FD0000050DFF83CC1CCF80020DFF838C1CCF875
:100FE0000050DFF838C1CCF80020DFF834C1CCF86D
:100FF0000010DFF830C1CEF800C0DFF82CE1CEF8E9
:101000000060DFF828E1CEF800C0DFF824C1CCF89A
:101010000060394E3160394E3560394E34602A4EA9
:1010200035602A4D2C602A4C21602A490A602A49E1
:101030000A602A492A4A0A602A493B700A602A4AF9
:1010400013702A4A13702A4A1370022303608BE735
:1010500088030020DC010020540300204803002006
:1010600070030020140000200000344360020020C0
:1010700054020020800300207C0300206C0200202A
:1010800000005CC2680200206402002000002041D1
:101090005802002000009842500200204C0200201C
:1010A000480200200000A0C0400200203C020020B6
:1010B0003802002034020020300200200000ACC2C0
:1010C0002802002000005C42EC010020E801002022
:1010D000E00100206C03002068030020640300206E
:1010E00000000F43600300204A0300204903002052
:1010F00018000020000034C2F8010020F401002094
:10110000F00100200000D2420000484224020020EA
:10111000200200201C0200200C02002018020020E7
:1011200010020020000098C20802002004020020E3
:1011300000020020F8B57F4D2B78002B40F09C80FA
:101140007D4E7E4F7E493A6801233370B42393FB72
:10115000F0F307EE903A7B4BF8EEE77AC1ED007AB8
:10116000C3ED007A042A7FD8DFE812F0050087007B
:101170006401C601A402744A1A60744B0A60002418
:101180001C60734B734A1C60734B74481A60AA212D
:1011900008F032FA0521724808F02EFA714B7249B4
:1011A0001A68724B1A60724B1B680B6071490A60B7
:1011B000714A72491360724B1C60724B1A68724B11
:1011C0001A60724B1B680B6071490A60714A724960
:1011D0001360724B1C60724B1A68724B1A60724B30
:1011E0001B680B6071490A60714A72491360724B47
:1011F0001C60724B1A68724B1A60724B1B680B6052
:1012000071490A60714A72491360724B1C60724BDB
:101210001A68724B1A60724B1B680B6071490A6046
:10122000714A72491360724B1C60724B1A68724BA0
:101230001A60724B1B680B6071490A60714A136037
:10124000714B724A1C60724B1360724A1360724A8F
:10125000724B1360724A1360724A01231370724A10
:101260002B701370714A13703B680133052B3B6080
:10127000C2BF002333703B60F8BD3A4B3A491A684D
:101280003A4B3E481A603A4B1B680B6039490A607A
:10129000394A13603A4A002313603A4A11683A4ABD
:1012A00011603A4A126802603948016039493A4887
:1012B0000A603A4A13603A4A11683A4A11603A4A57
:1012C000126802603948016039493A480A603A4A6E
:1012D00013603A4A11683A4A11603A4A1268026049
:1012E0003948016039493A480A603A4A13603A4A33
:1012F00011683A4A11603A4A12680260394801603E
:1013000039493A480A603A4A13603A4A11683A4AF7
:1013100011603A4A126802603948016039490A602E
:10132000394A1360394B3A4A1A603A4B404A1A60BC
:101330008DE700BF880300204803002054030020ED
:10134000DC01002070030020000040411400002058
:1013500080030020000034437C0300207E04002032
:101360007B04002044030020680200206C0200205F
:101370004003002064020020600200205002002090
:10138000580200200803002054020020040300201B
:101390004C020020480200203802002040020020B9
:1013A0002C0300203C0200202803002034020020EF
:1013B00030020020200200202802002038030020F4
:1013C00024020020340300201C0200201802002008
:1013D0000802002010020020140300200C0200204C
:1013E000100300200402002000020020F001002071
:1013F000F801002020030020F40100201C0300203D
:10140000EC010020E8010020E00100206C03002036
:1014100000002041680300206403002000000F4307
:1014200060030020180000204A0300204903002028
:101430000000F042664B67491A68674B67481A60BC
:10144000674B1B680B6067490A60674A1360674A0D
:1014500000231360664A1168664A1160664A126882
:10146000026066480160664966480A60664A136021
:10147000664A1168664A1160664A126802606648E8
:101480000160664966480A60664A1360664A1168E8
:10149000664A1160664A12680260664801606649E1
:1014A00066480A60664A1360664A1168664A1160B7
:1014B000664A1268026066480160664966480A60CA
:1014C000664A1360664A1168664A1160664A126885
:1014D00002606648016066490A60664A1360664BAE
:1014E000664A1A60664B674A1A60674B674A1A6019
:1014F000674B684A1A60AFE6354B67491A68364B46
:101500003A481A60364B1A68324B1A60354B634AB8
:101510001A60354B1960002303603548046835486C
:101520000460354804682D48046034485C4C04600D
:101530003348036034480360344804683448046026
:10154000344804682F48046033480260334802601E
:1015500034480360344804683448046034480468FC
:101560002F48046033480160334801603448036009
:101570003448046834480460344804682F480460E0
:101580003348484C046033480360344803603448AF
:10159000046834480460344804682F4804603348C1
:1015A000016033490A60334A1360334A354B136094
:1015B000334A1360344A374B1360354A13603A4A52
:1015C00001231370394A2B701370394A13704BE69C
:1015D00044030020680200206C020020500200201A
:1015E0004003002064020020600200205802002016
:1015F0000803002054020020040300204C020020B5
:101600004802002038020020400200202C03002065
:101610003C02002028030020340200203002002079
:10162000200200202802002038030020240200208D
:10163000340300201C0200201802002008020020B1
:1016400010020020140300200C02002010030020D0
:101650000402002000020020F0010020F801002018
:1016600020030020F40100201C030020EC010020D6
:10167000E8010020E00100206C0300200000F0429F
:10168000680300200000A4426403002000000F4310
:10169000600300200000704300005C4200005CC258
:1016A00000009842000098C24A030020490300202D
:1016B000180000201D4B1E4A1A601E4B1E4919605F
:1016C0001E4B1F481A601F4B1F4C196000230360FC
:1016D0001E4820601E4C23601E4C20601E481F4C7C
:1016E00003601F4803601F4802601F4802601F48D4
:1016F00002601F4802601F4803601F4801601F48C6
:1017000001601F4801601F4801601F4803601F48B7
:1017100020601F4C23601F4C20601F4803601F483F
:1017200003601F4801601F48026038E76C02002018
:1017300000005CC26802002000005C4264020020DD
:10174000580200206002002054020020000098424D
:10175000500200204C020020480200200C02002011
:10176000400200203C020020380200203402002009
:101770003002002028020020240200202002002045
:101780001C0200201802002010020020000098C255
:10179000080200200402002000020020F8010020BE
:1017A000F4010020F0010020F0B5834D2C78002CCE
:1017B00040F09080B42393FBF0F307EE903A7F4B18
:1017C0007F49804EF8EEE77A0122C3ED007A7E4B26
:1017D0003270C3ED007A0B6893427CD0022B00F08C
:1017E0005D81002B40F0C7817848794C794EDFF855
:1017F00070C2794FDFF86CE2002303607748036022
:10180000774804607748784C046078483060784EB8
:101810003460784EC6F800C0774E3360774E3E6035
:10182000774F3B60774F3E60774E784F3760784E0A
:101830003360784E3460784E3460784E3460784E41
:10184000CEF80060DFF820E2CEF80030DFF830E2BA
:10185000CEF80000DFF82CE2CEF80000DFF828E236
:10186000CEF80000DFF824E2CEF800C0DFF8FCC1BB
:10187000DFF81CE2CCF80030DFF8F4C1CEF800C08D
:10188000DFF810E2CEF80030DFF80CE2CEF800C04E
:10189000DFF8E0C1CCF80070624F3B60624F386007
:1018A000624F3C60624C20606248066062480360A0
:1018B0006248634B036063482A7003606248634B6D
:1018C000036063480A600360624B1A70624B1A70CF
:1018D000624B1A70F0BD434A434C14603D4A604F5E
:1018E0001760434A44481460424A3B4E1760002246
:1018F0000260DFF80CC141483060444ECCF8006013
:10190000DFF800C1CCF800003F48DFF80CC10660EA
:101910003F4802603F4804604148CCF80000DFF8CF
:10192000FCC0CCF800404F4CDFF854C120604E4C56
:1019300022602E4CCCF80040DFF848C1CCF8007093
:10194000DFF844C1CCF80040DFF840C1CCF80070AB
:10195000464FDFF83CC13A60454FCCF80070DFF8E5
:1019600034C1CCF80060DFF830C1CCF80070414FD2
:101970003E602C4E32602C4E34602C4E30602C4E2B
:1019800034602C4C20602C4802602C4A2C4810609B
:101990002C4A394810602C4A2C4810602C4A374891
:1019A00010602C4A2B7013702B4A13702B4A137043
:1019B00002230B608EE700BF88030020DC010020BB
:1019C000540300204803002070030020140000206E
:1019D00000003443680200205402002080030020ED
:1019E0007C0300206C02002000005CC200005C420E
:1019F000640200206002002058020020000098428B
:101A0000500200204C020020480200200000484202
:101A1000400200203C020020380200203402002056
:101A20000000A0C0F8010020F4010020F001002017
:101A3000EC010020E8010020E00100206C03002000
:101A40000000A442680300206403002000007043EB
:101A5000600300204A0300204903002018000020F2
:101A60000000D24230020020280200201002002094
:101A7000000098C200020020000020410000114335
:101A800024020020200200201C0200201802002056
:101A90000C0200200802002004020020394B3A4CBE
:101AA0001C603A4B3A4F1F603A4B3B481C603B4B23
:101AB0003B4E1F6000230360DFF854C1394830609B
:101AC000394ECCF80060DFF84CC1CCF80000374844
:101AD000DFF844C106603648036036480460364883
:101AE000CCF80000DFF834C1CCF80040334CDFF80C
:101AF00030C12060324C2360324CCCF80040DFF81B
:101B000024C1CCF80070DFF820C1CCF80040DFF829
:101B10001CC1CCF800702C4FDFF814C13B602B4F78
:101B2000CCF80070DFF80CC1CCF80060DFF808C119
:101B3000CCF80070264F3E60264E3360264E34604F
:101B4000264E3060264E3460264C206026480360C6
:101B50002648274B0360274803602748274B03602C
:101B600027482A700360274B1A70274B1A70274B9F
:101B70001A7003231DE70133032B0B60C4BF3470BD
:101B80000C60A7E66C02002000005CC26802002026
:101B90000000D242640200205802002060020020AF
:101BA00054020020000098420000484248020020F1
:101BB000400200203C0200200000A0C030020020B3
:101BC0002802002000005C4210020020000098C2A1
:101BD00000020020F8010020F4010020F0010020A4
:101BE000EC010020E8010020E00100206C0300204F
:101BF000000020416803002064030020000011431E
:101C0000600300204A030020490300201800002040
:101C1000500200204C020020380200203402002034
:101C200024020020200200201C02002018020020B4
:101C30000C02002008020020040200200000000026
:101C400010B5254C2DED028B94ED008ADFED238A33
:101C5000B4EEE88AF1EE10FA36D8214BDFED215AC6
:101C6000D3ED006A204B93ED007A204B37EE667A75
:101C7000B2EE046AC7EE067A77EEA77AC3ED007A71
:101C800068EE277A87EEA57AE7EE066A16EE900AE6
:101C9000FEF7F4FB0EA3D3E90023FEF747FCFEF7A3
:101CA000F5FE134B1860134BD3ED007A38EE278AFC
:101CB000B4EEE88AF1EE10FA84ED008A04DD0E4BF2
:101CC00000221A7000232360BDEC028B10BD00BF00
:101CD00048E17A14AE470B405C0300200000344317
:101CE000640300200000B44360030020740300205C
:101CF00050030020700300204A0300201C4BDFED3E
:101D00001D5A93ED007AB4EEE57AF1EE10FA2ED872
:101D1000194ADFED1A4AD2ED006A194A92ED006ABB
:101D2000184A36EE666AB2EE045AC6EE057A77EEC7
:101D3000A77AC2ED007A67EE277A134A87EEA46A83
:101D4000E6EE056AFDEEE66AC2ED006A0F4AD2EDE4
:101D5000007A37EE277AB4EEE57AF1EE10FA83EDE9
:101D6000007A04DD0A4A0021117000221A607047CF
:101D700058030020000034436C0300200000B443EB
:101D800068030020780300204C030020700300202B
:101D900049030020F8B5314D2B78002B30D1304C61
:101DA0002378002B2CD12F4F2F4E01233B70B423CF
:101DB00093FBF0F307EE903A2C4BF8EEE77AC3ED85
:101DC000007A3368042B13D8DFE803F0031B2E35A9
:101DD0004100274B274A1A60274B284A1A60284B94
:101DE000284A1A60284B294A1A6001232B70237055
:101DF00033680133052B3360C2BF00233B7033606F
:101E0000F8BD2348872107F0F7FB2248282107F077
:101E1000F3FB174A194B1360174A13601B4B184A00
:101E20001360194A1360E0E7114B144A1A60124B11
:101E3000194A1A60F2E70E4B174A1A600E4B0D4A08
:101E40001A600F4B114A1A600F4B0E4ACCE7084A32
:101E5000084B1360084A13600A4BE0E74A0300206E
:101E60004903002048030020540300207003002091
:101E70006C0300200000A4426803002000007842A8
:101E80006403002000007043600300200000EA4269
:101E90007E0400207B0400200000CC42F8B5314DC8
:101EA0002B78002B30D1304C2378002B2CD12F4FA6
:101EB0002F4E01233B70B42393FBF0F307EE903ACF
:101EC0002C4BF8EEE77AC3ED007A3368042B13D875
:101ED000DFE803F0031B2E354100274B274A1A6029
:101EE000274B284A1A60284B284A1A60284B294A4F
:101EF0001A6001232B70237033680133052B336084
:101F0000C2BF00233B703360F8BD2348872107F030
:101F100073FB2248282107F06FFB174A194B136007
:101F2000174A13601B4B184A1360194A1360E0E705
:101F3000114B144A1A60124B194A1A60F2E70E4B01
:101F4000174A1A600E4B0D4A1A600F4B114A1A605D
:101F50000F4B0E4ACCE7084A084B1360084A13603F
:101F60000A4BE0E74A030020490300204803002011
:101F700054030020700300206C0300200000A442E2
:101F80006803002000004842640300200000704302
:101F900060030020000006437E0400207B04002034
:101FA0000000B84200000000DFED737AC0EE277A2F
:101FB00000B52DED068B17EE900A87B0FEF75EFA9E
:101FC0006BA3D3E90023FEF7B1FAFEF787FD08EE15
:101FD000100AB0EE480A0DF037FBF0EE40AAB0EE62
:101FE000480A0DF071FBDFED657A9FED657ADFED54
:101FF000656A654BB0EE679AF0EE678AF0EE679A15
:10200000B0EE67AAAAEE879AEAEEA68AE0EE079AF1
:10201000A0EE26AAEAEE879AAAEEA7AAA0EE479A11
:10202000E0EE678AD3ED00AA8DED009AF4EEE7AA00
:10203000F1EE10FACDED038ACDED019A8DED04AAF3
:1020400040F18980B4EEE78AF1EE10FA1BDBB0EEC6
:10205000490A0DF0D3FB4D4B83ED000AB0EE690A3F
:102060000DF0CCFB4A4B83ED000AB0EE680A0DF090
:10207000C5FB484B83ED000AB0EE4A0A0DF0BEFBEB
:10208000454B83ED000AB5EEC08AF1EE10FA62D539
:10209000B0EE490A0DF0B2FB404B83ED000AB0EE02
:1020A000690A0DF0ABFB3E4B83ED000AB0EE680A07
:1020B0000DF0A4FB3B4B83ED000AB0EE4A0A0DF095
:1020C0009DFB394BF5EEC0AAF1EE10FA83ED000A44
:1020D0003CDDB0EE490A0DF091FB2C4B83ED000A7C
:1020E000B0EE690A0DF08AFB294B83ED000AB0EED1
:1020F000680A0DF083FB274B83ED000AB0EE4A0A15
:102100000DF07CFB244B83ED000AB5EEC08AF1EEA6
:1021100010FA1BDB9DED000A0DF070FB1F4B83EDE9
:10212000000A9DED010A0DF069FB1D4B83ED000ACD
:102130009DED030A0DF062FB1A4B83ED000A9DED45
:10214000040A0DF05BFB184B83ED000A07B0BDECF1
:10215000068B5DF804FBF5EEC0AAF1EE10FAF5DD92
:10216000B5EEC08AF1EE10FACFD5B2E7AFF300803A
:10217000182D4454FB2109400000344300000000A6
:1021800000005C420000984230010020C80200209C
:10219000F8020020B8020020E8020020B00200206F
:1021A000E0020020A0020020D002002038B5F3EEAB
:1021B000097AB4EEE70AF1EE10FA2DED048BF0EE99
:1021C000608A22DCFBEE097AB4EE670AF1EE10FABF
:1021D00048BFB0EE670A9FEDAA7AAA4BAA4D83EDDD
:1021E000000AC7EE017AA94BC3ED007A2B78002BC9
:1021F00040F0F082A64C2368032B00F2E782DFE870
:1022000013F00700AD00AD015302B0EE670AE2E73C
:102210009FEDA09AA04B77EE897AC3ED007AF6EE97
:10222000007A20EE278A9D4BB0EE480A83ED007AB3
:10223000FFF7BAFEB1EE480AFFF7B6FE984B994990
:10224000D3ED006A984BF1EE664AC3ED004A974B16
:1022500093ED005A964B83ED005A964B93ED006A2E
:10226000954BB1EE464A83ED004A944BD3ED005AAC
:10227000934BC3ED005A934B83ED009A924BC3ED01
:10228000008A924B93ED007A914B83ED007A914B4B
:102290001A68914B1A60914BD3ED007A904BC3EDC5
:1022A000007A904B1B680B608F4981ED009A8F4933
:1022B000C1ED008A8E4981ED004A8E49B1EE654A32
:1022C00081ED004A8C49C1ED004A8C49F1EE454A46
:1022D000C1ED004A8A4981ED009A8A49C1ED008A20
:1022E0008949C1ED006A894981ED005A884981ED2B
:1022F000006A8849C1ED005A874981ED009A8749F3
:1023000081ED009A8649B1EE477A81ED007A8549E0
:102310000A60854AF1EE677AC2ED007A834A13605B
:10232000834B844A83ED009A834B83ED009A834B61
:1023300083ED006A824B83ED004A824BC3ED006A55
:10234000814BC3ED004A814B83ED009A804B83EDB6
:10235000009A012313702B7023603BE29FED7D7A7E
:102360004D4B584A4F4877EE877AC3ED007A4B4B76
:1023700083ED007A4F4BD3ED006A4B4BF1EE664A8A
:10238000C3ED004A4D4B93ED005A494B83ED005A83
:10239000434B93ED006A484BB1EE464A83ED004A49
:1023A000424BD3ED005A464BC3ED005A0023136055
:1023B000454A1360494A92ED007A454A82ED007A17
:1023C000484A1168444A1160404AD2ED007A444AB2
:1023D000C2ED007A3F4A12680260434803604348F6
:1023E0000360434880ED004A4248B1EE654A80ED03
:1023F000004A4148C0ED004A4048F1EE454AC0ED70
:10240000004A3F4803603F4803603F48C0ED006A10
:102410003E4880ED005A3E4880ED006A3D48C0EDE0
:10242000005A3D4803603D48C0ED008A3C48B1EE8B
:10243000477A80ED007A3B4801603B49F1EE677ACC
:10244000C1ED007A39490A60394A13603A4AC2ED4F
:10245000008A3A4A82ED006A394A82ED004A394AD6
:10246000C2ED006A384AC2ED004A384A1360384B60
:10247000304AC3ED008A012313702B7002236BE7EF
:10248000000034433001002088030020DC010020DC
:102490008403002000000000800300207C03002053
:1024A000B0020020480200206C020020E002002060
:1024B00068020020C802002064020020F802002008
:1024C000600200205C02002058020020B8020020B8
:1024D00054020020E802002050020020A002002048
:1024E0004C020020D00200204402002040020020C4
:1024F0003C0200203802002034020020300200207C
:102500002C020020280200202402002020020020AB
:102510001C020020180200201402002010020020DB
:102520000C0200200802002004020020000200200B
:10253000FC01002018000020F8010020F401002018
:10254000F0010020EC010020E8010020E40100205F
:10255000E00100200000B442000000001FED029ADC
:102560009E4B77EE897AC3ED007AF6EE007A20EE84
:10257000278A9B4BB0EE480A83ED007AFFF714FDE3
:10258000B1EE480AFFF710FD964B9749D3ED006A6C
:10259000964BF1EE664AC3ED004A954B93ED005A17
:1025A000944B83ED005A944B93ED006A934BB1EE3C
:1025B000464A83ED004A924BD3ED005A914BC3ED4E
:1025C000005A914B83ED009A904B83ED009A904B0B
:1025D00093ED007A8F4B83ED007A8F4B1A688F4B07
:1025E0001A608F4BD3ED007A8E4BC3ED007A8E4B81
:1025F0001B680B608D4981ED009A8D4981ED009A31
:102600008C4981ED004A8C49B1EE654A81ED004A62
:102610008A49C1ED004A8A49F1EE454AC1ED004AB6
:10262000884981ED009A884981ED009A8749C1ED7A
:10263000006A874981ED005A864981ED006A864922
:10264000C1ED005A854981ED009A8549C1ED008AA6
:102650008449B1EE477A81ED007A83490A60834A62
:10266000F1EE677AC2ED007A814A1360814B824AAB
:1026700083ED009A814BC3ED008A814B83ED006AA4
:10268000804B83ED004A804BC3ED006A7F4BC3ED66
:10269000004A7F4B83ED009A7E4BC3ED008A0123F5
:1026A00013702B70032357E69FED7B7A4B4B564AF2
:1026B0004D4877EE877AC3ED007A494B83ED007A77
:1026C0004D4BD3ED006A494BF1EE664AC3ED004A2B
:1026D0004B4B93ED005A474B83ED005A414B93ED22
:1026E000006A464BB1EE464A83ED004A404BD3EDBB
:1026F000005A444BC3ED005A00231360434AC2ED15
:10270000008A474A92ED007A424A82ED007A464AB0
:102710001168424A11603E4AD2ED007A414AC2ED48
:10272000007A3D4A12680260404803604048C0EDAC
:10273000008A404880ED004A3F48B1EE654A80ED8E
:10274000004A3E48C0ED004A3D48F1EE454AC0ED22
:10275000004A3C4803603C48C0ED008A3B48C0ED5D
:10276000006A3B4880ED005A3A4880ED006A3A48DA
:10277000C0ED005A39480360394803603948B1EE6A
:10278000477A80ED007A384801603849F1EE677A7F
:10279000C1ED007A36490A60364A1360374A136041
:1027A000374A82ED006A374A82ED004A364AC2ED66
:1027B000006A364AC2ED004A354A1360354A136052
:1027C0002D4A012313702B700023C5E50133032B21
:1027D0002360F9DCBDEC048B38BD00BF8003002012
:1027E0007C030020C8020020480200206C02002068
:1027F000F802002068020020B002002064020020DD
:10280000E0020020600200205C020020580200204C
:10281000A002002054020020D0020020500200201C
:10282000B80200204C020020E802002044020020F0
:10283000400200203C020020380200203402002028
:10284000300200202C020020280200202402002058
:10285000200200201C020020180200201402002088
:10286000100200200C0200200802002004020020B8
:1028700000020020FC01002018000020F8010020C8
:10288000F4010020F0010020EC010020E80100200C
:10289000E4010020E00100200000B442274B284A58
:1028A0002849002030B5186000231360264A274CC1
:1028B0001360274A0A6027492160274C274D226070
:1028C000274C2160274C2360274C2C60274D2B6020
:1028D000274D2C60274C284D2360284C2360284C22
:1028E0002260284C2260284C2260284C2260284C10
:1028F0002360284C2160284C2160284C2160284C02
:102900002160284C2360284C2C60284D2B60284DDA
:102910002C60284C2360284C2360284C2160284CD4
:102920002260284C216028490A60284A1360284BFD
:1029300001221A70274B187030BD00BF840300209D
:10294000140000206C0200207C030020680200209C
:1029500000005CC200005C426402002054020020BF
:102960006002002058020020000096425002002021
:102970004C020020480200200C02002040020020EF
:102980003C020020380200203402002030020020E7
:102990002802002024020020200200201C02002027
:1029A0001802002010020020000096C20802002039
:1029B0000402002000020020F8010020F4010020A1
:1029C000F0010020EC010020E8010020E0010020DF
:1029D000180000208803002038B52DED068BF0EE9E
:1029E000408A80EEA80AF0EE41AAB0EE608A0CF0B0
:1029F00051FD9FED91AA60EE0A7A17EE900AFDF75D
:102A00003DFD87A3D3E90023FDF7BAFE00228B4BDF
:102A1000FDF7D6FB41EC100B0CF0A0FE51EC100BB7
:102A2000FEF75CF89FED867A864B07EE900A77EE0C
:102A3000C77A9FED857A186077EE877A834BB0EE80
:102A4000007A77EEC77A93ED007A77EE877A17EE01
:102A5000900AFDF713FD74A3D3E90023FDF766FD8B
:102A6000FEF73CF87A4B18607A4B93ED009A7A4B5C
:102A7000B8EEC99A28EE080A39EE2A9AA8EEA80AF2
:102A800009EE900A83ED009A0CF0E2FC734BF3EE32
:102A9000067A30EE678A83ED000A29EE090A704B48
:102AA000A8EE080A83ED008A0CF0D2FC6D4BF0EE24
:102AB000408A83ED000A89EE080A0CF0EBFC6A4BB1
:102AC000DFED6A7A9FED6A7A83ED000AE8EEA87A74
:102AD000B0EE408A9FED670A77EEC77A28EE800A4B
:102AE00087EE800A0CF088FC634B38EE008A83ED99
:102AF000000A68EE0A7A614B17EE900A83ED008AAD
:102B0000FDF7BCFC46A3D3E90023FDF739FE41ECF9
:102B1000100B0CF023FE5A4B51EC100B0022FDF76A
:102B20004FFB02460B4642A1D1E90001FDF746FBEF
:102B3000544B044618680D46FDF7A0FC02460B46B0
:102B400020462946FDF73CFB37A3D3E90023FDF7D8
:102B5000EDFCFDF7C3FF9FED4C0ADFED4C7A4C4BCB
:102B6000A8EEE80A186009EE100A80EE270A0CF0B9
:102B700043FC484B60EE0A7A83ED000A17EE900A98
:102B8000FDF77CFC26A3D3E90023FDF7F9FD3C4BC0
:102B90000022FDF713FB41EC100B0CF0DFFD384970
:102BA00053EC102B0020FDF709FB02460B4620A139
:102BB000D1E90001FDF702FB374B044618680D46CA
:102BC000FDF75CFC02460B4620462946FDF7F8FA65
:102BD00015A3D3E90023FDF7A9FCFDF77FFF2F4BD9
:102BE0002F4C1860B0EE690A08EE100A0CF006FED1
:102BF000BDEEC00A84ED000AB0EE490A0CF0FEFDFD
:102C0000BDEEC00A84ED010AB0EE480A0CF0F6FDF4
:102C1000BDEC068BBDEEC00A84ED020A38BD00BFD4
:102C2000182D4454FB21094048E17A14AE470B406B
:102C30000000000000C07240000034430080664085
:102C400000000743780100200000434354010020A6
:102C50008C01002010000020900100207401002051
:102C60006C010020700100206801002000902F45B9
:102C7000002099450000D44264010020800100201A
:102C8000008056404001002000E8F04500E0E745A4
:102C9000880100207C0100203C01002084010020EC
:102CA000940100200000000038B52DED068BF0EEF9
:102CB000408A80EEA80AF0EE41AAB0EE608A0CF0DD
:102CC000E9FBDFED939A60EE297A17EE900AFDF7A3
:102CD000D5FB89A3D3E90023FDF752FD00228D4BDC
:102CE000FDF76EFA41EC100B0CF038FD51EC100BB7
:102CF000FDF7F4FE07EE100ADFED876A874B77EEEB
:102D0000697A186077EEA67AF4EEE97AF1EE10FAB5
:102D1000C4BFDFED836A77EEE67A17EE900AFDF71F
:102D2000ADFB77A3D3E90023FDF700FCFDF7D6FE4A
:102D30007C4B18607C4B93ED009A7C4BB8EEC99AA3
:102D400028EE080A39EE2A9AA8EEA80A0AEE100A16
:102D500083ED009A0CF07CFB754BF3EE067A30EEB7
:102D6000678A83ED000A29EE090A724BA8EE080A69
:102D700083ED008A0CF06CFB6F4BF0EE408A83ED24
:102D8000000A89EE080A0CF085FB6C4BDFED6C7ACB
:102D90009FED6C7A83ED000AE8EEA87AB0EE408AE7
:102DA0009FED690A77EEC77A28EE800A87EE800ADF
:102DB0000CF022FB654B83ED000A30EE080A644BF1
:102DC00060EE297A83ED000A17EE900AFDF756FBB4
:102DD00049A3D3E90023FDF7D3FC41EC100B0CF021
:102DE000BDFC5C4B51EC100B0022FDF7E9F90246EB
:102DF0000B4645A1D1E90001FDF7E0F900224FF0B3
:102E00008043FDF7DDF9544B044618680D46FDF785
:102E100035FB02460B4620462946FDF7D1F938A37B
:102E2000D3E90023FDF782FBFDF758FE9FED4B0A27
:102E3000DFED4B7A4B4BA8EEE80A186009EE100A5A
:102E400080EE270A0CF0D8FA474B60EE297A83ED22
:102E5000000A17EE900AFDF711FB27A3D3E9002320
:102E6000FDF78EFC3B4B0022FDF7A8F941EC100B5F
:102E70000CF074FC374953EC102B0020FDF79EF941
:102E800002460B4620A1D1E90001FDF797F9374B27
:102E9000044618680D46FDF7F1FA02460B46204637
:102EA0002946FDF78DF916A3D3E90023FDF73EFB74
:102EB000FDF714FE2E4B2F4C1860B0EE4A0A08EEB8
:102EC000100A0CF09BFCBDEEC00A84ED030AB0EEC4
:102ED000490A0CF093FCBDEEC00A84ED040AB0EE82
:102EE000480A0CF08BFCBDEC068BBDEEC00A84EDED
:102EF000050A38BDAFF30080182D4454FB2109406A
:102F000048E17A14AE470B400000000000C0724058
:102F10000000344300806640000016437801002022
:102F20000000B4438C0100200C0000209001002020
:102F3000740100206C010020700100206801002055
:102F400000902F45002099450000D44264010020E4
:102F500080010020008056405001002000E8F0452C
:102F600000E0E745880100207C0100204C010020A2
:102F7000840100209401002038B52DED068BF0EE81
:102F8000408A80EEA80AF0EE41AAB0EE608A0CF00A
:102F900081FA9FED91AA60EE0A7A17EE900AFDF78A
:102FA0006DFA87A3D3E90023FDF7EAFB00228B4BE0
:102FB000FDF706F941EC100B0CF0D0FB51EC100BB7
:102FC000FDF78CFD864B9FED877A186007EE900A1F
:102FD000854B77EEC77A9FED857A77EE877A93ED0A
:102FE000017A77EE877A17EE900AFDF747FA76A313
:102FF000D3E90023FDF79AFAFDF770FD7C4B1860CA
:103000007C4B93ED009A7C4BB8EEC99A28EE080AE7
:1030100039EE2A9AA8EEA80A09EE900A83ED009AE2
:103020000CF016FA754BF3EE067A30EE678A83EDF4
:10303000000A29EE090A724BA8EE080A83ED008AFD
:103040000CF006FA6F4BF0EE408A83ED000A89EE31
:10305000080A0CF01FFA6C4BDFED6C7A9FED6C7A6E
:1030600083ED000AE8EEA87AB0EE408A9FED690A87
:1030700077EEC77A28EE800A87EE800A0CF0BCF95A
:10308000654B38EE008A83ED000A68EE0A7A634BDE
:1030900017EE900A83ED008AFDF7F0F948A3D3E913
:1030A0000023FDF76DFB41EC100B0CF057FB5C4B64
:1030B00051EC100B0022FDF783F802460B4644A1A9
:1030C000D1E90001FDF77AF8564B044618680D4621
:1030D000FDF7D4F902460B4620462946FDF770F865
:1030E00039A3D3E90023FDF721FAFDF7F7FC9FEDA3
:1030F0004E0ADFED4E7A4E4BA8EEE80A186009EE54
:10310000100A80EE270A0CF077F94A4B60EE0A7A33
:1031100083ED000A17EE900AFDF7B0F928A3D3E972
:103120000023FDF72DFB3E4B0022FDF747F841EC55
:10313000100B0CF013FB3A4953EC102B0020FDF759
:103140003DF802460B4622A1D1E90001FDF736F811
:103150000022394BFDF732F8384B044618680D460B
:10316000FDF78CF902460B4620462946FDF728F864
:1031700015A3D3E90023FDF7D9F9FDF7AFFC304BD8
:10318000304C1860B0EE690A08EE100A0CF036FBFD
:10319000BDEEC00A84ED060AB0EE490A0CF02EFB23
:1031A000BDEEC00A84ED070AB0EE480A0CF026FB1B
:1031B000BDEC068BBDEEC00A84ED080A38BD00BF29
:1031C000182D4454FB21094048E17A14AE470B40C6
:1031D0000000000000C072400000344300806640E0
:1031E0007801002000006143540100200000D24219
:1031F0008C010020080000209001002074010020B4
:103200006C010020700100206801002000902F4513
:10321000002099450000D442640100208001002074
:10322000008056404001002000E8F04500E0E745FE
:10323000880100207C010020000031403C0100207A
:10324000840100209401002038B52DED068BF0EEAE
:10325000408A80EEA80AF0EE41AAB0EE608A0CF037
:1032600019F99FED87AA60EE0A7A17EE900AFDF72A
:1032700005F97FA3D3E90023FDF782FA0022814BF1
:10328000FCF79EFF41EC100B0CF068FA51EC100BB0
:10329000FDF724FC7C4B9FED7D7A186007EE900AC9
:1032A0007B4B77EEC77A9FED7B7A77EE877A93ED4B
:1032B000027A77EE877A17EE900AFDF7DFF86EA3B1
:1032C000D3E90023FDF732F9FDF708FC724B1860D3
:1032D000724B93ED009A724BB8EEC99A28EE080A29
:1032E00039EE2A9AA8EEA80A09EE900A83ED009A10
:1032F0000CF0AEF86B4BF3EE067A30EE678A83ED96
:10330000000A29EE090A684BA8EE080A83ED008A34
:103310000CF09EF8654BF0EE408A83ED000A89EED2
:10332000080A0CF0B7F8624BDFED627A9FED627A23
:1033300083ED000AE8EEA87AB0EE408A9FED5F0ABE
:1033400077EEC77A28EE800A87EE800A0CF054F8F0
:103350005B4B38EE008A83ED000A68EE0A7A594B1F
:1033600017EE900A83ED008AFDF788F840A3D3E9B1
:103370000023FDF705FA41EC100B0CF0EFF90022E9
:1033800051EC100B504BFCF71BFF504B04461868D8
:103390000D46FDF773F802460B4620462946FCF71A
:1033A0000FFF35A3D3E90023FDF7C0F8FDF796FB27
:1033B0009FED470ADFED477A474BA8EEE80A186011
:1033C00009EE100A80EE270A0CF016F8434B60EE67
:1033D0000A7A83ED000A17EE900AFDF74FF824A34E
:1033E000D3E90023FDF7CCF9374B0022FCF7E6FECA
:1033F00041EC100B0CF0B2F9334953EC102B0020C8
:10340000FCF7DCFE364B044618680D46FDF736F82F
:1034100002460B4620462946FCF7D2FE16A3D3E906
:103420000023FDF783F8FDF759FB2E4B2E4C186057
:10343000B0EE690A08EE100A0CF0E0F9BDEEC00A21
:1034400084ED090AB0EE490A0CF0D8F9BDEEC00AC5
:1034500084ED0A0AB0EE480A0CF0D0F9BDEC068BF8
:10346000BDEEC00A84ED0B0A38BD00BFAFF300808B
:10347000182D4454FB21094048E17A14AE470B4013
:1034800000003443008076407801002000809D4396
:1034900054010020000043438C010020080000205C
:1034A00090010020740100206C01002070010020B8
:1034B0006801002000902F45002099450000D4426B
:1034C0006401002080010020008056403801002067
:1034D00000E8F04500E0E745880100207C0100207D
:1034E000340100208401002094010020000000002D
:1034F00038B58D4B2DED068B93ED009ADFED8B9A51
:10350000F0EE408AB8EEC99A80EEA80A39EE019A28
:10351000B0EE608A0BF0BEFF60EE297A17EE900ADB
:10352000FCF7ACFF7CA3D3E90023FDF729F941ECBC
:10353000100B0CF013F951EC100BFDF7CFFADFED87
:103540007C7A7C4B07EE100A77EE277A83ED009A9F
:10355000F4EEE97AF1EE10FAC8BFDFED776A774B47
:10356000C8BF77EEE67A186017EE900AFCF786FF80
:103570006BA3D3E90023FCF7D9FFFDF7AFFA28EEE0
:10358000080A6F4BA8EEA80A18600AEE100A0BF0A2
:103590005FFF6C4BF3EE067A30EE678A83ED000A2C
:1035A00029EE090A684BA8EE080A83ED008A0BF0A1
:1035B0004FFF664BF0EE408A83ED000A89EE080A61
:1035C0000BF068FF624BDFED637A9FED637A83ED6A
:1035D000000AE8EEA87AB0EE408A9FED600A77EE26
:1035E000C77A28EE800A87EE800A0BF005FF5C4B55
:1035F00083ED000A30EE080A5A4B60EE297A83ED1B
:10360000000A17EE900AFCF739FF43A3D3E9002321
:10361000FDF7B6F841EC100B0CF0A0F8524B51EC52
:10362000100B0022FCF7CCFD00224FF08043FCF78A
:10363000C5FD4E4B044618680D46FCF71FFF0246B9
:103640000B4620462946FCF7BBFD35A3D3E90023F2
:10365000FCF76CFFFDF742FA9FED450ADFED457A76
:10366000454BA8EEE80A186009EE100A80EE270A1A
:103670000BF0C2FE414B60EE297A83ED000A17EE93
:10368000900AFCF7FBFE24A3D3E90023FDF778F8AA
:10369000354B0022FCF792FD41EC100B0CF05EF86C
:1036A000314953EC102B0020FCF788FD344B0446C5
:1036B00018680D46FCF7E2FE02460B4620462946F6
:1036C000FCF77EFD16A3D3E90023FCF72FFFFDF7DF
:1036D00005FA2C4B2C4C1860B0EE4A0A08EE100A82
:1036E0000CF08CF8BDEEC00A84ED0C0AB0EE490A6D
:1036F0000CF084F8BDEEC00A84ED0D0AB0EE480A65
:103700000CF07CF8BDEC068BBDEEC00A84ED0E0A11
:1037100038BD00BFAFF30080182D4454FB21094091
:1037200048E17A14AE470B400C00002000003443FF
:1037300000001643900100200000B44378010020EF
:103740008C010020740100206C0100207001002019
:103750006801002000902F45002099450000D442C8
:1037600064010020800100200080564048010020B4
:1037700000E8F04500E0E745880100207C010020DA
:10378000440100208401002094010020000000007A
:1037900038B52DED068BF0EE408A80EEA80AF0EEEB
:1037A00041AAB0EE608A0BF075FE9FED89AA60EE2B
:1037B0000A7A17EE900AFCF761FE81A3D3E9002391
:1037C000FCF7DEFF41EC100B0BF0C8FF51EC100BC7
:1037D000FDF784F99FED7F7A7F4B07EE900A77EE35
:1037E000C77A9FED7E7A186077EE877A7C4BB3EECE
:1037F000047A77EE877A93ED037A77EE877A17EE7D
:10380000900AFCF73BFE70A3D3E90023FCF78EFE81
:10381000FDF764F9734B1860734B93ED009A734B8B
:10382000B8EEC99A28EE080A39EE2A9AA8EEA80A34
:1038300009EE900A83ED009A0BF00AFE6C4BF3EE52
:10384000067A30EE678A83ED000A29EE090A694B91
:10385000A8EE080A83ED008A0BF0FAFD664BF0EE45
:10386000408A83ED000A89EE080A0BF013FE634BD1
:10387000DFED637A9FED637A83ED000AE8EEA87AC4
:10388000B0EE408A9FED600A77EEC77A28EE800A94
:1038900087EE800A0BF0B0FD5C4B38EE008A83EDBA
:1038A000000A68EE0A7A5A4B17EE900A83ED008AF6
:1038B000FCF7E4FD42A3D3E90023FCF761FF41ECF0
:1038C000100B0BF04BFF002251EC100B514BFCF78F
:1038D00077FC514B044618680D46FCF7CFFD0246B5
:1038E0000B4620462946FCF76BFC37A3D3E900239F
:1038F000FCF71CFEFDF7F2F89FED480ADFED487A71
:10390000484BA8EEE80A186009EE100A80EE270A74
:103910000BF072FD444B60EE0A7A83ED000A17EE5D
:10392000900AFCF7ABFD26A3D3E90023FCF728FFA0
:10393000384B0022FCF742FC41EC100B0BF00EFF61
:10394000344953EC102B0020FCF738FC0022374B95
:10395000FCF736FC364B044618680D46FCF78EFD26
:1039600002460B4620462946FCF72AFC16A3D3E95B
:103970000023FCF7DBFDFDF7B1F82E4B2E4C186051
:10398000B0EE690A08EE100A0BF038FFBDEEC00A6F
:1039900084ED0F0AB0EE490A0BF030FFBDEEC00A0D
:1039A00084ED100AB0EE480A0BF028FFBDEC068B40
:1039B000BDEEC00A84ED110A38BD00BFAFF3008030
:1039C000182D4454FB21094048E17A14AE470B40BE
:1039D0000000344300003442780100200000D2424D
:1039E000540100208C0100201000002090010020D4
:1039F000740100206C01002070010020680100208B
:103A000000902F45002099450000D4426401002019
:103A100080010020008056403801002000E8F04579
:103A200000E0E745880100207C01002000000840FC
:103A300034010020840100209401002010B5144CB2
:103A400094B02046FDF7E1F9F8B1B4F96430E3B180
:103A50002046FDF7C0F9C0B1B4F910305A1C2282DB
:103A6000B4F962209A42C3BFD4F8AC104C2203FBD5
:103A700002114C22D8BF04F1B00101A80BF04AFB9F
:103A800004484C2201A90BF045FB14B010BD00BF47
:103A9000D00400208404002010B5012104460BF05E
:103AA00017F8002120460BF07DF8022004F0CAFA36
:103AB000012120460BF076F8032004F0C3FA2046DB
:103AC00000210BF06FF8204600210BF001F8064AA8
:103AD000012120460BF09EF8044B18603A2390FB1E
:103AE000F3F0034B186010BD40420F009C03002010
:103AF000A003002038B50C46FFF7CEFF0D4D28601F
:103B00002046FFF7C9FF0C4B18602B68181AFCF70A
:103B1000A3FC0A4B0022FCF709FDFCF7B7FF6FF08E
:103B200018039842B8BF18461928054BA8BF19209A
:103B3000186038BD9003002094030020000004406A
:103B40009803002008B5002149200BF02BF8022033
:103B500004F078FA012149200BF024F8052004F044
:103B600071FA002149200BF01DF8054A0121C820F7
:103B70000BF050F83A2390FBF3F0024B186008BDAD
:103B800040420F008C03002001290BDD031F03EBD3
:103B90008103026850F8041F8A42C8BF40E901123D
:103BA0009842F6D170470000F0B59DB003AD0646CF
:103BB00000242F4630460AF075FF0134192C45F8D1
:103BC000040BF7D121463846FFF7DEFF41F2883378
:103BD0000093002340F2FF3219460F980AF03CFE92
:103BE000FCF73AFC0E4B0022FCF7CAFD9FED081BC8
:103BF00041EC100B0BF040FB07A3D3E9002351EC81
:103C0000100BFCF793FCFCF741FF1DB0F0BD00BFAB
:103C10001283C0CAA145F3BFEE7C3F355EBA3B407C
:103C200000408F4008B5FFF7BFFF034B1860BDE8A9
:103C30000840022004F006BA7404002000000000CE
:103C400010B51D4B1D4C2DED028BD3ED008A1C4B86
:103C5000206893ED008A1B4B28EE888A83ED008A4A
:103C6000FCF70CFC12A3D3E90023FCF7D1FE08B14A
:103C7000154B2360154B94ED007AD3ED007A144B6D
:103C800078EEE78AC8EE877A93ED007A114B67EEFB
:103C9000877A38EE278AC3ED007AF2EE047A28EEAE
:103CA000278A0D4B83ED008ABDEC028B10BD00BF4F
:103CB00095D626E80B2E113E2C010020180100207D
:103CC00004000020280100205F70893010010020CE
:103CD0000C010020240100202001002070B50446C2
:103CE00008461546FFF7D8FE324E30602846FFF7EB
:103CF000D3FE314B314D186033681B1A07EE903AF2
:103D0000F8EEE77AC5ED007AFFF79AFF2C4B2D48C5
:103D100093ED007A2C492D4A07EE904AF8EEE77AA7
:103D20006442F4EEC77AF1EE10FA98BFC3ED007A60
:103D300007EE904A93ED007AF8EEE77AF4EEC77A50
:103D4000F1EE10FAA8BFC3ED007AD3ED007AF5EEDC
:103D5000C07AF1EE10FA4FF0000307DDF1EE677A5A
:103D6000C0ED007AC1ED007A136005E01FD50B604D
:103D7000C2ED007AC0ED007A154E164C3368236010
:103D80000AF0A8FF07EE900A94ED007ADFED126AC0
:103D9000124B2A68F8EE677AC6ED007A77EEC77A9A
:103DA00087EEA67A83ED007A0D4B1A6070BD036032
:103DB0000B60D9E790030020940300202C01002021
:103DC0002001002000010020080100200401002043
:103DD0001C0100201401002000007A44180100207A
:103DE0001001002070B5044608461546FFF754FE42
:103DF000324E30602846FFF74FFE314B314D186090
:103E00003368C01A07EE900AF8EEE77AC5ED007A3B
:103E1000FFF716FF2C4B2D4993ED007A2C4A2D48C5
:103E200007EE904AF8EEE77A6442F4EEC77AF1EED4
:103E300010FA98BFC3ED007A07EE904A93ED007A2E
:103E4000F8EEE77AF4EEC77AF1EE10FAA8BFC3ED08
:103E5000007AD3ED007AF5EEC07AF1EE10FA4FF069
:103E600000031FDD0B60C2ED007AC0ED007A1A4E30
:103E70001A4C336823600AF02DFF07EE900A94ED88
:103E8000007ADFED176A174B2A68F8EE677AC6EDFD
:103E9000007A77EEC77A87EEA67A83ED007A124B26
:103EA0001A6070BD43BFF1EE677AC0ED007AC1EDD4
:103EB000007A036058BF0B601360D8E790030020BE
:103EC000940300202C010020200100200801002084
:103ED00004010020000100201C010020140100202A
:103EE00000007A441801002010010020054A002338
:103EF0001360054A1360054A1360054A1360054ABA
:103F00001360704728010020240100202C010020AC
:103F100010010020200100209FED275A274B35EE8D
:103F2000406A70EE055A76EE017A36EE606AC3EDAD
:103F3000007A75EEC17A224BC3ED007ADFED217A6B
:103F4000214B77EEC06A70EE277A36EEE07A75EE96
:103F5000A05A83ED007A37EEA07A1C4B83ED007AED
:103F60009FED1B7A1B4B37EE407A30EE450A77EE19
:103F7000014A30EE415AC3ED004A174B83ED005A17
:103F8000164BC3ED005A164B77EEC17A83ED006AEB
:103F9000144B76EE816AC3ED007A134B30EE200AA3
:103FA000C3ED006A114B37EE607A83ED000A104BC7
:103FB00083ED007A704700BF00005C42FC020020E5
:103FC000E402002000000000E8020020D0020020EF
:103FD00000005CC2F0020020D8020020F80200209D
:103FE000E0020020EC020020D4020020F4020020B5
:103FF000DC0200207F490B78B0EE604A70B5F0EE2D
:10400000410AB0EE611A002B40F04682B42393FBC4
:10401000F0F307EE903A784A784BF8EEE77AC3ED82
:10402000007A1368032B00F23382DFE813F00400F8
:1040300074005301C301DFED723A724B724877EEA0
:10404000A37AC3ED007A714B18607148FFF764FFE3
:10405000704B0360704804687048046070480360E7
:1040600070480468704804607048714C80ED004AE4
:1040700070482060704C2568704C2560704C206042
:104080007048046870480460704880ED004A7048C9
:104090000360704804687048046070480360704BA7
:1040A0001868704B1860704B704883ED004A704B75
:1040B000036070480468704804607048036070488A
:1040C0000468704804607048704CC0ED003A704855
:1040D0002060704C2568704C2560704C20607048E2
:1040E0000468704804607048C0ED003A6F4803608F
:1040F0006F4804686F4804606F4803606F4B18682E
:104100006F4B18606F4B7048C3ED003A012303708A
:104110000B701360C0E19FED6D7A3A4B3C48444D03
:1041200077EE877AC3ED007A384B83ED007AFFF79C
:10413000F3FE384B03603B48046838480460384855
:1041400003603548046838480460384C002020601B
:10415000384C2C603B4D2E68384D2E60384D2C600D
:10416000354C2568384C2560384C2060384C23602D
:104170003B4C2568384C2560384C2360354B1C6817
:10418000384B1C60384B18603848394B03603C484A
:10419000046839480460394803603648046839487F
:1041A00004603948394C80ED004A394820603C4C65
:1041B0002568394C2560394C2060364804683948F8
:1041C0000460394880ED004A384803603B48046881
:1041D0003848046038480360354B1868384B18601D
:1041E000384B394883ED004A012303700B700223DA
:1041F0008FE700BF8803002084030020DC0100203B
:104200000000000080030020000034437C030020F5
:104210006C02002000005CC2FC020020680200204A
:1042200064020020E4020020600200205802002006
:104230005402002000009842E802002050020020B2
:104240004C020020D0020020480200204002002042
:104250003C020020F002002038020020340200203E
:10426000D802002030020020280200202402002072
:1042700000005C42F8020020200200201C02002006
:10428000E002002018020020100200200C02002092
:10429000000098C2EC020020080200200402002066
:1042A000D402002000020020F8010020F4010020C8
:1042B000F4020020F0010020EC010020DC020020CC
:1042C000E8010020E0010020180000200000B442B6
:1042D000000000005FED023A704B714877EEA37A60
:1042E000C3ED007A6F4B18606F48FFF715FE6F4BF8
:1042F00003606F4804686F4804606F4803606F484C
:1043000004686F4804606F486F4CC0ED003A6F4816
:1043100020606F4C25686F4C25606F4C20606F48A3
:1043200004686F4804606F48C0ED003A6E4803604F
:104330006E4804686E4804606E4803606E4B1868EF
:104340006E4B18606E4B6F48C3ED003A6E4B0360C6
:104350006E4804686E4804606E4803606E480468E6
:104360006E4804606E486F4C80ED004A6E482060D5
:104370006E4C25686E4C25606E4C20606E4804685B
:104380006E4804606E4880ED004A6E4803606E48D7
:1043900004686E4804606E4803606E4B18686E4B8C
:1043A00018606E4B6E4883ED004A012303700B705A
:1043B0000323AEE69FED6B7A384B3B4877EE877A66
:1043C000C3ED007A374B83ED007AFFF7A5FD374B3D
:1043D00003603A480468374804603748036034484B
:1043E0000468374804603748374C80ED004A374846
:1043F00020603A4C2568374C2560374C494D206089
:104400003348046836480460364880ED004A364830
:104410000360394804683648046036480360334B0B
:104420001868364B1860364B364883ED004A364BD9
:1044300003603948046836480460364803603348EE
:10444000046836480460364C00202060364C2C60EE
:10445000394D2E68364D2E60364D2C60334C256814
:10446000364C2560364C2060364C2360394C25682C
:10447000364C2560364C2360334B1C68364B1C6031
:10448000364B18603648012303700B70002340E65A
:104490000133032B1360F9DC70BD00BF80030020E3
:1044A000000034437C0300206C02002000005CC24A
:1044B000E40200206802002064020020FC020020C8
:1044C00060020020580200205402002000009842A0
:1044D000D0020020500200204C020020E802002000
:1044E00048020020400200203C020020D8020020A8
:1044F0003802002034020020F002002030020020A8
:10450000280200202402002000005C42E00200207B
:10451000200200201C020020F802002018020020C7
:10452000100200200C020020000098C2D4020020DB
:104530000802002004020020EC02002000020020FB
:10454000F8010020F4010020DC020020F00100202E
:10455000EC010020F4020020E8010020E00100202E
:10456000180000200000B442DFED2A6A2A4B76EEE4
:10457000C06A76EE817A76EEA06AC3ED007ADFED4E
:10458000277A274B30EE676A36EE417A36EE606A5C
:1045900083ED007A9FED237A234B77EE405A75EE38
:1045A000A15AC3ED005A70EE075A204B75EEE15A3E
:1045B00030EE477AC3ED005A1D4BC3ED006A70EE32
:1045C000276A1C4B77EEC07A83ED006A36EEC16A2B
:1045D000194B37EE811A83ED006A184B37EE617A7A
:1045E00083ED001A164B83ED007A9FED167A164B79
:1045F00037EE407A76EEE06A37EE217A77EEA07AEF
:1046000083ED007A114BC3ED006A114BC3ED007AC4
:10461000704700BF00005CC2CC02002000005C427A
:10462000B402002000009842B8020020A00200203E
:10463000C0020020A8020020C8020020B002002012
:10464000BC020020000098C2A4020020C402002086
:10465000AC0200208A490B78B0EE605A70B5F0EEDB
:10466000410AB0EE611A002B40F05682F3EE047A54
:10467000B4EEE70AF1EE10FA21DCFBEE047AB4EEB8
:10468000670AF1EE10FA48BFB0EE670AF6EE007A5C
:1046900062EE271AB42393FBF0F307EE903A794ABF
:1046A000794BF8EEE77AC3ED007A1368032B00F23A
:1046B0002F82DFE813F0070079004F01C101B0EE4F
:1046C000670AE3E7DFEDA24A704B714877EEA47A00
:1046D000C3ED007A6F4B1860FFF746FF6E4B18680A
:1046E0006E4B18606E4B6F4818606F4B1C686F4BB9
:1046F0001C606F4B18606F4B83ED005A6E4B1C684B
:104700006E4B1C606E4BC3ED004A6E4B1C686E4BCB
:104710001C606E4BC3ED004A6D4B83ED005A6D4B30
:104720001C686D4B1C606D4C6D4B23606D4C256897
:104730006D4C25606D4C23606D4C84ED005A6D4CC2
:1047400025686D4C25606D4C20606D4C25686D4C66
:1047500025606D4C20606D48C0ED004A6C480468CF
:104760006C4804606C48C0ED004A6C4804686C48B2
:1047700004606C48C0ED004A6B48C0ED004A6B48CD
:1047800004686B4804606B4803606B4804686B48BE
:1047900004606B4803606B4B6B48C3ED004A012318
:1047A00003700B701360B7E19FED687A374B3D4C97
:1047B00077EE877AC3ED007A364B83ED007AFFF708
:1047C000D3FE394B1868354B1860354B1C60324BA3
:1047D0001868364B1860364B36481C60002303605F
:1047E0003848056835480560354803603248056833
:1047F0003548056035480360354803603948056829
:1048000035480560354D36482860324D2E68364DA6
:104810002E60364D2860364D2B60394D2E68364D52
:104820002E60364D2C60334D2E68364D2E60364D41
:104830002C60364C84ED005A384C2568354C256088
:10484000354C2360324C2568354C2560354C23604F
:10485000354B83ED005A384B1C68354B1C60354B8B
:104860001860324B1C68354B1C60354B1860354B5B
:10487000354883ED005A012303700B70022391E742
:104880008803002084030020DC0100208003002036
:10489000000034437C030020CC0200206C02002086
:1048A0006802002000005C42B40200206402002084
:1048B0006002002058020020B802002054020020AC
:1048C00050020020A00200204C02002048020020DC
:1048D00040020020C00200203C02002038020020DC
:1048E00000005CC2A8020020340200203002002038
:1048F00028020020C80200202402002020020020FC
:10490000B00200201C02002018020020100200202B
:10491000BC0200200C02002008020020A40200209B
:104920000402002000020020F8010020C402002040
:10493000F4010020F0010020AC020020EC01002076
:10494000E8010020E0010020180000200000B4422F
:10495000000000005FED024A704B714877EEA47AC8
:10496000C3ED007A6F4B1860FFF7FEFD6E4B1868C1
:104970006E4B18606E4B6F4818606F4B1C686F4B26
:104980001C606F4B18606F4BC3ED004A6E4B1C6888
:104990006E4B1C606E4BC3ED004A6E4B1C686E4B39
:1049A0001C606E4BC3ED004A6D4BC3ED004A6D4B6E
:1049B0001C686D4B1C606D4C6D4B23606D4C256805
:1049C0006D4C25606D4C23606D4CC4ED004A6D4C00
:1049D00025686D4C25606D4C20606D4C25686D4CD4
:1049E00025606D4C20606D4880ED005A6C4804686D
:1049F0006C4804606C48C0ED004A6C4804686C4820
:104A000004606C48C0ED004A6B4880ED005A6B486A
:104A100004686B4804606B4803606B4804686B482B
:104A200004606B4803606B4B6B4883ED005A0123B5
:104A300003700B700323B5E69FED687A374B3D4C4E
:104A400077EE877AC3ED007A364B83ED007AFFF775
:104A50008BFD394B1868354B1860354B1C60324B59
:104A60001868364B1860364B1C60364B83ED005A85
:104A7000384B1868354B18603548002303603248BE
:104A800005683548056035480360354880ED005AB3
:104A90003848056834480560344D35482860314D44
:104AA0002E68354D2E60354D2860354D85ED005A08
:104AB000374D2E68344D2E60344D2C60314D2E68AC
:104AC000344D2E60344D2C60344C2360374C2568B7
:104AD000344C2560344C2360314C2568344C2560BF
:104AE000344C2360344C2360374C2568344C2560AB
:104AF000344C2060314C2568344C2560344C2060A7
:104B0000344803603448012303700B70002349E6E6
:104B10000133032B1360F9DC70BD00BF800300205C
:104B2000000034437C030020B40200206C0200200B
:104B30006802002000005C42CC02002064020020D9
:104B40006002002058020020A00200205402002031
:104B500050020020B80200204C0200204802002031
:104B600040020020A80200203C0200203802002061
:104B700000005CC2C002002034020020300200208D
:104B800028020020B0020020240200202002002081
:104B9000C80200201C020020180200201002002081
:104BA000A40200200C02002008020020BC02002009
:104BB0000402002000020020F8010020AC020020C6
:104BC000F4010020F0010020C4020020EC010020CC
:104BD000E8010020E0010020180000200000B4429D
:104BE0002DE9F84FD04B1A782DED068B002A00F0F6
:104BF000B880CE4AD2ED006ACD4AD2ED007ACD4AD5
:104C000076EEE76AF2EE047A86EEA77A37EE077A56
:104C100082ED007AC84AD2ED006AC84A92ED007A65
:104C2000C74A76EEC76A86EEA77A37EE077A82ED34
:104C3000007AC44AD2ED006AC34A92ED007AC34AB0
:104C400076EEC76A86EEA77A37EE077A82ED007AAB
:104C5000BF4AD2ED006ABF4A92ED007ABE4A76EEB4
:104C6000C76A86EEA77A37EE077A82ED007ABB4AEA
:104C7000D2ED006ABA4A92ED007ABA4A76EEC76A75
:104C800086EEA77A37EE077A82ED007AB64AD2ED41
:104C9000006AB64A92ED007AB54A76EEC76A86EEA9
:104CA000A77A37EE077A82ED007AB24AD2ED006A2F
:104CB000B14A92ED007AB14A76EEC76A86EEA77ADB
:104CC00037EE077A82ED007AAD4AD2ED006AAD4A3E
:104CD00092ED007AAC4A76EEC76A86EEA77A37EE96
:104CE000077A82ED007AA94AD2ED006AA84A92EDCD
:104CF000007AA84A76EEC76A86EEA77A37EE077A78
:104D000082ED007AA44AD2ED006AA44A92ED007ABC
:104D1000A34A76EEC76A86EEA77A37EE077A82ED67
:104D2000007AA04AD2ED006A9F4A92ED007A9F4A2B
:104D300076EEC76A86EEA77A37EE077A82ED007ABA
:104D40009B4AD2ED006A9B4A92ED007A9A4A76EE2F
:104D5000C76A86EEA77A37EE077A82ED007A0022DC
:104D60001A70964C964D94ED008AD5ED007AB4EE0B
:104D7000E78AF1EE10FA00F2E5816E4B9FED919A11
:104D8000D3ED007A6A4B904ED3ED009A8F4B904F43
:104D9000DFF880A2DFF880B268EE277AF2EE048AAC
:104DA00087EE897A18EE100AE7EE289AC3ED009A8A
:104DB000634BD3ED007A614B68EE277A93ED00AA3E
:104DC000844B87EE897AA7EE28AA83ED00AAFBF729
:104DD00055FB53A3D3E90023FBF7A8FB41EC100BD1
:104DE0000AF0C2FA7C4B59EC108B1868FBF746FBB3
:104DF00042464B46FBF79AFBFBF770FE774B784A2F
:104E00001860524BD3ED007A4F4B68EE277A0AEECA
:104E1000900A87EE897AD3ED007A724BE7EE287A12
:104E2000C3ED007A4C4BD3ED007A4A4B68EE277AFB
:104E300087EE897AD3ED007A6B4BE7EE287A186813
:104E4000C2ED007AFBF71AFB42464B46FBF76EFBBE
:104E5000FBF744FE434B6549D3ED007A404B0860B5
:104E600068EE277A624887EE897AD3ED007A404B64
:104E7000E7EE287AC0ED007AD3ED007A3B4B68EE7E
:104E8000277A87EE897AD3ED007A5A4BE7EE287AB3
:104E90001868C6ED007AFBF7F1FA42464B46FBF77D
:104EA00045FBFBF71BFE354B534ED3ED007A324BDF
:104EB000386068EE277A514F87EE897AD3ED007A11
:104EC000314BE7EE287AC6ED007AD3ED007A2D4B10
:104ED0004B4E68EE277A87EE897AD3ED007A494BFC
:104EE000E7EE287A1868C7ED007AFBF7C7FA424662
:104EF0004B46FBF71BFBFBF7F1FD264B4249D3ED7D
:104F0000007A234B086068EE277A4048404F87EECE
:104F1000897AD3ED007A224BE7EE287A7EE000BF53
:104F2000399D52A246DF913F180000206402002004
:104F30006C0200209C020020600200206802002019
:104F4000980200204C020020540200207C02002025
:104F50004802002050020020780200203402002085
:104F60003C0200208C020020300200203802002089
:104F7000880200201C02002024020020740200206D
:104F800018020020200200207002002004020020ED
:104F90000C020020940200200002002008020020E1
:104FA00090020020EC010020F40100208402002087
:104FB000E8010020F0010020800200201400002001
:104FC0007C0300200000B443280300204403002099
:104FD0002403002040030020580200203C0300204E
:104FE00004030020080300204002002000030020EA
:104FF0002C03002028020020380300203403002066
:1050000020030020100200203003002014030020A1
:105010001C030020100300200C030020C0ED007AC8
:10502000D3ED007A494B68EE277A87EE897AD3ED83
:10503000007A474BE7EE287A1868CAED007AFBF74A
:105040001DFA42464B46FBF771FAFBF747FD414B11
:10505000CBF80000D3ED007A3F4B68EE277A87EE5D
:10506000897AD3ED007A3D4BE7EE287AC6ED007AD7
:10507000D3ED007A3A4B28EE278AD3ED007A394BEC
:1050800088EE097A1868E7EE287AC7ED007AFBF710
:10509000F5F942464B46FBF749FAFBF71FFD324B49
:1050A000B0EE6A1AF0EE4A0AB0EE690A1860FDF72F
:1050B00093FC2E489BED001A90ED000ADAED000AF1
:1050C000FDF7F2FD2A4A2B4B2B4892ED001AD3ED47
:1050D000000A90ED000AFDF74FFF2348D7ED000AC4
:1050E00090ED001A96ED000A244F254EFEF7ACF81D
:1050F000244B2549254A93ED000A91ED001AD2ED83
:10510000000AFEF7F5F92249D7ED000A91ED001AE1
:1051100096ED000AFEF73CFB1E4BD4ED007A93EDB2
:10512000007A77EE877A95ED007AC4ED007AF4EE96
:10513000C77AF1EE10FA05DD174B1B682360174B99
:1051400000221A70BDEC068BBDE8F88F0802002023
:10515000F801002084020020F401002080020020D9
:10516000F0010020E00100201803002014030020BB
:1051700024030020280300202C03002034030020F7
:10518000380300200803002000030020040300204F
:1051900030030020DC010020800300208803002071
:1051A00008B517491748002209F02AFA1649174886
:1051B000002209F025FA16491648002209F020FAC3
:1051C000154B164800226421C3E9002299601A6138
:1051D000C3F8AC206FF47F414FF0FF32C3E92C12CB
:1051E000C3F8B82004F0D6F90D4804F0D3F90D48FF
:1051F00004F0D0F9BDE808400B490C4807F0B8BDF1
:1052000000440040FC07002000480040E406002065
:1052100000140140CC050020D00400207E040020B2
:105220007B0400207804002000100040C40300200C
:10523000014807F047BC00BFC4030020F8B5064F83
:1052400005460E460024A54200DCF8BD315D384617
:1052500009F090F80134F6E7FC0700201FB50C4A6E
:105260000C4BADF80800CDE900234FF44373ADF8C3
:105270000A30C0F3072353FA80F0C0F131008DF8F3
:105280000C0069460D20FFF7D9FF05B05DF804FB5F
:10529000FFFFFE09831E0413AB4AF0B51368AB4F42
:1052A0001588C3F3072656FA83F3A94E9BB0CDE9C0
:1052B00001765668ADF80C50C6F30725C0F30721F8
:1052C00053FA80F355FA86F555FA80F503EB41035E
:1052D0002B4402258DF8105095688DF81160371217
:1052E0008DF81270C5F30727C4B257FA85F51689F1
:1052F000ADF816602544D6688DF81B600D442B442C
:1053000003258DF81550C6F3072555FA86F5254473
:105310000D442B4404258DF81A501569ADF80E0084
:1053200037128DF81C70C5F3072757FA85F5168AD2
:10533000ADF82060254456698DF814100D442B44B7
:1053400005258DF81F50C6F3072555FA86F5254427
:105350000D4437122B440625ADF818008DF81E10A9
:10536000ADF822008DF824508DF825608DF813409B
:105370008DF81D408DF826709569168BADF82A6062
:10538000C5F3072757FA85F52544D6698DF82F60B0
:105390000D442B4407258DF82950C6F3072555FAEF
:1053A00086F525440D442B4408258DF82E50156AAA
:1053B0008DF8281037128DF83070C5F3072757FA8B
:1053C00085F5168CADF834602544566A8DF8396041
:1053D0000D442B4409258DF83350C6F3072555FAA3
:1053E00086F525440D442B440A258DF83850956ADE
:1053F000ADF82C0037128DF83A70C5F3072757FA2D
:1054000085F5168DADF83E602544D66A8DF83210CC
:105410000D442B440B258DF83D50C6F3072555FA56
:1054200086F525440D4437122B440C25ADF8360083
:105430008DF83C10ADF840008DF842508DF8436077
:105440008DF827408DF831408DF83B408DF8447041
:10545000156B168EADF84860C5F3072757FA85F52A
:105460002544566B8DF84D600D442B440D258DF869
:105470004750C6F3072555FA86F525440D442B44BD
:105480000E258DF84C50956BADF84A0037128DF80B
:105490004E70C5F3072757FA85F5168FADF85260A1
:1054A0002544D66B8DF857600D442B440F258DF89D
:1054B0005150C6F3072555FA86F525440D442B4473
:1054C00010258DF85650156CADF8540037128DF834
:1054D0005870C5F3072757FA85F52544B2F84060A0
:1054E000526CADF85E000D442B4411258DF85B50D5
:1054F000101212258DF846108DF850108DF85A10A4
:105500008DF861208DF845408DF84F408DF8594059
:10551000ADF85C608DF860508DF86200C0B250FA52
:1055200082F222440A44134403F52B738DF864106D
:10553000DB4301A962208DF863408DF86530FFF7E9
:105540007DFE1BB0F0BD00BF94010020FFFFFE5E9A
:10555000831E040108B52DED068B9FED3D9ADFED0E
:105560003D8A9FED3D8A9FED3DAADFED3D9AF0EE2D
:10557000490AB0EE680AB3EE041AFDF72DFAF0EE10
:10558000480AB0EE4A0AB3EE041AFDF78DFBF0EEBE
:10559000680AB0EE680AB3EE041AFDF7EDFCF0EE0F
:1055A000680AB0EE490AB3EE041AFDF74DFEF0EEBC
:1055B000480AB0EE690AB3EE041AFDF799FFF0EE5F
:1055C000490AB0EE490AB3EE041AFEF7E1F84FF4C7
:1055D0000070FFF761FE4FF4FA7009F07FFBB0EE48
:1055E000481AF0EE490AB0EE680AFDF7F5F9B0EE98
:1055F000481AF0EE480AB0EE4A0AFDF755FBB0EE45
:10560000481AF0EE680AB0EE680AFDF7B5FCB0EE95
:10561000481AF0EE680AB0EE490AFDF715FEB0EE42
:10562000481AF0EE480AB0EE690AFDF761FFB0EEE5
:10563000481AF0EE490AB0EE490AFEF7A9F8BDECA7
:10564000068B4FF40070BDE80840FFF725BE00BF91
:1056500000005C4200005CC200000000000096C236
:105660000000964208B5224D224C28684FF0FF31C9
:1056700002F0F1F820684FF0FF3102F0ECF8012859
:1056800032D1FFF7ADFA1C4BD3ED007AF4EE677A16
:10569000F1EE10FA12D6194BD3ED007AF4EE677AD8
:1056A000F1EE10FA0AD6164BD3ED007AF4EE677AD3
:1056B000F1EE10FA02D60020FFF7EEFD114B1B7839
:1056C00063B1FCF71BFBFCF7BBFA0F4B0F481968E3
:1056D00003F092FF0E4B1868FFF7C0FD002320680F
:1056E0001A46194601F093FE112002F0ABFCBCE70C
:1056F000C0030020BC0300208C0100208801002092
:1057000084010020480300204C030020780400207E
:105710005003002030B531218BB03E483D4C08F09D
:1057200029FE3D4901A809F0E3F83B4904A809F026
:10573000DFF8394907A809F0DBF80025204608F012
:10574000F6FD90B1002D5CD1204609F001F8C1B200
:105750007C2945D001A809F0F4F8039B032B23D83A
:10576000204608F0E4FD0028EED12B4901A809F0FD
:10577000F5F818BB284904A809F0F0F8F0B9264953
:1057800007A809F0EBF8C8B901A809F0F9F8234B0C
:10579000186004A809F0F4F8214B186007A809F074
:1057A000EFF8204B186009E01F4920481F4C194DA5
:1057B00009F012F8204608F0BAFD50B907A809F020
:1057C00055F804A809F052F801A809F04FF80BB0F9
:1057D00030BD284608F0BCFFECE704A809F0B1F89A
:1057E000204608F0A4FD0028BFD0204608F0B0FFF6
:1057F000C1B27C29F1D1204608F099FD0028B4D02F
:105800000325204608F0A4FFC1B207A809F099F8C3
:1058100094E700BFE40600209E3401083000002019
:10582000B0030020AC030020682A0108700F00209C
:1058300070B5154E154D044689B1FFF76BFF0F206B
:1058400002F000FC3368E018B0F5B47FA8BFA0F503
:10585000B47000282860BCBF00F5B4702860FFF762
:1058600059FF0F2002F0EEFB2B6832689B1A13F1F0
:10587000B40F04DA03F5B473054A136070BDB42B9A
:10588000C8BFA3F5B473F7E730000020B4030020CD
:10589000B803002070B50446FFF73CFF0F2002F06C
:1058A000D1FB3C4B3C4A1B6812689FED3C7A3C4D57
:1058B0009B1A07EE903AF8EEE77AF4EEC77AF1EE2B
:1058C00010FA44BF03F5B47207EE902A9FED357AC3
:1058D00048BFF8EEE77AF4EEC77AF1EE10FAC8BFE7
:1058E000A3F5B473C5ED007AC2BF07EE903AF8EEA7
:1058F000E77AC5ED007AFEF7A3F92B4B2B4A93ED1F
:10590000007A2B4907EE904AF8EEE77A6442F4EE0B
:10591000C77AF1EE10FA98BFC3ED007A07EE904A0D
:1059200093ED007AF8EEE77AF4EEC77AF1EE10FA2A
:10593000A8BFC3ED007AD3ED007AF5EEC07AF1EEA0
:1059400010FA4FF000031DDDC2ED007A0B60194E16
:10595000194C3368236009F0BDF907EE900A94ED05
:10596000007ADFED166A164B2A68F8EE677AC6ED04
:10597000007A77EEC77A87EEA67A83ED007A114B2C
:105980001A6070BD47BF1360C1ED007A0B601360F1
:10599000DDE700BFA803002030000020000034C372
:1059A0002C010020000034432001002004010020CD
:1059B000080100201C0100201401002000007A448E
:1059C000180100201001002070B50446FFF7A2FE68
:1059D0000F2002F037FB3B4B3B4A1B6812689FEDE0
:1059E0003B7A3B4D9B1A07EE903AF8EEE77AF4EEDD
:1059F000C77AF1EE10FA44BF03F5B47207EE902AAD
:105A00009FED347A48BFF8EEE77AF4EEC77AF1EE0C
:105A100010FAC8BFA3F5B473C5ED007AC2BF07EE94
:105A2000903AF8EEE77AC5ED007AFEF709F92A4BCD
:105A30002A4A93ED007A2A4907EE904AF8EEE77A6F
:105A40006442F4EEC77AF1EE10FA98BFC3ED007A23
:105A500007EE904A93ED007AF8EEE77AF4EEC77A13
:105A6000F1EE10FAA8BFC3ED007AD3ED007AF5EE9F
:105A7000C07AF1EE10FA4FF000031DDD1360C1EDA6
:105A8000007A184E184C3368236009F023F907EEAA
:105A9000900A94ED007ADFED156A154B2A68F8EE4E
:105AA000677AC6ED007A77EEC77A87EEA67A83ED3D
:105AB000007A104B1A6070BD0B604CBFC2ED007ACB
:105AC0001360DEE7A803002030000020000034C38C
:105AD0002C0100200000344320010020040100209C
