:020000040800F2
:100000000000022059310108A93101087BB600081F
:10001000A931010883B600088BB600080000000073
:10002000000000000000000000000000D1B7000840
:10003000A93101080000000071B8000899120108F8
:10004000A9310108A9310108A9310108A931010824
:10005000A9310108A9310108CD140108D7140108FC
:10006000E1140108EB140108F5140108A931010895
:10007000A9310108A9310108A9310108A9310108F4
:10008000A9310108A9310108A9310108A9310108E4
:10009000A9310108A9310108A9310108FF1401089B
:1000A000350B0108550A0108490B0108750A0108BA
:1000B000890A01089D0A0108B10A010825C400083F
:1000C00035C4000845C4000855C40008A93101081A
:1000D000A931010891250108A9250108C1250108B8
:1000E00015150108A9310108A93101085D0B0108A6
:1000F000010B0108710B0108210B0108A93101084E
:10010000A9310108A9310108C50A0108A93101086E
:10011000D9250108F1250108D90A0108ED0A0108CD
:10012000A9310108A9310108A9310108A931010843
:10013000A9310108A9310108A9310108A931010833
:10014000A9310108A9310108A9310108A931010823
:10015000A9310108A9310108A931010809260108BE
:1001600065C4000875C40008A9310108A931010857
:10017000A9310108A9310108A931010800000000D6
:08018000A9310108A9310108B1
:1001900010F8012B11F8013B012A28BF9A42F7D031
:1001A000D01A7047000000000000000000000000AE
:1001B00001F0FF01102A2BDB10F0070F08D010F818
:1001C000013B013A8B422DD010F0070F42B3F6D11C
:1001D000F0B441EA012141EA014122F007047FF035
:1001E00000070023F0E80256083C85EA010586EA8C
:1001F000010685FA47F5A3FA87F586FA47F6A5FAC8
:1002000087F68EB9EED1F0BC01F0FF0102F00702D3
:1002100032B110F8013B013A83EA010313B1F8D17E
:100220000020704701387047002D06BF354603385F
:10023000073815F0010F07D1013015F4807F02BF98
:10024000013015F4C03F0130F0BC0138704700BFE9
:10025000034613F8012B002AFBD1181A0138704706
:1002600081F0004102E000BF83F0004330B54FEA67
:1002700041044FEA430594EA050F08BF90EA020FD4
:100280001FBF54EA000C55EA020C7FEA645C7FEA67
:10029000655C00F0E2804FEA5454D4EB5555B8BF8A
:1002A0006D420CDD2C4480EA020281EA030382EAFB
:1002B000000083EA010180EA020281EA0303362D8D
:1002C00088BF30BD11F0004F4FEA01314FF4801C60
:1002D0004CEA113102D0404261EB410113F0004F72
:1002E0004FEA03334CEA133302D0524263EB430329
:1002F00094EA050F00F0A780A4F10104D5F1200EC7
:100300000DDB02FA0EFC22FA05F2801841F1000121
:1003100003FA0EF2801843FA05F359410EE0A5F1F5
:1003200020050EF1200E012A03FA0EFC28BF4CF026
:10033000020C43FA05F3C01851EBE37101F00045DC
:1003400007D54FF0000EDCF1000C7EEB00006EEBE9
:100350000101B1F5801F1BD3B1F5001F0CD3490873
:100360005FEA30004FEA3C0C04F101044FEA4452CA
:1003700012F5800F80F09A80BCF1004F08BF5FEA51
:10038000500C50F1000041EB045141EA050130BD31
:100390005FEA4C0C404141EB0101013C28BFB1F543
:1003A000801FE9D291F0000F04BF01460020B1FA8E
:1003B00081F308BF2033A3F10B03B3F120020CDA61
:1003C0000C3208DD02F1140CC2F10C0201FA0CF03F
:1003D00021FA02F10CE002F11402D8BFC2F1200CA4
:1003E00001FA02F120FA0CFCDCBF41EA0C0190405A
:1003F000E41AA2BF01EB0451294330BD6FEA0404A3
:100400001F3C1CDA0C340EDC04F11404C4F120028D
:1004100020FA04F001FA02F340EA030021FA04F39F
:1004200045EA030130BDC4F10C04C4F1200220FAF6
:1004300002F001FA04F340EA0300294630BD21FA34
:1004400004F0294630BD94F0000F83F4801306BFFA
:1004500081F480110134013D4EE77FEA645C18BFEE
:100460007FEA655C29D094EA050F08BF90EA020F85
:1004700005D054EA000C04BF1946104630BD91EA7D
:10048000030F1EBF0021002030BD5FEA545C05D180
:100490004000494128BF41F0004130BD14F58004BF
:1004A0003CBF01F5801130BD01F0004545F0FE4133
:1004B00041F470014FF0000030BD7FEA645C1ABF68
:1004C000194610467FEA655C1CBF0B46024650EA9F
:1004D000013406BF52EA033591EA030F41F40021CB
:1004E00030BD00BF90F0000F04BF0021704730B551
:1004F0004FF4806404F132044FF000054FF0000126
:1005000050E700BF90F0000F04BF0021704730B5E6
:100510004FF4806404F1320410F0004548BF4042BB
:100520004FF000013EE700BF42004FEAE2014FEA10
:1005300031014FEA02701FBF12F07F4393F07F4FEB
:1005400081F06051704732F07F4208BF704793F0EE
:100550007F4F04BF41F40021704730B54FF4607401
:1005600001F0004521F000411CE700BF50EA010204
:1005700008BF704730B54FF000050AE050EA0102AD
:1005800008BF704730B511F0004502D5404261EB1D
:1005900041014FF4806404F132045FEA915C3FF45E
:1005A000D8AE4FF003025FEADC0C18BF03325FEAFB
:1005B000DC0C18BF033202EBDC02C2F1200300FAAC
:1005C00003FC20FA02F001FA03FE40EA0E0021FAD1
:1005D00002F11444BDE600BF70B54FF0FF0C4CF4BF
:1005E000E06C1CEA11541DBF1CEA135594EA0C0F71
:1005F00095EA0C0F00F0DEF82C4481EA030621EAAC
:100600004C5123EA4C5350EA013518BF52EA0335E6
:1006100041F4801143F4801338D0A0FB02CE4FF098
:100620000005E1FB02E506F00042E0FB03E54FF0C8
:100630000006E1FB03569CF0000F18BF4EF0010EC0
:10064000A4F1FF04B6F5007F64F5407404D25FEABC
:100650004E0E6D4146EB060642EAC62141EA55516F
:100660004FEAC52040EA5E504FEACE2EB4F1FD0CB1
:1006700088BFBCF5E06F1ED8BEF1004F08BF5FEA2F
:10068000500E50F1000041EB045170BD06F00046E1
:1006900046EA010140EA020081EA0301B4EB5C048E
:1006A000C2BFD4EB0C0541EA045170BD41F4801186
:1006B0004FF0000E013C00F3AB8014F1360FDEBFAB
:1006C000002001F0004170BDC4F10004203C35DA87
:1006D0000C341BDC04F11404C4F1200500FA05F30A
:1006E00020FA04F001FA05F240EA020001F00042AB
:1006F00021F0004110EBD37021FA04F642EB060121
:100700005EEA430E08BF20EAD37070BDC4F10C044A
:10071000C4F1200500FA04F320FA05F001FA04F20E
:1007200040EA020001F0004110EBD37041F10001FA
:100730005EEA430E08BF20EAD37070BDC4F1200505
:1007400000FA05F24EEA020E20FA04F301FA05F26D
:1007500043EA020321FA04F001F0004121FA04F215
:1007600020EA020000EBD3705EEA430E08BF20EAE5
:10077000D37070BD94F0000F0FD101F0004640001F
:1007800041EB010111F4801F08BF013CF7D041EAA1
:10079000060195F0000F18BF704703F000465200A5
:1007A00043EB030313F4801F08BF013DF7D043EA76
:1007B0000603704794EA0C0F0CEA135518BF95EA2C
:1007C0000C0F0CD050EA410618BF52EA4306D1D1B3
:1007D00081EA030101F000414FF0000070BD50EAD2
:1007E000410606BF1046194652EA430619D094EA5C
:1007F0000C0F02D150EA013613D195EA0C0F05D146
:1008000052EA03361CBF104619460AD181EA030199
:1008100001F0004141F0FE4141F470014FF0000051
:1008200070BD41F0FE4141F4780170BD70B54FF0EC
:10083000FF0C4CF4E06C1CEA11541DBF1CEA13556C
:1008400094EA0C0F95EA0C0F00F0A7F8A4EB05044E
:1008500081EA030E52EA03354FEA013100F0888045
:100860004FEA03334FF0805545EA131343EA12630E
:100870004FEA022245EA111545EA10654FEA0026C3
:100880000EF000419D4208BF964244F1FD0404F57C
:10089000407402D25B084FEA3202B61A65EB0305D8
:1008A0005B084FEA32024FF480104FF4002CB6EB95
:1008B000020E75EB030E22BFB61A754640EA0C0015
:1008C0005B084FEA3202B6EB020E75EB030E22BF55
:1008D000B61A754640EA5C005B084FEA3202B6EB96
:1008E000020E75EB030E22BFB61A754640EA9C0055
:1008F0005B084FEA3202B6EB020E75EB030E22BF25
:10090000B61A754640EADC0055EA060E18D04FEAE2
:10091000051545EA16754FEA06164FEAC30343EA82
:1009200052734FEAC2025FEA1C1CC0D111F4801F4F
:100930000BD141EA00014FF000004FF0004CB6E748
:1009400011F4801F04BF01430020B4F1FD0C88BFE7
:10095000BCF5E06F3FF6AFAEB5EB030C04BFB6EBF2
:10096000020C5FEA500C50F1000041EB045170BDE5
:100970000EF0004E4EEA113114EB5C04C2BFD4EB12
:100980000C0541EA045170BD41F480114FF0000E96
:10099000013C90E645EA060E8DE60CEA135594EA12
:1009A0000C0F08BF95EA0C0F3FF43BAF94EA0C0F15
:1009B0000AD150EA01347FF434AF95EA0C0F7FF48A
:1009C00025AF104619462CE795EA0C0F06D152EADE
:1009D00003353FF4FDAE1046194622E750EA4106C2
:1009E00018BF52EA43067FF4C5AE50EA41047FF4D3
:1009F0000DAF52EA43057FF4EBAE12E74FF0FF3C38
:100A000006E000BF4FF0010C02E000BF4FF0010C08
:100A10004DF804CD4FEA410C7FEA6C5C4FEA430C81
:100A200018BF7FEA6C5C1BD001B050EA410C0CBFD0
:100A300052EA430C91EA030F02BF90EA020F002032
:100A4000704710F1000F91EA030F58BF994208BF99
:100A500090422CBFD8176FEAE37040F00100704756
:100A60004FEA410C7FEA6C5C02D150EA013C07D1AD
:100A70004FEA430C7FEA6C5CD6D152EA033CD3D0F8
:100A80005DF8040B704700BF8446104662468C46F2
:100A90001946634600E000BF01B5FFF7B7FF002825
:100AA00048BF10F1000F01BD4DF808EDFFF7F4FF4E
:100AB0000CBF012000205DF808FB00BF4DF808EDD9
:100AC000FFF7EAFF34BF012000205DF808FB00BFFC
:100AD0004DF808EDFFF7E0FF94BF012000205DF81E
:100AE00008FB00BF4DF808EDFFF7CEFF94BF0120D3
:100AF00000205DF808FB00BF4DF808EDFFF7C4FFCC
:100B000034BF012000205DF808FB00BF4FEA410C14
:100B10007FEA6C5C02D150EA013C0AD14FEA430CF7
:100B20007FEA6C5C02D152EA033C02D14FF0000034
:100B300070474FF0010070474FEA410212F5001272
:100B400015D211D56FF47873B3EB625212D94FEA14
:100B5000C12343F0004343EA505311F0004F23FAFE
:100B600002F018BF404270474FF00000704750EA53
:100B7000013005D111F0004008BF6FF00040704710
:100B80004FF00000704700BF4FEA4102B2F1E0436E
:100B900024BFB3F5001CDCF1FE5C0DD901F0004C64
:100BA0004FEAC0024CEA5070B2F1004F40EB8300B4
:100BB00008BF20F00100704711F0804F21D113F1E0
:100BC0003872BCBF01F00040704741F480114FEA19
:100BD0005252C2F11802C2F1200C10FA0CF320FAA2
:100BE00002F018BF40F001004FEAC1234FEAD323BF
:100BF00003FA0CFC40EA0C0023FA02F34FEA430329
:100C0000CCE77FEA625307D150EA01331EBF4FF0B1
:100C1000FE4040F44000704701F0004040F0FE40CC
:100C200040F40000704700BF53B94AB9002908BF1B
:100C300000281CBF4FF0FF314FF0FF3000F00CB820
:100C4000ADF1080C6DE904CE16F0B0FFDDF804E05C
:100C5000DDE9022304B07047704700BF10B5054CB2
:100C6000237833B9044B13B10448AFF30080012358
:100C7000237010BD7801002000000000707E010884
:100C800008B5034B1BB103490348AFF3008008BD0F
:100C9000000000007C010020707E010808B5036898
:100CA000984708BD00B583B00023019301A9094B03
:100CB000186809F0CEFB019B4BB14FF0E0234FF0D9
:100CC0008052C3F8042DBFF34F8FBFF36F8F03B073
:100CD0005DF804FB7804002038B504460D46012871
:100CE00005D01CB94FF6FF739D423CD038BD4FF67E
:100CF000FF739942F5D100221D491E4811F036FEBE
:100D000000221D491D4811F031FE00221C491D48DA
:100D100011F02CFE1C4B64229A6000221A82C3F848
:100D2000AC201A605A60FF2283F8B0204FF6FF72A1
:100D3000A3F8B220A3F8B420A3F8B620A3F8B820F3
:100D4000A3F8BA2011480BF07DFC11480BF07AFC97
:100D500010480BF077FC10480BF074FC0F4910485A
:100D60000FF06AFFBDE70E480FF0F0FDBEE700BFD1
:100D700000440040B808002000480040A0070020C0
:100D800000140140880600208C0500203C0500204E
:100D900038050020340500203005002000100040F8
:100DA0007C04002010B50446836813B10322014679
:100DB0009847204610BD70B504460E46154600689B
:100DC00060B132210AF0F0FF206803685B682A46B0
:100DD0003146984720680BF011F970BD6068002813
:100DE000FBD003685B689847F7E710B504460068D6
:100DF000E0B103681B69984778B1206803681B69F4
:100E0000984780B1206803685B699847C0B20AF0D0
:100E10004BFE03460028F0D006E010223221206865
:100E20000BF0E5F8E9E70023184610BD6368002BD6
:100E3000FAD0606803681B69984750B1606803681E
:100E40005B699847C0B20AF02FFE03460028F0D035
:100E5000EAE70023E8E738B504460D4612F034FB14
:100E6000E06012F031FBE368C01AA36898420DD825
:100E70002046FFF7BAFF03460028F2D03DB12846CE
:100E80000AF054FE03460028EBD000E00023184689
:100E900038BD10B504461346B1F962209A4208DD08
:100EA000D1F8AC104C2202FB031113F010FA2046CB
:100EB00010BD4C22B03113F00AFAF8E738B50446F9
:100EC00010460A700AF082FE05460AF0ABFE0246A2
:100ED00029462046FFF76FFF38BD30B595B005466F
:100EE0000024042C0CDC2C2201A92846FFF7E6FF85
:100EF0002E212846FFF7AFFF034610B90134F0E773
:100F00000023184615B030BD70B50C461546104686
:100F10000AF00CFE064608B9304670BD25700AF08E
:100F20001DFE60800AF01AFEA0800AF017FEE08025
:100F30000AF014FE20810AF011FE60810AF02EFEF4
:100F4000EAE7F0B583B00446002303822921FFF7C6
:100F500082FF074610B9384603B0F0BD292204F1DC
:100F600060012046FFF7D0FFD4F8AC00B4F962303E
:100F7000009301220192002B0ADD6B461B684C2175
:100F800003FB01F112F07CFBC4F8AC00002602E088
:100F900001ABF3E70136B4F96230B342DBDD002187
:100FA0002046FFF758FFB0B1D4F8AC104C2506FB33
:100FB00005F52A2229442046FFF7A6FF0028E9D19B
:100FC000D4F8AC102B2229442046FFF79DFF0028BF
:100FD000E0D10746BFE70746BDE710B594B0044629
:100FE000202201A9FFF76AFF2046FFF7AAFF14B0ED
:100FF00010BD70B505460C4610460A700AF0E6FDB5
:101000000646B4F902000AF0F7FD0AF00BFE0246AC
:1010100031462846FFF7CFFE70BD10B594B00446A8
:10102000ADF806102D2201A9FFF7E3FF2E2120467F
:10103000FFF711FF14B010BD704700007F4B1B7805
:10104000002B40F0FA8010B57D4B01221A70B423BA
:1010500093FBF0F307EE903AF8EEE77A794BC3EDA5
:10106000007A794BC3ED007A784B1B6863B19342E9
:101070007ED00133754A1360022B04DD0023704AD1
:101080001370724A136010BD002271490A607149E1
:101090000A60714971480860714972480160DFED6A
:1010A000726A7248C0ED006A71480160F2EE047A1B
:1010B0007048C0ED007A704802607048704C206043
:1010C0009FED707A704C84ED007A704C2060DFF8F0
:1010D00048E26F48C0F800E06E4802606E48016068
:1010E000DFF838C26D48C0F800C06D4801606D4837
:1010F0006D4908606D490A606D496E4C21606E4C07
:10110000C4ED006A6D4C21606D4CC4ED007A6D4CED
:101110002260DFED6D7A6D4CC4ED007A6C4C84ED8D
:10112000007A6C4CC4ED007A6B4CC4F800E06B4C58
:1011300022606B4C21606B4CC4F800C06A4C21608B
:101140006A4908606A490A606A4A6B490A606B49E1
:101150000A606B4A6B490A606B490A6001226B495D
:101160000A706B490A706B490A7034490A7080E74B
:101170003B483C4A1060DFF8A8E13C4AC2F800E076
:101180003B4A10603B4AC2F800E000223A490A603C
:101190003A493B4C2160DFF880C13B4CC4F800C0A9
:1011A0003A4C21603A49C1F800C03A490A603A49CC
:1011B00008603C49394C2160394C20603A48016054
:1011C0003A4802603A483B4C20603B4CC4F800E08F
:1011D0003A4C20603A4CC4F800E03A4C2260DFF808
:1011E00044E13A4CC4F800E0394CC4F800C0394C32
:1011F000C4F800E0384CC4F800C0384C2260384CC9
:101200002060384C2160384C2060384801603849F3
:101210000A60384A38490A6038490A60384A394908
:101220000A6039490A60012238490A7038490A704F
:1012300038490A7001490A701BE770473C040020D6
:10124000FC03002090020020240400200804002059
:101250001C0000203404002030040020000034432F
:1012600000005CC2200300200000D2421C030020CA
:1012700018030020140300200C03002000009842F3
:10128000080300200000484204030020000300205F
:10129000FC020020F4020020F0020020EC020020FA
:1012A000E80200200000ACC2E4020020DC020020C2
:1012B00000005C42D8020020D4020020D0020020AE
:1012C000CC020020C4020020000098C2C00200200E
:1012D000BC020020B8020020B4020020AC020020B2
:1012E000A8020020A4020020A00200209C020020EE
:1012F0009402002000004041200400201C04002033
:1013000000000C431804002014040020FE030020F9
:10131000FD03002020000020000034C20000A0C017
:1013200000002041000098C238B5864B1B78002B86
:1013300040F09D80844B01221A70B42393FBF0F39C
:1013400007EE903AF8EEE77A804BC3ED007A804BD7
:10135000C3ED007A7F4B1B68042B7DD8DFE813F0C8
:10136000050088006E01D901BA027B4D774B1D60E4
:10137000774B1D600024794B1C60794B1C60794BC6
:10138000794A1A60AA2179480BF092F9784B1A68C9
:10139000784B1A60784B1B6878490B6078490A6073
:1013A000784A1360784B1C60784B1A68784B1A6047
:1013B000784B1B6878490B6078490A60784A13605B
:1013C000784B1C60784B1A68784B1A60784B1B6816
:1013D00078490B6078490A60784A1360784B1C6042
:1013E000784B1A68784B1A60784B1B6878490B6009
:1013F00078490A60784A1360784B1C60784B1A6809
:10140000784B1A60784B1B6878490B6078490A6002
:10141000784A1360784B1C60784B1A68784B1A60D6
:10142000784B1B6878490B6078490A60784A1360EA
:10143000784B1C60784B1D60784B1D60784B794A67
:101440001360794A13600123784A13703D4A137080
:10145000774A1370774A13703E4A1368013313605A
:10146000052B04DD0023384A13703A4A136038BD57
:101470003F4B1A683F4B1A603F4B1B683F490B605C
:101480003F490A603F4A136000233F4A13603F4AC6
:1014900011683F4A11603F4A12683F4802603F4866
:1014A00001603F490A603F4A13603F4A11683F4A62
:1014B00011603F4A12683F4802603F4801603F495F
:1014C0000A603F4A13603F4A11683F4A11603F4A31
:1014D00012683F4802603F4801603F490A603F4A46
:1014E00013603F4A11683F4A11603F4A12683F4803
:1014F00002603F4801603F490A603F4A13603F4A2B
:1015000011683F4A11603F4A12683F4802603F48F5
:1015100001603F490A603F4A13603F4B0E4A1A6020
:101520003E4B454A1A603E4B3E4A13603E4A1360AA
:1015300001233E4A1370034A13703D4A13703D4A1B
:10154000137089E73C040020FC0300209002002077
:101550002404002008040020000040411C0000205A
:101560003404002030040020000034433C050020F7
:10157000F803002020030020F40300201C030020B7
:1015800018030020140300200C030020BC030020DB
:1015900008030020B80300200403002000030020FB
:1015A000FC020020F4020020E0030020F0020020F2
:1015B000DC030020EC020020E8020020E40200200E
:1015C000DC020020EC030020D8020020E803002009
:1015D000D4020020D0020020CC020020C40200204F
:1015E000C8030020C0020020C4030020BC02002069
:1015F000B8020020B4020020AC020020D403002076
:10160000A8020020D0030020A4020020A002002095
:101610009C02002094020020200400201C040020D2
:1016200000000C43180400201404002020000020B7
:10163000FE030020FD0300200000F0426B4B1A68FF
:101640006B4B1A606B4B1B686B490B606B490A60F4
:101650006B4A136000236B4A13606B4A11686B4A34
:1016600011606B4A12686B4802606B4801606B49FD
:101670000A606B4A13606B4A11686B4A11606B4ACF
:1016800012686B4802606B4801606B490A606B4AE4
:1016900013606B4A11686B4A11606B4A12686B48A1
:1016A00002606B4801606B490A606B4A13606B4AC9
:1016B00011686B4A11606B4A12686B4802606B4894
:1016C00001606B490A606B4A13606B4A11686B4A90
:1016D00011606B4A12686B4802606B4801606B498D
:1016E0000A606B4A13606B4B6B4A1A606B4B6C4A17
:1016F0001A606C4B6C4A1A606C4B6D4A1A6001237D
:101700006C4A13706C4A13706C4A13706C4A1370F5
:10171000A2E6364B1A68364B1A60364B1A68364BBF
:101720001A60684A354B1A606749354B19600023C7
:10173000344803603448046834480460344804681A
:10174000344804603448614C0460344803603448D1
:1017500003603448046834480460344804683448FA
:1017600004603448026034480260344803603448FE
:1017700004683448046034480468344804603448D9
:1017800001603448016034480360344804683448D8
:101790000460344804683448046034484C4C0460A5
:1017A00033480360334803603348046833480460B7
:1017B00033480468334804603348016033490A60A1
:1017C000334A1360364B334A1360344A1360384B44
:1017D000344A1360354A13600123384A1370384A7B
:1017E0001370344A1370344A137035E6F80300203E
:1017F00020030020F40300201C0300201803002015
:10180000140300200C030020BC0300200803002068
:10181000B80300200403002000030020FC02002085
:10182000F4020020E0030020F0020020DC0300208E
:10183000EC020020E8020020E4020020DC0200208C
:10184000EC030020D8020020E8030020D40200208E
:10185000D0020020CC020020C4020020C8030020D7
:10186000C0020020C4030020BC020020B8020020F7
:10187000B4020020AC020020D4030020A802002003
:10188000D0030020A4020020A00200209C0200201F
:1018900094020020200400200000F0421C040020DC
:1018A0000000A4421804002000000C43140400208F
:1018B00000007043200000203C040020FE030020B4
:1018C000FD03002000005CC200005C420000984262
:1018D000000098C22A4A2B4B1A602B492B4B1960E7
:1018E0002B4B1A602B4B196000232B4803602B48AD
:1018F0002B4C20602B4C23602B4C20602B4803602A
:101900002B4803602B4802602B4802602B48026082
:101910002B4802602B4803602B4801602B48016074
:101920002B4801602B4801602B4803602B482C4C4E
:1019300020602C4C23602C4C20602C4803602C48E9
:1019400003602C4801602C4802602C4801602C493F
:101950000A602C4A13602C4B2C4A13602C4A1360EB
:101960002C4B2D4A13602D4A136001232C4A13700F
:101970002C4A13702C4A13702C4A13706CE500BF6C
:1019800000005CC22003002000005C421C03002019
:1019900018030020140300200C03002000009842CC
:1019A000080300200403002000030020FC020020A4
:1019B000F4020020F0020020EC020020E8020020E7
:1019C000E4020020DC020020D8020020D402002023
:1019D000D0020020CC020020C4020020000098C2E7
:1019E000C0020020BC020020B8020020B402002087
:1019F000AC020020A8020020A4020020A0020020C7
:101A00009C020020940200200000A4422004002038
:101A10001C0400200000704318040020140400205F
:101A2000FE030020FD030020200000203C040020D5
:101A30007E4B1B78002B40F0D48110B57C4B0122EB
:101A40001A70B42393FBF0F307EE903AF8EEE77ABE
:101A5000784BC3ED007A784BC3ED007A774B1B6867
:101A600093427CD0022B00F0578153B10133734A6B
:101A70001360032B04DD00236D4A13706F4A13605B
:101A800010BD00226E490A606E490A606E496F48B7
:101A900008606F486F4908606F49704C2160704C56
:101AA0002060DFED707A704CC4ED007A6F4C2260DC
:101AB000DFF848C26E4CC4F800C06E4C22606E4C19
:101AC000C4F800C0DFF844E26C4CC4F800E06C4C91
:101AD00022606C4C20606C4C20606C4C2060DFF805
:101AE00020C26B4CC4F800C06A4C22606A4C216072
:101AF0006A4C21606A4C21606A4CC4ED007A6A4CE1
:101B00002260DFED6A7A6A4CC4ED007A694C22608B
:101B1000694CC4ED007A694CC4F800E0684C22605E
:101B2000684C2160684C2060684801606849C1F8D1
:101B300000C068490A60684A68490A6068490A60E2
:101B4000684A69490A6069490A60012268490A705D
:101B500068490A7068490A7034490A7086E73C4847
:101B60003C4A1060DFF8A8E13C4AC2F800E03C4A79
:101B700010603D4AC2F800E000223C490A605F491B
:101B80003B4C2160DFF884C13A4CC4F800C03A4CA9
:101B900021603A49C1F800C039490A6039490860F2
:101BA0005749394C2160394C206039480160394827
:101BB00002602948384C2060384CC4F800E0384CAA
:101BC0002060384CC4F800E0374C2260DFF844E174
:101BD000374CC4F800E0374CC4F800C0364CC4F8A9
:101BE00000E0364CC4F800C0354C2260354C206013
:101BF000354C2160354C20603548016035490A601C
:101C0000364A35491160364A3E491160364A3549EF
:101C10001160364A3C491160012235490A70354944
:101C20000A7035490A7001490A701FE73C04002018
:101C3000FC0300209002002024040020080400205F
:101C40001C00002034040020300400200000344335
:101C500000005CC22003002000005C421C03002046
:101C6000180300200000D242140300200C030020BF
:101C7000080300200403002000030020FC020020D1
:101C8000F4020020F0020020EC020020E802002014
:101C9000E4020020DC020020D8020020D402002050
:101CA000D0020020CC020020C4020020000098C214
:101CB000C0020020BC020020B8020020B4020020B4
:101CC000AC020020A8020020A4020020A0020020F4
:101CD0009C020020940200200000A4422004002066
:101CE0001C0400200000704318040020140400208D
:101CF000FE030020FD030020200000200000984289
:101D00000000A0C00000404100000C430000484219
:101D10000000D242000098C23248334A1060DFF817
:101D200074E1324AC2F800E0314A1060314AC2F828
:101D300000E0002230490A603049314C2160DFF870
:101D400058C1304CC4F800C02F4C21602F49C1F855
:101D500000C02F490A602F4908602F492F4C21608D
:101D60002F4C20602F4801602F4802602F48304CD4
:101D70002060304CC4F800E02F4C20602F4CC4F899
:101D800000E02F4C2260DFF814E12E4CC4F800E094
:101D90002D4CC4F800C02D4CC4F800E02C4CC4F805
:101DA00000C02C4C22602C4C20602C4C21602C4C10
:101DB00020602C4801602C490A602C4A2C490A609A
:101DC0002C490A602C4A2D490A602D490A600122DB
:101DD0002C490A702C490A702C490A702C490A7047
:101DE00044E6704700005CC2200300201C03002072
:101DF00018030020140300200C0300200000984268
:101E0000080300200403002000030020FC0200203F
:101E1000F4020020F00200200000A0C0EC0200202C
:101E2000E8020020E4020020DC02002000005C4206
:101E3000D8020020D4020020D0020020CC020020D2
:101E4000C4020020C0020020BC020020B802002012
:101E5000B4020020AC020020A8020020A40200204E
:101E6000A00200209C0200209402002000004041BB
:101E7000200400201C04002000000C431804002053
:101E800014040020FE030020FD0300202000002099
:101E90003C0400200000D24200004842000098C2EA
:101EA000794B1B78002B40F0EE8010B5774B012268
:101EB0001A70B42393FBF0F307EE903AF8EEE77A4A
:101EC000734BC3ED007A734BC3ED007A724B1B6802
:101ED00063B1934279D001336F4A1360022B04DD62
:101EE00000236A4A13706C4A136010BD00226B49CC
:101EF0000A606B490A606B496B4808606B496C4823
:101F00000160DFED6C7A6C48C0ED007A6B480160CF
:101F10006B4802606B4802606B486C4C20609FED20
:101F20006C7A6C4C84ED007A6B4C20606B480160DD
:101F30006B4802606B480160DFF828E26A48C0F82D
:101F400000E06A480160DFF818C26948C0F800C0C4
:101F5000684802606848694C2060694CC4ED007AAA
:101F6000684C2060684C2260684C2260DFED687A23
:101F7000684CC4ED007A684C84ED007A674CC4ED7F
:101F8000007A674C216067490A60674908606749C1
:101F9000C1F800E0664908606649C1F800C06649BA
:101FA0000A60664A66490A6066490A60664A674985
:101FB0000A6067490A60012266490A7066490A7028
:101FC00066490A7030490A7085E73849384A116015
:101FD00000223948026039480160394802603948B6
:101FE00002603948394C20603A4C21603A4C2060FC
:101FF0003A4801603A4802603A48016058483A4C11
:1020000020603A4C21603A4C20603A4C2260DFF864
:10201000E8C03A4CC4F800C0394C2260394CC4F8CE
:1020200000C0394C2260394C2260DFF83CE1394C69
:10203000C4F800E0384C2160384CC4F800E0384C5B
:10204000216038490A603849C1F800C03749086042
:102050003749C1F800C03749086037490A60374A34
:1020600037490A6037490A60374A38490A603849AF
:102070000A60012237490A7037490A7037490A70E5
:1020800001490A7027E770473C040020FC03002048
:102090009002002024040020080400201C000020DE
:1020A00034040020300400200000344300005CC2EF
:1020B000200300200000D2421C030020180300204F
:1020C000140300200C0300200000984208030020A5
:1020D000000048420403002000030020FC0200200E
:1020E000F4020020F0020020EC020020E8020020B0
:1020F000E4020020DC02002000005C42D802002044
:10210000D4020020D0020020CC020020C402002013
:10211000000098C2C0020020BC020020B8020020CB
:10212000B4020020AC020020A8020020A40200207B
:10213000A00200209C020020940200200000204108
:10214000200400201C04002000001043180400207C
:1021500014040020FE030020FD03002020000020C6
:102160000000ACC20000A0C0000098C2874B1B78E2
:10217000002B40F02A8310B5854B01221A70B4233E
:1021800093FBF0F307EE903AF8EEE77A814BC3ED5C
:10219000007A814BC3ED007A804B1B68042B7ED8FC
:1021A000DFE813F0050089007201DD01BE027C4BFF
:1021B000784A1360784A136000247A4B1C607A4B8B
:1021C0001C607A4B7A4A1A60AA217A480AF070FA9F
:1021D000794B1A68794B1A60794B1B6879490B6007
:1021E00079490A60794A1360794B1C60794B1A6807
:1021F000794B1A60794B1B6879490B6079490A6001
:10220000794A1360794B1C60794B1A68794B1A60D4
:10221000794B1B6879490B6079490A60794A1360E8
:10222000794B1C60794B1A68794B1A60794B1B68A3
:1022300079490B6079490A60794A1360794B1C60CF
:10224000794B1A68794B1A60794B1B6879490B6096
:1022500079490A60794A1360794B1C60794B1A6896
:10226000794B1A60794B1B6879490B6079490A6090
:10227000794A1360794B1C60794B7A4A13607A4A29
:1022800013607A4B7A4A13607A4A136001237A4AC0
:1022900013703E4A1370794A1370794A13703F4A9B
:1022A000136801331360052B04DD0023384A1370D3
:1022B0003A4A136010BD404B1A68404B1A60404BBD
:1022C0001B6840490B6040490A60404A1360002384
:1022D0003F4A13603F4A11683F4A11603F4A126803
:1022E0003F4802603F4801603F490A603F4A13602F
:1022F0003F4A11683F4A11603F4A12683F480260F6
:102300003F4801603F490A603F4A13603F4A1168F5
:102310003F4A11603F4A12683F4802603F480160EF
:102320003F490A603F4A13603F4A11683F4A1160C3
:102330003F4A12683F4802603F4801603F490A60D7
:102340003F4A13603F4A11683F4A11603F4A126892
:102350003F4802603F4801603F490A603F4A1360BE
:10236000404B3F4A1A60404B464A1A603F4B404A36
:102370001360404A136001233F4A1370034A1370ED
:102380003E4A13703E4A137089E700BF3C040020A8
:10239000FC030020900200202404002008040020F8
:1023A000000040411C0000203404002030040020C4
:1023B000000034433C050020F803002020030020E7
:1023C000F40300201C030020180300201403002045
:1023D0000C030020BC03002008030020B8030020E9
:1023E0000403002000030020FC020020F40200206F
:1023F000E0030020F0020020DC030020EC020020BB
:10240000E8020020E4020020DC020020EC030020AF
:10241000D8020020E8030020D4020020D0020020CF
:10242000CC020020C4020020C8030020C00200200B
:10243000C4030020BC020020B8020020B402002027
:10244000AC020020D4030020A8020020D00300200A
:10245000A4020020A00200209C0200209402002080
:1024600000002041200400201C0400200000104334
:10247000180400201404002020000020FE03002087
:10248000FD0300200000F0426B4B1A686B4B1A6092
:102490006B4B1B686B490B606B490A606B4A13609E
:1024A00000236B4A13606B4A11686B4A11606B4AD8
:1024B00012686B4802606B4801606B490A606B4AA6
:1024C00013606B4A11686B4A11606B4A12686B4863
:1024D00002606B4801606B490A606B4A13606B4A8B
:1024E00011686B4A11606B4A12686B4802606B4856
:1024F00001606B490A606B4A13606B4A11686B4A52
:1025000011606B4A12686B4802606B4801606B494E
:102510000A606B4A13606B4A11686B4A11606B4A20
:1025200012686B4802606B4801606B490A606B4A35
:1025300013606B4B6B4A1A606B4B6C4A1A606C4BA6
:102540006C4A1A606C4B6D4A1A6001236C4A137016
:102550006C4A13706C4A13706C4A13709FE6364BCA
:102560001A68364B1A60364B1A68364B1A60684A3E
:10257000354B1A606749354B1960002334480360B6
:1025800034480468344804603448046834480460BB
:102590003448614C04603448036034480360344874
:1025A000046834480460344804683448046034489B
:1025B0000260344802603448036034480468344898
:1025C0000460344804683448046034480160344886
:1025D0000160344803603448046834480460344877
:1025E00004683448046034484C4C04603348036049
:1025F0003348036033480468334804603348046850
:10260000334804603348016033490A60334A136039
:10261000364B334A1360344A1360384B344A1360E4
:10262000354A13600123384A1370384A1370344A0C
:102630001370344A137032E6F803002020030020A0
:10264000F40300201C0300201803002014030020C2
:102650000C030020BC03002008030020B803002066
:102660000403002000030020FC020020F4020020EC
:10267000E0030020F0020020DC030020EC02002038
:10268000E8020020E4020020DC020020EC0300202D
:10269000D8020020E8030020D4020020D00200204D
:1026A000CC020020C4020020C8030020C002002089
:1026B000C4030020BC020020B8020020B4020020A5
:1026C000AC020020D4030020A8020020D003002088
:1026D000A4020020A00200209C02002094020020FE
:1026E000200400200000F0421C0400200000A4424E
:1026F0001804002000001043140400200000704360
:10270000200000203C040020FE030020FD030020E8
:1027100000005CC200005C4200009842000098C2C9
:102720002A4A2B4B1A602B492B4B19602B4B1A60F2
:102730002B4B196000232B4803602B482B4C206047
:102740002B4C23602B4C20602B4803602B480360EC
:102750002B4802602B4802602B4802602B48026025
:102760002B4803602B4801602B4801602B48016017
:102770002B4801602B4803602B482C4C20602C4CCC
:1027800023602C4C20602C4803602C4803602C48AC
:1027900001602C4802602C4801602C490A602C4AD8
:1027A00013602C4B2C4A13602C4A13602C4B2D4A7F
:1027B00013602D4A136001232C4A13702C4A1370A6
:1027C0002C4A13702C4A137069E5704700005CC2F4
:1027D0002003002000005C421C030020180300209E
:1027E000140300200C03002000009842080300207E
:1027F0000403002000030020FC020020F40200205B
:10280000F0020020EC020020E8020020E402002098
:10281000DC020020D8020020D4020020D0020020D8
:10282000CC020020C4020020000098C2C002002098
:10283000BC020020B8020020B4020020AC0200203C
:10284000A8020020A4020020A00200209C02002078
:10285000940200200000A442200400201C04002058
:10286000000070431804002014040020FE03002020
:10287000FD030020200000203C040020814B1B7839
:10288000002B40F0E18110B57F4B01221A70B42378
:1028900093FBF0F307EE903AF8EEE77A7B4BC3ED4B
:1028A000007A7B4BC3ED007A7A4B1B6893427CD055
:1028B000022B00F05F8153B10133764A1360032B82
:1028C00004DD0023704A1370724A136010BD0022A9
:1028D00071490A6071490A6071497248086072481A
:1028E000724908607249734C2160734C2060DFEDBF
:1028F000737A734CC4ED007A724C2260DFF858C2D0
:10290000714CC4F800C0714C2260714CC4F800C016
:10291000DFF854E26F4CC4F800E06F4C22606F4C5B
:1029200020606F4C20606F4C2060DFF830C26E4C2E
:10293000C4F800C06D4C22606D4C21606D4C21606C
:102940006D4C21606D4CC4ED007A6D4C2260DFED62
:102950006D7A6D4CC4ED007A6C4C22606C4CC4ED09
:10296000007A6C4CC4F800E06B4C22606B4C216028
:102970006B4C20606B4801606B49C1F800C06B492B
:102980000A606B4A6B490A606B490A606B4A6C4982
:102990000A606C490A6001226B490A706B490A702F
:1029A0006B490A7037490A7086E76A4A37490A60F4
:1029B00037490A603C483D4A1060DFF8B0E13D4AC3
:1029C000C2F800E03C4A10603D4AC2F800E0002234
:1029D0003C490A6060493C4C2160DFF88CC13B4CAB
:1029E000C4F800C03A4C21603A49C1F800C03A49E5
:1029F0000A603A4908605949394C2160394C2060D5
:102A000039480160394802602948394C2060394C06
:102A1000C4F800E0384C2060384CC4F800E0384C72
:102A20002260DFF84CE1384CC4F800E0374CC4F8C1
:102A300000C0374CC4F800E0364CC4F800C0364C37
:102A40002260364C2060364C2160364C206036487F
:102A5000016036490A60374A35491160364A4049B3
:102A60001160374A35491160364A3E4911600122EA
:102A700035490A7035490A7035490A7001490A70AA
:102A80001AE700BF3C040020FC0300209002002055
:102A900024040020080400201C000020340400202E
:102AA000300400200000344300005CC220030020FA
:102AB00000005C421C030020180300200000D242EA
:102AC000140300200C03002008030020040300204E
:102AD00000030020FC020020F4020020F00200208D
:102AE000EC020020E8020020E4020020DC020020CA
:102AF000D8020020D4020020D0020020CC02002006
:102B0000C4020020000098C2C0020020BC020020C5
:102B1000B8020020B4020020AC020020A80200206D
:102B2000A4020020A00200209C02002094020020A9
:102B30000000A442200400201C0400200000704378
:102B40001804002014040020FE030020FD030020D0
:102B5000200000200000A040000098420000A0C01B
:102B60000000204100001143000048420000D24212
:102B7000000098C2354A36490A6036490A6036482C
:102B8000364A1060DFF880E1354AC2F800E0354A85
:102B90001060354AC2F800E0002234490A60344926
:102BA000344C2160DFF864C1334CC4F800C0334CAE
:102BB00021603349C1F800C032490A6032490860D7
:102BC0003249334C2160334C206033480160334834
:102BD00002603348334C2060334CC4F800E0334C7F
:102BE0002060334CC4F800E0324C2260DFF820E172
:102BF000314CC4F800E0314CC4F800C0304CC4F88B
:102C000000E0304CC4F800C02F4C22602F4C2060F4
:102C10002F4C21602F4C20602F4801602F490A6003
:102C20002F4A30490A6030490A60304A30490A6008
:102C300030490A60012230490A7030490A7030492F
:102C40000A7030490A7037E6704700BF0000A040A4
:102C5000900200202404002000005CC22003002019
:102C60001C03002018030020140300200C03002084
:102C70000000984208030020040300200003002005
:102C8000FC020020F4020020F00200200000A0C09E
:102C9000EC020020E8020020E4020020DC02002018
:102CA00000005C42D8020020D4020020D0020020A4
:102CB000CC020020C4020020C0020020BC02002080
:102CC000B8020020B4020020AC020020A8020020BC
:102CD000A4020020A00200209C02002094020020F8
:102CE00000002041200400201C04002000001143AB
:102CF0001804002014040020FE030020FD0300201F
:102D0000200000203C0400200000D2420000484285
:102D1000000098C20000000008B52DED028B284B82
:102D200093ED008ADFED277AB4EEE78AF1EE10FA30
:102D30003CD8254BD3ED006A244B93ED007A37EE57
:102D4000667AB2EE046AC7EE067A77EEA77A204B6F
:102D5000C3ED007A68EE277ADFED1E5A87EEA57A7A
:102D600067EE067A76EEA77A17EE900AFDF7DCFB9F
:102D700011A3D3E90023FDF72FFCFDF7DDFE164B71
:102D80001860164BD3ED007A38EE278A0C4B83ED92
:102D9000008ADFED0C7AB4EEE78AF1EE10FA05DD79
:102DA0000F4B00221A70064B00221A60BDEC028BFA
:102DB00008BD00BFAFF3008048E17A14AE470B4076
:102DC00010040020000034431804002014040020E4
:102DD000280400200000B443040400202404002040
:102DE000FE0300201F4BD3ED007A9FED1F7AF4EE17
:102DF000C77AF1EE10FA34D81C4BD3ED006A1C4BA5
:102E000093ED006A36EE666AF2EE045A86EE257A93
:102E100037EE077A174B83ED007A27EE877A9FED1E
:102E2000165A87EE056A26EE257A76EE876AFDEE5B
:102E3000E66A124BC3ED006A114B93ED007A77EE10
:102E4000877A084BC3ED007A9FED077AF4EEC77AD4
:102E5000F1EE10FA05DD0B4B00221A70014B002237
:102E60001A6070470C040020000034432004002046
:102E70001C0400202C0400200000B44300040020A7
:102E800024040020FD03002008B5434B1B78002BD1
:102E900035D1424B1B78002B31D1414B01221A70A6
:102EA000B42393FBF0F307EE903AF8EEE77A3D4B4C
:102EB000C3ED007A3C4B1B68042B15D8DFE803F008
:102EC000032038495B00394B394A1A60394B3A4A7A
:102ED0001A603A4B3A4A1A603A4B3B4A1A6001234D
:102EE0002D4A13702D4A13702F4A13680133136053
:102EF000052B04DD00232A4A13702B4A136008BDFA
:102F00008721324809F0D4FB2821314809F0D0FB51
:102F1000294B264A1360274A13602B4B274A13601C
:102F2000284A136001231C4A13701C4A1370DBE704
:102F30001E4B214A1A601F4B264A1A60224B1F4A19
:102F40001360204A13600123134A1370134A13704D
:102F5000CAE7164B1F4A1A60164B154A1A60174BE0
:102F6000194A1A60174B164A1A6001230A4A13704D
:102F70000A4A1370B8E70E4B0C4A13600D4A1360EF
:102F80000F4B0E4A13600F4A13600123024A13705D
:102F9000024A1370A8E700BFFE030020FD030020D3
:102FA000FC0300202404002008040020200400204A
:102FB0000000A4421C0400200000784218040020F5
:102FC00000007043140400200000EA423C05002089
:102FD000380500200000CC4208B5434B1B78002B7D
:102FE00035D1424B1B78002B31D1414B01221A7055
:102FF000B42393FBF0F307EE903AF8EEE77A3D4BFB
:10300000C3ED007A3C4B1B68042B15D8DFE803F0B6
:10301000032038495B00394B394A1A60394B3A4A28
:103020001A603A4B3A4A1A603A4B3B4A1A600123FB
:103030002D4A13702D4A13702F4A13680133136001
:10304000052B04DD00232A4A13702B4A136008BDA8
:103050008721324809F02CFB2821314809F028FB50
:10306000294B264A1360274A13602B4B274A1360CB
:10307000284A136001231C4A13701C4A1370DBE7B3
:103080001E4B214A1A601F4B264A1A60224B1F4AC8
:103090001360204A13600123134A1370134A1370FC
:1030A000CAE7164B1F4A1A60164B154A1A60174B8F
:1030B000194A1A60174B164A1A6001230A4A1370FC
:1030C0000A4A1370B8E70E4B0C4A13600D4A13609E
:1030D0000F4B0E4A13600F4A13600123024A13700C
:1030E000024A1370A8E700BFFE030020FD03002082
:1030F000FC030020240400200804002020040020F9
:103100000000A4421C0400200000484218040020D3
:103110000000704314040020000006433C0500201A
:10312000380500200000B84210B52DED028B90B09C
:10313000DFED837AC0EE277A17EE900AFDF7F4F9F7
:103140007DA3D3E90023FDF747FAFDF71DFD08EE47
:10315000100A2422002107A810F0D0FF4FF07E5360
:103160000F93B0EE480A11F07FFC10EE104A8DED7F
:10317000070AB0EE480A11F0B7FCF1EE407ACDED47
:10318000087A8DED0A0A0B940022049205920692A9
:1031900001920292039231E002EB0C0310A800EBC3
:1031A000830313ED0C7A02EB4200084410AC04EBED
:1031B000800050ED097A0CEB010E624800EB8E00A6
:1031C000D0ED006A67EEA66A37EE267A03ED0C7A38
:1031D00013ED0F7A5C4800EB8E00D0ED006A67EECD
:1031E000A67A77EE277A43ED0F7A01310129D3DDF4
:1031F0000CF1010CBCF1000F05DD0132012A04DCE9
:103200004FF0000CF6E70021F0E7504BD3ED008AB9
:10321000F5EEC08AF1EE10FA2ED4F5EEC08AF1EE8A
:1032200010FA25DDB5EEC08AF1EE10FA67D4B5EEDE
:10323000C08AF1EE10FA1BDB9DED040A11F0EEFCE2
:10324000434B83ED000A9DED050A11F0E7FC414B6D
:1032500083ED000A9DED010A11F0E0FC3E4B83ED89
:10326000000A9DED020A11F0D9FC3C4B83ED000AE7
:1032700010B0BDEC028B10BDB5EEC08AF1EE10FAB5
:103280001BDB9DED040A11F0C9FC354B83ED000AF0
:103290009DED050A11F0C2FC324B83ED000A9DED55
:1032A000010A11F0BBFC304B83ED000A9DED020AD0
:1032B00011F0B4FC2D4B83ED000AB5EEC08AF1EE9F
:1032C00010FAAAD59DED040A11F0A8FC204B83ED5D
:1032D000000A9DED050A11F0A1FC1E4B83ED000ACA
:1032E0009DED010A11F09AFC1B4B83ED000A9DED48
:1032F000020A11F093FC194B83ED000A8DE79DED56
:10330000040A11F08BFC164B83ED000A9DED050AB3
:1033100011F084FC134B83ED000A9DED010A11F0BE
:103320007DFC114B83ED000A9DED020A11F076FC45
:103330000E4B83ED000A7AE7182D4454FB21094017
:10334000000034436C7F0108607F0108E001002029
:103350006403002094030020540300208403002011
:103360007C030020AC0300206C0300209C030020A1
:1033700010B52DED028B10EE904AF3EE097AB4EE03
:10338000E70AF1EE10FA01DDB0EE670AFBEE097A0A
:10339000B4EEE70AF1EE10FA01D5B0EE670AAB4BD6
:1033A00083ED000A9FEDAA7AC7EE017AA94BC3ED1F
:1033B000007AA94B1B78002B40F0B680A74B1B6806
:1033C000032B00F2A880DFE813F00400B200B10183
:1033D0005402DFEDA38A77EEA87AA24BC3ED007A00
:1033E000A14BA24A1A60F6EE007A20EE278AB0EED0
:1033F000480AFFF799FEB1EE480AFFF795FE9C4B8D
:10340000D3ED006AF1EE664A9A4BC3ED004A9A4B3F
:1034100093ED005A994B83ED005A994B93ED006A56
:10342000B1EE464A974B83ED004A974BD3ED005AD5
:10343000964BC3ED005A964BC3ED008A954B1C602A
:10344000954B93ED007A954B83ED007A944B1A6877
:10345000944B1A60944BD3ED007A944BC3ED007AF1
:10346000934B1B6893490B609349C1ED008A9349C4
:103470000C60934981ED004AB1EE654A914981EDB6
:10348000004A9149C1ED004AF1EE454A8F49C1ED2C
:10349000004A8F49C1ED008A8E490C608E49C1ED0A
:1034A000006A8E4981ED005A8D4981ED006A8D498F
:1034B000C1ED005A8C49C1ED008A8C49C1ED008AEA
:1034C000B1EE477A8A4981ED007A8A490A60F1EEC5
:1034D000677A894AC2ED007A884A1360884BC3ED47
:1034E000008A884BC3ED008A874B83ED006A874BC7
:1034F00083ED004A864BC3ED006A864BC3ED004A5C
:10350000854BC3ED008A854BC3ED008A0123844AB5
:103510001370514A1370514A136801331360032B1F
:1035200002DD134600221A60BDEC028B10BD9FED38
:103530007D7A77EE877A4B4BC3ED007A4A4B83ED69
:10354000007A4F4BD3ED006AF1EE664A494BC3ED6A
:10355000004A4D4B93ED005A484B83ED005A444BC3
:1035600093ED006AB1EE464A464B83ED004A424B6A
:10357000D3ED005A454BC3ED005A0023444A136073
:10358000444A1360484A92ED007A444A82ED007A38
:10359000474A1168434A11603F4AD2ED007A434AD4
:1035A000C2ED007A3E4A1268424802604248036017
:1035B00042480360424880ED004AB1EE654A414806
:1035C00080ED004A4048C0ED004AF1EE454A3F48D0
:1035D000C0ED004A3E4803603E4803603E48C0EDEF
:1035E000006A3E4880ED005A3D4880ED006A3D4843
:1035F000C0ED005A3C4803603C480460B1EE477A95
:103600003B4880ED007A3B480160F1EE677A3A4929
:10361000C1ED007A39490A60394A1360394A1460A9
:10362000394A82ED006A394A82ED004A384AC2EDD1
:10363000006A384AC2ED004A374A1360374B1C60B3
:103640000123374A1370044A137064E7E001002035
:1036500000003443900200203C0400203804002085
:103660000000000034040020300400200000344337
:103670006403002020030020940300201C0300208A
:103680007C03002018030020AC030020140300205A
:10369000100300200C0300206C030020080300200E
:1036A0009C0300200403002054030020000300209A
:1036B00084030020FC020020F8020020F402002015
:1036C000F0020020EC020020E8020020E4020020CA
:1036D000E0020020DC020020D8020020D4020020FA
:1036E000D0020020CC020020C8020020C40200202A
:1036F000C0020020BC020020B8020020B40200205A
:10370000B0020020AC020020A8020020A402002089
:10371000A00200209C0200209802002094020020B9
:10372000200000200000B442000000005FED028A8B
:1037300077EEA87A964BC3ED007A964B964A1A60BC
:10374000F6EE007A20EE278AB0EE480AFFF7ECFC8E
:10375000B1EE480AFFF7E8FC904BD3ED006AF1EEBA
:10376000664A8F4BC3ED004A8E4B93ED005A8E4B49
:1037700083ED005A8D4B93ED006AB1EE464A8C4BB7
:1037800083ED004A8B4BD3ED005A8B4BC3ED005AAF
:103790008A4BC3ED008A8A4BC3ED008A894B93EDB7
:1037A000007A894B83ED007A884B1A68884B1A603F
:1037B000884BD3ED007A884BC3ED007A874B1B68AA
:1037C00087490B608749C1ED008A8749C1ED008AAE
:1037D000864981ED004AB1EE654A854981ED004A8E
:1037E0008449C1ED004AF1EE454A8349C1ED004AE2
:1037F0008249C1ED008A8249C1ED008A8149C1ED4B
:10380000006A814981ED005A804981ED006A804952
:10381000C1ED005A7F49C1ED008A7F490C60B1EECD
:10382000477A7E4981ED007A7D490A60F1EE677A38
:103830007C4AC2ED007A7C4A13607C4BC3ED008A5F
:103840007B4B1C607B4B83ED006A7B4B83ED004A16
:103850007A4BC3ED006A7A4BC3ED004A794BC3ED56
:10386000008A794B1C600123784A1370784A1370E0
:1038700051E69FED787A77EE877A454BC3ED007A73
:10388000444B83ED007A494BD3ED006AF1EE664A72
:10389000434BC3ED004A474B93ED005A424B83ED37
:1038A000005A3E4B93ED006AB1EE464A404B83ED21
:1038B000004A3C4BD3ED005A3F4BC3ED005A002366
:1038C0003E4A13603E4A1460424A92ED007A3E4AF4
:1038D00082ED007A414A11683D4A1160394AD2EDC1
:1038E000007A3D4AC2ED007A384A12683C480260CC
:1038F0003C4803603C4804603C4880ED004AB1EE1F
:10390000654A3B4880ED004A3A48C0ED004AF1EE76
:10391000454A3948C0ED004A3848036038480460D9
:103920003848C0ED006A384880ED005A374880EDCD
:10393000006A3748C0ED005A3648036036480360D5
:10394000B1EE477A354880ED007A35480160F1EEF6
:10395000677A3449C1ED007A33490A60334A13600B
:10396000334A1360334A82ED006A334A82ED004ADB
:10397000324AC2ED006A324AC2ED004A314A13604F
:10398000314A13600123314A1370314A1370C2E582
:103990003404002030040020000034437C03002065
:1039A00020030020AC0300201C030020640300203F
:1039B00018030020940300201403002010030020AB
:1039C0000C0300205403002008030020840300207F
:1039D000040300206C030020000300209C0300204F
:1039E000FC020020F8020020F4020020F002002077
:1039F000EC020020E8020020E4020020E0020020A7
:103A0000DC020020D8020020D4020020D0020020D6
:103A1000CC020020C8020020C4020020C002002006
:103A2000BC020020B8020020B4020020B002002036
:103A3000AC020020A8020020A4020020A002002066
:103A40009C02002098020020940200202000002008
:103A50003C0400200000B44210B400202A4B18603F
:103A600000232A4A13602A4A13602A4A2A490A6014
:103A70002A492B4C21602B4C22602B4C21602B4C73
:103A80002360DFF818C12A4CC4F800C0294C236019
:103A9000294CC4F800C0294C2360294C2360294CD0
:103AA0002260294C2260294C2260294C2260294C3A
:103AB0002360294C2160294C2160294C2160294C2C
:103AC0002160294C2360DFF8D8C0284CC4F800C01E
:103AD000274C2360274CC4F800C0274C2360274C98
:103AE0002360274C2160274C2260274C2160274906
:103AF0000A60274A1360274B01221A70264B187060
:103B00005DF8044B704700BF380400201C00002003
:103B10003004002000005CC22003002000005C4252
:103B20001C03002018030020140300200C030020B5
:103B3000080300200403002000030020FC020020F2
:103B4000F4020020F0020020EC020020E802002035
:103B5000E4020020DC020020D8020020D402002071
:103B6000D0020020CC020020C4020020C0020020AD
:103B7000BC020020B8020020B4020020AC020020E9
:103B8000A8020020A4020020A00200209C02002025
:103B900094020020200000203C04002000009642F7
:103BA000000096C20000000038B52DED068BF0EE47
:103BB000408AB0EE608AF0EE41AA80EEA80A10F0CA
:103BC00079FEDFED959A60EE297A17EE900AFCF700
:103BD000ABFC8BA3D3E90023FCF728FE00228F4B1C
:103BE000FCF744FB41EC100B10F0C8FF51EC100B3C
:103BF000FCF7CAFF07EE900A894B18609FED897A9F
:103C000077EEC77A9FED887A77EE877AB0EE007A02
:103C100077EEC77A854B93ED007A77EE877A17EEC9
:103C2000900AFCF781FC78A3D3E90023FCF7D4FCCD
:103C3000FCF7AAFF0AEE100A7D4B18607D4B93ED4E
:103C4000009AB8EEC99A39EE2A9A7B4B83ED009A16
:103C500068EEA88A28EE088A38EE880A10F008FE76
:103C6000764B83ED000AF3EE067A30EE678A744BEA
:103C700083ED008A28EE080A69EE097A30EE270AF9
:103C800010F0F6FDF0EE408A6E4B83ED000A89EEEF
:103C9000080A10F00FFEB0EE408A6B4B83ED000A6D
:103CA00028EEA89A9FED690A39EE000ADFED687ADE
:103CB00030EE670ADFED677A68EEA78A80EE280AA1
:103CC00010F0AAFD644B83ED000A38EE008A634BC6
:103CD00083ED008A68EE297A17EE900AFCF724FC3F
:103CE00047A3D3E90023FCF7A1FD41EC100B10F032
:103CF00045FF51EC100B0022594BFCF7B7FA024676
:103D00000B4643A1D1E90001FCF7AEFA04460D468B
:103D1000544B1868FCF708FC02460B46204629461F
:103D2000FCF7A4FA38A3D3E90023FCF755FCFCF711
:103D30002BFF08EE900A4C4B1860DFED4C7A77EEC3
:103D4000C97A9FED4B0A87EE800A10F065FD494B5A
:103D500083ED000A60EE297A17EE900AFCF7E4FB87
:103D600027A3D3E90023FCF761FD00223C4BFCF7BD
:103D70007BFA41EC100B10F001FF53EC102B0020EC
:103D80003749FCF771FA02460B4621A1D1E900013F
:103D9000FCF76AFA04460D46374B1868FCF7C4FB7B
:103DA00002460B4620462946FCF760FA16A3D3E9E3
:103DB0000023FCF711FCFCF7E7FE08EE100A2F4B7E
:103DC0001860B0EE4A0A10F029FF2D4CBDEEC00A73
:103DD00084ED000AB0EE680A10F020FFBDEEC00AC4
:103DE00084ED010AB0EE480A10F018FFBDEEC00ADB
:103DF00084ED020ABDEC068B38BD00BFAFF3008036
:103E0000182D4454FB21094048E17A14AE470B4079
:103E10000000000000C07240000034430080664093
:103E20002C0200200000074300004343080200204A
:103E30004002002018000020440200202802002038
:103E400020020020240200201C02002000902F45A8
:103E5000002099450000D4421802002034020020BE
:103E600000805640F40100203C02002000E8F045AC
:103E700000E0E74530020020F00100203802002079
:103E8000480200200000000038B52DED068BF0EE52
:103E9000408AB0EE608AB0EE41AA80EEA80A10F027
:103EA00009FD9FED9B9A60EE097A17EE900AFCF7E8
:103EB0003BFB91A3D3E90023FCF7B8FC0022954B10
:103EC000FCF7D4F941EC100B10F058FE51EC100B3C
:103ED000FCF75AFE07EE900A8F4B186077EEC97A0E
:103EE0009FED8E7A77EE877A8D4BC3ED007AF4EEF4
:103EF000C97AF1EE10FA05DD9FED8A7A77EEC77A7E
:103F0000C3ED007A864C2068FCF70EFB7CA3D3E956
:103F10000023FCF761FBFCF737FE09EE900A2060F6
:103F2000814B93ED009AB8EEC99A39EE0A9A7F4B0D
:103F300083ED009A68EEA88A28EE088A38EE880A8F
:103F400010F096FC7A4B83ED000AF3EE067A30EE21
:103F5000678A784B83ED008A28EE080A69EE097AB1
:103F600030EE270A10F084FCF0EE408A724B83EDAD
:103F7000000A89EE080A10F09DFCB0EE408A6F4BF3
:103F800083ED000A28EEA89ADFED6D7A79EE277AA4
:103F90009FED6C7A77EEC77A9FED6B7A68EE878A31
:103FA00087EEA80A10F038FC684B83ED000A30EE6B
:103FB000080A674B83ED000A9FED558A60EE087A88
:103FC00017EE900AFCF7B0FA4BA3D3E90023FCF7F5
:103FD0002DFC41EC100B10F0D1FD51EC100B002228
:103FE0005C4BFCF743F902460B4647A1D1E90001BF
:103FF000FCF73AF900224FF08043FCF737F904460A
:104000000D46554B1868FCF78FFA02460B462046C2
:104010002946FCF72BF93AA3D3E90023FCF7DCFA95
:10402000FCF7B2FD08EE900A4C4B1860DFED4C7ABD
:1040300077EEC97A9FED4B0A87EE800A10F0ECFB11
:10404000494B83ED000A60EE087A17EE900AFCF700
:104050006BFA29A3D3E90023FCF7E8FB00223D4BD0
:10406000FCF702F941EC100B10F088FD53EC102B1B
:1040700000203849FCF7F8F802460B4622A1D1E9A6
:104080000001FCF7F1F80022384BFCF7EFF804468A
:104090000D46374B1868FCF747FA02460B46204698
:1040A0002946FCF7E3F816A3D3E90023FCF794FABA
:1040B000FCF76AFD08EE100A2E4B1860B0EE690A94
:1040C00010F0ACFD2C4CBDEEC00A84ED030AB0EE3E
:1040D000680A10F0A3FDBDEEC00A84ED040AB0EE3C
:1040E000480A10F09BFDBDEEC00A84ED050ABDEC48
:1040F000068B38BDAFF30080182D4454FB210940D6
:1041000048E17A14AE470B400000000000C0724046
:1041100000003443008066402C020020000016435B
:10412000400200200000B44314000020440200209C
:104130002802002020020020240200201C0200206F
:1041400000902F45002099450000D442180200201D
:104150003402002000805640040200203C0200206F
:1041600000E8F04500E0E7453002002000002C4068
:104170000002002038020020480200200000000059
:1041800038B52DED068BF0EE408AB0EE608AF0EE89
:1041900041AA80EEA80A10F08DFBDFED959A60EE43
:1041A000297A17EE900AFCF7BFF98BA3D3E9002315
:1041B000FCF73CFB00228F4BFCF758F841EC100B4E
:1041C00010F0DCFC51EC100BFCF7DEFC07EE900A63
:1041D000894B18609FED897A77EEC77A9FED887AD0
:1041E00077EE877A874B93ED017A77EE877A17EE31
:1041F000900AFCF799F97AA3D3E90023FCF7ECF9CC
:10420000FCF7C2FC0AEE100A7F4B18607F4B93ED5F
:10421000009AB8EEC99A39EE2A9A7D4B83ED009A3E
:1042200068EEA88A28EE088A38EE880A10F020FB8B
:10423000784B83ED000AF3EE067A30EE678A764B10
:1042400083ED008A28EE080A69EE097A30EE270A23
:1042500010F00EFBF0EE408A704B83ED000A89EE01
:10426000080A10F027FBB0EE408A6D4B83ED000A80
:1042700028EEA89A9FED6B0A39EE000ADFED6A7A04
:1042800030EE670ADFED697A68EEA78A80EE280AC9
:1042900010F0C2FA664B83ED000A38EE008A654BD7
:1042A00083ED008A68EE297A17EE900AFCF73CF954
:1042B00049A3D3E90023FCF7B9FA41EC100B10F045
:1042C0005DFC51EC100B00225B4BFBF7CFFF02466D
:1042D0000B4645A1D1E90001FBF7C6FF04460D4698
:1042E000564B1868FCF720F902460B462046294633
:1042F000FBF7BCFF3AA3D3E90023FCF76DF9FCF709
:1043000043FC08EE900A4E4B1860DFED4E7A77EED4
:10431000C97A9FED4D0A87EE800A10F07DFA4B4B6B
:1043200083ED000A60EE297A17EE900AFCF7FCF89C
:1043300029A3D3E90023FCF779FA00223E4BFBF7CF
:1043400093FF41EC100B10F019FC53EC102B0020E4
:104350003949FBF789FF02460B4623A1D1E9000149
:10436000FBF782FF00223A4BFBF77EFF04460D4627
:10437000384B1868FCF7D8F802460B462046294609
:10438000FBF774FF16A3D3E90023FCF725F9FCF72C
:10439000FBFB08EE100A304B1860B0EE4A0A10F032
:1043A0003DFC2E4CBDEEC00A84ED060AB0EE680A54
:1043B00010F034FCBDEEC00A84ED070AB0EE480AE6
:1043C00010F02CFCBDEEC00A84ED080ABDEC068B93
:1043D00038BD00BFAFF30080182D4454FB210940C5
:1043E00048E17A14AE470B400000000000C0724064
:1043F00000003443008066402C020020000061432E
:104400000000D242080200204002002010000020DC
:104410004402002028020020200200202402002064
:104420001C02002000902F45002099450000D44236
:10443000180200203402002000805640F4010020C1
:104440003C02002000E8F04500E0E7453002002093
:1044500000000840F001002038020020480200203F
:1044600038B52DED068BF0EE408AB0EE608AF0EEA6
:1044700041AA80EEA80A10F01DFADFED899A60EEDD
:10448000297A17EE900AFCF74FF881A3D3E90023AD
:10449000FCF7CCF90022834BFBF7E8FE41EC100B54
:1044A00010F06CFB51EC100BFCF76EFB07EE900A62
:1044B0007D4B18609FED7D7A77EEC77A9FED7C7A11
:1044C00077EE877A7B4B93ED027A77EE877A17EE59
:1044D000900AFCF729F870A3D3E90023FCF77CF8D5
:1044E000FCF752FB0AEE100A734B1860734B93ED06
:1044F000009AB8EEC99A39EE2A9A714B83ED009A68
:1045000068EEA88A28EE088A38EE880A10F0B0F91A
:104510006C4B83ED000AF3EE067A30EE678A6A4B45
:1045200083ED008A28EE080A69EE097A30EE270A40
:1045300010F09EF9F0EE408A644B83ED000A89EE9C
:10454000080A10F0B7F9B0EE408A614B83ED000A1B
:1045500028EEA89A9FED5F0A39EE000ADFED5E7A39
:1045600030EE670ADFED5D7A68EEA78A80EE280AF2
:1045700010F052F95A4B83ED000A38EE008A594B7D
:1045800083ED008A68EE297A17EE900AFBF7CCFFDC
:104590003FA3D3E90023FCF749F941EC100B10F0DD
:1045A000EDFA51EC100B00224F4BFBF75FFE044677
:1045B0000D464E4B1868FBF7B7FF02460B462046E8
:1045C0002946FBF753FE34A3D3E90023FCF704F894
:1045D000FCF7DAFA08EE900A454B1860DFED457AF1
:1045E00077EEC97A9FED440A87EE800A10F014F93D
:1045F000424B83ED000A60EE297A17EE900AFBF732
:1046000093FF23A3D3E90023FCF710F90022364BD4
:10461000FBF72AFE41EC100B10F0B0FA53EC102B14
:1046200000203149FBF720FE04460D46344B186844
:10463000FBF77AFF02460B4620462946FBF716FE9B
:1046400015A3D3E90023FBF7C7FFFCF79DFA08EE9B
:10465000100A2C4B1860B0EE4A0A10F0DFFA2A4C10
:10466000BDEEC00A84ED090AB0EE680A10F0D6FA71
:10467000BDEEC00A84ED0A0AB0EE480A10F0CEFA88
:10468000BDEEC00A84ED0B0ABDEC068B38BD00BF41
:10469000182D4454FB21094048E17A14AE470B40E1
:1046A00000003443008076402C02002000809D43AF
:1046B00000004343080200204002002010000020B8
:1046C00044020020280200202002002024020020B2
:1046D0001C02002000902F45002099450000D44284
:1046E000180200203402002000805640EC01002017
:1046F0003C02002000E8F04500E0E74530020020E1
:10470000E8010020380200204802002000000000DC
:1047100038B52DED048BF0EE408AB0EE608A8E4BFA
:1047200093ED009AB8EEC99A39EE019A8B4B83ED5E
:10473000009A80EEA80A10F0BDF8DFED899A60EECD
:10474000297A17EE900AFBF7EFFE7FA3D3E9002347
:10475000FCF76CF841EC100B10F010FA51EC100B58
:10476000FCF712FA07EE900A7E4B18609FED7E7AF6
:1047700077EE877A7D4BC3ED007AF4EEE97AF1EEBD
:1047800010FA05DD9FED7A7A77EEC77AC3ED007AED
:10479000764C2068FBF7C8FE6DA3D3E90023FBF736
:1047A0001BFFFCF7F1F909EE900A206068EEA88A79
:1047B00028EE088A38EE880A10F05AF86D4B83ED1F
:1047C000000AF3EE067A30EE678A6B4B83ED008ABF
:1047D00028EE080A69EE097A30EE270A10F048F848
:1047E000F0EE408A654B83ED000A89EE080A10F06E
:1047F00061F8B0EE408A624B83ED000A28EEA89A79
:10480000DFED607A79EE277A9FED5F7A77EEC77AEF
:104810009FED5E7A68EE878A87EEA80A0FF0FCFFAC
:104820005B4B83ED000A30EE080A5A4B83ED000A19
:104830009FED4B8A60EE087A17EE900AFBF774FE44
:1048400041A3D3E90023FBF7F1FF41EC100B10F07B
:1048500095F951EC100B00224F4BFBF707FD00229E
:104860004FF08043FBF700FD04460D464B4B1868A4
:10487000FBF75AFE02460B4620462946FBF7F6FC9C
:1048800033A3D3E90023FBF7A7FEFCF77DF908EE7D
:10489000900A434B1860DFED437A77EEC97A9FEDBB
:1048A000420A87EE800A0FF0B7FF404B83ED000A03
:1048B00060EE087A17EE900AFBF736FE22A3D3E9E2
:1048C0000023FBF7B3FF0022334BFBF7CDFC41EC99
:1048D000100B10F053F953EC102B00202E49FBF76E
:1048E000C3FC04460D46324B1868FBF71DFE02461A
:1048F0000B4620462946FBF7B9FC15A3D3E9002354
:10490000FBF76AFEFCF740F908EE100A294B186025
:10491000B0EE690A10F082F9274CBDEEC00A84EDB2
:104920000C0AB0EE680A10F079F9BDEEC00A84ED09
:104930000D0AB0EE480A10F071F9BDEEC00A84ED20
:104940000E0ABDEC048B38BD182D4454FB210940E0
:1049500048E17A14AE470B401400002044020020C6
:10496000000034432C0200200000164340020020C7
:104970000000B4432802002020020020240200206E
:104980001C02002000902F45002099450000D442D1
:10499000180200203402002000805640FC01002054
:1049A0003C02002000E8F04500E0E745300200202E
:1049B000F80100203802002048020020000000001A
:1049C00038B52DED068BF0EE408AB0EE608AF0EE41
:1049D00041AA80EEA80A0FF06DFFDFED8B9A60EE22
:1049E000297A17EE900AFBF79FFD83A3D3E90023F2
:1049F000FBF71CFF41EC100B10F0C0F851EC100B52
:104A0000FCF7C2F807EE900A804B18609FED807AA1
:104A100077EEC77A9FED7F7A77EE877AB0EE087AE5
:104A200077EEC77A7C4B93ED037A77EE877A17EEB1
:104A3000900AFBF779FD72A3D3E90023FBF7CCFDC5
:104A4000FCF7A2F80AEE100A744B1860744B93ED51
:104A5000009AB8EEC99A39EE2A9A724B83ED009A01
:104A600068EEA88A28EE088A38EE880A0FF000FF60
:104A70006D4B83ED000AF3EE067A30EE678A6B4BDE
:104A800083ED008A28EE080A69EE097A30EE270ADB
:104A90000FF0EEFEF0EE408A654B83ED000A89EEE2
:104AA000080A0FF007FFB0EE408A624B83ED000A60
:104AB00028EEA89A9FED600A39EE000ADFED5F7AD2
:104AC00030EE670ADFED5E7A68EEA78A80EE280A8C
:104AD0000FF0A2FE5B4B83ED000A38EE008A5A4BC2
:104AE00083ED008A68EE297A17EE900AFBF71CFD29
:104AF00041A3D3E90023FBF799FE41EC100B10F022
:104B00003DF851EC100B0022504BFBF7AFFB044675
:104B10000D464F4B1868FBF707FD02460B46204633
:104B20002946FBF7A3FB36A3D3E90023FBF754FD8B
:104B3000FCF72AF808EE900A464B1860DFED467A3B
:104B400077EEC97A9FED450A87EE800A0FF064FE82
:104B5000434B83ED000A60EE297A17EE900AFBF7CB
:104B6000E3FC25A3D3E90023FBF760FE0022374BCB
:104B7000FBF77AFB41EC100B10F000F853EC102B14
:104B800000203249FBF770FB0022364BFBF76EFB2F
:104B900004460D46344B1868FBF7C6FC02460B462C
:104BA00020462946FBF762FB15A3D3E90023FBF758
:104BB00013FDFBF7E9FF08EE100A2C4B1860B0EE6E
:104BC0004A0A10F02BF82A4CBDEEC00A84ED0F0AF9
:104BD000B0EE680A10F022F8BDEEC00A84ED100AAB
:104BE000B0EE480A10F01AF8BDEEC00A84ED110AC2
:104BF000BDEC068B38BD00BF182D4454FB21094085
:104C000048E17A14AE470B40000034432C020020E8
:104C1000000034420000D24208020020400200207E
:104C2000180000204402002028020020200200205A
:104C3000240200201C02002000902F4500209945EE
:104C40000000D442180200203402002000805640A8
:104C5000EC0100203C02002000E8F04500E0E745C0
:104C60003002002000000840E80100203802002047
:104C70004802002000B595B01348FCF7AEF9E8B142
:104C8000114BB3F96430CBB10F4AB2F962300093E3
:104C9000B2F910201392934213DB13AA106802B2E8
:104CA00009490A82934209D0013008826846FCF71C
:104CB000F0F84C22694605480FF009FB15B05DF885
:104CC00004FB6A46EAE700BF8C050020400500208F
:104CD00010B5044601210EF0ABFA002120460EF07B
:104CE00025FB022006F03CF8012120460EF01EFBB9
:104CF000032006F035F8002120460EF017FB0021B6
:104D000020460EF095FA084A012120460EF038FBA5
:104D1000064B1860064B83FB00230344C017C0EB0F
:104D20006310044B186010BD40420F005404002073
:104D300009CB3D8D5804002038B52DED028B0C4673
:104D4000FFF7C6FF284D28602046FFF7C1FF274B1D
:104D50001860274B93ED007AF7EE008A78EEC78A49
:104D6000244B93ED000A28EE800AD5ED007AF8EE88
:104D7000E77A67EE877A30EE270A83ED000A1E4B4A
:104D8000D3ED007A68EEA78A07EE900AF8EEE77A8C
:104D900067EE877A78EEA78AC3ED008A0FF03EFFB0
:104DA000B0EE408AB0EE680A0FF038FF38EE408A65
:104DB000F0EE087A28EE278AFDEEC87A17EE903AD0
:104DC0000E4AC2ED007A192B02DD134619221A6031
:104DD0000A4B1B6813F1190F03DA084B6FF0180226
:104DE0001A60BDEC028B38BD44040020480400204A
:104DF00000000020A4010020A00100205004002099
:104E000008B500213E200EF091FA022005F0A8FF1F
:104E100001213E200EF08AFA052005F0A1FF0021B5
:104E20003E200EF083FA084A0121CC200EF0A8FAA9
:104E3000064A1060064B83FB00130344C017C0EB07
:104E40006310106008BD00BF40420F004004002006
:104E500009CB3D8D012906DD01F1FF3C00239C4576
:104E600014DD10B403E0704701339C450BDD50F8AE
:104E700023105A1C50F82240A142F5DD40F823408F
:104E800040F82210F0E75DF8044B704770470000CF
:104E900030B59DB00546002408E028460EF09AF98A
:104EA0001CAB03EB840343F8640C0134182CF4DDD1
:104EB000192103A8FFF7CEFF41F2883300930023A6
:104EC00040F2FF3219460F980DF07AFFFBF71AFBFC
:104ED00000220F4BFBF7AAFC9FED091B41EC100BC6
:104EE0000FF0DAFB51EC100B07A3D3E90023FBF71B
:104EF00073FBFBF721FE1DB030BD00BFAFF3008098
:104F00001283C0CAA145F3BFEE7C3F355EBA3B4079
:104F100000408F4008B5FFF7BBFF034B186002202D
:104F200005F01EFF08BD00BF2C050020000000009A
:104F300008B52DED028B1E4BD3ED008A1D4B93ED72
:104F4000008A28EE888A1C4B83ED008A1B4B186868
:104F5000FBF7EAFA14A3D3E90023FBF7AFFD10B186
:104F6000164B174A1A60174BD3ED007A78EEE78A92
:104F7000124B93ED007AC8EE877A134B93ED007ACB
:104F800067EE877A114BC3ED007A38EE278AF2EE8E
:104F9000047A28EE278A0E4B83ED008ABDEC028B43
:104FA00008BD00BFAFF3008095D626E80B2E113E5A
:104FB000DC0100200C000020D8010020C8010020E6
:104FC0005F708930C0010020BC010020D4010020A6
:104FD000D001002070B50C461D461046FFF778FE44
:104FE000354E30602846FFF773FE344B1860336847
:104FF0001B1A07EE903AF8EEE77A314BC3ED007AD0
:10500000FFF796FF07EE904AF8EEE77A2D4B93ED07
:10501000007AF4EEC77AF1EE10FA01D8C3ED007A07
:10502000644207EE904AF8EEE77A264B93ED007A59
:10503000F4EEC77AF1EE10FA01DBC3ED007A214BF2
:10504000D3ED007AF5EEC07AF1EE10FA21DD1E4BB9
:10505000C3ED007A1D4B00221A601D4C1D4D2B68BC
:1050600023600EF031FA07EE900AF8EE677AC5ED8C
:10507000007A94ED007A77EEC77ADFED176A87EE53
:10508000A67A164B83ED007A0D4B1A68144B1A6002
:1050900070BDF5EEC07AF1EE10FA05D400230B4A8C
:1050A0001360094A1360D8E7084BC3ED007A064B3A
:1050B00000221A60D1E700BF440400204804002009
:1050C000DC010020D0010020B4010020B801002044
:1050D000C4010020CC01002000007A44C801002057
:1050E000C001002070B5044615460846FFF7F0FDE4
:1050F0003A4E30602846FFF7EBFD394B18603368B5
:105100001B1A07EE903AF8EEE77A364BC3ED007AB9
:10511000FFF70EFF07EE904AF8EEE77A324B93ED79
:10512000007AF4EEC77AF1EE10FA01D8C3ED007AF6
:10513000644207EE904AF8EEE77A2B4B93ED007A43
:10514000F4EEC77AF1EE10FA01DBC3ED007A264BDC
:10515000D3ED007AF5EEC07AF1EE10FA26DDF1EE2D
:10516000677A224BC3ED007A214BC3ED007A214BC5
:1051700000221A60204C214D2B6823600EF0A4F908
:1051800007EE900AF8EE677AC5ED007A94ED007AA2
:1051900077EEC77ADFED1A6A87EEA67A194B83EDB0
:1051A000007A104B1A68184B1A6070BDF5EEC07A81
:1051B000F1EE10FA07D400230C4A13600C4A136076
:1051C0000C4A1360D6E70A4B00221A60094BC3ED64
:1051D000007A064BC3ED007ACCE700BF4404002000
:1051E00048040020DC010020D0010020B001002094
:1051F000B8010020B4010020C4010020CC0100202F
:1052000000007A44C8010020C001002070B50446A7
:1052100015460846FFF75CFD3A4E30602846FFF71A
:1052200057FD394B18603368C01A07EE900AF8EE44
:10523000E77A364BC3ED007AFFF77AFE07EE904A25
:10524000F8EEE77A324B93ED007AF4EEC77AF1EE9E
:1052500010FA01D8C3ED007A644207EE904AF8EEE6
:10526000E77A2B4B93ED007AF4EEC77AF1EE10FA61
:1052700001DBC3ED007A264BD3ED007AF5EEC07A60
:10528000F1EE10FA24DD234B00221A60224BC3ED0D
:10529000007A224BC3ED007A214C224D2B6823600B
:1052A0000EF012F907EE900AF8EE677AC5ED007A73
:1052B00094ED007A77EEC77ADFED1B6A87EEA67A67
:1052C0001A4B83ED007A114B1A68194B1A6070BDA6
:1052D000F5EEC07AF1EE10FA07D400230F4A1360FE
:1052E0000C4A13600C4A1360D6E7F1EE677A0B4B59
:1052F000C3ED007A074BC3ED007A074B00221A601A
:10530000CAE700BF4404002048040020DC0100205C
:10531000D0010020B8010020B4010020B00100201D
:10532000C4010020CC01002000007A44C801002004
:10533000C00100200023054A1360054A1360054A96
:105340001360054A1360054A13607047D8010020B6
:10535000D4010020DC010020C0010020D001002089
:105360009FED275A35EE406A76EE017A254BC3ED64
:10537000007A70EE055A75EEC17A234BC3ED007AC0
:10538000DFED227A77EEC06A36EEE07A204B83EDCD
:10539000007A70EE277A37EEA07A1E4B83ED007A02
:1053A0009FED1D7A37EE407A77EE014A1B4BC3ED35
:1053B000004A30EE450A30EE415A194B83ED005A4F
:1053C00075EEA05A174BC3ED005A36EE606A164BC5
:1053D00083ED006A77EEC17A144BC3ED007A76EE66
:1053E000816A134BC3ED006A30EE200A114B83ED46
:1053F000000A37EE607A104B83ED007A704700BFE9
:1054000000005C42B0030020980300200000000070
:105410009C0300208403002000005CC2A403002041
:105420008C030020AC03002094030020A003002084
:1054300088030020A803002090030020844B1B78E1
:10544000002B40F0518210B52DED028B10EE904AEA
:10545000F0EE410AB42393FBF0F307EE903AF8EE36
:10546000E77A7C4BC3ED007A7B4B1B68032B73D828
:10547000DFE813F004007E005E01CD019FED778A26
:1054800077EE887A764BC3ED007A764B764A1A60CF
:10549000B0EE611AFFF764FF744B754A1360754AEA
:1054A0001168754A1160754A1360754A1168754A2A
:1054B0001160754A1460754A75490A607549086833
:1054C0007549086075490A60754A1168754A116026
:1054D000754A1460754A1360754A1168754A1160FF
:1054E000754A1360754B1A68754B1A60754B1C60D2
:1054F000754B764A1360764A1168764A1160764A8F
:105500001360764A1168764A1160764A82ED008A05
:10551000754A76490A60764908687649086076498E
:105520000A60764A1168764A1160764A82ED008AEE
:10553000754A1360754A1168754A1160754A13609F
:10554000754B1A68754B1A60754B83ED008A012301
:10555000744A13703E4A13703F4A13680133136054
:10556000032B02DD134600221A60BDEC028B10BD36
:105570009FED6D7A77EE877A394BC3ED007A394B20
:1055800083ED007AB0EE611AFFF7EAFE374B384A36
:1055900013603B4A1168384A1160384A1360354A33
:1055A0001168384A1160002237490A603749384883
:1055B00001603B48D0F800C03748C0F800C0374809
:1055C0000160344908683749086037490A6037493B
:1055D0000B603A4908683749086037490B60344B1B
:1055E0001968374B1960374B1A60374B374A1360CD
:1055F0003A4A1168374A1160374A1360344A1168D1
:10560000374A1160374A1460374A38490A603B49C3
:1056100008683849086038490A60354A1168384ACC
:105620001160384A1460384A13603B4A1168384A9E
:105630001160384A1360354B1A68384B1A60384B82
:105640001C600123374A1370014A137084E700BFBE
:105650003C040020900200203804002000000000DC
:1056600034040020300400200000344300005CC2F9
:1056700020030020B00300201C030020180300209A
:1056800098030020140300200C030020000098421F
:10569000080300209C0300200403002000030020D6
:1056A00084030020FC020020F4020020F00200200D
:1056B000A4030020EC020020E80200208C0300205C
:1056C000E4020020DC02002000005C42D80200203E
:1056D000AC030020D4020020D0020020940300205C
:1056E000CC020020C4020020000098C2C0020020AA
:1056F000A0030020BC020020B80200208803002084
:10570000B4020020AC020020A8020020A803002060
:10571000A4020020A0020020900300209C02002090
:1057200094020020200000200000B442000000008D
:105730001FED028A77EE887A6C4BC3ED007A6C4BD2
:105740006C4A1A60B0EE611AFFF70AFE6A4B6B4AA8
:1057500013606B4A11686B4A11606B4A13606B4AA5
:1057600011686B4A11606B4A82ED008A6A4A6B4984
:105770000A606B4908686B4908606B490A606B4AAC
:1057800011686B4A11606B4A82ED008A6A4A1360A5
:105790006A4A11686A4A11606A4A13606A4B1A6859
:1057A0006A4B1A606A4B83ED008A6A4B6A4A13603F
:1057B0006A4A11686A4A11606A4A13606A4A116843
:1057C0006A4A11606A4A14606A4A6B490A606B4906
:1057D00008686B4908606B490A606B4A11686B4A3C
:1057E00011606B4A14606B4A13606B4A11686B4A14
:1057F00011606B4A13606B4B1A686B4B1A606B4BF2
:105800001C6001236A4A13706A4A1370A4E69FED74
:105810006A7A77EE877A354BC3ED007A344B83EDA5
:10582000007AB0EE611AFFF79BFD334B334A1360E9
:10583000364A1168334A1160334A1360304A11689E
:10584000334A1160334A1460334A34490A60374995
:1058500008683449086034490A60314A1168344A9A
:105860001160344A1460344A1360374A1168344A6C
:105870001160344A1360314B1A68344B1A60344B50
:105880001C60344B344A1360374A1168344A116043
:10589000344A1360314A1168344A11600022344995
:1058A0000A60344934480160374804683448046069
:1058B00034480160314908683449086034490A6055
:1058C00034490B60374908683449086034490B6033
:1058D000314B1968344B1960344B1A600123344A38
:1058E0001370344A137037E6704700BF3404002049
:1058F000300400200000344300005CC2200300207C
:10590000980300201C03002018030020B00300208F
:10591000140300200C03002000009842080300201C
:105920008403002004030020000300209C030020C7
:10593000FC020020F4020020F00200208C03002072
:10594000EC020020E8020020A4030020E402002072
:10595000DC02002000005C42D802002094030020FA
:10596000D4020020D0020020AC030020CC02002092
:10597000C4020020000098C2C0020020880300205A
:10598000BC020020B8020020A0030020B4020020C6
:10599000AC020020A802002090030020A4020020F6
:1059A000A0020020A80300209C02002094020020F6
:1059B000200000203C0400200000B442DFED2A6AF1
:1059C00076EEC06A76EE817A284BC3ED007ADFED81
:1059D000287A30EE676A36EE417A264B83ED007AFC
:1059E0009FED257A77EE405A75EEA15A234BC3ED11
:1059F000005A70EE075A75EEE15A214BC3ED005A7A
:105A000076EEA06A1F4BC3ED006A36EE606A1E4B4D
:105A100083ED006A70EE276A36EEC16A1B4B83ED98
:105A2000006A77EEC07A37EE811A194B83ED001ABF
:105A300030EE477A37EE617A164B83ED007A9FEDB0
:105A4000167A37EE407A37EE217A144B83ED007ADE
:105A500076EEE06A124BC3ED006A77EEA07A114B46
:105A6000C3ED007A704700BF00005CC280030020D5
:105A700000005C4268030020000098426C03002094
:105A800054030020740300205C0300207C030020EA
:105A90006403002070030020000098C25803002017
:105AA0007803002060030020904B1B78002B40F00F
:105AB000638210B52DED028B10EE904AF0EE410A94
:105AC000B0EE611AF3EE047AB4EEE70AF1EE10FAE2
:105AD00001DDB0EE670AFBEE047AB4EEE70AF1EE00
