:020000040800F2
:100000000000022049AD010899AD010867370108D9
:1000100099AD01086F37010877370108000000002B
:10002000000000000000000000000000013901088D
:1000300099AD010800000000A1390108598E01089E
:1000400099AD010899AD010899AD010899AD010874
:1000500099AD010899AD01088D90010897900108AC
:10006000A1900108AB900108B590010899AD010875
:1000700099AD010899AD010899AD010899AD010844
:1000800099AD010899AD010899AD010899AD010834
:1000900099AD010899AD010899AD0108BF9001081B
:1000A000F5860108158601080987010835860108CB
:1000B000498601085D86010871860108C518010896
:1000C000D5180108E5180108F518010899AD0108CF
:1000D00099AD010851A1010869A1010881A1010898
:1000E000D590010899AD010899AD01081D87010857
:1000F000C186010831870108E186010899AD010830
:1001000099AD010899AD01088586010899AD0108EE
:1001100099A10108B1A1010899860108AD860108DD
:1001200099AD010899AD010899AD010899AD010893
:1001300099AD010899AD010899AD010899AD010883
:1001400099AD010899AD010899AD010899AD010873
:1001500099AD010899AD010899AD0108C9A101083F
:10016000051901081519010899AD010899AD010893
:1001700099AD010899AD010899AD01080000000092
:0801800099AD010899AD0108D9
:1001900010F8012B11F8013B012A28BF9A42F7D031
:1001A000D01A7047000000000000000000000000AE
:1001B00001F0FF01102A2BDB10F0070F08D010F818
:1001C000013B013A8B422DD010F0070F42B3F6D11C
:1001D000F0B441EA012141EA014122F007047FF035
:1001E00000070023F0E80256083C85EA010586EA8C
:1001F000010685FA47F5A3FA87F586FA47F6A5FAC8
:1002000087F68EB9EED1F0BC01F0FF0102F00702D3
:1002100032B110F8013B013A83EA010313B1F8D17E
:100220000020704701387047002D06BF354603385F
:10023000073815F0010F07D1013015F4807F02BF98
:10024000013015F4C03F0130F0BC0138704700BFE9
:10025000034613F8012B002AFBD1181A0138704706
:1002600081F0004102E000BF83F0004330B54FEA67
:1002700041044FEA430594EA050F08BF90EA020FD4
:100280001FBF54EA000C55EA020C7FEA645C7FEA67
:10029000655C00F0E2804FEA5454D4EB5555B8BF8A
:1002A0006D420CDD2C4480EA020281EA030382EAFB
:1002B000000083EA010180EA020281EA0303362D8D
:1002C00088BF30BD11F0004F4FEA01314FF4801C60
:1002D0004CEA113102D0404261EB410113F0004F72
:1002E0004FEA03334CEA133302D0524263EB430329
:1002F00094EA050F00F0A780A4F10104D5F1200EC7
:100300000DDB02FA0EFC22FA05F2801841F1000121
:1003100003FA0EF2801843FA05F359410EE0A5F1F5
:1003200020050EF1200E012A03FA0EFC28BF4CF026
:10033000020C43FA05F3C01851EBE37101F00045DC
:1003400007D54FF0000EDCF1000C7EEB00006EEBE9
:100350000101B1F5801F1BD3B1F5001F0CD3490873
:100360005FEA30004FEA3C0C04F101044FEA4452CA
:1003700012F5800F80F09A80BCF1004F08BF5FEA51
:10038000500C50F1000041EB045141EA050130BD31
:100390005FEA4C0C404141EB0101013C28BFB1F543
:1003A000801FE9D291F0000F04BF01460020B1FA8E
:1003B00081F308BF2033A3F10B03B3F120020CDA61
:1003C0000C3208DD02F1140CC2F10C0201FA0CF03F
:1003D00021FA02F10CE002F11402D8BFC2F1200CA4
:1003E00001FA02F120FA0CFCDCBF41EA0C0190405A
:1003F000E41AA2BF01EB0451294330BD6FEA0404A3
:100400001F3C1CDA0C340EDC04F11404C4F120028D
:1004100020FA04F001FA02F340EA030021FA04F39F
:1004200045EA030130BDC4F10C04C4F1200220FAF6
:1004300002F001FA04F340EA0300294630BD21FA34
:1004400004F0294630BD94F0000F83F4801306BFFA
:1004500081F480110134013D4EE77FEA645C18BFEE
:100460007FEA655C29D094EA050F08BF90EA020F85
:1004700005D054EA000C04BF1946104630BD91EA7D
:10048000030F1EBF0021002030BD5FEA545C05D180
:100490004000494128BF41F0004130BD14F58004BF
:1004A0003CBF01F5801130BD01F0004545F0FE4133
:1004B00041F470014FF0000030BD7FEA645C1ABF68
:1004C000194610467FEA655C1CBF0B46024650EA9F
:1004D000013406BF52EA033591EA030F41F40021CB
:1004E00030BD00BF90F0000F04BF0021704730B551
:1004F0004FF4806404F132044FF000054FF0000126
:1005000050E700BF90F0000F04BF0021704730B5E6
:100510004FF4806404F1320410F0004548BF4042BB
:100520004FF000013EE700BF42004FEAE2014FEA10
:1005300031014FEA02701FBF12F07F4393F07F4FEB
:1005400081F06051704732F07F4208BF704793F0EE
:100550007F4F04BF41F40021704730B54FF4607401
:1005600001F0004521F000411CE700BF50EA010204
:1005700008BF704730B54FF000050AE050EA0102AD
:1005800008BF704730B511F0004502D5404261EB1D
:1005900041014FF4806404F132045FEA915C3FF45E
:1005A000D8AE4FF003025FEADC0C18BF03325FEAFB
:1005B000DC0C18BF033202EBDC02C2F1200300FAAC
:1005C00003FC20FA02F001FA03FE40EA0E0021FAD1
:1005D00002F11444BDE600BF70B54FF0FF0C4CF4BF
:1005E000E06C1CEA11541DBF1CEA135594EA0C0F71
:1005F00095EA0C0F00F0DEF82C4481EA030621EAAC
:100600004C5123EA4C5350EA013518BF52EA0335E6
:1006100041F4801143F4801338D0A0FB02CE4FF098
:100620000005E1FB02E506F00042E0FB03E54FF0C8
:100630000006E1FB03569CF0000F18BF4EF0010EC0
:10064000A4F1FF04B6F5007F64F5407404D25FEABC
:100650004E0E6D4146EB060642EAC62141EA55516F
:100660004FEAC52040EA5E504FEACE2EB4F1FD0CB1
:1006700088BFBCF5E06F1ED8BEF1004F08BF5FEA2F
:10068000500E50F1000041EB045170BD06F00046E1
:1006900046EA010140EA020081EA0301B4EB5C048E
:1006A000C2BFD4EB0C0541EA045170BD41F4801186
:1006B0004FF0000E013C00F3AB8014F1360FDEBFAB
:1006C000002001F0004170BDC4F10004203C35DA87
:1006D0000C341BDC04F11404C4F1200500FA05F30A
:1006E00020FA04F001FA05F240EA020001F00042AB
:1006F00021F0004110EBD37021FA04F642EB060121
:100700005EEA430E08BF20EAD37070BDC4F10C044A
:10071000C4F1200500FA04F320FA05F001FA04F20E
:1007200040EA020001F0004110EBD37041F10001FA
:100730005EEA430E08BF20EAD37070BDC4F1200505
:1007400000FA05F24EEA020E20FA04F301FA05F26D
:1007500043EA020321FA04F001F0004121FA04F215
:1007600020EA020000EBD3705EEA430E08BF20EAE5
:10077000D37070BD94F0000F0FD101F0004640001F
:1007800041EB010111F4801F08BF013CF7D041EAA1
:10079000060195F0000F18BF704703F000465200A5
:1007A00043EB030313F4801F08BF013DF7D043EA76
:1007B0000603704794EA0C0F0CEA135518BF95EA2C
:1007C0000C0F0CD050EA410618BF52EA4306D1D1B3
:1007D00081EA030101F000414FF0000070BD50EAD2
:1007E000410606BF1046194652EA430619D094EA5C
:1007F0000C0F02D150EA013613D195EA0C0F05D146
:1008000052EA03361CBF104619460AD181EA030199
:1008100001F0004141F0FE4141F470014FF0000051
:1008200070BD41F0FE4141F4780170BD70B54FF0EC
:10083000FF0C4CF4E06C1CEA11541DBF1CEA13556C
:1008400094EA0C0F95EA0C0F00F0A7F8A4EB05044E
:1008500081EA030E52EA03354FEA013100F0888045
:100860004FEA03334FF0805545EA131343EA12630E
:100870004FEA022245EA111545EA10654FEA0026C3
:100880000EF000419D4208BF964244F1FD0404F57C
:10089000407402D25B084FEA3202B61A65EB0305D8
:1008A0005B084FEA32024FF480104FF4002CB6EB95
:1008B000020E75EB030E22BFB61A754640EA0C0015
:1008C0005B084FEA3202B6EB020E75EB030E22BF55
:1008D000B61A754640EA5C005B084FEA3202B6EB96
:1008E000020E75EB030E22BFB61A754640EA9C0055
:1008F0005B084FEA3202B6EB020E75EB030E22BF25
:10090000B61A754640EADC0055EA060E18D04FEAE2
:10091000051545EA16754FEA06164FEAC30343EA82
:1009200052734FEAC2025FEA1C1CC0D111F4801F4F
:100930000BD141EA00014FF000004FF0004CB6E748
:1009400011F4801F04BF01430020B4F1FD0C88BFE7
:10095000BCF5E06F3FF6AFAEB5EB030C04BFB6EBF2
:10096000020C5FEA500C50F1000041EB045170BDE5
:100970000EF0004E4EEA113114EB5C04C2BFD4EB12
:100980000C0541EA045170BD41F480114FF0000E96
:10099000013C90E645EA060E8DE60CEA135594EA12
:1009A0000C0F08BF95EA0C0F3FF43BAF94EA0C0F15
:1009B0000AD150EA01347FF434AF95EA0C0F7FF48A
:1009C00025AF104619462CE795EA0C0F06D152EADE
:1009D00003353FF4FDAE1046194622E750EA4106C2
:1009E00018BF52EA43067FF4C5AE50EA41047FF4D3
:1009F0000DAF52EA43057FF4EBAE12E74FF0FF3C38
:100A000006E000BF4FF0010C02E000BF4FF0010C08
:100A10004DF804CD4FEA410C7FEA6C5C4FEA430C81
:100A200018BF7FEA6C5C1BD001B050EA410C0CBFD0
:100A300052EA430C91EA030F02BF90EA020F002032
:100A4000704710F1000F91EA030F58BF994208BF99
:100A500090422CBFD8176FEAE37040F00100704756
:100A60004FEA410C7FEA6C5C02D150EA013C07D1AD
:100A70004FEA430C7FEA6C5CD6D152EA033CD3D0F8
:100A80005DF8040B704700BF8446104662468C46F2
:100A90001946634600E000BF01B5FFF7B7FF002825
:100AA00048BF10F1000F01BD4DF808EDFFF7F4FF4E
:100AB0000CBF012000205DF808FB00BF4DF808EDD9
:100AC000FFF7EAFF34BF012000205DF808FB00BFFC
:100AD0004DF808EDFFF7E0FF94BF012000205DF81E
:100AE00008FB00BF4DF808EDFFF7CEFF94BF0120D3
:100AF00000205DF808FB00BF4DF808EDFFF7C4FFCC
:100B000034BF012000205DF808FB00BF4FEA410C14
:100B10007FEA6C5C02D150EA013C0AD14FEA430CF7
:100B20007FEA6C5C02D152EA033C02D14FF0000034
:100B300070474FF0010070474FEA410212F5001272
:100B400015D211D56FF47873B3EB625212D94FEA14
:100B5000C12343F0004343EA505311F0004F23FAFE
:100B600002F018BF404270474FF00000704750EA53
:100B7000013005D111F0004008BF6FF00040704710
:100B80004FF00000704700BF4FEA4102B2F1E0436E
:100B900024BFB3F5001CDCF1FE5C0DD901F0004C64
:100BA0004FEAC0024CEA5070B2F1004F40EB8300B4
:100BB00008BF20F00100704711F0804F21D113F1E0
:100BC0003872BCBF01F00040704741F480114FEA19
:100BD0005252C2F11802C2F1200C10FA0CF320FAA2
:100BE00002F018BF40F001004FEAC1234FEAD323BF
:100BF00003FA0CFC40EA0C0023FA02F34FEA430329
:100C0000CCE77FEA625307D150EA01331EBF4FF0B1
:100C1000FE4040F44000704701F0004040F0FE40CC
:100C200040F40000704700BF53B94AB9002908BF1B
:100C300000281CBF4FF0FF314FF0FF3000F00CB820
:100C4000ADF1080C6DE904CE1EF0D8FDDDF804E02E
:100C5000DDE9022304B07047704700BF10B5054CB2
:100C6000237833B9044B13B10448AFF30080012358
:100C7000237010BD9001002000000000C0FA0108A0
:100C800008B5034B1BB103490348AFF3008008BD0F
:100C90000000000094010020C0FA010808B50368B4
:100CA000984708BD00B583B00023019301A9094B03
:100CB000186811F030FB019B4BB14FF0E0234FF06F
:100CC0008052C3F8042DBFF34F8FBFF36F8F03B073
:100CD0005DF804FBAC040020F0B585B004460D4679
:100CE000012806D01CB94FF6FF739D4251D005B0C4
:100CF000F0BD4FF6FF739942F4D12B4F1822192102
:100D000038460FF09DFF294B0293294B0193002693
:100D100000963B462022802126480EF0BDFC32463C
:100D20002549264819F000FC32462549254819F086
:100D3000FBFB32462449254819F0F6FB244B64227C
:100D40009A601E82C3F8AC601E605E60FF2283F86A
:100D5000B0204FF6FF72A3F8B220A3F8B420A3F896
:100D6000B620A3F8B820A3F8BA201A4813F00AF95D
:100D7000194813F007F9194813F004F9184813F04B
:100D800001F9184813F0FEF81749184817F034FD18
:100D9000A8E7164817F0BAFB06480EF0ADFC02486B
:100DA0000FF0DAFFA3E700BF740A0020A08601005D
:100DB000801A0600080A002000440040F0080020C5
:100DC00000480040D807002000140140C006002061
:100DD000C405002074050020700500206C0500206B
:100DE000680500206405002000100040B0040020C9
:100DF00010B50446836813B1032201469847204684
:100E000010BD70B504460E461546006860B132212B
:100E10000FF0F0FF206803685B682A463146984768
:100E2000206810F011F970BD60680028FBD00368DD
:100E30005B689847F7E710B504460068E0B10368BF
:100E40001B69984778B1206803681B69984780B18F
:100E5000206803685B699847C0B212F0CFFE034672
:100E60000028F0D006E010223221206810F0E5F8CA
:100E7000E9E70023184610BD6368002BFAD06068CC
:100E800003681B69984750B1606803685B699847BD
:100E9000C0B212F0B3FE03460028F0D0EAE7002308
:100EA000E8E738B504460D461AF048F9E0601AF054
:100EB00045F9E368C01AA36898420DD82046FFF7A9
:100EC000BAFF03460028F2D03DB1284612F0D8FE02
:100ED00003460028EBD000E00023184638BD10B5CB
:100EE00004461346B1F962209A4208DDD1F8AC10ED
:100EF0004C2202FB03111BF014F8204610BD4C22BB
:100F0000B0311BF00EF8F8E738B5044610460A7009
:100F100012F006FF054612F02FFF02462946204632
:100F2000FFF76FFF38BD30B595B005460024042C9F
:100F30000CDC2C2201A92846FFF7E6FF2E212846CB
:100F4000FFF7AFFF034610B90134F0E7002318465E
:100F500015B030BD70B50C461546104612F090FE27
:100F6000064608B9304670BD257012F0A1FE6080BB
:100F700012F09EFEA08012F09BFEE08012F098FE20
:100F8000208112F095FE608112F0B2FEEAE7F0B522
:100F900083B00446002303822921FFF782FF07461E
:100FA00010B9384603B0F0BD292204F16001204693
:100FB000FFF7D0FFD4F8AC00B4F9623000930122FF
:100FC0000192002B0ADD6B461B684C2103FB01F1EB
:100FD0001AF090F9C4F8AC00002602E001ABF3E788
:100FE0000136B4F96230B342DBDD00212046FFF761
:100FF00058FFB0B1D4F8AC104C2506FB05F52A22F9
:1010000029442046FFF7A6FF0028E9D1D4F8AC1008
:101010002B2229442046FFF79DFF0028E0D10746F8
:10102000BFE70746BDE710B594B00446202201A9EA
:10103000FFF76AFF2046FFF7AAFF14B010BD70B596
:1010400005460C4610460A7012F06AFE0646B4F9D0
:10105000020012F07BFE12F08FFE02463146284657
:10106000FFF7CFFE70BD10B594B00446ADF8061082
:101070002D2201A9FFF7E3FF2E212046FFF711FFE4
:1010800014B010BD704700007C4B1B78002B40F063
:10109000F38010B57A4B01221A70B42393FBF0F35E
:1010A00007EE903AF8EEE77A764BC3ED007A764B8E
:1010B000C3ED007A754B1B6863B1934279D001335D
:1010C000724A1360022B04DD00236D4A13706F4ACD
:1010D000136010BD00226E490A606E490A606E49B5
:1010E0006E4808606E496F480160DFED6F7A6F48A7
:1010F000C0ED007A6E4801606E4802606E48026082
:101100006E486F4C20609FED6F7A6F4C84ED007AD3
:101110006E4C20606E4801606E4802606E4801604F
:10112000DFF838E26D48C0F800E06D480160DFF894
:1011300028C26C48C0F800C06B4802606B486C4C19
:1011400020606C4CC4ED007A6B4C20606B4C2260CC
:101150006B4C2260DFED6B7A6B4CC4ED007A6B4C0C
:1011600084ED007A6A4CC4ED007A6A4C21606A49C9
:101170000A606A4908606A49C1F800E06949086084
:101180006949C1F800C069490A60694A69490A6049
:1011900069490A60694A6A490A606A490A60012223
:1011A00069490A7069490A7069490A7033490A70C5
:1011B00085E7684A33490A6033490A603849394A41
:1011C00011600022394802603948016039480260E4
:1011D0003948026039483A4C20603B4C21603B4C16
:1011E00020603B4801603B4802603B4801605A4830
:1011F0003A4C20603A4C21603A4C20603A4C2260D4
:10120000DFF8E8C03A4CC4F800C03A4C22603A4CCF
:10121000C4F800C0394C2260394C2260DFF840E14C
:10122000394CC4F800E0394C2160394CC4F800E076
:10123000384C216038490A603849C1F800C0384943
:1012400008603849C1F800C03749086037490A606A
:10125000374A38490A6038490A60384A38490A60CA
:1012600038490A60012238490A7038490A703849F9
:101270000A7002490A7022E7704700BF6C04002020
:101280002C040020C0020020540400203804002058
:101290003800002064040020600400200000344373
:1012A00000005CC2500300200000D2424C0300202A
:1012B00048030020440300203C0300200000984223
:1012C000380300200000484234030020300300208F
:1012D0002C03002024030020200300201C030020F6
:1012E00018030020140300200C03002000005C42BF
:1012F000080300200403002000030020FC0200205B
:10130000F4020020000098C2F0020020EC0200204D
:10131000E8020020E4020020DC020020D8020020C5
:10132000D4020020D0020020CC020020C402002001
:101330000000B841500400204C0400200000054388
:1013400048040020440400202E0400202D04002026
:101350003C000020000070420000ACC20000A0C0B1
:10136000000098C2874B1B78002B40F02F8310B5EC
:10137000854B01221A70B42393FBF0F307EE903AE9
:10138000F8EEE77A814BC3ED007A814BC3ED007A2A
:10139000804B1B68042B7ED8DFE813F00500890022
:1013A0007201DD01BE027C4B784A1360784A1360FB
:1013B00000247A4B1C607A4B1C607A4B7A4A1A6084
:1013C00008217A4812F014FE794B1A68794B1A609A
:1013D000794B1B6879490B6079490A60794A136037
:1013E000794B1C60794B1A68794B1A60794B1B68F2
:1013F00079490B6079490A60794A1360794B1C601E
:10140000794B1A68794B1A60794B1B6879490B60E4
:1014100079490A60794A1360794B1C60794B1A68E4
:10142000794B1A60794B1B6879490B6079490A60DE
:10143000794A1360794B1C60794B1A68794B1A60B2
:10144000794B1B6879490B6079490A60794A1360C6
:10145000794B1C60794B1A68794B1A60794B1B6881
:1014600079490B6079490A60794A1360794B1C60AD
:10147000794B7A4A13607A4A13607A4B7A4A13603E
:101480007A4A136001237A4A13703E4A1370794AEC
:101490001370794A13703F4A136801331360052BA8
:1014A00004DD0023384A13703A4A136010BD404BE4
:1014B0001A68404B1A60404B1B6840490B6040491A
:1014C0000A60404A136000233F4A13603F4A116894
:1014D0003F4A11603F4A12683F4802603F4801603E
:1014E0003F490A603F4A13603F4A11683F4A116012
:1014F0003F4A12683F4802603F4801603F490A6026
:101500003F4A13603F4A11683F4A11603F4A1268E0
:101510003F4802603F4801603F490A603F4A13600C
:101520003F4A11683F4A11603F4A12683F480260D3
:101530003F4801603F490A603F4A13603F4A1168D3
:101540003F4A11603F4A12683F4802603F480160CD
:101550003F490A603F4A1360404B3F4A1A60404B84
:10156000464A1A603F4B404A1360404A13600123C9
:101570003F4A1370034A13703E4A13703E4A137079
:1015800089E700BF6C0400202C040020C00200206A
:10159000540400203804002000004041380000209E
:1015A0006404002060040020000034437005002023
:1015B0002804002050030020240400204C030020B5
:1015C00048030020440300203C030020EC030020DB
:1015D00038030020E80300203403002030030020FB
:1015E0002C030020240300201004002020030020EE
:1015F0000C0400201C03002018030020140300200A
:101600000C0300201C040020080300201804002004
:101610000403002000030020FC020020F40200204C
:10162000F8030020F0020020F4030020EC02002068
:10163000E8020020E4020020DC0200200404002074
:10164000D802002000040020D4020020D002002094
:10165000CC020020C40200200000B8415004002049
:101660004C040020000005434804002044040020EE
:101670003C0000202E0400202D0400200000F04239
:101680006B4B1A686B4B1A606B4B1B686B490B609A
:101690006B490A606B4A136000236B4A13606B4A04
:1016A00011686B4A11606B4A12686B4802606B48A4
:1016B00001606B490A606B4A13606B4A11686B4AA0
:1016C00011606B4A12686B4802606B4801606B499D
:1016D0000A606B4A13606B4A11686B4A11606B4A6F
:1016E00012686B4802606B4801606B490A606B4A84
:1016F00013606B4A11686B4A11606B4A12686B4841
:1017000002606B4801606B490A606B4A13606B4A68
:1017100011686B4A11606B4A12686B4802606B4833
:1017200001606B490A606B4A13606B4B6B4A1A602D
:101730006B4B6C4A1A606C4B6C4A1A606C4B6D4A6E
:101740001A6001236C4A13706C4A13706C4A137050
:101750006C4A13709FE6364B1A68364B1A60364B4C
:101760001A68364B1A60684A354B1A606749354B20
:101770001960002334480360344804683448046026
:1017800034480468344804603448614C0460344888
:1017900003603448036034480468344804603448C3
:1017A00004683448046034480260344802603448B5
:1017B000036034480468344804603448046834489A
:1017C00004603448016034480160344803603448A0
:1017D0000468344804603448046834480460344879
:1017E0004C4C04603348036033480360334804685A
:1017F0003348046033480468334804603348016068
:1018000033490A60334A1360364B334A1360344A13
:101810001360384B344A1360354A13600123384A49
:101820001370384A1370344A1370344A137032E616
:101830002804002050030020240400204C03002032
:1018400048030020440300203C030020EC03002058
:1018500038030020E8030020340300203003002078
:101860002C0300202403002010040020200300206B
:101870000C0400201C030020180300201403002087
:101880000C0300201C040020080300201804002082
:101890000403002000030020FC020020F4020020CA
:1018A000F8030020F0020020F4030020EC020020E6
:1018B000E8020020E4020020DC02002004040020F2
:1018C000D802002000040020D4020020D002002012
:1018D000CC020020C4020020500400200000F0428E
:1018E0004C0400200000A4424804002000000543EE
:1018F00044040020000070433C0000206C040020E1
:101900002E0400202D04002000005CC200005C4278
:1019100000009842000098C22D4B2E4A13602E4AB8
:1019200013602E4A2E4B1A602E492F4B19602F4BF5
:101930001A602F4B196000232E4803602E482F4C4D
:1019400020602F4C23602F4C20602F4803602F48CD
:1019500003602F4802602F4802602F4802602F4822
:1019600002602F4803602F4801602F4801602F4814
:1019700001602F4801602F4803602F482F4C2060E2
:101980002F4C23602F4C20602F4803602F480360AA
:101990002F4801602F4802602F4801602F490A60DC
:1019A0002F4A13602F4B304A1360304A1360304B7C
:1019B000304A1360304A13600123304A1370304AB2
:1019C0001370304A1370304A137064E5704700BFDB
:1019D0000000B442C00200205404002000005CC299
:1019E0005003002000005C424C030020480300200C
:1019F000440300203C0300200000984238030020EC
:101A000034030020300300202C0300202403002096
:101A1000200300201C0300201803002014030020D2
:101A20000C03002008030020040300200003002012
:101A3000FC020020F4020020000098C2F002002006
:101A4000EC020020E8020020E4020020DC0200207A
:101A5000D8020020D4020020D0020020CC020020B6
:101A6000C40200200000A442500400204C040020C6
:101A70000000704348040020440400202E0400208D
:101A80002D0400203C0000206C04002038B5774B6A
:101A90001B7813BB764B01221A70B42393FBF0F32F
:101AA00007EE903AF8EEE77A724BC3ED007A724B8C
:101AB000C3ED007A714B1B68934278D0022B00F083
:101AC0004B815BB16D4A136801331360032B04DD56
:101AD0000023674A1370694A136038BD0024684BBD
:101AE0001C60684B1C60684B684A1A603721684864
:101AF00012F07EFA674A684B1A60684B68490B60BF
:101B000068490A60DFF840C26749C1F800C0674908
:101B10000C60674967480160674804606748016076
:101B200067486849086068490C6068490A60684904
:101B30000A6068490A606849684D2960684D2C60F0
:101B4000684D2B60684D2B60684D2B60684DC5F863
:101B500000C0684D2C60DFF8F4C1674DC5F800C0C7
:101B6000664D2C60664DC5F800C0664D286066481D
:101B700004606648036066480260664A1360664B0C
:101B80001960664B1C60664B664A1360664A1360B8
:101B9000664B674A1360674A13600123664A1370F5
:101BA000664A1370664A1370304A13708AE7654BB1
:101BB000304A1360304A13603649374B1960624C23
:101BC000374B1C60374B1960374B1C600023374A7A
:101BD0001360374A374802603948374D2860374D1F
:101BE0002A60384A1060384A1360384A11603A4A0D
:101BF000374D2A60374D296038490A6038490B60F3
:101C00002649384D2960384D2C60384D2960384DB3
:101C10002C60384C23604D4C374D2C60374D28607C
:101C2000374D2C60374C20603748036037480160DF
:101C3000374802603748016037490A60374A136005
:101C4000384B374A1A60384B414A1A60384B374A8A
:101C50001A60384B3F4A1A600123374A1370374ADB
:101C60001370374A1370014A13702BE76C0400207D
:101C70002C040020C002002054040020380400205E
:101C80003800002064040020600400200000344379
:101C90007005002000005CC25003002000005C4280
:101CA0004C03002048030020440300203C03002094
:101CB0000000984238030020340300203003002045
:101CC000000048422C0300202403002020030020B1
:101CD0001C030020180300200000A0C014030020F3
:101CE0000C03002008030020040300200003002050
:101CF000FC020020F4020020F0020020EC02002090
:101D0000E8020020E4020020DC020020D8020020CB
:101D1000D4020020D0020020CC020020C402002007
:101D20000000A442500400204C0400200000704336
:101D300048040020440400202E0400202D0400202C
:101D40003C0000200000A0400000D242000098C2E9
:101D50000000C041000007432E4B2F4A13602F4A5A
:101D600013602F492F4B19602F4C304B1C60304BA8
:101D70001960304B1C6000232F4A13602F4A3048F3
:101D800002603048304D2860304D2A60304A106083
:101D9000304A1360304A1160304A314D2A60314D6B
:101DA000296031490A6031490B603149314D296060
:101DB000314D2C60314D2960314D2C60314C236008
:101DC000314C324D2C60324D2860324D2C60324CFB
:101DD0002060324803603248016032480260324875
:101DE000016032490A60324A1360324B324A136052
:101DF000324A1360324B334A1360334A1360012373
:101E0000324A1370324A1370324A1370324A1370D6
:101E100058E600BF0000B442C00200205404002075
:101E200000005CC2500300200000D2424C0300209E
:101E300048030020440300203C0300200000984297
:101E40003803002000004842340300203003002003
:101E50002C03002024030020200300200000A0C049
:101E60001C03002018030020140300200C03002092
:101E700000005C420803002004030020000300204F
:101E8000FC020020F4020020000098C2F0020020B2
:101E9000EC020020E8020020E4020020DC02002026
:101EA000D8020020D4020020D0020020CC02002062
:101EB000C40200200000B841500400204C0400205F
:101EC0000000054348040020440400202E040020A4
:101ED0002D0400203C0000206C0400207C4B1B786B
:101EE000002B40F0F38010B57A4B01221A70B42316
:101EF00093FBF0F307EE903AF8EEE77A764BC3EDFA
:101F0000007A764BC3ED007A754B1B6863B1934240
:101F100079D00133724A1360022B04DD00236D4A2D
:101F200013706F4A136010BD00226E490A606E493B
:101F30000A606E496E4808606E496F480160DFEDC7
:101F40006F7A6F48C0ED007A6E4801606E4802609B
:101F50006E4802606E486F4C20609FED6F7A6F4C48
:101F600084ED007A6E4C20606E4801606E4802601D
:101F70006E480160DFF838E26D48C0F800E06D4857
:101F80000160DFF828C26C48C0F800C06B480260EE
:101F90006B486C4C20606C4CC4ED007A6B4C20603C
:101FA0006B4C22606B4C2260DFED6B7A6B4CC4EDA6
:101FB000007A6B4C84ED007A6A4CC4ED007A6A4C6E
:101FC00021606A490A606A4908606A49C1F800E00C
:101FD000694908606949C1F800C069490A60694AED
:101FE00069490A6069490A60694A6A490A606A4936
:101FF0000A60012269490A7069490A7069490A70D0
:1020000033490A7085E7684A33490A6033490A60F0
:102010003849394A11600022394802603948016064
:10202000394802603948026039483A4C20603B4CDC
:1020300021603B4C20603B4801603B4802603B48CC
:1020400001605A483A4C20603A4C21603A4C20607A
:102050003A4C2260DFF8E8C03A4CC4F800C03A4C71
:1020600022603A4CC4F800C0394C2260394C2260DE
:10207000DFF840E1394CC4F800E0394C2160394CBC
:10208000C4F800E0384C216038490A603849C1F88A
:1020900000C0384908603849C1F800C037490860B5
:1020A00037490A60374A38490A6038490A60384A6D
:1020B00038490A6038490A60012238490A703849AB
:1020C0000A7038490A7002490A7022E7704700BF57
:1020D0006C0400202C040020C002002054040020C6
:1020E0003804002038000020640400206004002030
:1020F0000000344300005CC2500300200000D242C4
:102100004C03002048030020440300203C0300202F
:1021100000009842380300200000484234030020A9
:10212000300300202C030020240300202003002083
:102130001C03002018030020140300200C030020BF
:1021400000005C420803002004030020000300207C
:10215000FC020020F4020020000098C2F0020020DF
:10216000EC020020E8020020E4020020DC02002053
:10217000D8020020D4020020D0020020CC0200208F
:10218000C402002000008841500400204C040020BC
:102190000000044348040020440400202E040020D2
:1021A0002D0400203C0000200000B4420000ACC21E
:1021B0000000A0C0000098C2874B1B78002B40F0A5
:1021C0002F8310B5854B01221A70B42393FBF0F3D3
:1021D00007EE903AF8EEE77A814BC3ED007A814B37
:1021E000C3ED007A804B1B68042B7ED8DFE813F028
:1021F000050089007201DD01BE027C4B784A136044
:10220000784A136000247A4B1C607A4B1C607A4B2E
:102210007A4A1A6008217A4811F0EAFE794B1A6866
:10222000794B1A60794B1B6879490B6079490A60D0
:10223000794A1360794B1C60794B1A68794B1A60A4
:10224000794B1B6879490B6079490A60794A1360B8
:10225000794B1C60794B1A68794B1A60794B1B6873
:1022600079490B6079490A60794A1360794B1C609F
:10227000794B1A68794B1A60794B1B6879490B6066
:1022800079490A60794A1360794B1C60794B1A6866
:10229000794B1A60794B1B6879490B6079490A6060
:1022A000794A1360794B1C60794B1A68794B1A6034
:1022B000794B1B6879490B6079490A60794A136048
:1022C000794B1C60794B7A4A13607A4A13607A4BD7
:1022D0007A4A13607A4A136001237A4A13703E4A9D
:1022E0001370794A1370794A13703F4A13680133A7
:1022F0001360052B04DD0023384A13703A4A13603B
:1023000010BD404B1A68404B1A60404B1B68404957
:102310000B6040490A60404A136000233F4A136043
:102320003F4A11683F4A11603F4A12683F480260C5
:102330003F4801603F490A603F4A13603F4A1168C5
:102340003F4A11603F4A12683F4802603F480160BF
:102350003F490A603F4A13603F4A11683F4A116093
:102360003F4A12683F4802603F4801603F490A60A7
:102370003F4A13603F4A11683F4A11603F4A126862
:102380003F4802603F4801603F490A603F4A13608E
:102390003F4A11683F4A11603F4A12683F48026055
:1023A0003F4801603F490A603F4A1360404B3F4A43
:1023B0001A60404B464A1A603F4B404A1360404AFD
:1023C000136001233F4A1370034A13703E4A13708F
:1023D0003E4A137089E700BF6C0400202C040020E3
:1023E000C0020020540400203804002000004041B6
:1023F0003800002064040020600400200000344302
:102400007005002028040020500300202404002030
:102410004C03002048030020440300203C0300201C
:10242000EC03002038030020E803002034030020E0
:10243000300300202C03002024030020100400207F
:10244000200300200C0400201C030020180300209F
:10245000140300200C0300201C04002008030020AB
:10246000180400200403002000030020FC020020C8
:10247000F4020020F8030020F0020020F403002002
:10248000EC020020E8020020E4020020DC02002030
:1024900004040020D802002000040020D402002000
:1024A000D0020020CC020020C4020020000088419D
:1024B000500400204C040020000004434804002085
:1024C000440400203C0000202E0400202D040020A5
:1024D0000000F0426B4B1A686B4B1A606B4B1B6829
:1024E0006B490B606B490A606B4A136000236B4AAF
:1024F00013606B4A11686B4A11606B4A12686B4833
:1025000002606B4801606B490A606B4A13606B4A5A
:1025100011686B4A11606B4A12686B4802606B4825
:1025200001606B490A606B4A13606B4A11686B4A21
:1025300011606B4A12686B4802606B4801606B491E
:102540000A606B4A13606B4A11686B4A11606B4AF0
:1025500012686B4802606B4801606B490A606B4A05
:1025600013606B4A11686B4A11606B4A12686B48C2
:1025700002606B4801606B490A606B4A13606B4BE9
:102580006B4A1A606B4B6C4A1A606C4B6C4A1A604F
:102590006C4B6D4A1A6001236C4A13706C4A1370BD
:1025A0006C4A13706C4A13709FE6364B1A68364BB0
:1025B0001A60364B1A68364B1A60684A354B1A60F7
:1025C0006749354B19600023344803603448046878
:1025D0003448046034480468344804603448614C2A
:1025E0000460344803603448036034480468344865
:1025F0000460344804683448046034480260344855
:102600000260344803603448046834480460344845
:102610000468344804603448016034480160344838
:10262000036034480468344804603448046834481B
:10263000046034484C4C0460334803603348036002
:1026400033480468334804603348046833480460FE
:102650003348016033490A60334A1360364B334ACA
:102660001360344A1360384B344A1360354A1360A0
:102670000123384A1370384A1370344A1370344AAD
:10268000137032E6280400205003002024040020A8
:102690004C03002048030020440300203C0300209A
:1026A000EC03002038030020E8030020340300205E
:1026B000300300202C0300202403002010040020FD
:1026C000200300200C0400201C030020180300201D
:1026D000140300200C0300201C0400200803002029
:1026E000180400200403002000030020FC02002046
:1026F000F4020020F8030020F0020020F403002080
:10270000EC020020E8020020E4020020DC020020AD
:1027100004040020D802002000040020D40200207D
:10272000D0020020CC020020C4020020500400206F
:102730000000F0424C0400200000A44248040020A5
:102740000000044344040020000070433C000020CB
:102750006C0400202E0400202D04002000005CC228
:1027600000005C4200009842000098C22D4B2E4AA7
:1027700013602E4A13602E4A2E4B1A602E492F4B9F
:1027800019602F4B1A602F4B196000232E480360ED
:102790002E482F4C20602F4C23602F4C20602F4858
:1027A00003602F4803602F4802602F4802602F48C3
:1027B00002602F4802602F4803602F4801602F48B5
:1027C00001602F4801602F4801602F4803602F48A7
:1027D0002F4C20602F4C23602F4C20602F4803602B
:1027E0002F4803602F4801602F4802602F48016086
:1027F0002F490A602F4A13602F4B304A1360304A2A
:102800001360304B304A1360304A13600123304A62
:102810001370304A1370304A1370304A137064E5F5
:10282000704700BF0000B442C002002054040020E2
:1028300000005CC25003002000005C424C030020FA
:1028400048030020440300203C030020000098427D
:102850003803002034030020300300202C03002024
:1028600024030020200300201C0300201803002064
:10287000140300200C0300200803002004030020A0
:1028800000030020FC020020F4020020000098C297
:10289000F0020020EC020020E8020020E402002008
:1028A000DC020020D8020020D4020020D002002048
:1028B000CC020020C40200200000A44250040020EA
:1028C0004C04002000007043480400204404002011
:1028D0002E0400202D0400203C0000206C04002069
:1028E0007E4B1B78002B40F0D48110B57C4B01222D
:1028F0001A70B42393FBF0F307EE903AF8EEE77A00
:10290000784BC3ED007A784BC3ED007A774B1B68A8
:1029100093427BD0022B00F057815BB1734A13685E
:1029200001331360032B04DD00236D4A13706F4ADB
:10293000136010BD34216E4811F05AFB00236D4A1C
:1029400013606D4A13606D4A6D4911606D496E4A9E
:1029500011606E4A6E4802606E480160DFF860E206
:102960006D48C0F800E06D4803606D486D4C206014
:102970006D4C23606D4C2060DFF838C26C48C0F8A5
:1029800000C06C4803606C4801606C4801606C4892
:1029900001606C486C4C20606C4C23606C4C226075
:1029A0006C4C22606C4C22606C4CC4F800E06C4CA7
:1029B0002360DFF810E26B4CC4F800E06A4C23603F
:1029C0006A4CC4F800E06A4CC4F800C0694C23604B
:1029D000694C2260694C216069490A60694A10604B
:1029E000694A1360694B6A4A13606A4A13606A4B0A
:1029F0006A4A13606A4A136001236A4A13706A4A7A
:102A000013706A4A1370354A137087E7684B354A6A
:102A10001360354A13603B493B4B1960DFF8A0C196
:102A20003B4BC3F800C03B4B19603B4BC3F800C0A5
:102A300000233A4A13603A4A3A4802605D483A4CE9
:102A400020603A4C22603A4A10603A4A13603A4A8F
:102A500011603C4A394C2260394C21603A490A6085
:102A60003A490B6029493A4C21603A4CC4F800C0FD
:102A7000394C2160394CC4F800C0394C2360DFF870
:102A800044C1384CC4F800C0374C2060374CC4F8FF
:102A900000C0374C20603748036037480160374832
:102AA00002603748016037490A60374A1360384B83
:102AB000364A1A60374B404A1A60384B364A1A6019
:102AC000374B3E4A1A600123364A1370364A137058
:102AD000364A1370014A137020E700BF6C040020CF
:102AE0002C040020C00200205404002038040020E0
:102AF00070050020380000206404002060040020DD
:102B00000000344300005CC25003002000005C421F
:102B10004C03002048030020440300203C03002015
:102B200000009842380300203403002030030020C6
:102B30002C03002024030020200300201C0300207D
:102B4000180300200000A0C0140300200C03002084
:102B5000080300200403002000030020FC020020E2
:102B6000F4020020F0020020EC020020E802002025
:102B7000E4020020DC020020D8020020D402002061
:102B8000D0020020CC020020C40200200000A44299
:102B9000500400204C040020000070434804002032
:102BA000440400202E0400202D0400203C000020BE
:102BB0000000A0400000484200008841000004439B
:102BC0000000D242000098C2324B334A1360334AAD
:102BD00013603349334B1960DFF878C1324BC3F8C7
:102BE00000C0324B1960324BC3F800C00023314A99
:102BF0001360314A314802603148324C2060324C17
:102C00002260324A1060324A1360324A1160324AFE
:102C1000324C2260324C216032490A6032490B60EA
:102C20003249334C2160334CC4F800C0324C21602F
:102C3000324CC4F800C0324C2360DFF81CC1314C68
:102C4000C4F800C0304C2060304CC4F800C0304C98
:102C500020603048036030480160304802603048EE
:102C6000016030490A60304A1360304B304A1360CB
:102C7000304A1360304B314A1360314A13600123EC
:102C8000304A1370304A1370304A1370304A137050
:102C900044E670470000B442C00200205404002003
:102CA00000005CC2500300204C03002048030020B9
:102CB000440300203C030020000098423803002019
:102CC0000000484234030020300300202C03002081
:102CD00024030020200300200000A0C01C030020CB
:102CE00018030020140300200C03002000005C42A5
:102CF000080300200403002000030020FC02002041
:102D0000F4020020F0020020EC020020E802002083
:102D1000E4020020DC020020D8020020D4020020BF
:102D2000D0020020CC020020C40200200000884114
:102D3000500400204C0400200000044348040020FC
:102D4000440400202E0400202D0400203C0000201C
:102D50006C0400200000D242000098C20000000075
:102D600008B52DED028B284B93ED008ADFED277A15
:102D7000B4EEE78AF1EE10FA3CD8254BD3ED006AA9
:102D8000244B93ED007A37EE667AB2EE046AC7EE12
:102D9000067A77EEA77A204BC3ED007A68EE277AA1
:102DA000DFED1E5A87EEA57A67EE067A76EEA77AF1
:102DB00017EE900AFDF7B8FB11A3D3E90023FDF746
:102DC0000BFCFDF7B9FE164B1860164BD3ED007ADD
:102DD00038EE278A0C4B83ED008ADFED0C7AB4EED7
:102DE000E78AF1EE10FA05DD0F4B00221A70064B50
:102DF00000221A60BDEC028B08BD00BFAFF300805B
:102E000048E17A14AE470B404004002000003443F0
:102E10004804002044040020580400200000B4436B
:102E200034040020540400202E0400201F4BD3ED56
:102E3000007A9FED1F7AF4EEC77AF1EE10FA34D8DB
:102E40001C4BD3ED006A1C4B93ED006A36EE666AAC
:102E5000F2EE045A86EE257A37EE077A174B83EDA9
:102E6000007A27EE877A9FED165A87EE056A26EEDE
:102E7000257A76EE876AFDEEE66A124BC3ED006AAC
:102E8000114B93ED007A77EE877A084BC3ED007A09
:102E90009FED077AF4EEC77AF1EE10FA05DD0B4BE1
:102EA00000221A70014B00221A6070473C04002077
:102EB00000003443500400204C0400205C04002037
:102EC0000000B44330040020540400202D040020EE
:102ED00008B5424B1B78002B35D1414B1B78002B9A
:102EE00031D1404B01221A70B42393FBF0F307EE6B
:102EF000903AF8EEE77A3C4BC3ED007A3B4B1B6807
:102F0000042B15D8DFE803F0032034455700384B75
:102F1000384A1A60384B394A1A60394B394A1A60B4
:102F2000394B3A4A1A6001232C4A13702C4A137009
:102F30002E4A136801331360052B04DD0023294A50
:102F400013702A4A136008BD2821314811F050F847
:102F50002A4B274A1360284A13602C4B284A1360D7
:102F6000294A136001231D4A13701D4A1370DFE7BD
:102F70001F4B224A1A60204B264A1A60234B204AD4
:102F80001360214A13600123144A1370144A13700A
:102F9000CEE7174B1F4A1A60174B164A1A60184B98
:102FA0001A4A1A60184B174A1A6001230B4A137009
:102FB0000B4A1370BCE70C4B174A1A600D4B0C4AB6
:102FC00013600D4A13600F4B0D4A13600E4A1360D5
:102FD0000123024A1370024A1370A9E72E0400204D
:102FE0002D0400202C04002054040020380400206C
:102FF000500400200000A4424C040020000078424D
:103000004804002000007043440400200000EA420D
:10301000700500200000CC420000704208B5424B11
:103020001B78002B35D1414B1B78002B31D1404B05
:1030300001221A70B42393FBF0F307EE903AF8EEF6
:10304000E77A3C4BC3ED007A3B4B1B68042B15D849
:10305000DFE803F0032034455700384B384A1A6044
:10306000384B394A1A60394B394A1A60394B3A4A57
:103070001A6001232C4A13702C4A13702E4A1368CD
:1030800001331360052B04DD0023294A13702A4AFB
:10309000136008BD2821314810F0AAFF2A4B274AA7
:1030A0001360284A13602C4B284A1360294A136086
:1030B00001231D4A13701D4A1370DFE71F4B224A7C
:1030C0001A60204B264A1A60234B204A1360214A7B
:1030D00013600123144A1370144A1370CEE7174B80
:1030E0001F4A1A60174B164A1A60184B1A4A1A6080
:1030F000184B174A1A6001230B4A13700B4A1370BE
:10310000BCE70C4B174A1A600D4B0C4A13600D4A72
:1031100013600F4B0D4A13600E4A13600123024ADD
:103120001370024A1370A9E72E0400202D0400201A
:103130002C040020540400203804002050040020F7
:103140000000A4424C040020000048424804002033
:103150000000704344040020000006437005002076
:103160000000B8420000704208B5274B1B78FBB93D
:10317000264B1B78E3B9264B01221A70B42393FB2C
:10318000F0F307EE903AF8EEE77A224BC3ED007ABF
:10319000214B1B686BB1934221D01F4A1368013346
:1031A0001360022B04DD0023194A13701A4A1360BE
:1031B00008BD184B4FF081421A60184B184A1A602C
:1031C000184B194A1A60194B194A1A60194B1A4AB6
:1031D0001A6001230C4A13700C4A1370DDE730218A
:1031E000164810F005FF104B0C4A13600D4A13608F
:1031F000114B0E4A13600F4A13600123024A1370E9
:10320000024A1370C9E700BF2E0400202D040020DD
:103210002C04002054040020380400205004002016
:103220000000A4424C040020000048424804002052
:103230000000704344040020000008437005002093
:1032400008B5264B1B78FBB9254B1B78E3B9254BFA
:1032500001221A70B42393FBF0F307EE903AF8EED4
:10326000E77A214BC3ED007A204B1B686BB1934288
:1032700020D01E4A136801331360022B04DD0023A3
:10328000184A1370194A136008BD174B184A1A6080
:10329000184B194A1A60194B194A1A60194B1A4AE5
:1032A0001A601A4B1A4A1A6001230C4A13700C4A0E
:1032B0001370DEE72821174810F09AFE104B0D4AD4
:1032C00013600E4A1360124B0E4A13600F4A1360CC
:1032D0000123024A1370024A1370CAE72E04002029
:1032E0002D0400202C040020540400203804002069
:1032F0000000104150040020000048424C0400200F
:103300000000A442480400200000084344040020B8
:10331000000070437005002010B52DED028B90B0B9
:10332000DFED837AC0EE277A17EE900AFDF7FCF8FE
:103330007DA3D3E90023FDF74FF9FDF725FC08EE47
:10334000100A2422002107A818F012FD4FF07E5326
:103350000F93B0EE480A19F0AFF910EE104A8DED58
:10336000070AB0EE480A19F0E7F9F1EE407ACDED20
:10337000087A8DED0A0A0B940022049205920692B7
:1033800001920292039231E002EB0C0310A800EBD1
:10339000830313ED0C7A02EB4200084410AC04EBFB
:1033A000800050ED097A0CEB010E624800EB8E00B4
:1033B000D0ED006A67EEA66A37EE267A03ED0C7A46
:1033C00013ED0F7A5C4800EB8E00D0ED006A67EEDB
:1033D000A67A77EE277A43ED0F7A01310129D3DD02
:1033E0000CF1010CBCF1000F05DD0132012A04DCF7
:1033F0004FF0000CF6E70021F0E7504BD3ED008AC8
:10340000F5EEC08AF1EE10FA2ED4F5EEC08AF1EE98
:1034100010FA25DDB5EEC08AF1EE10FA67D4B5EEEC
:10342000C08AF1EE10FA1BDB9DED040A19F01EFABA
:10343000434B83ED000A9DED050A19F017FA414B45
:1034400083ED000A9DED010A19F010FA3E4B83ED61
:10345000000A9DED020A19F009FA3C4B83ED000ABF
:1034600010B0BDEC028B10BDB5EEC08AF1EE10FAC3
:103470001BDB9DED040A19F0F9F9354B83ED000AC9
:103480009DED050A19F0F2F9324B83ED000A9DED2E
:10349000010A19F0EBF9304B83ED000A9DED020AA9
:1034A00019F0E4F92D4B83ED000AB5EEC08AF1EE78
:1034B00010FAAAD59DED040A19F0D8F9204B83ED36
:1034C000000A9DED050A19F0D1F91E4B83ED000AA3
:1034D0009DED010A19F0CAF91B4B83ED000A9DED21
:1034E000020A19F0C3F9194B83ED000A8DE79DED2F
:1034F000040A19F0BBF9164B83ED000A9DED050A8D
:1035000019F0B4F9134B83ED000A9DED010A19F08F
:10351000ADF9114B83ED000A9DED020A19F0A6F9F1
:103520000E4B83ED000A7AE7182D4454FB21094025
:1035300000003443D4FB0108C8FB01080C02002042
:1035400094030020C403002084030020B40300205F
:10355000AC030020DC0300209C030020CC030020EF
:1035600010B52DED028B10EE904AF3EE0E7AB4EE0C
:10357000E70AF1EE10FA01DDB0EE670AFBEE0E7A13
:10358000B4EEE70AF1EE10FA01D5B0EE670AAB4BE4
:1035900083ED000A9FEDAA7AC7EE017AA94BC3ED2D
:1035A000007AA94B1B78002B40F0B680A74B1B6814
:1035B000032B00F2A880DFE813F00400B200B10191
:1035C0005402DFEDA38A77EEA87AA24BC3ED007A0E
:1035D000A14BA24A1A60F6EE007A20EE278AB0EEDE
:1035E000480AFFF799FEB1EE480AFFF795FE9C4B9B
:1035F000D3ED006AF1EE664A9A4BC3ED004A9A4B4E
:1036000093ED005A994B83ED005A994B93ED006A64
:10361000B1EE464A974B83ED004A974BD3ED005AE3
:10362000964BC3ED005A964BC3ED008A954B1C6038
:10363000954B93ED007A954B83ED007A944B1A6885
:10364000944B1A60944BD3ED007A944BC3ED007AFF
:10365000934B1B6893490B609349C1ED008A9349D2
:103660000C60934981ED004AB1EE654A914981EDC4
:10367000004A9149C1ED004AF1EE454A8F49C1ED3A
:10368000004A8F49C1ED008A8E490C608E49C1ED18
:10369000006A8E4981ED005A8D4981ED006A8D499D
:1036A000C1ED005A8C49C1ED008A8C49C1ED008AF8
:1036B000B1EE477A8A4981ED007A8A490A60F1EED3
:1036C000677A894AC2ED007A884A1360884BC3ED55
:1036D000008A884BC3ED008A874B83ED006A874BD5
:1036E00083ED004A864BC3ED006A864BC3ED004A6A
:1036F000854BC3ED008A854BC3ED008A0123844AC4
:103700001370514A1370514A136801331360032B2D
:1037100002DD134600221A60BDEC028B10BD9FED46
:103720007D7A77EE877A4B4BC3ED007A4A4B83ED77
:10373000007A4F4BD3ED006AF1EE664A494BC3ED78
:10374000004A4D4B93ED005A484B83ED005A444BD1
:1037500093ED006AB1EE464A464B83ED004A424B78
:10376000D3ED005A454BC3ED005A0023444A136081
:10377000444A1360484A92ED007A444A82ED007A46
:10378000474A1168434A11603F4AD2ED007A434AE2
:10379000C2ED007A3E4A1268424802604248036025
:1037A00042480360424880ED004AB1EE654A414814
:1037B00080ED004A4048C0ED004AF1EE454A3F48DE
:1037C000C0ED004A3E4803603E4803603E48C0EDFD
:1037D000006A3E4880ED005A3D4880ED006A3D4851
:1037E000C0ED005A3C4803603C480460B1EE477AA3
:1037F0003B4880ED007A3B480160F1EE677A3A4938
:10380000C1ED007A39490A60394A1360394A1460B7
:10381000394A82ED006A394A82ED004A384AC2EDDF
:10382000006A384AC2ED004A374A1360374B1C60C1
:103830000123374A1370044A137064E70C02002016
:1038400000003443C00200206C0400206804002003
:1038500000000000640400206004002000003443E5
:103860009403002050030020C40300204C030020D8
:10387000AC03002048030020DC03002044030020A8
:10388000400300203C0300209C030020380300205C
:10389000CC030020340300208403002030030020E8
:1038A000B40300202C030020280300202403002060
:1038B000200300201C030020180300201403002014
:1038C000100300200C030020080300200403002044
:1038D00000030020FC020020F8020020F402002077
:1038E000F0020020EC020020E8020020E4020020A8
:1038F000E0020020DC020020D8020020D4020020D8
:10390000D0020020CC020020C8020020C402002007
:103910003C0000200000B442000000005FED028A7D
:1039200077EEA87A964BC3ED007A964B964A1A60CA
:10393000F6EE007A20EE278AB0EE480AFFF7ECFC9C
:10394000B1EE480AFFF7E8FC904BD3ED006AF1EEC8
:10395000664A8F4BC3ED004A8E4B93ED005A8E4B57
:1039600083ED005A8D4B93ED006AB1EE464A8C4BC5
:1039700083ED004A8B4BD3ED005A8B4BC3ED005ABD
:103980008A4BC3ED008A8A4BC3ED008A894B93EDC5
:10399000007A894B83ED007A884B1A68884B1A604D
:1039A000884BD3ED007A884BC3ED007A874B1B68B8
:1039B00087490B608749C1ED008A8749C1ED008ABC
:1039C000864981ED004AB1EE654A854981ED004A9C
:1039D0008449C1ED004AF1EE454A8349C1ED004AF0
:1039E0008249C1ED008A8249C1ED008A8149C1ED59
:1039F000006A814981ED005A804981ED006A804961
:103A0000C1ED005A7F49C1ED008A7F490C60B1EEDB
:103A1000477A7E4981ED007A7D490A60F1EE677A46
:103A20007C4AC2ED007A7C4A13607C4BC3ED008A6D
:103A30007B4B1C607B4B83ED006A7B4B83ED004A24
:103A40007A4BC3ED006A7A4BC3ED004A794BC3ED64
:103A5000008A794B1C600123784A1370784A1370EE
:103A600051E69FED787A77EE877A454BC3ED007A81
:103A7000444B83ED007A494BD3ED006AF1EE664A80
:103A8000434BC3ED004A474B93ED005A424B83ED45
:103A9000005A3E4B93ED006AB1EE464A404B83ED2F
:103AA000004A3C4BD3ED005A3F4BC3ED005A002374
:103AB0003E4A13603E4A1460424A92ED007A3E4A02
:103AC00082ED007A414A11683D4A1160394AD2EDCF
:103AD000007A3D4AC2ED007A384A12683C480260DA
:103AE0003C4803603C4804603C4880ED004AB1EE2D
:103AF000654A3B4880ED004A3A48C0ED004AF1EE85
:103B0000454A3948C0ED004A3848036038480460E7
:103B10003848C0ED006A384880ED005A374880EDDB
:103B2000006A3748C0ED005A3648036036480360E3
:103B3000B1EE477A354880ED007A35480160F1EE04
:103B4000677A3449C1ED007A33490A60334A136019
:103B5000334A1360334A82ED006A334A82ED004AE9
:103B6000324AC2ED006A324AC2ED004A314A13605D
:103B7000314A13600123314A1370314A1370C2E590
:103B8000640400206004002000003443AC030020E3
:103B900050030020DC0300204C030020940300208D
:103BA00048030020C40300204403002040030020F9
:103BB0003C0300208403002038030020B4030020CD
:103BC000340300209C03002030030020CC0300209D
:103BD0002C030020280300202403002020030020C1
:103BE0001C030020180300201403002010030020F1
:103BF0000C03002008030020040300200003002021
:103C0000FC020020F8020020F4020020F002002054
:103C1000EC020020E8020020E4020020E002002084
:103C2000DC020020D8020020D4020020D0020020B4
:103C3000CC020020C8020020C40200203C0000206A
:103C40006C0400200000B44210B400202A4B18601D
:103C500000232A4A13602A4A13602A4A2A490A6022
:103C60002A492B4C21602B4C22602B4C21602B4C81
:103C70002360DFF818C12A4CC4F800C0294C236027
:103C8000294CC4F800C0294C2360294C2360294CDE
:103C90002260294C2260294C2260294C2260294C48
:103CA0002360294C2160294C2160294C2160294C3A
:103CB0002160294C2360DFF8D8C0284CC4F800C02C
:103CC000274C2360274CC4F800C0274C2360274CA6
:103CD0002360274C2160274C2260274C2160274914
:103CE0000A60274A1360274B01221A70264B18706E
:103CF0005DF8044B704700BF6804002038000020C6
:103D00006004002000005CC25003002000005C4200
:103D10004C03002048030020440300203C03002003
:103D20003803002034030020300300202C0300203F
:103D300024030020200300201C030020180300207F
:103D4000140300200C0300200803002004030020BB
:103D500000030020FC020020F4020020F0020020FA
:103D6000EC020020E8020020E4020020DC02002037
:103D7000D8020020D4020020D0020020CC02002073
:103D8000C40200203C0000206C0400200000964289
:103D9000000096C20000000038B52DED068BF0EE55
:103DA000408AB0EE608AF0EE41AA80EEA80A18F0D0
:103DB000A9FBDFED959A60EE297A17EE900AFCF7E1
:103DC000B3FB8BA3D3E90023FCF730FD00228F4B1C
:103DD000FCF74CFA41EC100B18F0F8FC51EC100B0E
:103DE000FCF7D2FE07EE900A894B18609FED897AA6
:103DF00077EEC77A9FED887A77EE877AB0EE007A11
:103E000077EEC77A854B93ED007A77EE877A17EED7
:103E1000900AFCF789FB78A3D3E90023FCF7DCFBCD
:103E2000FCF7B2FE0AEE100A7D4B18607D4B93ED55
:103E3000009AB8EEC99A39EE2A9A7B4B83ED009A24
:103E400068EEA88A28EE088A38EE880A18F038FB4F
:103E5000764B83ED000AF3EE067A30EE678A744BF8
:103E600083ED008A28EE080A69EE097A30EE270A07
:103E700018F026FBF0EE408A6E4B83ED000A89EEC7
:103E8000080A18F03FFBB0EE408A6B4B83ED000A46
:103E900028EEA89A9FED690A39EE000ADFED687AEC
:103EA00030EE670ADFED677A68EEA78A80EE280AAF
:103EB00018F0DAFA644B83ED000A38EE008A634B9F
:103EC00083ED008A68EE297A17EE900AFCF72CFB46
:103ED00047A3D3E90023FCF7A9FC41EC100B18F031
:103EE00075FC51EC100B0022594BFCF7BFF9024650
:103EF0000B4643A1D1E90001FCF7B6F904460D4693
:103F0000544B1868FCF710FB02460B462046294626
:103F1000FCF7ACF938A3D3E90023FCF75DFBFCF711
:103F200033FE08EE900A4C4B1860DFED4C7A77EECA
:103F3000C97A9FED4B0A87EE800A18F095FA494B33
:103F400083ED000A60EE297A17EE900AFCF7ECFA8E
:103F500027A3D3E90023FCF769FC00223C4BFCF7C4
:103F600083F941EC100B18F031FC53EC102B0020BE
:103F70003749FCF779F902460B4621A1D1E9000146
:103F8000FCF772F904460D46374B1868FCF7CCFA7B
:103F900002460B4620462946FCF768F916A3D3E9EA
:103FA0000023FCF719FBFCF7EFFD08EE100A2F4B7E
:103FB0001860B0EE4A0A18F059FC2D4CBDEEC00A4C
:103FC00084ED000AB0EE680A18F050FCBDEEC00A9D
:103FD00084ED010AB0EE480A18F048FCBDEEC00AB4
:103FE00084ED020ABDEC068B38BD00BFAFF3008044
:103FF000182D4454FB21094048E17A14AE470B4088
:104000000000000000C072400000344300806640A1
:104010005C020020000007430000434338020020F8
:10402000700200203400002074020020580200209A
:1040300050020020540200204C02002000902F4526
:10404000002099450000D44248020020640200206C
:1040500000805640140200206C02002000E8F04569
:1040600000E0E745600200202002002068020020F6
:10407000780200200000000038B52DED068BF0EE30
:10408000408AB0EE608AB0EE41AA80EEA80A18F02D
:1040900039FA9FED9B9A60EE097A17EE900AFCF7C9
:1040A00043FA91A3D3E90023FCF7C0FB0022954B10
:1040B000FCF7DCF841EC100B18F088FB51EC100B0E
:1040C000FCF762FD07EE900A8F4B186077EEC97A15
:1040D0009FED8E7A77EE877AB0EE080A37EEC00A47
:1040E00018F0C4FB8A4B83ED000AB4EEC90AF1EE66
:1040F00010FA05DDDFED877A30EE670A83ED000AFE
:10410000834C2068FCF710FA79A3D3E90023FCF76D
:1041100063FAFCF739FD09EE900A20607E4B93EDBF
:10412000009AB8EEC99A39EE0A9A7C4B83ED009A50
:1041300068EEA88A28EE088A38EE880A18F0C0F9D6
:10414000774B83ED000AF3EE067A30EE678A754B03
:1041500083ED008A28EE080A69EE097A30EE270A14
:1041600018F0AEF9F0EE408A6F4B83ED000A89EE4D
:10417000080A18F0C7F9B0EE408A6C4B83ED000ACC
:1041800028EEA89ADFED6A7A79EE277A9FED697AB0
:1041900077EEC77A9FED687A68EE878A87EEA80A7D
:1041A00018F062F9654B83ED000A30EE080A644BA3
:1041B00083ED000A9FED528A60EE087A17EE900AAE
:1041C000FCF7B2F948A3D3E90023FCF72FFB41EC3D
:1041D000100B18F0FBFA51EC100B0022594BFCF7B6
:1041E00045F802460B4644A1D1E90001FCF73CF832
:1041F00000224FF08043FCF739F804460D46524B3D
:104200001868FCF791F902460B4620462946FCF750
:104210002DF837A3D3E90023FCF7DEF9FCF7B4FC53
:1042200008EE900A494B1860DFED497A77EEC97ABB
:104230009FED480A87EE800A18F016F9464B83ED89
:10424000000A60EE087A17EE900AFCF76DF926A3D3
:10425000D3E90023FCF7EAFA00223A4BFCF704F812
:1042600041EC100B18F0B2FA53EC102B002035493A
:10427000FBF7FAFF02460B461FA1D1E90001FBF74D
:10428000F3FF04460D46354B1868FCF74DF902461E
:104290000B4620462946FBF7E9FF15A3D3E9002387
:1042A000FCF79AF9FCF770FC08EE100A2C4B18602A
:1042B000B0EE690A18F0DAFA2A4CBDEEC00A84EDB5
:1042C000030AB0EE680A18F0D1FABDEEC00A84ED18
:1042D000040AB0EE480A18F0C9FABDEEC00A84ED2F
:1042E000050ABDEC068B38BD182D4454FB2109404E
:1042F00048E17A14AE470B400000000000C0724055
:1043000000003443008066405C0200200000164339
:10431000700200200000B44330000020740200202E
:104320005802002050020020540200204C020020BD
:1043300000902F45002099450000D44248020020FB
:104340006402002000805640340200206C020020ED
:1043500000E8F04500E0E745600200203002002060
:10436000680200207802002038B52DED068BF0EEB3
:10437000408AB0EE608AF0EE41AA80EEA80A18F0FA
:10438000C1F8DFED959A60EE297A17EE900AFCF7F6
:10439000CBF88BA3D3E90023FCF748FA00228F4B1C
:1043A000FBF764FF41EC100B18F010FA51EC100B06
:1043B000FCF7EAFB07EE900A894B18609FED897ABB
:1043C00077EEC77A9FED887A77EE877A874B93ED01
:1043D000017A77EE877A17EE900AFCF7A5F87AA3B0
:1043E000D3E90023FCF7F8F8FCF7CEFB0AEE100A3D
:1043F0007F4B18607F4B93ED009AB8EEC99A39EE67
:104400002A9A7D4B83ED009A68EEA88A28EE088AE6
:1044100038EE880A18F054F8784B83ED000AF3EE72
:10442000067A30EE678A764B83ED008A28EE080A1A
:1044300069EE097A30EE270A18F042F8F0EE408A69
:10444000704B83ED000A89EE080A18F05BF8B0EEB5
:10445000408A6D4B83ED000A28EEA89A9FED6B0A07
:1044600039EE000ADFED6A7A30EE670ADFED697A2D
:1044700068EEA78A80EE280A17F0F6FF664B83EDF8
:10448000000A38EE008A654B83ED008A68EE297ACF
:1044900017EE900AFCF748F849A3D3E90023FCF78C
:1044A000C5F941EC100B18F091F951EC100B0022FA
:1044B0005B4BFBF7DBFE02460B4645A1D1E9000151
:1044C000FBF7D2FE04460D46564B1868FCF72CF855
:1044D00002460B4620462946FBF7C8FE3AA3D3E91D
:1044E0000023FCF779F8FCF74FFB08EE900A4E4BDF
:1044F0001860DFED4E7A77EEC97A9FED4D0A87EEB0
:10450000800A17F0B1FF4B4B83ED000A60EE297A69
:1045100017EE900AFCF708F829A3D3E90023FCF76B
:1045200085F900223E4BFBF79FFE41EC100B18F083
:104530004DF953EC102B00203949FBF795FE02464C
:104540000B4623A1D1E90001FBF78EFE00223A4B76
:10455000FBF78AFE04460D46384B1868FBF7E4FF6C
:1045600002460B4620462946FBF780FE16A3D3E9F8
:104570000023FCF731F8FCF707FB08EE100A304B7C
:104580001860B0EE4A0A18F071F92E4CBDEEC00A60
:1045900084ED060AB0EE680A18F068F9BDEEC00AAC
:1045A00084ED070AB0EE480A18F060F9BDEEC00AC3
:1045B00084ED080ABDEC068B38BD00BFAFF3008068
:1045C000182D4454FB21094048E17A14AE470B40B2
:1045D0000000000000C072400000344300806640CC
:1045E0005C020020000061430000D242380200203B
:1045F000700200202C0000207402002058020020CD
:1046000050020020540200204C02002000902F4550
:10461000002099450000D442480200206402002096
:1046200000805640240200206C02002000E8F04583
:1046300000E0E74560020020000008402002002062
:10464000680200207802002038B52DED068BF0EED0
:10465000408AB0EE608AF0EE41AA80EEA80A17F018
:1046600051FFDFED8D9A60EE297A17EE900AFBF785
:104670005BFF85A3D3E90023FCF7D8F80022874B22
:10468000FBF7F4FD41EC100B18F0A0F851EC100B07
:10469000FCF77AFA07EE900A814B18609FED817A59
:1046A00077EEC77A9FED807A77EE877A7F4B93ED2E
:1046B000027A77EE877A17EE900AFBF735FF74A33C
:1046C000D3E90023FBF788FFFCF75EFA0AEE100A35
:1046D000774B1860774B93ED009AB8EEC99A39EE94
:1046E0002A9A754B83ED009A68EEA88A28EE088A0C
:1046F00038EE880A17F0E4FE704B83ED000AF3EE03
:10470000067A30EE678A6E4B83ED008A28EE080A3F
:1047100069EE097A30EE270A17F0D2FEF0EE408AF1
:10472000684B83ED000A89EE080A17F0EBFEB0EE45
:10473000408A654B83ED000A28EEA89A9FED630A34
:1047400039EE000ADFED627A30EE670ADFED617A5A
:1047500068EEA78A80EE280A17F086FE5E4B83ED8E
:10476000000A38EE008A5D4B83ED008A68EE297AF4
:1047700017EE900AFBF7D8FE43A3D3E90023FCF71A
:1047800055F841EC100B18F021F851EC100B0022F9
:10479000534BFBF76BFD04460D46524B1868FBF775
:1047A000C3FE02460B4620462946FBF75FFD00226A
:1047B0004D4BFBF75BFD36A3D3E90023FBF70CFF62
:1047C000FCF7E2F908EE900A484B1860DFED487AF2
:1047D00077EEC97A9FED470A87EE800A17F044FE0C
:1047E000454B83ED000A60EE297A17EE900AFBF73D
:1047F0009BFE25A3D3E90023FCF718F80022384BD1
:10480000FBF732FD41EC100B17F0E0FF53EC102BDF
:1048100000203349FBF728FD0022384BFBF726FD2B
:1048200004460D46364B1868FBF77EFE02460B46E3
:1048300020462946FBF71AFD15A3D3E90023FBF711
:10484000CBFEFCF7A1F908EE100A2E4B1860B0EE73
:104850004A0A18F00BF82C4CBDEEC00A84ED090A88
:10486000B0EE680A18F002F8BDEEC00A84ED0A0A3C
:10487000B0EE480A17F0FAFFBDEEC00A84ED0B0A4D
:10488000BDEC068B38BD00BF182D4454FB210940F8
:1048900048E17A14AE470B40000034430080764074
:1048A0005C02002000809D4300004343380200204A
:1048B0007002002020000020740200205802002016
:1048C00050020020540200204C02002000902F458E
:1048D000002099450000D4424802002064020020D4
:1048E000008056401C020020000010406C02002096
:1048F00000E8F04500E0E74560020020000031409C
:104900001802002068020020780200200000000049
:1049100038B52DED048BF0EE408AB0EE608A944BF2
:1049200093ED009AB8EEC99A39EE019A914B83ED56
:10493000009A80EEA80A17F0E5FDDFED8F9A60EE91
:10494000297A17EE900AFBF7EFFD85A3D3E9002340
:10495000FBF76CFF41EC100B17F038FF51EC100B1C
:10496000FCF712F900EE100A844B1860DFED847A30
:1049700030EE270ADFED837A30EE270A17F076FF54
:10498000814B83ED000AB4EEE90AF1EE10FA05DD81
:10499000DFED7E7A30EE670A83ED000A7A4C2068FC
:1049A000FBF7C2FD70A3D3E90023FBF715FEFCF76C
:1049B000EBF809EE900A206068EEA88A28EE088AD3
:1049C00038EE880A17F07CFD714B83ED000AF3EE98
:1049D000067A30EE678A6F4B83ED008A28EE080A6C
:1049E00069EE097A30EE270A17F06AFDF0EE408A88
:1049F000694B83ED000A89EE080A17F083FDB0EEDB
:104A0000408A664B83ED000A28EEA89ADFED647AAF
:104A100079EE277A9FED637A77EEC77A9FED627A17
:104A200068EE878A87EEA80A17F01EFD5F4B83EDBC
:104A3000000A30EE080A5E4B83ED000A9FED4E8AB5
:104A400060EE087A17EE900AFBF76EFD44A3D3E9F7
:104A50000023FBF7EBFE41EC100B17F0B7FE51EC17
:104A6000100B0022534BFBF701FC00224FF0804358
:104A7000FBF7FAFB04460D464F4B1868FBF754FD55
:104A800002460B4620462946FBF7F0FB36A3D3E946
:104A90000023FBF7A1FDFCF777F808EE900A474BDF
:104AA0001860DFED477A77EEC97A9FED460A87EE08
:104AB000800A17F0D9FC444B83ED000A60EE087AB7
:104AC00017EE900AFBF730FD25A3D3E90023FBF78F
:104AD000ADFE0022374BFBF7C7FB41EC100B17F084
:104AE00075FE53EC102B00203249FBF7BDFB002272
:104AF000364BFBF7BBFB04460D46354B1868FBF7FE
:104B000013FD02460B4620462946FBF7AFFB16A3D2
:104B1000D3E90023FBF760FDFCF736F808EE100A36
:104B20002C4B1860B0EE690A17F0A0FE2A4CBDEEBF
:104B3000C00A84ED0C0AB0EE680A17F097FEBDEECD
:104B4000C00A84ED0D0AB0EE480A17F08FFEBDEEE4
:104B5000C00A84ED0E0ABDEC048B38BDAFF30080B3
:104B6000182D4454FB21094048E17A14AE470B400C
:104B70002400002074020020000034435C02002066
:104B80000000164300000000700200200000B44343
:104B90005802002050020020540200204C02002045
:104BA00000902F45002099450000D4424802002083
:104BB00064020020008056402C0200206C0200207D
:104BC00000E8F04500E0E7456002002000000840F2
:104BD0002802002068020020780200200000000067
:104BE00038B52DED068BF0EE408AB0EE608AF0EE1F
:104BF00041AA80EEA80A17F085FCDFED8D9A60EEE1
:104C0000297A17EE900AFBF78FFC85A3D3E90023DE
:104C1000FBF70CFE41EC100B17F0D8FD51EC100B1C
:104C2000FBF7B2FF07EE900A824B18609FED827A85
:104C300077EEC77A9FED817A77EE877AB1EE047AC4
:104C400077EEC77A7E4B93ED037A77EE877A17EE8D
:104C5000900AFBF769FC74A3D3E90023FBF7BCFCC3
:104C6000FBF792FF0AEE100A764B1860764B93ED35
:104C7000009AB8EEC99A39EE2A9A744B83ED009ADD
:104C800068EEA88A28EE088A38EE880A17F018FC21
:104C90006F4B83ED000AF3EE067A30EE678A6D4BB8
:104CA00083ED008A28EE080A69EE097A30EE270AB9
:104CB00017F006FCF0EE408A674B83ED000A89EEA0
:104CC000080A17F01FFCB0EE408A644B83ED000A1F
:104CD00028EEA89A9FED620A39EE000ADFED617AAC
:104CE00030EE670ADFED607A68EEA78A80EE280A68
:104CF00017F0BAFB5D4B83ED000A38EE008A5C4B7F
:104D000083ED008A68EE297A17EE900AFBF70CFC17
:104D100043A3D3E90023FBF789FD41EC100B17F007
:104D200055FD51EC100B0022524BFBF79FFA044645
:104D30000D46514B1868FBF7F7FB02460B46204621
:104D40002946FBF793FA00224C4BFBF78FFA36A368
:104D5000D3E90023FBF740FCFBF716FF08EE900AAF
:104D6000474B1860DFED477A77EEC97A9FED460A28
:104D700087EE800A17F078FB444B83ED000A60EE63
:104D8000297A17EE900AFBF7CFFB25A3D3E900237E
:104D9000FBF74CFD0022374BFBF766FA41EC100B9A
:104DA00017F014FD53EC102B00203249FBF75CFA8E
:104DB0000022374BFBF75AFA04460D46354B18686C
:104DC000FBF7B2FB02460B4620462946FBF74EFA9C
:104DD00015A3D3E90023FBF7FFFBFBF7D5FE08EE95
:104DE000100A2D4B1860B0EE4A0A17F03FFD2B4C0D
:104DF000BDEEC00A84ED0F0AB0EE680A17F036FD6A
:104E0000BDEEC00A84ED100AB0EE480A17F02EFD80
:104E1000BDEEC00A84ED110ABDEC068B38BD00BFA3
:104E2000182D4454FB21094048E17A14AE470B4049
:104E3000000034435C020020000034420000D242F3
:104E40003802002070020020280000207402002098
:104E50005802002050020020540200204C02002082
:104E600000902F45002099450000D44248020020C0
:104E700064020020008056401C0200200000104008
:104E80006C02002000E8F04500E0E74560020020E9
:104E9000000008401802002068020020780200206C
:104EA00000B595B01348FCF7BEF8E8B1114BB3F963
:104EB0006430CBB10F4AB2F962300093B2F91020DE
:104EC0001392934213DB13AA106802B209490A82B3
:104ED000934209D0013008826846FCF700F84C2262
:104EE0006946054817F01DF815B05DF804FB6A46E1
:104EF000EAE700BFC40500207805002010B504468D
:104F0000012115F0A5FF0021204616F01FF8022010
:104F10000DF072FF0121204616F018F803200DF065
:104F20006BFF0021204616F011F80021204615F0F5
:104F30008FFF084A0121204616F05CF8064B1860E6
:104F4000064B83FB00230344C017C0EB6310044BE4
:104F5000186010BD40420F008404002009CB3D8D35
:104F60008804002038B52DED028B0C46FFF7C6FFF4
:104F7000284D28602046FFF7C1FF274B1860274BBC
:104F800093ED007AF7EE008A78EEC78A244B93ED12
:104F9000000A28EE800AD5ED007AF8EEE77A67EE8F
:104FA000877A30EE270A83ED000A1E4BD3ED007A94
:104FB00068EEA78A07EE900AF8EEE77A67EE877A3E
:104FC00078EEA78AC3ED008A17F050FCB0EE408A55
:104FD000B0EE680A17F04AFC38EE408AF0EE087A24
:104FE00028EE278AFDEEC87A17EE903A0E4AC2EDF7
:104FF000007A192B02DD134619221A600A4B1B682E
:1050000013F1190F03DA084B6FF018021A60BDECA8
:10501000028B38BD740400207804002010000020AA
:10502000C8010020C40100208004002008B5002130
:105030003E2015F08BFF02200DF0DEFE01213E2008
:1050400015F084FF05200DF0D7FE00213E2015F05D
:105050007DFF084A0121CC2015F0CCFF064A1060E4
:10506000064B83FB00130344C017C0EB63101060B2
:1050700008BD00BF40420F007004002009CB3D8DE9
:10508000012906DD01F1FF3C00239C4514DD10B42D
:1050900003E0704701339C450BDD50F823105A1C88
:1050A00050F82240A142F5DD40F8234040F822109C
:1050B000F0E75DF8044B7047704700000000000007
:1050C00030B59DB00546002408E0284615F07AFE6C
:1050D0001CAB03EB840343F8640C0134182CF4DD9F
:1050E000192103A8FFF7CCFF41F288330093002376
:1050F00040F2FF3219460F9815F040FCFBF702FA18
:1051000000220F4BFBF792FB9FED091B41EC100BAC
:1051100017F0EAF851EC100B07A3D3E90023FBF7D3
:105120005BFAFBF709FD1DB030BD00BFAFF3008097
:105130001283C0CAA145F3BFEE7C3F355EBA3B4047
:1051400000408F4008B5FFF7BBFF034B18600220FB
:105150000DF052FE08BD00BF6005002038B52DEDF2
:10516000028B08EE100AC220FFF7ECFF1B4C1C4D0F
:10517000D5ED007AF8EEE77AC4ED007AC020FFF7AB
:10518000E1FFD5ED007AF8EEE77A164BC3ED007A31
:10519000B8EEC87A37EE277A83ED007AD4ED007A3C
:1051A00077EEC77AB0EE087A67EE877AFDEEE77A97
:1051B00017EE903A0C4AC2ED007A0F2B02DD13462F
:1051C0000F221A60084B1B6813F10F0F03DA064B0E
:1051D0006FF00E021A60BDEC028B38BDC0010020DA
:1051E00060050020BC0100208004002038B5C220EA
:1051F000FFF7A8FF1A4C1B4DD5ED007AF8EEE77AC1
:10520000C4ED007AC020FFF79DFF95ED007AB8EE5F
:10521000C77A154B83ED007AF1EE0C7A37EE277AD8
:1052200083ED007AD4ED007A77EEC77AB0EE087A93
:1052300067EE877AFDEEE77A17EE903A0B4AC2EDF9
:10524000007A0F2B02DD13460F221A60074B1B68F2
:1052500013F10F0F03DA054B6FF00E021A6038BD21
:10526000C001002060050020BC0100208004002057
:1052700008B52DED028B1E4BD3ED008A1D4B93ED2F
:10528000008A28EE888A1C4B83ED008A1B4B186825
:10529000FBF74AF914A3D3E90023FBF70FFC10B185
:1052A000164B174A1A60174BD3ED007A78EEE78A4F
:1052B000124B93ED007AC8EE877A134B93ED007A88
:1052C00067EE877A114BC3ED007A38EE278AF2EE4B
:1052D000047A28EE278A0E4B83ED008ABDEC028B00
:1052E00008BD00BFAFF3008095D626E80B2E113E17
:1052F000080200201C00002004020020F40100200D
:105300005F708930EC010020E801002000020020DD
:10531000FC01002070B50C461D461046FFF7EEFD5F
:10532000354E30602846FFF7E9FD344B186033688E
:105330001B1A07EE903AF8EEE77A314BC3ED007A8C
:10534000FFF796FF07EE904AF8EEE77A2D4B93EDC4
:10535000007AF4EEC77AF1EE10FA01D8C3ED007AC4
:10536000644207EE904AF8EEE77A264B93ED007A16
:10537000F4EEC77AF1EE10FA01DBC3ED007A214BAF
:10538000D3ED007AF5EEC07AF1EE10FA21DD1E4B76
:10539000C3ED007A1D4B00221A601D4C1D4D2B6879
:1053A000236015F0CBFE07EE900AF8EE677AC5EDA4
:1053B000007A94ED007A77EEC77ADFED176A87EE10
:1053C000A67A164B83ED007A0D4B1A68144B1A60BF
:1053D00070BDF5EEC07AF1EE10FA05D400230B4A49
:1053E0001360094A1360D8E7084BC3ED007A064BF7
:1053F00000221A60D1E700BF740400207804002066
:1054000008020020FC010020E0010020E40100204F
:10541000F0010020F801002000007A44F40100208F
:10542000EC0100200023054A1360054A1360054A79
:105430001360054A1360054A136070470402002098
:105440000002002008020020EC010020FC010020E6
:105450000A4A00239360D360094A1360094A136023
:10546000094A1360094A1360094A1360094A136024
:10547000094A1360094A1360704700BF38020020D0
:1054800024020020200200201C020020180200201C
:1054900034020020300200202C02002028020020CC
:1054A00070B5044615460846FFF728FD3A4E3060B1
:1054B0002846FFF723FD394B186033681B1A07EEA7
:1054C000903AF8EEE77A364BC3ED007AFFF7D0FE5C
:1054D00007EE904AF8EEE77A324B93ED007AF4EE5D
:1054E000C77AF1EE10FA01D8C3ED007A644207EEF4
:1054F000904AF8EEE77A2B4B93ED007AF4EEC77AF8
:10550000F1EE10FA01DBC3ED007A264BD3ED007A01
:10551000F5EEC07AF1EE10FA26DDF1EE677A224B55
:10552000C3ED007A214BC3ED007A214B00221A60B3
:10553000204C214D2B68236015F000FE07EE900AE9
:10554000F8EE677AC5ED007A94ED007A77EEC77AC7
:10555000DFED1A6A87EEA67A194B83ED007A104BBD
:105560001A68184B1A6070BDF5EEC07AF1EE10FAA9
:1055700007D400230C4A13600C4A13600C4A1360D2
:10558000D6E70A4B00221A60094BC3ED007A064B9E
:10559000C3ED007ACCE700BF74040020780400203B
:1055A00008020020FC010020DC010020E4010020B2
:1055B000E0010020F0010020F801002000007A4402
:1055C000F4010020EC01002070B5044615460846A1
:1055D000FFF794FC3A4E30602846FFF78FFC394BBA
:1055E00018603368C01A07EE900AF8EEE77A364B77
:1055F000C3ED007AFFF73CFE07EE904AF8EEE77A3B
:10560000324B93ED007AF4EEC77AF1EE10FA01D83E
:10561000C3ED007A644207EE904AF8EEE77A2B4B2E
:1056200093ED007AF4EEC77AF1EE10FA01DBC3EDE8
:10563000007A264BD3ED007AF5EEC07AF1EE10FA3F
:1056400024DD234B00221A60224BC3ED007A224B4B
:10565000C3ED007A214C224D2B68236015F06EFDBE
:1056600007EE900AF8EE677AC5ED007A94ED007ABD
:1056700077EEC77ADFED1B6A87EEA67A1A4B83EDC9
:10568000007A114B1A68194B1A6070BDF5EEC07A9A
:10569000F1EE10FA07D400230F4A13600C4A13608E
:1056A0000C4A1360D6E7F1EE677A0B4BC3ED007A34
:1056B000074BC3ED007A074B00221A60CAE700BF10
:1056C000740400207804002008020020FC0100205F
:1056D000E4010020E0010020DC010020F0010020B6
:1056E000F801002000007A44F4010020EC010020C1
:1056F00070B5044615460846FFF700FC3A4E306088
:105700002846FFF7FBFB394B186033681B1A07EE7E
:10571000903AF8EEE77A364BC3ED007AFFF7A8FD32
:1057200007EE904AF8EEE77A324B93ED007AF4EE0A
:10573000C77AF1EE10FA01D8C3ED007A644207EEA1
:10574000904AF8EEE77A2B4B93ED007AF4EEC77AA5
:10575000F1EE10FA01DBC3ED007A264BD3ED007AAF
:10576000F5EEC07AF1EE10FA26DDF1EE677A224B03
:10577000C3ED007A214B00221A60214BC3ED007A61
:10578000204C214D2B68236015F0D8FC07EE900AC1
:10579000F8EE677AC5ED007A94ED007A77EEC77A75
:1057A000DFED1A6A87EEA67A194B83ED007A104B6B
:1057B0001A68184B1A6070BDF5EEC07AF1EE10FA57
:1057C00007D400230C4A13600C4A13600C4A136080
:1057D000D6E70A4BC3ED007A094B00221A60064B4C
:1057E000C3ED007ACCE700BF7404002078040020E9
:1057F00008020020FC010020DC010020E401002060
:10580000E0010020F0010020F801002000007A44AF
:10581000F4010020EC01002070B50446154608464E
:10582000FFF76CFB3A4E30602846FFF767FB394BB9
:10583000186033681B1A07EE903AF8EEE77A364B99
:10584000C3ED007AFFF714FD07EE904AF8EEE77A11
:10585000324B93ED007AF4EEC77AF1EE10FA01D8EC
:10586000C3ED007A644207EE904AF8EEE77A2B4BDC
:1058700093ED007AF4EEC77AF1EE10FA01DBC3ED96
:10588000007A264BD3ED007AF5EEC07AF1EE10FAED
:1058900024DD234B00221A60224BC3ED007A224BF9
:1058A000C3ED007A214C224D2B68236015F046FC95
:1058B00007EE900AF8EE677AC5ED007A94ED007A6B
:1058C00077EEC77ADFED1B6A87EEA67A1A4B83ED77
:1058D000007A114B1A68194B1A6070BDF5EEC07A48
:1058E000F1EE10FA07D400230F4A13600C4A13603C
:1058F0000C4A1360D6E7F1EE677A0B4BC3ED007AE2
:10590000074BC3ED007A074B00221A60CAE700BFBD
:10591000740400207804002008020020FC0100200C
:10592000E4010020E0010020DC010020F001002063
:10593000F801002000007A44F4010020EC0100206E
:105940009FED275A35EE406A76EE017A254BC3ED7E
:10595000007A70EE055A75EEC17A234BC3ED007ADA
:10596000DFED227A77EEC06A36EEE07A204B83EDE7
:10597000007A70EE277A37EEA07A1E4B83ED007A1C
:105980009FED1D7A37EE407A77EE014A1B4BC3ED4F
:10599000004A30EE450A30EE415A194B83ED005A69
:1059A00075EEA05A174BC3ED005A36EE606A164BDF
:1059B00083ED006A77EEC17A144BC3ED007A76EE80
:1059C000816A134BC3ED006A30EE200A114B83ED60
:1059D000000A37EE607A104B83ED007A704700BF03
:1059E00000005C42E0030020C8030020000000002B
:1059F000CC030020B403002000005CC2D4030020CC
:105A0000BC030020DC030020C4030020D0030020DE
:105A1000B8030020D8030020C003002000000000CD
:105A20007F4B1B78002B40F0388370B52DED048B35
:105A3000B0EE409A10EE904A0546F0EE418AB0EE84
:105A4000618A784E3068FAF75DFD6BA3D3E90023D5
:105A5000FAF70CFCFBF770F83060734A13680733F1
:105A60001360724E3068FAF74DFD65A3D3E9002349
:105A7000FAF7FCFBFBF760F830606D4E3068FAF720
:105A800041FD61A3D3E90023FAF7EEFBFBF754F8DD
:105A90003060684E3068FAF735FD5DA3D3E9002326
:105AA000FAF7E2FBFBF748F83060634E3068FAF72C
:105AB00029FD59A3D3E90023FAF7D6FBFBF73CF8FD
:105AC00030605E4A1368013B136013B95C4B0022DF
:105AD0001A70B42393FBF5F307EE903AF8EEE77AE9
