:020000040800F2
:10000000000002201D9901086D990108DF2C0108EC
:100010006D990108E72C0108EF2C01080000000091
:10002000000000000000000000000000812E010818
:100030006D99010800000000212F0108697B01086B
:100040006D9901086D9901086D9901086D99010874
:100050006D9901086D9901089D7D0108A77D010832
:10006000B17D0108BB7D0108C57D01086D990108BE
:100070006D9901086D9901086D9901086D99010844
:100080006D9901086D9901086D9901086D99010834
:100090006D9901086D9901086D990108CF7D0108DE
:1000A000D5760108F5750108E9760108157601088D
:1000B000297601083D760108517601087DF800088F
:1000C0008DF800089DF80008ADF800086D9901084A
:1000D0006D990108618E0108798E0108918E0108E1
:1000E000E57D01086D9901086D990108FD7601080B
:1000F000A176010811770108C17601086D99010800
:100100006D9901086D990108657601086D990108DE
:10011000A98E0108C18E0108797601088D76010843
:100120006D9901086D9901086D9901086D99010893
:100130006D9901086D9901086D9901086D99010883
:100140006D9901086D9901086D9901086D99010873
:100150006D9901086D9901086D990108D98E010802
:10016000BDF80008CDF800086D9901086D990108E7
:100170006D9901086D9901086D9901080000000052
:080180006D9901086D99010859
:1001900010F8012B11F8013B012A28BF9A42F7D031
:1001A000D01A7047000000000000000000000000AE
:1001B00001F0FF01102A2BDB10F0070F08D010F818
:1001C000013B013A8B422DD010F0070F42B3F6D11C
:1001D000F0B441EA012141EA014122F007047FF035
:1001E00000070023F0E80256083C85EA010586EA8C
:1001F000010685FA47F5A3FA87F586FA47F6A5FAC8
:1002000087F68EB9EED1F0BC01F0FF0102F00702D3
:1002100032B110F8013B013A83EA010313B1F8D17E
:100220000020704701387047002D06BF354603385F
:10023000073815F0010F07D1013015F4807F02BF98
:10024000013015F4C03F0130F0BC0138704700BFE9
:10025000034613F8012B002AFBD1181A0138704706
:1002600081F0004102E000BF83F0004330B54FEA67
:1002700041044FEA430594EA050F08BF90EA020FD4
:100280001FBF54EA000C55EA020C7FEA645C7FEA67
:10029000655C00F0E2804FEA5454D4EB5555B8BF8A
:1002A0006D420CDD2C4480EA020281EA030382EAFB
:1002B000000083EA010180EA020281EA0303362D8D
:1002C00088BF30BD11F0004F4FEA01314FF4801C60
:1002D0004CEA113102D0404261EB410113F0004F72
:1002E0004FEA03334CEA133302D0524263EB430329
:1002F00094EA050F00F0A780A4F10104D5F1200EC7
:100300000DDB02FA0EFC22FA05F2801841F1000121
:1003100003FA0EF2801843FA05F359410EE0A5F1F5
:1003200020050EF1200E012A03FA0EFC28BF4CF026
:10033000020C43FA05F3C01851EBE37101F00045DC
:1003400007D54FF0000EDCF1000C7EEB00006EEBE9
:100350000101B1F5801F1BD3B1F5001F0CD3490873
:100360005FEA30004FEA3C0C04F101044FEA4452CA
:1003700012F5800F80F09A80BCF1004F08BF5FEA51
:10038000500C50F1000041EB045141EA050130BD31
:100390005FEA4C0C404141EB0101013C28BFB1F543
:1003A000801FE9D291F0000F04BF01460020B1FA8E
:1003B00081F308BF2033A3F10B03B3F120020CDA61
:1003C0000C3208DD02F1140CC2F10C0201FA0CF03F
:1003D00021FA02F10CE002F11402D8BFC2F1200CA4
:1003E00001FA02F120FA0CFCDCBF41EA0C0190405A
:1003F000E41AA2BF01EB0451294330BD6FEA0404A3
:100400001F3C1CDA0C340EDC04F11404C4F120028D
:1004100020FA04F001FA02F340EA030021FA04F39F
:1004200045EA030130BDC4F10C04C4F1200220FAF6
:1004300002F001FA04F340EA0300294630BD21FA34
:1004400004F0294630BD94F0000F83F4801306BFFA
:1004500081F480110134013D4EE77FEA645C18BFEE
:100460007FEA655C29D094EA050F08BF90EA020F85
:1004700005D054EA000C04BF1946104630BD91EA7D
:10048000030F1EBF0021002030BD5FEA545C05D180
:100490004000494128BF41F0004130BD14F58004BF
:1004A0003CBF01F5801130BD01F0004545F0FE4133
:1004B00041F470014FF0000030BD7FEA645C1ABF68
:1004C000194610467FEA655C1CBF0B46024650EA9F
:1004D000013406BF52EA033591EA030F41F40021CB
:1004E00030BD00BF90F0000F04BF0021704730B551
:1004F0004FF4806404F132044FF000054FF0000126
:1005000050E700BF90F0000F04BF0021704730B5E6
:100510004FF4806404F1320410F0004548BF4042BB
:100520004FF000013EE700BF42004FEAE2014FEA10
:1005300031014FEA02701FBF12F07F4393F07F4FEB
:1005400081F06051704732F07F4208BF704793F0EE
:100550007F4F04BF41F40021704730B54FF4607401
:1005600001F0004521F000411CE700BF50EA010204
:1005700008BF704730B54FF000050AE050EA0102AD
:1005800008BF704730B511F0004502D5404261EB1D
:1005900041014FF4806404F132045FEA915C3FF45E
:1005A000D8AE4FF003025FEADC0C18BF03325FEAFB
:1005B000DC0C18BF033202EBDC02C2F1200300FAAC
:1005C00003FC20FA02F001FA03FE40EA0E0021FAD1
:1005D00002F11444BDE600BF70B54FF0FF0C4CF4BF
:1005E000E06C1CEA11541DBF1CEA135594EA0C0F71
:1005F00095EA0C0F00F0DEF82C4481EA030621EAAC
:100600004C5123EA4C5350EA013518BF52EA0335E6
:1006100041F4801143F4801338D0A0FB02CE4FF098
:100620000005E1FB02E506F00042E0FB03E54FF0C8
:100630000006E1FB03569CF0000F18BF4EF0010EC0
:10064000A4F1FF04B6F5007F64F5407404D25FEABC
:100650004E0E6D4146EB060642EAC62141EA55516F
:100660004FEAC52040EA5E504FEACE2EB4F1FD0CB1
:1006700088BFBCF5E06F1ED8BEF1004F08BF5FEA2F
:10068000500E50F1000041EB045170BD06F00046E1
:1006900046EA010140EA020081EA0301B4EB5C048E
:1006A000C2BFD4EB0C0541EA045170BD41F4801186
:1006B0004FF0000E013C00F3AB8014F1360FDEBFAB
:1006C000002001F0004170BDC4F10004203C35DA87
:1006D0000C341BDC04F11404C4F1200500FA05F30A
:1006E00020FA04F001FA05F240EA020001F00042AB
:1006F00021F0004110EBD37021FA04F642EB060121
:100700005EEA430E08BF20EAD37070BDC4F10C044A
:10071000C4F1200500FA04F320FA05F001FA04F20E
:1007200040EA020001F0004110EBD37041F10001FA
:100730005EEA430E08BF20EAD37070BDC4F1200505
:1007400000FA05F24EEA020E20FA04F301FA05F26D
:1007500043EA020321FA04F001F0004121FA04F215
:1007600020EA020000EBD3705EEA430E08BF20EAE5
:10077000D37070BD94F0000F0FD101F0004640001F
:1007800041EB010111F4801F08BF013CF7D041EAA1
:10079000060195F0000F18BF704703F000465200A5
:1007A00043EB030313F4801F08BF013DF7D043EA76
:1007B0000603704794EA0C0F0CEA135518BF95EA2C
:1007C0000C0F0CD050EA410618BF52EA4306D1D1B3
:1007D00081EA030101F000414FF0000070BD50EAD2
:1007E000410606BF1046194652EA430619D094EA5C
:1007F0000C0F02D150EA013613D195EA0C0F05D146
:1008000052EA03361CBF104619460AD181EA030199
:1008100001F0004141F0FE4141F470014FF0000051
:1008200070BD41F0FE4141F4780170BD70B54FF0EC
:10083000FF0C4CF4E06C1CEA11541DBF1CEA13556C
:1008400094EA0C0F95EA0C0F00F0A7F8A4EB05044E
:1008500081EA030E52EA03354FEA013100F0888045
:100860004FEA03334FF0805545EA131343EA12630E
:100870004FEA022245EA111545EA10654FEA0026C3
:100880000EF000419D4208BF964244F1FD0404F57C
:10089000407402D25B084FEA3202B61A65EB0305D8
:1008A0005B084FEA32024FF480104FF4002CB6EB95
:1008B000020E75EB030E22BFB61A754640EA0C0015
:1008C0005B084FEA3202B6EB020E75EB030E22BF55
:1008D000B61A754640EA5C005B084FEA3202B6EB96
:1008E000020E75EB030E22BFB61A754640EA9C0055
:1008F0005B084FEA3202B6EB020E75EB030E22BF25
:10090000B61A754640EADC0055EA060E18D04FEAE2
:10091000051545EA16754FEA06164FEAC30343EA82
:1009200052734FEAC2025FEA1C1CC0D111F4801F4F
:100930000BD141EA00014FF000004FF0004CB6E748
:1009400011F4801F04BF01430020B4F1FD0C88BFE7
:10095000BCF5E06F3FF6AFAEB5EB030C04BFB6EBF2
:10096000020C5FEA500C50F1000041EB045170BDE5
:100970000EF0004E4EEA113114EB5C04C2BFD4EB12
:100980000C0541EA045170BD41F480114FF0000E96
:10099000013C90E645EA060E8DE60CEA135594EA12
:1009A0000C0F08BF95EA0C0F3FF43BAF94EA0C0F15
:1009B0000AD150EA01347FF434AF95EA0C0F7FF48A
:1009C00025AF104619462CE795EA0C0F06D152EADE
:1009D00003353FF4FDAE1046194622E750EA4106C2
:1009E00018BF52EA43067FF4C5AE50EA41047FF4D3
:1009F0000DAF52EA43057FF4EBAE12E74FF0FF3C38
:100A000006E000BF4FF0010C02E000BF4FF0010C08
:100A10004DF804CD4FEA410C7FEA6C5C4FEA430C81
:100A200018BF7FEA6C5C1BD001B050EA410C0CBFD0
:100A300052EA430C91EA030F02BF90EA020F002032
:100A4000704710F1000F91EA030F58BF994208BF99
:100A500090422CBFD8176FEAE37040F00100704756
:100A60004FEA410C7FEA6C5C02D150EA013C07D1AD
:100A70004FEA430C7FEA6C5CD6D152EA033CD3D0F8
:100A80005DF8040B704700BF8446104662468C46F2
:100A90001946634600E000BF01B5FFF7B7FF002825
:100AA00048BF10F1000F01BD4DF808EDFFF7F4FF4E
:100AB0000CBF012000205DF808FB00BF4DF808EDD9
:100AC000FFF7EAFF34BF012000205DF808FB00BFFC
:100AD0004DF808EDFFF7E0FF94BF012000205DF81E
:100AE00008FB00BF4DF808EDFFF7CEFF94BF0120D3
:100AF00000205DF808FB00BF4DF808EDFFF7C4FFCC
:100B000034BF012000205DF808FB00BF4FEA41021E
:100B100012F5001215D211D56FF47873B3EB62524F
:100B200012D94FEAC12343F0004343EA505311F076
:100B3000004F23FA02F018BF404270474FF0000008
:100B4000704750EA013005D111F0004008BF6FF046
:100B5000004070474FF00000704700BF4FEA41026D
:100B6000B2F1E04324BFB3F5001CDCF1FE5C0DD90B
:100B700001F0004C4FEAC0024CEA5070B2F1004F55
:100B800040EB830008BF20F00100704711F0804F58
:100B900021D113F13872BCBF01F00040704741F41D
:100BA00080114FEA5252C2F11802C2F1200C10FA21
:100BB0000CF320FA02F018BF40F001004FEAC12305
:100BC0004FEAD32303FA0CFC40EA0C0023FA02F3A9
:100BD0004FEA4303CCE77FEA625307D150EA01337F
:100BE0001EBF4FF0FE4040F44000704701F000404F
:100BF00040F0FE4040F40000704700BF53B94AB9CE
:100C0000002908BF00281CBF4FF0FF314FF0FF3014
:100C100000F00CB8ADF1080C6DE904CE1CF032FC0C
:100C2000DDF804E0DDE9022304B07047704700BF3F
:100C300010B5054C237833B9044B13B10448AFF316
:100C400000800123237010BD2C0400200000000050
:100C500048D7010808B5034B1BB103490348AFF35C
:100C6000008008BD000000003004002048D70108C3
:100C700008B50368984708BD00B583B00023019309
:100C800001A9094B186810F002FE019B4BB14FF00F
:100C9000E0234FF08052C3F8042DBFF34F8FBFF312
:100CA0006F8F03B05DF804FB2C07002010B50446DD
:100CB000836813B1032201469847204610BD000007
:100CC00010B504460D4B03600D4B03600D4B0360E4
:100CD0008166C2667030C4F8D0014FF4B072002152
:100CE00019F034FE522384F8CC31012384F8CD313D
:100CF0004FF4C873A4F8CE31204610BDB4DC01080F
:100D0000C4DC0108F4DD0108F0B585B004460D46E9
:100D1000012806D01CB94FF6FF739D426FD005B075
:100D2000F0BD4FF6FF739942F4D1404F18221921BC
:100D300038460DF05DFFCA2239463D48FFF7C0FF37
:100D4000C02239463B48FFF7BBFFCB2239463A4821
:100D5000FFF7B6FFC42239463848FFF7B1FFC22279
:100D600039463748FFF7ACFF3D2239463548FFF793
:100D7000A7FF354B0293354B0193002600963B4667
:100D80002022802132480EF035FE32463149324869
:100D900018F052FA32463149314818F04DFA3246CD
:100DA0003049314818F048FA304B64229A601E826C
:100DB000C3F8AC601E605E60FF2283F8B0204FF67F
:100DC000FF72A3F8B220A3F8B420A3F8B620A3F8CA
:100DD000B820A3F8BA20264812F094FB254812F058
:100DE00091FB254812F08EFB244812F08BFB24481F
:100DF00012F088FB2349244816F0EEFC8AE72248CB
:100E000016F074FB12480EF025FE204B0D4A1360BD
:100E10000B4A1360094A1360074A1360054A1360BE
:100E2000034A136001480DF06FFF78E72418002093
:100E3000501600207C140020A8120020D41000209E
:100E4000000F00202C0D0020A0860100801A060053
:100E5000880C002000440040700B00200048004037
:100E6000580A0020001401404009002044080020D6
:100E7000F0070020EC070020E8070020E40700202E
:100E8000E00700200010004030070020F4DD0108DA
:100E9000C06E002801DA0020704708B5012118F063
:100EA0007FFD002008BD08B5C06E002803DA0A20C7
:100EB00018F0CAFE08BD002118F0F0FDF7E770B584
:100EC00004460E461546006860B132210DF06AFFF7
:100ED000206803685B682A463146984720680EF010
:100EE00090F870BD60680028FBD003685B68984785
:100EF000F7E710B504460068E0B103681B6998473E
:100F000078B1206803681B69984780B1206803683E
:100F10005B699847C0B212F031F903460028F0D05F
:100F200006E01022322120680EF064F8E9E7002381
:100F3000184610BD6368002BFAD0606803681B690F
:100F4000984750B1606803685B699847C0B212F077
:100F500015F903460028F0D0EAE70023E8E738B5A2
:100F600004460D4618F068FEE06018F065FEE36880
:100F7000C01AA36898420DD82046FFF7BAFF03466F
:100F80000028F2D03DB1284612F03AF90346002875
:100F9000EBD000E00023184638BD10B504461346D8
:100FA000B1F962209A4208DDD1F8AC104C2202FB64
:100FB000031119F0A4FD204610BD4C22B03119F0E8
:100FC0009EFDF8E738B5044610460A7012F068F93D
:100FD000054612F091F9024629462046FFF76FFFB9
:100FE00038BD30B595B005460024042C0CDC2C220D
:100FF00001A92846FFF7E6FF2E212846FFF7AFFF9D
:10100000034610B90134F0E70023184615B030BD8F
:1010100070B50C461546104612F0F2F8064608B9AF
:10102000304670BD257012F003F9608012F000F9AF
:10103000A08012F0FDF8E08012F0FAF8208112F0A2
:10104000F7F8608112F014F9EAE7F0B583B00446CE
:10105000002303822921FFF782FF074610B9384693
:1010600003B0F0BD292204F160012046FFF7D0FF54
:10107000D4F8AC00B4F96230009301220192002B45
:101080000ADD6B461B684C2103FB01F118F0B0FE32
:10109000C4F8AC00002602E001ABF3E70136B4F976
:1010A0006230B342DBDD00212046FFF758FFB0B1CC
:1010B000D4F8AC104C2506FB05F52A22294420461D
:1010C000FFF7A6FF0028E9D1D4F8AC102B22294461
:1010D0002046FFF79DFF0028E0D10746BFE70746FF
:1010E000BDE710B594B00446202201A9FFF76AFFBE
:1010F0002046FFF7AAFF14B010BD70B505460C4698
:1011000010460A7012F0CCF80646B4F9020012F04C
:10111000DDF812F0F1F8024631462846FFF7CFFE1F
:1011200070BD10B594B00446ADF806102D2201A98B
:10113000FFF7E3FF2E212046FFF711FF14B010BD8B
:1011400070470000874B1B78002B40F02F8310B5B1
:10115000854B01221A70B42393FBF0F307EE903A0B
:10116000F8EEE77A814BC3ED007A814BC3ED007A4C
:10117000804B1B68042B7ED8DFE813F00500890044
:101180007201DD01BE027C4B784A1360784A13601D
:1011900000247A4B1C607A4B1C607A4B7A4A1A60A6
:1011A00008217A4812F0E4F9794B1A68794B1A60F1
:1011B000794B1B6879490B6079490A60794A136059
:1011C000794B1C60794B1A68794B1A60794B1B6814
:1011D00079490B6079490A60794A1360794B1C6040
:1011E000794B1A68794B1A60794B1B6879490B6007
:1011F00079490A60794A1360794B1C60794B1A6807
:10120000794B1A60794B1B6879490B6079490A6000
:10121000794A1360794B1C60794B1A68794B1A60D4
:10122000794B1B6879490B6079490A60794A1360E8
:10123000794B1C60794B1A68794B1A60794B1B68A3
:1012400079490B6079490A60794A1360794B1C60CF
:10125000794B7A4A13607A4A13607A4B7A4A136060
:101260007A4A136001237A4A13703E4A1370794A0E
:101270001370794A13703F4A136801331360052BCA
:1012800004DD0023384A13703A4A136010BD404B06
:101290001A68404B1A60404B1B6840490B6040493C
:1012A0000A60404A136000233F4A13603F4A1168B6
:1012B0003F4A11603F4A12683F4802603F48016060
:1012C0003F490A603F4A13603F4A11683F4A116034
:1012D0003F4A12683F4802603F4801603F490A6048
:1012E0003F4A13603F4A11683F4A11603F4A126803
:1012F0003F4802603F4801603F490A603F4A13602F
:101300003F4A11683F4A11603F4A12683F480260F5
:101310003F4801603F490A603F4A13603F4A1168F5
:101320003F4A11603F4A12683F4802603F480160EF
:101330003F490A603F4A1360404B3F4A1A60404BA6
:10134000464A1A603F4B404A1360404A13600123EB
:101350003F4A1370034A13703E4A13703E4A13709B
:1013600089E700BFE8060020A80600203C05002011
:10137000D0060020B406002000009041300000207C
:10138000E0060020DC06002000003443EC070020CB
:10139000A4060020CC050020A0060020C8050020DF
:1013A000C4050020C0050020B80500206806002004
:1013B000B405002064060020B0050020AC05002024
:1013C000A8050020A00500208C0600209C05002018
:1013D0008806002098050020940500209005002034
:1013E000880500209806002084050020940600202F
:1013F000800500207C050020780500207005002075
:10140000740600206C05002070060020680500208E
:10141000640500206005002058050020800600209B
:10142000540500207C060020500500204C050020BB
:10143000480500204005002000008841CC0600201F
:10144000C806002000000443C4060020C006002097
:1014500034000020AA060020A90600200000F04267
:101460006B4B1A686B4B1A606B4B1B686B490B60BC
:101470006B490A606B4A136000236B4A13606B4A26
:1014800011686B4A11606B4A12686B4802606B48C6
:1014900001606B490A606B4A13606B4A11686B4AC2
:1014A00011606B4A12686B4802606B4801606B49BF
:1014B0000A606B4A13606B4A11686B4A11606B4A91
:1014C00012686B4802606B4801606B490A606B4AA6
:1014D00013606B4A11686B4A11606B4A12686B4863
:1014E00002606B4801606B490A606B4A13606B4A8B
:1014F00011686B4A11606B4A12686B4802606B4856
:1015000001606B490A606B4A13606B4B6B4A1A604F
:101510006B4B6C4A1A606C4B6C4A1A606C4B6D4A90
:101520001A6001236C4A13706C4A13706C4A137072
:101530006C4A13709FE6364B1A68364B1A60364B6E
:101540001A68364B1A60684A354B1A606749354B42
:101550001960002334480360344804683448046048
:1015600034480468344804603448614C04603448AA
:1015700003603448036034480468344804603448E5
:1015800004683448046034480260344802603448D7
:1015900003603448046834480460344804683448BC
:1015A00004603448016034480160344803603448C2
:1015B000046834480460344804683448046034489B
:1015C0004C4C04603348036033480360334804687C
:1015D000334804603348046833480460334801608A
:1015E00033490A60334A1360364B334A1360344A36
:1015F0001360384B344A1360354A13600123384A6C
:101600001370384A1370344A1370344A137032E638
:10161000A4060020CC050020A0060020C80500205C
:10162000C4050020C0050020B80500206806002081
:10163000B405002064060020B0050020AC050020A1
:10164000A8050020A00500208C0600209C05002095
:1016500088060020980500209405002090050020B1
:1016600088050020980600208405002094060020AC
:10167000800500207C0500207805002070050020F2
:10168000740600206C05002070060020680500200C
:101690006405002060050020580500208006002019
:1016A000540500207C060020500500204C05002039
:1016B0004805002040050020CC0600200000F04234
:1016C000C80600200000A442C40600200000044315
:1016D000C00600200000704334000020E80600200F
:1016E000AA060020A906002000005CC200005C429F
:1016F00000009842000098C22D4B2E4A13602E4ADB
:1017000013602E4A2E4B1A602E492F4B19602F4B17
:101710001A602F4B196000232E4803602E482F4C6F
:1017200020602F4C23602F4C20602F4803602F48EF
:1017300003602F4802602F4802602F4802602F4844
:1017400002602F4803602F4801602F4801602F4836
:1017500001602F4801602F4803602F482F4C206004
:101760002F4C23602F4C20602F4803602F480360CC
:101770002F4801602F4802602F4801602F490A60FE
:101780002F4A13602F4B304A1360304A1360304B9E
:10179000304A1360304A13600123304A1370304AD4
:1017A0001370304A1370304A137064E5704700BFFD
:1017B0000000B4423C050020D006002000005CC2BE
:1017C000CC05002000005C42C8050020C4050020B4
:1017D000C0050020B805002000009842B405002094
:1017E000B0050020AC050020A8050020A0050020C1
:1017F0009C050020980500209405002090050020FD
:101800008805002084050020800500207C0500203C
:101810007805002070050020000098C26C050020AB
:1018200068050020640500206005002058050020A0
:1018300054050020500500204C05002048050020DC
:10184000400500200000A442CC060020C80600206D
:1018500000007043C4060020C0060020AA06002035
:10186000A906002034000020E8060020774B1B78F2
:10187000002B40F0EA8010B5754B01221A70B4239A
:1018800093FBF0F307EE903AF8EEE77A714BC3ED75
:10189000007A714BC3ED007A704B1B6863B19342C1
:1018A00070D001336D4A1360022B04DD0023684AB7
:1018B00013706A4A136010BD002269490A606949C1
:1018C0000A6069496948086069496A4801606A486C
:1018D0006A4C20606A4C21606A4C22606A4C22602B
:1018E000DFF834C2694CC4F800C0694C2260694C0E
:1018F000C4F800C0684C2160684C2260684C2160CC
:10190000684C2160684C2160DFF810C2674CC4F855
:1019100000C0674C2260674C2060674C2060674CB9
:101920002060674C2260674C2260DFF8F4E1664C6F
:10193000C4F800E0654C2260654CC4F800E0654CDA
:101940002160654C2260654C2060654C21606549D2
:1019500008606549C1F800C064490A60644A654985
:101960000A6065490A60654A65490A6065490A6016
:10197000012265490A7065490A7065490A70334950
:101980000A708EE7634A33490A6033490A6038496E
:10199000384A1160002239480260394801603948EC
:1019A0000260394802605C48384C2060384C216045
:1019B000384C20603848016038480260384801607F
:1019C0005648384C2060384C2160384C2060384CE8
:1019D0002260DFF8A4C0374CC4F800C0364C226047
:1019E000364CC4F800C0364C2260364C2260DFF81A
:1019F00030E1354CC4F800E0344C2160344CC4F87C
:101A000000E0344C216034490A603449C1F800C018
:101A1000334908603349C1F800C03349086033498D
:101A20000A60334A33490A6033490A60334A344909
:101A30000A6034490A60012233490A7033490A7046
:101A400033490A7001490A702BE77047E806002005
:101A5000A80600203C050020D0060020B406002087
:101A600030000020E0060020DC06002000003443A7
:101A700000005CC2CC05002000005C42C8050020CC
:101A8000C4050020C0050020B8050020B4050020D2
:101A9000B0050020AC050020A8050020A00500200E
:101AA0009C0500209805002094050020900500204A
:101AB0008805002084050020800500207C0500208A
:101AC00078050020700500206C05002068050020C6
:101AD0006405002060050020580500205405002002
:101AE000500500204C05002048050020400500203E
:101AF00000008841CC060020C806002000000443F6
:101B0000C4060020C0060020AA060020A906002066
:101B1000340000200000B442000098420000ACC233
:101B2000000098C20000000008B52DED028B284B84
:101B300093ED008ADFED277AB4EEE78AF1EE10FA32
:101B40003CD8254BD3ED006A244B93ED007A37EE59
:101B5000667AB2EE046AC7EE067A77EEA77A204B71
:101B6000C3ED007A68EE277ADFED1E5A87EEA57A7C
:101B700067EE067A76EEA77A17EE900AFEF7D4FCA7
:101B800011A3D3E90023FEF727FDFEF7BFFF164B95
:101B90001860164BD3ED007A38EE278A0C4B83ED94
:101BA000008ADFED0C7AB4EEE78AF1EE10FA05DD7B
:101BB0000F4B00221A70064B00221A60BDEC028BFC
:101BC00008BD00BFAFF3008048E17A14AE470B4078
:101BD000BC06002000003443C4060020C0060020DC
:101BE000D40600200000B443B0060020D006002038
:101BF000AA0600201F4BD3ED007A9FED1F7AF4EE6A
:101C0000C77AF1EE10FA34D81C4BD3ED006A1C4BA6
:101C100093ED006A36EE666AF2EE045A86EE257A95
:101C200037EE077A174B83ED007A27EE877A9FED20
:101C3000165A87EE056A26EE257A76EE876AFDEE5D
:101C4000E66A124BC3ED006A114B93ED007A77EE12
:101C5000877A084BC3ED007A9FED077AF4EEC77AD6
:101C6000F1EE10FA05DD0B4B00221A70014B002239
:101C70001A607047B806002000003443CC060020EC
:101C8000C8060020D80600200000B443AC0600209F
:101C9000D0060020A9060020234B1B78F3B9234B64
:101CA0001B78DBB9224B01221A70B42393FBF0F3AB
:101CB00007EE903AF8EEE77A1E4BC3ED007A1E4B22
:101CC0001B6863B193421CD001331B4A1360022B83
:101CD00004DD0023164A1370174A13607047174A31
:101CE00017491160174A18491160184A18491160BC
:101CF000184A1949116001220B490A700B490A70F0
:101D0000E2E70C4A154911600F4A0C490A600D4977
:101D10000A60114A0D490A600E490A60012202490F
:101D20000A7002490A70CFE7AA060020A90600201F
:101D3000A8060020D0060020B4060020CC06002013
:101D400000008841C80600200000A442C40600200C
:101D500000000443C00600200000704300007042F1
:101D60002F4B1B7803BB2F4B1B78EBB92E4B4FF03F
:101D7000010C83F800C0B42393FBF2F307EE903A12
:101D8000F8EEE77A294BC3ED007A294B1B6863B163
:101D9000634526D00133264A1360022B04DD00235D
:101DA000214A1370224A13607047224ADFF898C014
:101DB000C2F800C007EE900AF8EEE77A1E4AC2EDBC
:101DC000007A1E4A1E48106007EE901AF8EEE77A75
:101DD0001C4AC2ED007A012211490A7011490A70A9
:101DE000D8E7124ADFF864C0C2F800C007EE900AD4
:101DF000F8EEE77A0F4AC2ED007A0F4AC2ED007A98
:101E000007EE901AF8EEE77A0C4AC2ED007A0D4A16
:101E1000C2ED007A012202490A7002490A70B9E74C
:101E2000AA060020A9060020A8060020D00600204F
:101E3000B4060020CC060020C8060020C4060020FE
:101E400000007043C00600200000A4420000704261
:101E50002F4B1B7803BB2F4B1B78EBB92E4B4FF04E
:101E6000010C83F800C0B42393FBF2F307EE903A21
:101E7000F8EEE77A294BC3ED007A294B1B6863B172
:101E8000634526D00133264A1360022B04DD00236C
:101E9000214A1370224A13607047224ADFF898C023
:101EA000C2F800C007EE900AF8EEE77A1E4AC2EDCB
:101EB000007A1E4A1E48106007EE901AF8EEE77A84
:101EC0001C4AC2ED007A012211490A7011490A70B8
:101ED000D8E7124ADFF864C0C2F800C007EE900AE3
:101EE000F8EEE77A0F4AC2ED007A0F4AC2ED007AA7
:101EF00007EE901AF8EEE77A0C4AC2ED007A0D4A26
:101F0000C2ED007A012202490A7002490A70B9E75B
:101F1000AA060020A9060020A8060020D00600205E
:101F2000B4060020CC060020C8060020C40600200D
:101F300000001143C00600200000A04100007042D4
:101F400008B5274B1B78FBB9264B1B78E3B9264B0A
:101F500001221A70B42393FBF0F307EE903AF8EEE7
:101F6000E77A224BC3ED007A214B1B686BB1934299
:101F700021D01F4A136801331360022B04DD0023B4
:101F8000194A13701A4A136008BD184B4FF081426A
:101F90001A60184B184A1A60184B194A1A60194BE4
:101FA000194A1A60194B1A4A1A6001230C4A137015
:101FB0000C4A1370DDE73021164811F0D9FA104BA6
:101FC0000C4A13600D4A1360114B0E4A13600F4AFE
:101FD00013600123024A1370024A1370C9E700BF5D
:101FE000AA060020A9060020A8060020D00600208E
:101FF000B4060020CC0600200000A442C806002041
:1020000000004842C406002000007043C0060020C3
:1020100000000843EC07002008B5264B1B78FBB9ED
:10202000254B1B78E3B9254B01221A70B42393FB8F
:10203000F0F307EE903AF8EEE77A214BC3ED007A21
:10204000204B1B686BB1934220D01E4A13680133AA
:102050001360022B04DD0023184A1370194A136021
:1020600008BD174B184A1A60184B194A1A60194BC9
:10207000194A1A60194B1A4A1A601A4B1A4A1A60FE
:1020800001230C4A13700C4A1370DEE7282117480D
:1020900011F06EFA104B0D4A13600E4A1360124B8A
:1020A0000E4A13600F4A13600123024A1370024A5A
:1020B0001370CAE7AA060020A9060020A80600207F
:1020C000D0060020B406002000001041CC060020FD
:1020D00000004842C80600200000A442C4060020B8
:1020E00000000843C006002000007043EC070020F9
:1020F00010B52DED028B90B0DFED837AC0EE277A1C
:1021000017EE900AFEF710FA7DA3D3E90023FEF73D
:1021100063FAFEF723FD08EE100A2422002107A827
:1021200018F014FC4FF07E530F93B0EE480A19F0EC
:102130003BF810EE104A8DED070AB0EE480A19F090
:1021400073F8F1EE407ACDED087A8DED0A0A0B9422
:10215000002204920592069201920292039231E0CB
:1021600002EB0C0310A800EB830313ED0C7A02EBD7
:102170004200084410AC04EB800050ED097A0CEBEF
:10218000010E624800EB8E00D0ED006A67EEA66A91
:1021900037EE267A03ED0C7A13ED0F7A5C4800EBEC
:1021A0008E00D0ED006A67EEA67A77EE277A43EDCF
:1021B0000F7A01310129D3DD0CF1010CBCF1000FC4
:1021C00005DD0132012A04DC4FF0000CF6E70021A6
:1021D000F0E7504BD3ED008AF5EEC08AF1EE10FA2D
:1021E0002ED4F5EEC08AF1EE10FA25DDB5EEC08AE8
:1021F000F1EE10FA67D4B5EEC08AF1EE10FA1BDBEF
:102200009DED040A19F09EF8434B83ED000A9DED05
:10221000050A19F097F8414B83ED000A9DED010A7C
:1022200019F090F83E4B83ED000A9DED020A19F07B
:1022300089F83C4B83ED000A10B0BDEC028B10BD59
:10224000B5EEC08AF1EE10FA1BDB9DED040A19F021
:1022500079F8354B83ED000A9DED050A19F072F807
:10226000324B83ED000A9DED010A19F06BF8304BFB
:1022700083ED000A9DED020A19F064F82D4B83ED01
:10228000000AB5EEC08AF1EE10FAAAD59DED040A57
:1022900019F058F8204B83ED000A9DED050A19F05E
:1022A00051F81E4B83ED000A9DED010A19F04AF822
:1022B0001B4B83ED000A9DED020A19F043F8194B00
:1022C00083ED000A8DE79DED040A19F03BF8164BEB
:1022D00083ED000A9DED050A19F034F8134B83EDE8
:1022E000000A9DED010A19F02DF8114B83ED000A4B
:1022F0009DED020A19F026F80E4B83ED000A7AE7ED
:10230000182D4454FB21094000003443DCDC010853
:10231000D0DC0108840400201006002040060020C4
:102320000006002030060020280600205806002065
:10233000180600204806002010B52DED028B10EE87
:10234000904AF3EE0E7AB4EEE70AF1EE10FA01DDF0
:10235000B0EE670AFBEE0E7AB4EEE70AF1EE10FA81
:1023600001D5B0EE670AAB4B83ED000A9FEDAA7A68
:10237000C7EE017AA94BC3ED007AA94B1B78002B5D
:1023800040F0B680A74B1B68032B00F2A880DFE863
:1023900013F00400B200B1015402DFEDA38A77EE1E
:1023A000A87AA24BC3ED007AA14BA24A1A60F6EEBE
:1023B000007A20EE278AB0EE480AFFF799FEB1EEC8
:1023C000480AFFF795FE9C4BD3ED006AF1EE664A92
:1023D0009A4BC3ED004A9A4B93ED005A994B83ED0B
:1023E000005A994B93ED006AB1EE464A974B83ED44
:1023F000004A974BD3ED005A964BC3ED005A964BCB
:10240000C3ED008A954B1C60954B93ED007A954B7C
:1024100083ED007A944B1A68944B1A60944BD3ED79
:10242000007A944BC3ED007A934B1B6893490B6081
:102430009349C1ED008A93490C60934981ED004AAC
:10244000B1EE654A914981ED004A9149C1ED004ADA
:10245000F1EE454A8F49C1ED004A8F49C1ED008A2E
:102460008E490C608E49C1ED006A8E4981ED005A9B
:102470008D4981ED006A8D49C1ED005A8C49C1ED4D
:10248000008A8C49C1ED008AB1EE477A8A4981ED14
:10249000007A8A490A60F1EE677A894AC2ED007AC9
:1024A000884A1360884BC3ED008A884BC3ED008ACD
:1024B000874B83ED006A874B83ED004A864BC3ED63
:1024C000006A864BC3ED004A854BC3ED008A854BFD
:1024D000C3ED008A0123844A1370514A1370514A94
:1024E000136801331360032B02DD134600221A60C8
:1024F000BDEC028B10BD9FED7D7A77EE877A4B4B5A
:10250000C3ED007A4A4B83ED007A4F4BD3ED006A5E
:10251000F1EE664A494BC3ED004A4D4B93ED005A2C
:10252000484B83ED005A444B93ED006AB1EE464AA6
:10253000464B83ED004A424BD3ED005A454BC3ED69
:10254000005A0023444A1360444A1360484A92EDFB
:10255000007A444A82ED007A474A1168434A116082
:102560003F4AD2ED007A434AC2ED007A3E4A1268F1
:10257000424802604248036042480360424880ED9E
:10258000004AB1EE654A414880ED004A4048C0ED3E
:10259000004AF1EE454A3F48C0ED004A3E4803601C
:1025A0003E4803603E48C0ED006A3E4880ED005A58
:1025B0003D4880ED006A3D48C0ED005A3C4803604C
:1025C0003C480460B1EE477A3B4880ED007A3B48D6
:1025D0000160F1EE677A3A49C1ED007A39490A6043
:1025E000394A1360394A1460394A82ED006A394A1F
:1025F00082ED004A384AC2ED006A384AC2ED004A0C
:10260000374A1360374B1C600123374A1370044A62
:10261000137064E784040020000034433C0500206C
:10262000E8060020E406002000000000E00600208C
:10263000DC0600200000344310060020CC050020FA
:1026400040060020C805002028060020C405002000
:1026500058060020C0050020BC050020B805002059
:1026600018060020B405002048060020B005002010
:1026700000060020AC05002030060020A805002040
:10268000A4050020A00500209C050020980500203E
:1026900094050020900500208C050020880500206E
:1026A00084050020800500207C050020780500209E
:1026B00074050020700500206C05002068050020CE
:1026C00064050020600500205C05002058050020FE
:1026D00054050020500500204C050020480500202E
:1026E0004405002040050020340000200000B442D2
:1026F000000000005FED028A77EEA87A964BC3EDEA
:10270000007A964B964A1A60F6EE007A20EE278AF7
:10271000B0EE480AFFF7ECFCB1EE480AFFF7E8FC20
:10272000904BD3ED006AF1EE664A8F4BC3ED004A41
:102730008E4B93ED005A8E4B83ED005A8D4B93EDEB
:10274000006AB1EE464A8C4B83ED004A8B4BD3EDC9
:10275000005A8B4BC3ED005A8A4BC3ED008A8A4B5B
:10276000C3ED008A894B93ED007A894B83ED007AA3
:10277000884B1A68884B1A60884BD3ED007A884BD7
:10278000C3ED007A874B1B6887490B608749C1ED11
:10279000008A8749C1ED008A864981ED004AB1EE81
:1027A000654A854981ED004A8449C1ED004AF1EE50
:1027B000454A8349C1ED004A8249C1ED008A8249F8
:1027C000C1ED008A8149C1ED006A814981ED005A5D
:1027D000804981ED006A8049C1ED005A7F49C1ED11
:1027E000008A7F490C60B1EE477A7E4981ED007A1C
:1027F0007D490A60F1EE677A7C4AC2ED007A7C4A34
:1028000013607C4BC3ED008A7B4B1C607B4B83EDDC
:10281000006A7B4B83ED004A7A4BC3ED006A7A4B2A
:10282000C3ED004A794BC3ED008A794B1C6001234C
:10283000784A1370784A137051E69FED787A77EEF4
:10284000877A454BC3ED007A444B83ED007A494BC0
:10285000D3ED006AF1EE664A434BC3ED004A474BA5
:1028600093ED005A424B83ED005A3E4B93ED006AC4
:10287000B1EE464A404B83ED004A3C4BD3ED005A43
:102880003F4BC3ED005A00233E4A13603E4A14609A
:10289000424A92ED007A3E4A82ED007A414A11683E
:1028A0003D4A1160394AD2ED007A3D4AC2ED007AC4
:1028B000384A12683C4802603C4803603C48046067
:1028C0003C4880ED004AB1EE654A3B4880ED004A45
:1028D0003A48C0ED004AF1EE454A3948C0ED004A99
:1028E00038480360384804603848C0ED006A38480A
:1028F00080ED005A374880ED006A3748C0ED005A35
:102900003648036036480360B1EE477A354880EDBB
:10291000007A35480160F1EE677A3449C1ED007AFA
:1029200033490A60334A1360334A1360334A82EDF5
:10293000006A334A82ED004A324AC2ED006A324AE6
:10294000C2ED004A314A1360314A13600123314A13
:102950001370314A1370C2E5E0060020DC06002047
:102960000000344328060020CC0500205806002033
:10297000C805002010060020C405002040060020E5
:10298000C0050020BC050020B8050020000600207E
:10299000B405002030060020B005002018060020F5
:1029A000AC05002048060020A8050020A405002052
:1029B000A00500209C05002098050020940500201B
:1029C000900500208C05002088050020840500204B
:1029D000800500207C05002078050020740500207B
:1029E000700500206C0500206805002064050020AB
:1029F000600500205C0500205805002054050020DB
:102A0000500500204C05002048050020440500200A
:102A10004005002034000020E80600200000B442F9
:102A200010B400202A4B186000232A4A13602A4A57
:102A300013602A4A2A490A602A492B4C21602B4CF0
:102A400022602B4C21602B4C2360DFF818C12A4CEC
:102A5000C4F800C0294C2360294CC4F800C0294C9C
:102A60002360294C2360294C2260294C2260294C88
:102A70002260294C2260294C2360294C2160294C7A
:102A80002160294C2160294C2160294C2360DFF80A
:102A9000D8C0284CC4F800C0274C2360274CC4F889
:102AA00000C0274C2360274C2360274C2160274C13
:102AB0002260274C216027490A60274A1360274B70
:102AC00001221A70264B18705DF8044B704700BF46
:102AD000E406002030000020DC06002000005CC27C
:102AE000CC05002000005C42C8050020C405002081
:102AF000C0050020B8050020B4050020B005002066
:102B0000AC050020A8050020A00500209C050020A1
:102B100098050020940500209005002088050020DD
:102B200084050020800500207C0500207805002019
:102B3000700500206C050020680500206405002059
:102B40006005002058050020540500205005002095
:102B50004C050020480500204005002034000020DE
:102B6000E806002000009642000096C20000000027
:102B700038B52DED068BF0EE408AB0EE608AF0EEAF
:102B800041AA80EEA80A18F035FADFED999A60EEB6
:102B9000297A17EE900AFDF7C7FC8FA3D3E900232B
:102BA000FDF744FE0022934BFDF760FB41EC100B58
:102BB00018F078FB51EC100BFDF7D0FF07EE900AF0
:102BC0008D4B18609FED8D7A77EEC77A9FED8C7AEA
:102BD00077EE877AB0EE007A77EEC77A894B93ED7D
:102BE000007A77EE877A17EE900AFDF79DFC7CA3BA
:102BF000D3E90023FDF7F0FCFDF7B0FF0AEE100A61
:102C0000814B1860814B93ED009AB8EEC99A39EE6A
:102C10002A9A7F4B83ED009A68EEA88A28EE088AEC
:102C200038EE880A18F0C4F97A4B83ED000AF3EE07
:102C3000067A30EE678A784B83ED008A28EE080A20
:102C400069EE097A30EE270A18F0B2F9F0EE408A00
:102C5000724B83ED000A89EE080A18F0CBF9B0EE4A
:102C6000408A6F4B83ED000A28EEA89A9FED6D0A0B
:102C700039EE000ADFED6C7A30EE670ADFED6B7A31
:102C800068EEA78A80EE280A18F066F9684B83ED93
:102C9000000A38EE008A674B83ED008A68EE297AD5
:102CA00017EE900AFDF740FC4BA3D3E90023FDF794
:102CB000BDFD41EC100B18F0F5FA51EC100B0022A1
:102CC0005D4BFDF7D3FA02460B4647A1D1E900015F
:102CD000FDF7CAFA04460D46584B1868FDF724FC68
:102CE00002460B4620462946FDF7C0FA0022544B07
:102CF000FDF7BAFA3AA3D3E90023FDF76DFCFDF71F
:102D00002DFF08EE900A4F4B1860DFED4F7A77EEFB
:102D1000C97A9FED4E0A87EE800A18F01DF94C4BD8
:102D200083ED000A60EE297A17EE900AFDF7FCFBAE
:102D300029A3D3E90023FDF779FD00223E4BFDF7DF
:102D400093FA41EC100B18F0ADFA53EC102B002065
:102D50003949FDF789FA02460B4623A1D1E9000162
:102D6000FDF782FA04460D463A4B1868FDF7DCFB86
:102D700002460B4620462946FDF778FA0022304BE2
:102D8000FDF772FA16A3D3E90023FDF725FCFDF742
:102D9000E5FE08EE100A304B1860B0EE4A0A18F053
:102DA000D1FA2E4CBDEEC00A84ED000AB0EE680ADE
:102DB00018F0C8FABDEEC00A84ED010AB0EE480A68
:102DC00018F0C0FABDEEC00A84ED020ABDEC068B15
:102DD00038BD00BFAFF30080182D4454FB210940DB
:102DE00048E17A14AE470B400000000000C072407A
:102DF0000000344300806640D804002000000743F0
:102E000000004343B4040020EC0400202C00002008
:102E1000F0040020D4040020CC040020D0040020C2
:102E2000C804002000902F45002099450000D4429E
:102E3000C4040020E0040020008056408C040020E0
:102E400000000840E804002000E8F04500E0E74505
:102E5000DC04002098040020E4040020F404002096
:102E600038B52DED068BF0EE408AB0EE608AB0EEFC
:102E700041AA80EEA80A18F0BDF89FED9D9A60EE79
:102E8000097A17EE900AFDF74FFB93A3D3E90023CD
:102E9000FDF7CCFC0022974BFDF7E8F941EC100B55
:102EA00018F000FA51EC100BFDF758FE07EE900AEF
:102EB000914B186077EEC97A9FED907A77EE877A1A
:102EC000B0EE080A37EEC00A18F03CFA8C4B83EDDE
:102ED000000AB4EEC90AF1EE10FA05DDDFED897AD9
:102EE00030EE670A83ED000A854C2068FDF71CFB75
:102EF0007BA3D3E90023FDF76FFBFDF72FFE09EE5F
:102F0000900A2060804B93ED009AB8EEC99A39EE92
:102F10000A9A7E4B83ED009A68EEA88A28EE088A0A
:102F200038EE880A18F044F8794B83ED000AF3EE86
:102F3000067A30EE678A774B83ED008A28EE080A1E
:102F400069EE097A30EE270A18F032F8F0EE408A7E
:102F5000714B83ED000A89EE080A18F04BF8B0EEC9
:102F6000408A6E4B83ED000A28EEA89ADFED6C7A5A
:102F700079EE277A9FED6B7A77EEC77A9FED6A7AC2
:102F800068EE878A87EEA80A17F0E6FF674B83EDA5
:102F9000000A30EE080A664B83ED000A9FED548A62
:102FA00060EE087A17EE900AFDF7BEFA4AA3D3E95D
:102FB0000023FDF73BFC41EC100B18F073F951ECCA
:102FC000100B00225B4BFDF751F902460B4646A160
:102FD000D1E90001FDF748F904460D46564B186843
:102FE000FDF7A2FA02460B4620462946FDF73EF9B8
:102FF0000022524BFDF73AF939A3D3E90023FDF73C
:10300000EBFAFDF7ABFD08EE900A4D4B1860DFEDD3
:103010004D7A77EEC97A9FED4C0A87EE800A17F059
:103020009BFF4A4B83ED000A60EE087A17EE900A88
:10303000FDF77AFA28A3D3E90023FDF7F7FB002276
:103040003C4BFDF711F941EC100B18F02BF953EC48
:10305000102B00203749FDF707F902460B4622A145
:10306000D1E90001FDF700F904460D46384B186818
:10307000FDF75AFA02460B4620462946FDF7F6F8B8
:103080000022344BFDF7F0F815A3D3E90023FDF738
:10309000A3FAFDF763FD08EE100A2F4B1860B0EE9F
:1030A000690A18F04FF92D4CBDEEC00A84ED030AF1
:1030B000B0EE680A18F046F9BDEEC00A84ED040AC5
:1030C000B0EE480A18F03EF9BDEEC00A84ED050ADC
:1030D000BDEC068B38BD00BF182D4454FB210940C0
:1030E00048E17A14AE470B400000000000C0724077
:1030F0000000344300806640D804002000001643DE
:10310000EC0400200000B44328000020F00400205C
:10311000D4040020CC040020D0040020C8040020E7
:1031200000902F45002099450000D442C40400209F
:10313000E004002000805640AC040020000008405D
:10314000E804002000E8F04500E0E745DC0400204A
:10315000A804002000003440E4040020F40400200F
:1031600038B52DED068BF0EE408AB0EE608AF0EEB9
:1031700041AA80EEA80A17F03DFFDFED939A60EEBA
:10318000297A17EE900AFDF7CFF989A3D3E9002336
:10319000FDF74CFB00228D4BFDF768F841EC100B5E
:1031A00018F080F851EC100BFDF7D8FC07EE900AF0
:1031B000874B18609FED877A77EEC77A9FED867A06
:1031C00077EE877A854B93ED017A77EE877A17EE63
:1031D000900AFDF7A9F978A3D3E90023FDF7FCF9DC
:1031E000FDF7BCFC0AEE100A7D4B18607D4B93ED99
:1031F000009AB8EEC99A39EE2A9A7B4B83ED009A71
:1032000068EEA88A28EE088A38EE880A17F0D0FE01
:10321000764B83ED000AF3EE067A30EE678A744B44
:1032200083ED008A28EE080A69EE097A30EE270A53
:1032300017F0BEFEF0EE408A6E4B83ED000A89EE79
:10324000080A17F0D7FEB0EE408A6B4B83ED000AF8
:1032500028EEA89A9FED690A39EE000ADFED687A38
:1032600030EE670ADFED677A68EEA78A80EE280AFB
:1032700017F072FE644B83ED000A38EE008A634B50
:1032800083ED008A68EE297A17EE900AFDF74CF973
:1032900047A3D3E90023FDF7C9FA41EC100B18F05E
:1032A00001F851EC100B0022594BFCF7DFFF0246EE
:1032B0000B4643A1D1E90001FCF7D6FF04460D46B9
:1032C000544B1868FDF730F902460B462046294654
:1032D000FCF7CCFF38A3D3E90023FDF77DF9FDF718
:1032E0003DFC08EE900A4C4B1860DFED4C7A77EE0F
:1032F000C97A9FED4B0A87EE800A17F02DFE494BE5
:1033000083ED000A60EE297A17EE900AFDF70CF9BA
:1033100027A3D3E90023FDF789FA00223C4BFCF7F1
:10332000A3FF41EC100B17F0BDFF53EC102B002056
:103330003749FCF799FF02460B4621A1D1E900016C
:10334000FCF792FF04460D46374B1868FDF7ECF882
:1033500002460B4620462946FCF788FF16A3D3E910
:103360000023FDF739F9FDF7F9FB08EE100A2F4BA2
:103370001860B0EE4A0A17F0E5FF2D4CBDEEC00A0A
:1033800084ED060AB0EE680A17F0DCFFBDEEC00A55
:1033900084ED070AB0EE480A17F0D4FFBDEEC00A6C
:1033A00084ED080ABDEC068B38BD00BFAFF300808A
:1033B000182D4454FB21094048E17A14AE470B40D4
:1033C0000000000000C072400000344300806640EE
:1033D000D8040020000061430000D242B404002061
:1033E000EC04002024000020F0040020D40400207D
:1033F000CC040020D0040020C804002000902F45F9
:10340000002099450000D442C4040020E0040020BC
:10341000008056409C040020E804002000E8F045AD
:1034200000E0E745DC04002098040020E4040020CC
:10343000F40400200000000038B52DED068BF0EEFE
:10344000408AB0EE608AF0EE41AA80EEA80A17F03A
:10345000D1FDDFED8D9A60EE297A17EE900AFDF727
:1034600063F885A3D3E90023FDF7E0F90022874B39
:10347000FCF7FCFE41EC100B17F014FF51EC100BA5
:10348000FDF76CFB07EE900A814B18609FED817A87
:1034900077EEC77A9FED807A77EE877A7F4B93ED50
:1034A000027A77EE877A17EE900AFDF73DF874A35B
:1034B000D3E90023FDF790F8FDF750FB0AEE100A60
:1034C000774B1860774B93ED009AB8EEC99A39EEB6
:1034D0002A9A754B83ED009A68EEA88A28EE088A2E
:1034E00038EE880A17F064FD704B83ED000AF3EEA6
:1034F000067A30EE678A6E4B83ED008A28EE080A62
:1035000069EE097A30EE270A17F052FDF0EE408A94
:10351000684B83ED000A89EE080A17F06BFDB0EEE8
:10352000408A654B83ED000A28EEA89A9FED630A56
:1035300039EE000ADFED627A30EE670ADFED617A7C
:1035400068EEA78A80EE280A17F006FD5E4B83ED31
:10355000000A38EE008A5D4B83ED008A68EE297A16
:1035600017EE900AFCF7E0FF43A3D3E90023FDF731
:103570005DF941EC100B17F095FE51EC100B002299
:10358000534BFCF773FE04460D46524B1868FCF78C
:10359000CBFF02460B4620462946FCF767FE002279
:1035A0004D4BFCF763FE36A3D3E90023FDF714F877
:1035B000FDF7D4FA08EE900A484B1860DFED487A20
:1035C00077EEC97A9FED470A87EE800A17F0C4FCB0
:1035D000454B83ED000A60EE297A17EE900AFCF75E
:1035E000A3FF25A3D3E90023FDF720F90022384BE0
:1035F000FCF73AFE41EC100B17F054FE53EC102B85
:1036000000203349FCF730FE04460D46374B18685E
:10361000FCF78AFF02460B4620462946FCF726FEA9
:103620000022334BFCF720FE15A3D3E90023FCF75F
:10363000D3FFFDF793FA08EE100A2E4B1860B0EE98
:103640004A0A17F07FFE2C4CBDEEC00A84ED090A31
:10365000B0EE680A17F076FEBDEEC00A84ED0A0AE5
:10366000B0EE480A17F06EFEBDEEC00A84ED0B0AFC
:10367000BDEC068B38BD00BF182D4454FB2109401A
:1036800048E17A14AE470B40000034430080764096
:10369000D804002000809D4300004343B404002070
:1036A000EC04002018000020F0040020D4040020C6
:1036B000CC040020D0040020C804002000902F4536
:1036C000002099450000D442C4040020E0040020FA
:1036D000008056409404002000001440E8040020BC
:1036E00000E8F04500E0E745DC04002090040020FD
:1036F00000000840E4040020F40400200000000062
:1037000038B52DED048BF0EE408AB0EE608A924B16
:1037100093ED009AB8EEC99A39EE019A8F4B83ED7A
:10372000009A80EEA80A17F065FCDFED8D9A60EE36
:10373000297A17EE900AFCF7F7FE83A3D3E900235A
:10374000FDF774F841EC100B17F0ACFD51EC100BC9
:10375000FDF704FA00EE100A824B1860DFED827A62
:1037600030EE270ADFED817A30EE270A17F0EAFD06
:103770007F4B83ED000AB4EEE90AF1EE10FA05DDA5
:10378000DFED7C7A30EE670A83ED000A784C206822
:10379000FCF7CAFE6EA3D3E90023FCF71DFFFDF77B
:1037A000DDF909EE900A206068EEA88A28EE088A02
:1037B00038EE880A17F0FCFB6F4B83ED000AF3EE3E
:1037C000067A30EE678A6D4B83ED008A28EE080A90
:1037D00069EE097A30EE270A17F0EAFBF0EE408A2C
:1037E000674B83ED000A89EE080A17F003FCB0EE80
:1037F000408A644B83ED000A28EEA89ADFED627AD6
:1038000079EE277A9FED617A77EEC77A9FED607A3D
:1038100068EE878A87EEA80A17F09EFB5D4B83ED62
:10382000000A30EE080A5C4B83ED000A9FED4C8ADB
:1038300060EE087A17EE900AFCF776FE42A3D3E911
:103840000023FCF7F3FF41EC100B17F02BFD51ECBC
:10385000100B0022514BFCF709FD04460D46504B5E
:103860001868FCF761FE02460B4620462946FCF725
:10387000FDFC00224FF08043FCF7F6FC34A3D3E9B3
:103880000023FCF7A9FEFDF769F908EE900A454B05
:103890001860DFED457A77EEC97A9FED440A87EE2E
:1038A000800A17F059FB424B83ED000A60EE087A5C
:1038B00017EE900AFCF738FE23A3D3E90023FCF7A8
:1038C000B5FF0022354BFCF7CFFC41EC100B17F095
:1038D000E9FC53EC102B00203049FCF7C5FC0446F2
:1038E0000D46344B1868FCF71FFE02460B46204677
:1038F0002946FCF7BBFC16A3D3E90023FCF76CFEBA
:10390000FDF72CF908EE100A2B4B1860B0EE690A8F
:1039100017F018FD294CBDEEC00A84ED0C0AB0EE7C
:10392000680A17F00FFDBDEEC00A84ED0D0AB0EE77
:10393000480A17F007FDBDEEC00A84ED0E0ABDEC83
:10394000048B38BDAFF30080182D4454FB2109408F
:1039500048E17A14AE470B401C000020F004002020
:1039600000003443D804002000001643000000008B
:10397000EC0400200000B443D4040020CC04002058
:10398000D0040020C804002000902F450020994555
:103990000000D442C4040020E0040020008056400F
:1039A000A4040020E804002000E8F04500E0E7451A
:1039B000DC040020A0040020E4040020F404002023
:1039C00038B52DED068BF0EE408AB0EE608AF0EE51
:1039D00041AA80EEA80A17F00DFBDFED899A60EE90
:1039E000297A17EE900AFCF79FFD81A3D3E9002303
:1039F000FCF71CFF41EC100B17F054FC51EC100BC2
:103A0000FDF7ACF807EE900A7E4B18609FED7E7ACA
:103A100077EEC77A9FED7D7A77EE877AB1EE047AFA
:103A200077EEC77A7A4B93ED037A77EE877A17EEC3
:103A3000900AFCF779FD70A3D3E90023FCF7CCFDD5
:103A4000FDF78CF80AEE100A724B1860724B93ED7A
:103A5000009AB8EEC99A39EE2A9A704B83ED009A13
:103A600068EEA88A28EE088A38EE880A17F0A0FACD
:103A70006B4B83ED000AF3EE067A30EE678A694BF2
:103A800083ED008A28EE080A69EE097A30EE270AEB
:103A900017F08EFAF0EE408A634B83ED000A89EE50
:103AA000080A17F0A7FAB0EE408A604B83ED000ACF
:103AB00028EEA89A9FED5E0A39EE000ADFED5D7AE6
:103AC00030EE670ADFED5C7A68EEA78A80EE280A9E
:103AD00017F042FA594B83ED000A38EE008A584B32
:103AE00083ED008A68EE297A17EE900AFCF71CFD38
:103AF0003FA3D3E90023FCF799FE41EC100B17F02C
:103B0000D1FB51EC100B00224E4BFCF7AFFB0446EF
:103B10000D464D4B1868FCF707FD02460B46204644
:103B20002946FCF7A3FB34A3D3E90023FCF754FD9B
:103B3000FDF714F808EE900A444B1860DFED447A64
:103B400077EEC97A9FED430A87EE800A17F004FAF0
:103B5000414B83ED000A60EE297A17EE900AFCF7DC
:103B6000E3FC23A3D3E90023FCF760FE0022354BDE
:103B7000FCF77AFB41EC100B17F094FB53EC102B85
:103B800000203049FCF770FB04460D46334B1868A3
:103B9000FCF7CAFC02460B4620462946FCF766FBAA
:103BA00015A3D3E90023FCF717FDFCF7D7FF08EEB8
:103BB000100A2B4B1860B0EE4A0A17F0C3FB294CD1
:103BC000BDEEC00A84ED0F0AB0EE680A17F0BAFB2A
:103BD000BDEEC00A84ED100AB0EE480A17F0B2FB41
:103BE000BDEEC00A84ED110ABDEC068B38BD00BFE6
:103BF000182D4454FB21094048E17A14AE470B408C
:103C000000003443D8040020000034420000D242B7
:103C1000B4040020EC04002020000020F004002068
:103C2000D4040020CC040020D0040020C8040020CC
:103C300000902F45002099450000D442C404002084
:103C4000E004002000805640B0040020E80400207A
:103C500000E8F04500E0E745DC0400209004002087
:103C6000E4040020F404002000B595B01348FDF7EB
:103C700038FAE8B1114BB3F96430CBB10F4AB2F95D
:103C800062300093B2F910201392934213DB13AA0F
:103C9000106802B209490A82934209D001300882B1
:103CA0006846FDF77AF94C226946054816F027FF69
:103CB00015B05DF804FB6A46EAE700BF440800203F
:103CC000F807002010B50446012115F069FE002117
:103CD000204615F0E3FE02200EF04AFB01212046AB
:103CE00015F0DCFE03200EF043FB0021204615F00A
:103CF000D5FE0021204615F053FE084A012120463A
:103D000015F0F6FE064B1860064B83FB00230344B8
:103D1000C017C0EB6310044B186010BD40420F0089
:103D20000007002009CB3D8D0407002038B52DED9C
:103D3000028B0C46FFF7C6FF284D28602046FFF790
:103D4000C1FF274B1860274B93ED007AF7EE008AEE
:103D500078EEC78A244B93ED000A28EE800AD5ED51
:103D6000007AF8EEE77A67EE877A30EE270A83ED7D
:103D7000000A1E4BD3ED007A68EEA78A07EE900A80
:103D8000F8EEE77A67EE877A78EEA78AC3ED008AC5
:103D900017F0D8FAB0EE408AB0EE680A17F0D2FAFF
:103DA00038EE408AF0EE087A28EE278AFDEEC87ACF
:103DB00017EE903A0E4AC2ED007A192B02DD134637
:103DC00019221A600A4B1B6813F1190F03DA084B0A
:103DD0006FF018021A60BDEC028B38BDF0060020AF
:103DE000F40600200C0000204C04002048040020B1
:103DF000FC06002008B500213E2015F04FFE0220F1
:103E00000EF0B6FA01213E2015F048FE05200EF016
:103E1000AFFA00213E2015F041FE084A0121CC20D6
:103E200015F066FE064A1060064B83FB0013034440
:103E3000C017C0EB6310106008BD00BF40420F0008
:103E4000EC06002009CB3D8D104B93ED007A104B12
:103E5000D3ED007A67EE277A0E4BC3ED007A0E4B56
:103E6000D3ED006A37EE667A0C4BD3ED006A27EE8D
:103E7000267A0B4B83ED007A77EE877AB2EE047ADE
:103E800067EE877A074BC3ED007A70478004002005
:103E9000140000207C040020640400206004002042
:103EA000780400207404002010B50446FFF7DCFEFF
:103EB000334BB3F90230334A1360334A12689B1A0A
:103EC00007EE903AF8EEE77A304BC3ED007A9FEDBB
:103ED000307AF4EEC77AF1EE10FA01D583ED007A6C
:103EE0002A4B93ED007ADFED2B7AB4EEE77AF1EE10
:103EF00010FA01DDC3ED007AFFF7A6FF07EE904A46
:103F0000F8EEE77A244B93ED007AF4EEC77AF1EEFF
:103F100010FA01D8C3ED007A644207EE904AF8EE39
:103F2000E77A1D4B93ED007AF4EEC77AF1EE10FAC2
:103F300001DBC3ED007A184BD3ED007AF5EEC07AC1
:103F4000F1EE10FA0ADD154BC3ED007A144B002296
:103F50001A600E4B1A68134B1A6010BDF5EEC07A4A
:103F6000F1EE10FA05D400230D4A13600B4A1360DA
:103F7000EFE70A4B00221A60094BC3ED007AE8E72D
:103F8000F8070020F40700205000002080040020E3
:103F9000000048C200004842740400205804002079
:103FA0005C040020640400200023054A1360054AD5
:103FB0001360054A1360054A1360054A1360704791
:103FC0007C04002078040020800400206404002089
:103FD000740400200A4A00239360D360094A1360E6
:103FE000094A1360094A1360094A1360094A1360B9
:103FF000094A1360094A1360094A1360704700BFF9
:10400000B40400209C0400209804002094040020A4
:1040100090040020AC040020A8040020A404002088
:10402000A004002070B5044615460846FFF74AFE76
:104030003A4E30602846FFF745FE394B186033682A
:104040001B1A07EE903AF8EEE77A364BC3ED007A8A
:10405000FFF7FAFE07EE904AF8EEE77A324B93ED5F
:10406000007AF4EEC77AF1EE10FA01D8C3ED007AC7
:10407000644207EE904AF8EEE77A2B4B93ED007A14
:10408000F4EEC77AF1EE10FA01DBC3ED007A264BAD
:10409000D3ED007AF5EEC07AF1EE10FA26DDF1EEFE
:1040A000677A224BC3ED007A214BC3ED007A214B96
:1040B00000221A60204C214D2B68236015F0BCFDB6
:1040C00007EE900AF8EE677AC5ED007A94ED007A73
:1040D00077EEC77ADFED1A6A87EEA67A194B83ED81
:1040E000007A104B1A68184B1A6070BDF5EEC07A52
:1040F000F1EE10FA07D400230C4A13600C4A136047
:104100000C4A1360D6E70A4B00221A60094BC3ED34
:10411000007A064BC3ED007ACCE700BFF006002022
:10412000F4060020800400207404002054040020C1
:104130005C04002058040020680400207004002063
:1041400000007A446C0400206404002070B504462A
:1041500015460846FFF7B6FD3A4E30602846FFF791
:10416000B1FD394B18603368C01A07EE900AF8EEBB
:10417000E77A364BC3ED007AFFF766FE07EE904A0A
:10418000F8EEE77A324B93ED007AF4EEC77AF1EE6F
:1041900010FA01D8C3ED007A644207EE904AF8EEB7
:1041A000E77A2B4B93ED007AF4EEC77AF1EE10FA32
:1041B00001DBC3ED007A264BD3ED007AF5EEC07A31
:1041C000F1EE10FA24DD234B00221A60224BC3EDDE
:1041D000007A224BC3ED007A214C224D2B682360DC
:1041E00015F02AFD07EE900AF8EE677AC5ED007A21
:1041F00094ED007A77EEC77ADFED1B6A87EEA67A38
:104200001A4B83ED007A114B1A68194B1A6070BD76
:10421000F5EEC07AF1EE10FA07D400230F4A1360CE
:104220000C4A13600C4A1360D6E7F1EE677A0B4B29
:10423000C3ED007A074BC3ED007A074B00221A60EA
:10424000CAE700BFF0060020F4060020800400202A
:10425000740400205C040020580400205404002052
:10426000680400207004002000007A446C040020E0
:104270006404002070B5044615460846FFF722FD89
:104280003A4E30602846FFF71DFD394B1860336801
:104290001B1A07EE903AF8EEE77A364BC3ED007A38
:1042A000FFF7D2FD07EE904AF8EEE77A324B93ED36
:1042B000007AF4EEC77AF1EE10FA01D8C3ED007A75
:1042C000644207EE904AF8EEE77A2B4B93ED007AC2
:1042D000F4EEC77AF1EE10FA01DBC3ED007A264B5B
:1042E000D3ED007AF5EEC07AF1EE10FA26DDF1EEAC
:1042F000677A224BC3ED007A214B00221A60214BD2
:10430000C3ED007A204C214D2B68236015F094FCFE
:1043100007EE900AF8EE677AC5ED007A94ED007A20
:1043200077EEC77ADFED1A6A87EEA67A194B83ED2E
:10433000007A104B1A68184B1A6070BDF5EEC07AFF
:10434000F1EE10FA07D400230C4A13600C4A1360F4
:104350000C4A1360D6E70A4BC3ED007A094B0022E2
:104360001A60064BC3ED007ACCE700BFF0060020D0
:10437000F40600208004002074040020540400206F
:104380005C04002058040020680400207004002011
:1043900000007A446C040020640400209FED275A3A
:1043A00035EE406A76EE017A254BC3ED007A70EE69
:1043B000055A75EEC17A234BC3ED007ADFED227A00
:1043C00077EEC06A36EEE07A204B83ED007A70EE2D
:1043D000277A37EEA07A1E4B83ED007A9FED1D7A87
:1043E00037EE407A77EE014A1B4BC3ED004A30EEC0
:1043F000450A30EE415A194B83ED005A75EEA05A2A
:10440000174BC3ED005A36EE606A164B83ED006A17
:1044100077EEC17A144BC3ED007A76EE816A134BC6
:10442000C3ED006A30EE200A114B83ED000A37EE2F
:10443000607A104B83ED007A704700BF00005C4249
:104440005C06002044060020000000004806002012
:104450003006002000005CC2500600203806002014
:1044600058060020400600204C060020340600209C
:10447000540600203C0600207F4B1B78002B40F0A8
:10448000388370B52DED048BB0EE409A10EE904A53
:104490000546F0EE418AB0EE618A784E3068FCF74E
:1044A00031F86BA3D3E90023FBF7E0FEFCF72EFB0A
:1044B0003060734A136807331360724E3068FCF73C
:1044C00021F865A3D3E90023FBF7D0FEFCF71EFB20
:1044D00030606D4E3068FCF715F861A3D3E9002316
:1044E000FBF7C2FEFCF712FB3060684E3068FCF749
:1044F00009F85DA3D3E90023FBF7B6FEFCF706FB42
:104500003060634E3068FBF7FDFF59A3D3E9002309
:10451000FBF7AAFEFCF7FAFA30605E4A1368013B2B
:10452000136013B95C4B00221A70B42393FBF5F3AC
:1045300007EE903AF8EEE77A584BC3ED007A584B05
:104540001B68032B77D8DFE813F004001501860100
:104550006302DFED549A77EEA97A534BC3ED007AEC
:10456000524B534A1A60B0EE481AF0EE680AB0EEA9
:10457000490AFFF713FF4F4B4F4A13604F4A116828
:104580004F4A11604F4A13604F4A11684F4A1160F9
:104590004F4A14604F4A50490A60504908685049D0
:1045A000086050490A60504A1168504A1160504AE8
:1045B0001460504A1360504A1168504A1160504AC2
:1045C0001360504B1A68504B1A60504B1C60504B94
:1045D000504A1360504A1168504A1160504A1360A3
:1045E000504A1168504A1160504AC2ED009A504A30
:1045F00050490A60504908685049086050490A60AB
:10460000504A1168504A1160504AC2ED009A504A0F
:104610001360504A1168504A1160504A1360504B61
:104620001A68504B1A60504BC3ED009A01234F4A51
:104630001370114A13701A4A136801331360032B65
:1046400002DD134600221A60BDEC048B70BD00BF72
:10465000AE47E17A14AE1640D7A3703D0A57214009
:104660005C8FC2F5285C0D40A4703D0AD7A30240C0
:10467000713D0AD7A370E53FE80600202C0000201A
:104680002800002024000020200000201C00002022
:104690001800002088040020000000203C050020B5
:1046A000E406002000000000E0060020DC060020F8
:1046B0000000344300005CC2CC0500205C060020F2
:1046C000C8050020C405002044060020C0050020C5
:1046D000B805002000009842B405002048060020DC
:1046E000B0050020AC05002030060020A805002001
:1046F000A00500209C050020500600209805002001
:104700009405002038060020900500208805002030
:1047100000005C428405002058060020800500202F
:104720007C05002040060020780500207005002050
:10473000000098C26C0500204C060020680500208F
:104740006405002034060020600500205805002084
:104750005405002054060020500500204C05002080
:104760003C060020480500204005002034000020C1
:104770000000B4421FED027A77EE877A6F4BC3EDEB
:10478000007A6F4B83ED007AB0EE481AF0EE680ABB
:10479000B0EE490AFFF702FE6A4B6B4A13606B4AA0
:1047A00011686B4A11606B4A13606B4A11686B4A5F
:1047B000116000226A490A606A496B4801606B48CF
:1047C00005686B4805606B4801606B4908686B4978
:1047D00008606B490A606B490B606B4908686B495C
:1047E00008606B490B606B4B19686B4B19606B4B26
:1047F0001A606B4B6B4A13606B4A11686B4A11600D
:104800006B4A13606B4A11686B4A11606B4A146003
:104810006B4A6C490A606C4908686C4908606C49CD
:104820000A606C4A11686C4A11606C4A14606C4AE8
:1048300013606C4A11686C4A11606C4A13606C4BCF
:104840001A686C4B1A606C4B1C6001236B4A137026
:104850006B4A1370EFE6DFED6B9A77EEA97A374B70
:10486000C3ED007A364B684A1A60B0EE481AF0EE93
:10487000680AB0EE490AFFF791FD324B324A1360E5
:10488000324A1168324A1160324A1360324A116862
:10489000324A1160324AC2ED009A324A32490A6005
:1048A000324908683249086032490A60324A116860
:1048B000324A1160324AC2ED009A324A1360324ADB
:1048C0001168324A1160324A1360324B1A68324B17
:1048D0001A60324BC3ED009A314B324A1360324AB0
:1048E0001168324A1160324A1360324A1168324A02
:1048F0001160324A1460324A32490A60324908680B
:104900003249086032490A60324A1168324A1160FD
:10491000324A1460324A1360324A1168324A1160D6
:10492000324A1360324B1A68324B1A60324B1C60A9
:104930000123324A1370324A13707CE6E0060020ED
:10494000DC06002000005CC2CC05002044060020EC
:10495000C8050020C40500205C060020C00500201A
:10496000B805002000009842B40500203006002061
:10497000B0050020AC05002048060020A805002056
:10498000A00500209C050020380600209805002086
:104990009405002050060020900500208805002086
:1049A00000005C42840500204006002080050020B5
:1049B0007C050020580600207805002070050020A6
:1049C000000098C26C050020340600206805002015
:1049D000640500204C0600206005002058050020DA
:1049E000540500203C060020500500204C05002006
:1049F0005406002048050020400500203400002017
:104A0000E806002000000000000034430000B4422B
:104A10001FED027A77EE877A364BC3ED007A364B7C
:104A200083ED007AB0EE481AF0EE680AB0EE490A5B
:104A3000FFF7B4FC314B324A1360324A1168324AF4
:104A40001160324A1360324A1168324A1160324AA8
:104A50001460324A32490A603249086832490860B3
:104A600032490A60324A1168324A1160324A14608F
:104A7000324A1360324A1168324A1160324A136076
:104A8000324B1A68324B1A60324B1C60324B334A3D
:104A90001360334A1168334A1160334A1360334A52
:104AA0001168334A1160002232490A6032493348A2
:104AB0000160334804683348046033480160334977
:104AC00008683349086033490A6033490B60334949
:104AD00008683349086033490B60334B1968334B1E
:104AE0001960334B1A600123324A1370324A137033
:104AF000A1E57047E0060020DC06002000005CC253
:104B0000CC0500205C060020C8050020C40500205C
:104B100044060020C0050020B8050020000098428F
:104B2000B405002048060020B0050020AC05002098
:104B300030060020A8050020A00500209C050020CC
:104B4000500600209805002094050020380600201B
:104B5000900500208805002000005C4284050020AC
:104B600058060020800500207C050020400600201B
:104B70007805002070050020000098C26C05002018
:104B80004C06002068050020640500203406002043
:104B90006005002058050020540500205406002020
:104BA000500500204C0500203C0600204805002050
:104BB0004005002034000020E8060020844B1B78CC
:104BC000002B40F0518210B52DED028B10EE904A73
:104BD000F0EE410AB42393FBF0F307EE903AF8EEBF
:104BE000E77A7C4BC3ED007A7B4B1B68032B73D8B1
:104BF000DFE813F004007E005E01CD019FED778AAF
:104C000077EE887A764BC3ED007A764B764A1A6057
:104C1000B0EE611AFFF7C2FB744B754A1360754A18
:104C20001168754A1160754A1360754A1168754AB2
:104C30001160754A1460754A75490A6075490868BB
:104C40007549086075490A60754A1168754A1160AE
:104C5000754A1460754A1360754A1168754A116087
:104C6000754A1360754B1A68754B1A60754B1C605A
:104C7000754B764A1360764A1168764A1160764A17
:104C80001360764A1168764A1160764A82ED008A8E
:104C9000754A76490A607649086876490860764917
:104CA0000A60764A1168764A1160764A82ED008A77
:104CB000754A1360754A1168754A1160754A136028
:104CC000754B1A68754B1A60754B83ED008A01238A
:104CD000744A13703E4A13703F4A136801331360DD
:104CE000032B02DD134600221A60BDEC028B10BDBF
:104CF0009FED6D7A77EE877A394BC3ED007A394BA9
:104D000083ED007AB0EE611AFFF748FB374B384A63
:104D100013603B4A1168384A1160384A1360354ABB
:104D20001168384A1160002237490A60374938480B
:104D300001603B48D0F800C03748C0F800C0374891
:104D40000160344908683749086037490A603749C3
:104D50000B603A4908683749086037490B60344BA3
:104D60001968374B1960374B1A60374B374A136055
:104D70003A4A1168374A1160374A1360344A116859
:104D8000374A1160374A1460374A38490A603B494C
:104D900008683849086038490A60354A1168384A55
:104DA0001160384A1460384A13603B4A1168384A27
:104DB0001160384A1360354B1A68384B1A60384B0B
:104DC0001C600123374A1370014A137084E700BF47
:104DD000E80600203C050020E4060020000000005A
:104DE000E0060020DC0600200000344300005CC226
:104DF000CC0500205C060020C8050020C40500206A
:104E000044060020C0050020B8050020000098429C
:104E1000B405002048060020B0050020AC050020A5
:104E200030060020A8050020A00500209C050020D9
:104E30005006002098050020940500203806002028
:104E4000900500208805002000005C4284050020B9
:104E500058060020800500207C0500204006002028
:104E60007805002070050020000098C26C05002025
:104E70004C06002068050020640500203406002050
:104E8000600500205805002054050020540600202D
:104E9000500500204C0500203C060020480500205D
:104EA00040050020340000200000B4420000000053
:104EB0001FED028A77EE887A6C4BC3ED007A6C4B5B
:104EC0006C4A1A60B0EE611AFFF768FA6A4B6B4AD7
:104ED00013606B4A11686B4A11606B4A13606B4A2E
:104EE00011686B4A11606B4A82ED008A6A4A6B490D
:104EF0000A606B4908686B4908606B490A606B4A35
:104F000011686B4A11606B4A82ED008A6A4A13602D
:104F10006A4A11686A4A11606A4A13606A4B1A68E1
:104F20006A4B1A606A4B83ED008A6A4B6A4A1360C7
:104F30006A4A11686A4A11606A4A13606A4A1168CB
:104F40006A4A11606A4A14606A4A6B490A606B498E
:104F500008686B4908606B490A606B4A11686B4AC4
:104F600011606B4A14606B4A13606B4A11686B4A9C
:104F700011606B4A13606B4B1A686B4B1A606B4B7A
:104F80001C6001236A4A13706A4A1370A4E69FEDFD
:104F90006A7A77EE877A354BC3ED007A344B83ED2E
:104FA000007AB0EE611AFFF7F9F9334B334A136018
:104FB000364A1168334A1160334A1360304A116827
:104FC000334A1160334A1460334A34490A6037491E
:104FD00008683449086034490A60314A1168344A23
:104FE0001160344A1460344A1360374A1168344AF5
:104FF0001160344A1360314B1A68344B1A60344BD9
:105000001C60344B344A1360374A1168344A1160CB
:10501000344A1360314A1168344A1160002234491D
:105020000A603449344801603748046834480460F1
:1050300034480160314908683449086034490A60DD
:1050400034490B60374908683449086034490B60BB
:10505000314B1968344B1960344B1A600123344AC0
:105060001370344A137037E6704700BFE006002023
:10507000DC0600200000344300005CC2CC050020A8
:1050800044060020C8050020C40500205C0600205E
:10509000C0050020B805002000009842B40500209B
:1050A00030060020B0050020AC0500204806002096
:1050B000A8050020A00500209C050020380600203F
:1050C000980500209405002050060020900500203F
:1050D0008805002000005C42840500204006002076
:1050E000800500207C05002058060020780500205F
:1050F00070050020000098C26C05002034060020D6
:1051000068050020640500204C0600206005002092
:1051100058050020540500203C06002050050020C2
:105120004C050020540600204805002040050020C2
:1051300034000020E80600200000B442DFED2A6AB7
:1051400076EEC06A76EE817A284BC3ED007ADFED09
:10515000287A30EE676A36EE417A264B83ED007A84
:105160009FED257A77EE405A75EEA15A234BC3ED99
:10517000005A70EE075A75EEE15A214BC3ED005A02
:1051800076EEA06A1F4BC3ED006A36EE606A1E4BD6
:1051900083ED006A70EE276A36EEC16A1B4B83ED21
:1051A000006A77EEC07A37EE811A194B83ED001A48
:1051B00030EE477A37EE617A164B83ED007A9FED39
:1051C000167A37EE407A37EE217A144B83ED007A67
:1051D00076EEE06A124BC3ED006A77EEA07A114BCF
:1051E000C3ED007A704700BF00005CC22C060020AF
:1051F00000005C42140600200000984218060020BF
:1052000000060020200600200806002028060020B6
:10521000100600201C060020000098C20406002092
:10522000240600200C060020904B1B78002B40F039
:10523000638210B52DED028B10EE904AF0EE410A1C
:10524000B0EE611AF3EE047AB4EEE70AF1EE10FA6A
:1052500001DDB0EE670AFBEE047AB4EEE70AF1EE88
:1052600010FA01D5B0EE670AF6EE007A62EE271A60
:10527000B42393FBF0F307EE903AF8EEE77A7C4B19
:10528000C3ED007A7B4B1B68032B73D8DFE813F068
:1052900004007E005A01C9019FED778A77EE887A73
:1052A000764BC3ED007A764B764A1A60FFF746FFDD
:1052B000754B1A68754B1A60754A764B1A60764BB7
:1052C0001968764B1960764B1A60764B1C60764BEA
:1052D0001968764B1960764B83ED008A754B196817
:1052E000754B1960754B83ED008A754B1C60754BCF
:1052F0001968754B1960754B75490B6075490868DD
:105300007549086075490B6075490C6075490868F6
:105310007549086075490A607549086875490860EB
:1053200075490A60754A82ED008A754A1168754AA6
:105330001160754A82ED008A744A1168744A1160DE
:10534000744A82ED008A744A82ED008A734A1168B9
:10535000734A1160734A1360734A1168734A11608B
:10536000734A1360734B83ED008A0123724A1370F2
:105370003E4A13703F4A136801331360032B02DD6A
:10538000134600221A60BDEC028B10BD9FED6B7AB4
:1053900077EE877A394BC3ED007A394B83ED007A8B
:1053A000FFF7CCFE3C4B1A68384B1A603849394B32
:1053B0001960354B1A68394B1A60394B1960002354
:1053C000384A13603B4A1068384A1060384A136004
:1053D000354A1068384A1060384A1360384A1360FA
:1053E0003C4A1068384A1060384A394802603548EB
:1053F000D0F800C03848C0F800C0384802603848CB
:1054000003603B48D0F800C03748C0F800C03748B8
:1054100001603448D0F800C03648C0F800C03648B3
:10542000016036490C6039490868364908603649D8
:105430000B60334908683649086036490B60364BC3
:105440001C60394B1968364B1960364B1A60334B68
:105450001968364B1960364B1A60364B1C600123B5
:10546000354A1370014A137084E700BFE806002034
:105470003C050020E406002000000000E0060020BB
:10548000DC060020000034432C060020CC05002060
:1054900000005C42C805002014060020C40500205E
:1054A000C0050020B805002018060020B405002023
:1054B000B005002000060020AC050020A805002053
:1054C000A0050020200600209C05002000005CC2F2
:1054D0009805002008060020940500209005002073
:1054E0008805002028060020840500208005002073
:1054F000100600207C0500207805002070050020A3
:105500001C0600206C050020680500200406002011
:1055100064050020600500205805002024060020B6
:1055200054050020500500200C0600204C050020EA
:105530004805002040050020340000200000B4424F
:10554000000000001FED028A77EE887A6B4BC3EDF6
:10555000007A6B4B6B4A1A60FFF7F0FD6A4B1A68D2
:105560006A4B1A606A4A6B4B1A606B4B19686B4B3B
:1055700019606B4B1A606B4B83ED008A6A4B19689C
:105580006A4B19606A4B83ED008A6A4B19686A4B53
:1055900019606A4B83ED008A694B83ED008A694B81
:1055A0001968694B1960694B69490B60694908685A
:1055B0006949086069490B60694981ED008A694958
:1055C00008686949086069490A6069490868694961
:1055D000086069490A60694A1460694A1168694A41
:1055E0001160694A82ED008A684A1168684A116050
:1055F000684A82ED008A684A1460684A1168684AFD
:105600001160684A1360684A1168684A1160684A04
:105610001360684B1C600123674A1370674A13705C
:10562000A8E69FED677A77EE877A344BC3ED007A70
:10563000334B83ED007AFFF781FD374B1A68334B0C
:105640001A603349334B19602F4B1A68334B1A6079
:10565000334B1960334B1C60364B1A68334B1A605E
:105660000023334A1360304A1068334A1060334ACB
:105670001360334A1460374A1068334A1060334A63
:10568000334802602F48D0F800C03348C0F800C04B
:105690003248026032480460354804683248046089
:1056A000324801602F480468324804603248016083
:1056B00032490B60354908683249086032490B604D
:1056C0002F4908683249086032490B6032490B6043
:1056D000354908683249086032490A602F4908682C
:1056E0003249086032490A60324A13600123324A63
:1056F0001370324A13703DE6704700BFE006002089
:10570000DC0600200000344314060020CC050020F5
:1057100000005C42C80500202C060020C4050020C3
:10572000C0050020B805002000060020B4050020B8
:10573000B005002018060020AC050020A8050020B8
:10574000A0050020080600209C05002000005CC287
:1057500098050020200600209405002090050020D8
:105760008805002010060020840500208005002008
:10577000280600207C050020780500207005002008
:10578000040600206C050020680500201C0600208F
:105790006405002060050020580500200C0600204C
:1057A0005405002050050020240600204C05002050
:1057B000480500204005002034000020E8060020B5
:1057C0000000B4429FED2A7A37EE607A77EE227AB3
:1057D000284BC3ED007ADFED287A30EE676A76EE6B
:1057E000626A264BC3ED006ADFED255A70EEE50ACA
:1057F00070EEC30A234BC3ED000ADFED236A36EED9
:10580000C00A30EE030A214B83ED000A37EE027A1C
:105810001F4B83ED007A36EE426A1E4B83ED006A21
:1058200031EEA77A77EE626A1B4BC3ED006A77EE22
:10583000C17A77EEA22A194BC3ED002A75EEE11A60
:1058400071EE831A164BC3ED001A31EE251A31EEB4
:10585000433A144B83ED003A37EE427A124B83ED14
:10586000007A77EE827A114BC3ED007A704700BF61
:1058700000005CC22C06002000005C4214060020E0
:10588000000098421C060020000098C20406002078
:105890002006002008060020280600201006002010
:1058A0001806002000060020240600200C06002018
:1058B000874B1B78002B40F0518210B52DED028BE9
:1058C00012EE104AB0EE622AF0EE432AF6EE007AAB
:1058D00023EEA73AB42393FBF0F307EE903AF8EEE9
:1058E000E77A7C4BC3ED007A7B4B1B68032B73D8A4
:1058F000DFE813F004007E005A01C9019FED778AAA
:1059000077EE887A764BC3ED007A764B764A1A604A
:10591000FFF758FF754B1A68754B1A60754A764B3E
:105920001A60764B1968764B1960764B1A60764B85
:105930001C60764B1968764B1960764B83ED008AB4
:10594000754B1968754B1960754B83ED008A754B63
:105950001C60754B1968754B1960754B75490B6068
:10596000754908687549086075490B6075490C6090
:10597000754908687549086075490A60754908687D
:105980007549086075490A60754A82ED008A754A52
:105990001168754A1160754A82ED008A744A11686F
:1059A000744A1160744A82ED008A744A82ED008A5A
:1059B000734A1168734A1160734A1360734A11681D
:1059C000734A1160734A1360734B83ED008A01239D
:1059D000724A13703E4A13703F4A136801331360D2
:1059E000032B02DD134600221A60BDEC028B10BDB2
:1059F0009FED6B7A77EE877A394BC3ED007A394B9E
:105A000083ED007AFFF7DEFE3C4B1A68384B1A60D4
:105A10003849394B1960354B1A68394B1A60394B84
:105A200019600023384A13603B4A1068384A1060F6
:105A3000384A1360354A1068384A1060384A136093
:105A4000384A13603C4A1068384A1060384A39486E
:105A500002603548D0F800C03848C0F800C0384867
:105A60000260384803603B48D0F800C03748C0F8AF
:105A700000C0374801603448D0F800C03648C0F84C
:105A800000C03648016036490C603949086836491B
:105A9000086036490B603349086836490860364962
:105AA0000B60364B1C60394B1968364B1960364B0E
:105AB0001A60334B1968364B1960364B1A60364BF7
:105AC0001C600123354A1370014A137084E700BF3C
:105AD000E80600203C050020E4060020000000004D
