:020000040800F2
:10000000000002201DAA01086DAA0108973E010800
:100010006DAA01089F3E0108A73E010800000000EC
:100020000000000000000000000000003140010856
:100030006DAA010800000000D1400108198D0108D7
:100040006DAA01086DAA01086DAA01086DAA010830
:100050006DAA01086DAA01084D8F0108578F01088C
:10006000618F01086B8F0108758F01086DAA010867
:100070006DAA01086DAA01086DAA01086DAA010800
:100080006DAA01086DAA01086DAA01086DAA0108F0
:100090006DAA01086DAA01086DAA01087F8F0108E9
:1000A00085880108A587010899880108C587010886
:1000B000D9870108ED87010801880108350A010880
:1000C000450A0108550A0108650A01086DAA0108D8
:1000D0006DAA010811A0010829A0010841A001088A
:1000E000958F01086DAA01086DAA0108AD88010865
:1000F00051880108C1880108718801086DAA0108AA
:100100006DAA01086DAA0108158801086DAA0108E9
:1001100059A0010871A00108298801083D8801083B
:100120006DAA01086DAA01086DAA01086DAA01084F
:100130006DAA01086DAA01086DAA01086DAA01083F
:100140006DAA01086DAA01086DAA01086DAA01082F
:100150006DAA01086DAA01086DAA010889A001080D
:10016000750A0108850A01086DAA01086DAA01082F
:100170006DAA01086DAA01086DAA0108000000001F
:080180006DAA01086DAA010837
:1001900010F8012B11F8013B012A28BF9A42F7D031
:1001A000D01A7047000000000000000000000000AE
:1001B00001F0FF01102A2BDB10F0070F08D010F818
:1001C000013B013A8B422DD010F0070F42B3F6D11C
:1001D000F0B441EA012141EA014122F007047FF035
:1001E00000070023F0E80256083C85EA010586EA8C
:1001F000010685FA47F5A3FA87F586FA47F6A5FAC8
:1002000087F68EB9EED1F0BC01F0FF0102F00702D3
:1002100032B110F8013B013A83EA010313B1F8D17E
:100220000020704701387047002D06BF354603385F
:10023000073815F0010F07D1013015F4807F02BF98
:10024000013015F4C03F0130F0BC0138704700BFE9
:10025000034613F8012B002AFBD1181A0138704706
:1002600081F0004102E000BF83F0004330B54FEA67
:1002700041044FEA430594EA050F08BF90EA020FD4
:100280001FBF54EA000C55EA020C7FEA645C7FEA67
:10029000655C00F0E2804FEA5454D4EB5555B8BF8A
:1002A0006D420CDD2C4480EA020281EA030382EAFB
:1002B000000083EA010180EA020281EA0303362D8D
:1002C00088BF30BD11F0004F4FEA01314FF4801C60
:1002D0004CEA113102D0404261EB410113F0004F72
:1002E0004FEA03334CEA133302D0524263EB430329
:1002F00094EA050F00F0A780A4F10104D5F1200EC7
:100300000DDB02FA0EFC22FA05F2801841F1000121
:1003100003FA0EF2801843FA05F359410EE0A5F1F5
:1003200020050EF1200E012A03FA0EFC28BF4CF026
:10033000020C43FA05F3C01851EBE37101F00045DC
:1003400007D54FF0000EDCF1000C7EEB00006EEBE9
:100350000101B1F5801F1BD3B1F5001F0CD3490873
:100360005FEA30004FEA3C0C04F101044FEA4452CA
:1003700012F5800F80F09A80BCF1004F08BF5FEA51
:10038000500C50F1000041EB045141EA050130BD31
:100390005FEA4C0C404141EB0101013C28BFB1F543
:1003A000801FE9D291F0000F04BF01460020B1FA8E
:1003B00081F308BF2033A3F10B03B3F120020CDA61
:1003C0000C3208DD02F1140CC2F10C0201FA0CF03F
:1003D00021FA02F10CE002F11402D8BFC2F1200CA4
:1003E00001FA02F120FA0CFCDCBF41EA0C0190405A
:1003F000E41AA2BF01EB0451294330BD6FEA0404A3
:100400001F3C1CDA0C340EDC04F11404C4F120028D
:1004100020FA04F001FA02F340EA030021FA04F39F
:1004200045EA030130BDC4F10C04C4F1200220FAF6
:1004300002F001FA04F340EA0300294630BD21FA34
:1004400004F0294630BD94F0000F83F4801306BFFA
:1004500081F480110134013D4EE77FEA645C18BFEE
:100460007FEA655C29D094EA050F08BF90EA020F85
:1004700005D054EA000C04BF1946104630BD91EA7D
:10048000030F1EBF0021002030BD5FEA545C05D180
:100490004000494128BF41F0004130BD14F58004BF
:1004A0003CBF01F5801130BD01F0004545F0FE4133
:1004B00041F470014FF0000030BD7FEA645C1ABF68
:1004C000194610467FEA655C1CBF0B46024650EA9F
:1004D000013406BF52EA033591EA030F41F40021CB
:1004E00030BD00BF90F0000F04BF0021704730B551
:1004F0004FF4806404F132044FF000054FF0000126
:1005000050E700BF90F0000F04BF0021704730B5E6
:100510004FF4806404F1320410F0004548BF4042BB
:100520004FF000013EE700BF42004FEAE2014FEA10
:1005300031014FEA02701FBF12F07F4393F07F4FEB
:1005400081F06051704732F07F4208BF704793F0EE
:100550007F4F04BF41F40021704730B54FF4607401
:1005600001F0004521F000411CE700BF50EA010204
:1005700008BF704730B54FF000050AE050EA0102AD
:1005800008BF704730B511F0004502D5404261EB1D
:1005900041014FF4806404F132045FEA915C3FF45E
:1005A000D8AE4FF003025FEADC0C18BF03325FEAFB
:1005B000DC0C18BF033202EBDC02C2F1200300FAAC
:1005C00003FC20FA02F001FA03FE40EA0E0021FAD1
:1005D00002F11444BDE600BF70B54FF0FF0C4CF4BF
:1005E000E06C1CEA11541DBF1CEA135594EA0C0F71
:1005F00095EA0C0F00F0DEF82C4481EA030621EAAC
:100600004C5123EA4C5350EA013518BF52EA0335E6
:1006100041F4801143F4801338D0A0FB02CE4FF098
:100620000005E1FB02E506F00042E0FB03E54FF0C8
:100630000006E1FB03569CF0000F18BF4EF0010EC0
:10064000A4F1FF04B6F5007F64F5407404D25FEABC
:100650004E0E6D4146EB060642EAC62141EA55516F
:100660004FEAC52040EA5E504FEACE2EB4F1FD0CB1
:1006700088BFBCF5E06F1ED8BEF1004F08BF5FEA2F
:10068000500E50F1000041EB045170BD06F00046E1
:1006900046EA010140EA020081EA0301B4EB5C048E
:1006A000C2BFD4EB0C0541EA045170BD41F4801186
:1006B0004FF0000E013C00F3AB8014F1360FDEBFAB
:1006C000002001F0004170BDC4F10004203C35DA87
:1006D0000C341BDC04F11404C4F1200500FA05F30A
:1006E00020FA04F001FA05F240EA020001F00042AB
:1006F00021F0004110EBD37021FA04F642EB060121
:100700005EEA430E08BF20EAD37070BDC4F10C044A
:10071000C4F1200500FA04F320FA05F001FA04F20E
:1007200040EA020001F0004110EBD37041F10001FA
:100730005EEA430E08BF20EAD37070BDC4F1200505
:1007400000FA05F24EEA020E20FA04F301FA05F26D
:1007500043EA020321FA04F001F0004121FA04F215
:1007600020EA020000EBD3705EEA430E08BF20EAE5
:10077000D37070BD94F0000F0FD101F0004640001F
:1007800041EB010111F4801F08BF013CF7D041EAA1
:10079000060195F0000F18BF704703F000465200A5
:1007A00043EB030313F4801F08BF013DF7D043EA76
:1007B0000603704794EA0C0F0CEA135518BF95EA2C
:1007C0000C0F0CD050EA410618BF52EA4306D1D1B3
:1007D00081EA030101F000414FF0000070BD50EAD2
:1007E000410606BF1046194652EA430619D094EA5C
:1007F0000C0F02D150EA013613D195EA0C0F05D146
:1008000052EA03361CBF104619460AD181EA030199
:1008100001F0004141F0FE4141F470014FF0000051
:1008200070BD41F0FE4141F4780170BD70B54FF0EC
:10083000FF0C4CF4E06C1CEA11541DBF1CEA13556C
:1008400094EA0C0F95EA0C0F00F0A7F8A4EB05044E
:1008500081EA030E52EA03354FEA013100F0888045
:100860004FEA03334FF0805545EA131343EA12630E
:100870004FEA022245EA111545EA10654FEA0026C3
:100880000EF000419D4208BF964244F1FD0404F57C
:10089000407402D25B084FEA3202B61A65EB0305D8
:1008A0005B084FEA32024FF480104FF4002CB6EB95
:1008B000020E75EB030E22BFB61A754640EA0C0015
:1008C0005B084FEA3202B6EB020E75EB030E22BF55
:1008D000B61A754640EA5C005B084FEA3202B6EB96
:1008E000020E75EB030E22BFB61A754640EA9C0055
:1008F0005B084FEA3202B6EB020E75EB030E22BF25
:10090000B61A754640EADC0055EA060E18D04FEAE2
:10091000051545EA16754FEA06164FEAC30343EA82
:1009200052734FEAC2025FEA1C1CC0D111F4801F4F
:100930000BD141EA00014FF000004FF0004CB6E748
:1009400011F4801F04BF01430020B4F1FD0C88BFE7
:10095000BCF5E06F3FF6AFAEB5EB030C04BFB6EBF2
:10096000020C5FEA500C50F1000041EB045170BDE5
:100970000EF0004E4EEA113114EB5C04C2BFD4EB12
:100980000C0541EA045170BD41F480114FF0000E96
:10099000013C90E645EA060E8DE60CEA135594EA12
:1009A0000C0F08BF95EA0C0F3FF43BAF94EA0C0F15
:1009B0000AD150EA01347FF434AF95EA0C0F7FF48A
:1009C00025AF104619462CE795EA0C0F06D152EADE
:1009D00003353FF4FDAE1046194622E750EA4106C2
:1009E00018BF52EA43067FF4C5AE50EA41047FF4D3
:1009F0000DAF52EA43057FF4EBAE12E74FF0FF3C38
:100A000006E000BF4FF0010C02E000BF4FF0010C08
:100A10004DF804CD4FEA410C7FEA6C5C4FEA430C81
:100A200018BF7FEA6C5C1BD001B050EA410C0CBFD0
:100A300052EA430C91EA030F02BF90EA020F002032
:100A4000704710F1000F91EA030F58BF994208BF99
:100A500090422CBFD8176FEAE37040F00100704756
:100A60004FEA410C7FEA6C5C02D150EA013C07D1AD
:100A70004FEA430C7FEA6C5CD6D152EA033CD3D0F8
:100A80005DF8040B704700BF8446104662468C46F2
:100A90001946634600E000BF01B5FFF7B7FF002825
:100AA00048BF10F1000F01BD4DF808EDFFF7F4FF4E
:100AB0000CBF012000205DF808FB00BF4DF808EDD9
:100AC000FFF7EAFF34BF012000205DF808FB00BFFC
:100AD0004DF808EDFFF7E0FF94BF012000205DF81E
:100AE00008FB00BF4DF808EDFFF7CEFF94BF0120D3
:100AF00000205DF808FB00BF4DF808EDFFF7C4FFCC
:100B000034BF012000205DF808FB00BF4FEA41021E
:100B100012F5001215D211D56FF47873B3EB62524F
:100B200012D94FEAC12343F0004343EA505311F076
:100B3000004F23FA02F018BF404270474FF0000008
:100B4000704750EA013005D111F0004008BF6FF046
:100B5000004070474FF00000704700BF4FEA41026D
:100B6000B2F1E04324BFB3F5001CDCF1FE5C0DD90B
:100B700001F0004C4FEAC0024CEA5070B2F1004F55
:100B800040EB830008BF20F00100704711F0804F58
:100B900021D113F13872BCBF01F00040704741F41D
:100BA00080114FEA5252C2F11802C2F1200C10FA21
:100BB0000CF320FA02F018BF40F001004FEAC12305
:100BC0004FEAD32303FA0CFC40EA0C0023FA02F3A9
:100BD0004FEA4303CCE77FEA625307D150EA01337F
:100BE0001EBF4FF0FE4040F44000704701F000404F
:100BF00040F0FE4040F40000704700BF53B94AB9CE
:100C0000002908BF00281CBF4FF0FF314FF0FF3014
:100C100000F00CB8ADF1080C6DE904CE1DF0F2FC4B
:100C2000DDF804E0DDE9022304B07047704700BF3F
:100C300010B5054C237833B9044B13B10448AFF316
:100C400000800123237010BD240400200000000058
:100C5000C8E8010808B5034B1BB103490348AFF3CB
:100C6000008008BD0000000028040020C8E801083A
:100C700008B50368984708BD00B583B00023019309
:100C800001A9094B186811F0DEFE019B4BB14FF032
:100C9000E0234FF08052C3F8042DBFF34F8FBFF312
:100CA0006F8F03B05DF804FB3807002010B50446D1
:100CB000836813B1032201469847204610BD000007
:100CC00010B504460D4B03600D4B03600D4B0360E4
:100CD0008166C2667030C4F8D0014FF4B072002152
:100CE0001AF0F6FE522384F8CC31012384F8CD317A
:100CF0004FF4C873A4F8CE31204610BDD4EA0108E1
:100D0000E4EA010814EC0108F0B585B004460D468C
:100D1000012806D01CB94FF6FF739D4265D005B07F
:100D2000F0BD4FF6FF739942F4D1394F18221921C3
:100D300038460FF039F8CA2239463648FFF7C0FF67
:100D4000C02239463448FFF7BBFFCB22394633482F
:100D5000FFF7B6FFC42239463148FFF7B1FF314BE8
:100D60000293314B0193002600963B4620228021BE
:100D70002E480FF01BFF32462D492E4819F034FB48
:100D800032462D492D4819F02FFB32462C492D486B
:100D900019F02AFB2C4B64229A601E82C3F8AC60C7
:100DA0001E605E60FF2283F8B0204FF6FF72A3F84A
:100DB000B220A3F8B420A3F8B620A3F8B820A3F873
:100DC000BA20224813F076FC214813F073FC214826
:100DD00013F070FC204813F06DFC204813F06AFCFF
:100DE0001F49204817F0D0FD94E71E4817F056FC25
:100DF0000E480FF00BFF1C4B094A1360074A1360A3
:100E0000054A1360034A136001480FF059F886E75A
:100E10006C14002098120020C4100020F00E002056
:100E20001C0D0020A0860100801A0600900C0020F6
:100E300000440040780B002000480040600A002079
:100E400000140140480900204C080020FC07002045
:100E5000F8070020F4070020F0070020EC0700202E
:100E6000001000403C07002014EC0108C06E002870
:100E700001DA0020704708B5012119F029FE002091
:100E800008BD08B5C06E002803DA0A2019F09EFFDD
:100E900008BD002119F09AFEF7E770B504460E462A
:100EA0001546006860B132210FF058F820680368D9
:100EB0005B682A463146984720680FF07EF970BD7E
:100EC00060680028FBD003685B689847F7E710B5B7
:100ED00004460068E0B103681B69984778B1206850
:100EE00003681B69984780B1206803685B6998476D
:100EF000C0B213F01BFA03460028F0D006E010221F
:100F0000322120680FF052F9E9E70023184610BD9E
:100F10006368002BFAD0606803681B69984750B17A
:100F2000606803685B699847C0B213F0FFF9034635
:100F30000028F0D0EAE70023E8E738B504460D467C
:100F400019F03CFFE06019F039FFE368C01AA368AC
:100F500098420DD82046FFF7BAFF03460028F2D08A
:100F60003DB1284613F024FA03460028EBD000E0F8
:100F70000023184638BD10B504461346B1F9622067
:100F80009A4208DDD1F8AC104C2202FB03111AF092
:100F900078FE204610BD4C22B0311AF072FEF8E700
:100FA00038B5044610460A7013F052FA054613F09D
:100FB0007BFA024629462046FFF76FFF38BD30B561
:100FC00095B005460024042C0CDC2C2201A92846EF
:100FD000FFF7E6FF2E212846FFF7AFFF034610B9C3
:100FE0000134F0E70023184615B030BD70B50C464B
:100FF0001546104613F0DCF9064608B9304670BDB8
:10100000257013F0EDF9608013F0EAF9A08013F079
:10101000E7F9E08013F0E4F9208113F0E1F9608151
:1010200013F0FEF9EAE7F0B583B00446002303822B
:101030002921FFF782FF074610B9384603B0F0BDFB
:10104000292204F160012046FFF7D0FFD4F8AC005C
:10105000B4F96230009301220192002B0ADD6B4645
:101060001B684C2103FB01F119F084FFC4F8AC00AC
:10107000002602E001ABF3E70136B4F96230B34277
:10108000DBDD00212046FFF758FFB0B1D4F8AC10EB
:101090004C2506FB05F52A2229442046FFF7A6FF2A
:1010A0000028E9D1D4F8AC102B2229442046FFF7C0
:1010B0009DFF0028E0D10746BFE70746BDE710B512
:1010C00094B00446202201A9FFF76AFF2046FFF7EB
:1010D000AAFF14B010BD70B505460C4610460A7044
:1010E00013F0B6F90646B4F9020013F0C7F913F08D
:1010F000DBF9024631462846FFF7CFFE70BD10B53A
:1011000094B00446ADF806102D2201A9FFF7E3FFC5
:101110002E212046FFF711FF14B010BD70470000CC
:101120007C4B1B78002B40F0F38010B57A4B0122EA
:101130001A70B42393FBF0F307EE903AF8EEE77AD7
:10114000764BC3ED007A764BC3ED007A754B1B6886
:1011500063B1934279D00133724A1360022B04DDEC
:1011600000236D4A13706F4A136010BD00226E4950
:101170000A606E490A606E496E4808606E496F48A1
:101180000160DFED6F7A6F48C0ED007A6E48016054
:101190006E4802606E4802606E486F4C20609FEDA2
:1011A0006F7A6F4C84ED007A6E4C20606E4801605F
:1011B0006E4802606E480160DFF838E26D48C0F8A2
:1011C00000E06D480160DFF828C26C48C0F800C03C
:1011D0006B4802606B486C4C20606C4CC4ED007A2C
:1011E0006B4C20606B4C22606B4C2260DFED6B7AA5
:1011F0006B4CC4ED007A6B4C84ED007A6A4CC4ED04
:10120000007A6A4C21606A490A606A4908606A4942
:10121000C1F800E0694908606949C1F800C069493E
:101220000A60694A69490A6069490A60694A6A4903
:101230000A606A490A60012269490A7069490A70AC
:1012400069490A7033490A7085E7684A33490A6078
:1012500033490A603849394A11600022394802602E
:1012600039480160394802603948026039483A4CCF
:1012700020603B4C21603B4C20603B4801603B4878
:1012800002603B4801605A483A4C20603A4C216069
:101290003A4C20603A4C2260DFF8E8C03A4CC4F87F
:1012A00000C03A4C22603A4CC4F800C0394C22606D
:1012B000394C2260DFF840E1394CC4F800E0394C89
:1012C0002160394CC4F800E0384C216038490A608C
:1012D0003849C1F800C0384908603849C1F800C031
:1012E0003749086037490A60374A38490A6038493F
:1012F0000A60384A38490A6038490A600122384988
:101300000A7038490A7038490A7002490A7022E79F
:10131000704700BFF4060020B406002048050020F6
:10132000DC060020C006002030000020EC06002073
:10133000E80600200000344300005CC2D80500200D
:101340000000D242D4050020D0050020CC050020AA
:10135000C405002000009842C0050020000048425B
:10136000BC050020B8050020B4050020AC05002015
:10137000A8050020A4050020A00500209C05002051
:101380009405002000005C42900500208C050020A0
:1013900088050020840500207C050020000098C2FC
:1013A0007805002074050020700500206C050020E1
:1013B00064050020600500205C0500205805002021
:1013C000540500204C0500200000B841D80600203C
:1013D000D406002000000543D0060020CC060020E3
:1013E000B6060020B5060020340000200000704240
:1013F0000000ACC20000A0C0000098C2874B1B7860
:10140000002B40F02F8310B5854B01221A70B423B6
:1014100093FBF0F307EE903AF8EEE77A814BC3EDD9
:10142000007A814BC3ED007A804B1B68042B7ED879
:10143000DFE813F0050089007201DD01BE027C4B7C
:10144000784A1360784A136000247A4B1C607A4B08
:101450001C607A4B7A4A1A6008217A4813F060F9C6
:10146000794B1A68794B1A60794B1B6879490B6084
:1014700079490A60794A1360794B1C60794B1A6884
:10148000794B1A60794B1B6879490B6079490A607E
:10149000794A1360794B1C60794B1A68794B1A6052
:1014A000794B1B6879490B6079490A60794A136066
:1014B000794B1C60794B1A68794B1A60794B1B6821
:1014C00079490B6079490A60794A1360794B1C604D
:1014D000794B1A68794B1A60794B1B6879490B6014
:1014E00079490A60794A1360794B1C60794B1A6814
:1014F000794B1A60794B1B6879490B6079490A600E
:10150000794A1360794B1C60794B7A4A13607A4AA6
:1015100013607A4B7A4A13607A4A136001237A4A3D
:1015200013703E4A1370794A1370794A13703F4A18
:10153000136801331360052B04DD0023384A137050
:101540003A4A136010BD404B1A68404B1A60404B3A
:101550001B6840490B6040490A60404A1360002301
:101560003F4A13603F4A11683F4A11603F4A126880
:101570003F4802603F4801603F490A603F4A1360AC
:101580003F4A11683F4A11603F4A12683F48026073
:101590003F4801603F490A603F4A13603F4A116873
:1015A0003F4A11603F4A12683F4802603F4801606D
:1015B0003F490A603F4A13603F4A11683F4A116041
:1015C0003F4A12683F4802603F4801603F490A6055
:1015D0003F4A13603F4A11683F4A11603F4A126810
:1015E0003F4802603F4801603F490A603F4A13603C
:1015F000404B3F4A1A60404B464A1A603F4B404AB4
:101600001360404A136001233F4A1370034A13706A
:101610003E4A13703E4A137089E700BFF40600206B
:10162000B406002048050020DC060020C00600208B
:101630000000904130000020EC060020E806002069
:1016400000003443F8070020B0060020D805002031
:10165000AC060020D4050020D0050020CC050020D9
:10166000C405002074060020C0050020700600207C
:10167000BC050020B8050020B4050020AC05002002
:1016800098060020A805002094060020A40500204C
:10169000A00500209C05002094050020A406002041
:1016A00090050020A00600208C0500208805002061
:1016B000840500207C05002080060020780500209D
:1016C0007C06002074050020700500206C050020B9
:1016D000640500208C06002060050020880600209C
:1016E0005C05002058050020540500204C05002012
:1016F0000000B841D8060020D406002000000543B1
:10170000D0060020CC06002034000020B6060020C1
:10171000B50600200000F0426B4B1A686B4B1A6054
:101720006B4B1B686B490B606B490A606B4A13601B
:1017300000236B4A13606B4A11686B4A11606B4A55
:1017400012686B4802606B4801606B490A606B4A23
:1017500013606B4A11686B4A11606B4A12686B48E0
:1017600002606B4801606B490A606B4A13606B4A08
:1017700011686B4A11606B4A12686B4802606B48D3
:1017800001606B490A606B4A13606B4A11686B4ACF
:1017900011606B4A12686B4802606B4801606B49CC
:1017A0000A606B4A13606B4A11686B4A11606B4A9E
:1017B00012686B4802606B4801606B490A606B4AB3
:1017C00013606B4B6B4A1A606B4B6C4A1A606C4B24
:1017D0006C4A1A606C4B6D4A1A6001236C4A137094
:1017E0006C4A13706C4A13706C4A13709FE6364B48
:1017F0001A68364B1A60364B1A68364B1A60684ABC
:10180000354B1A606749354B196000233448036033
:101810003448046834480460344804683448046038
:101820003448614C046034480360344803603448F1
:101830000468344804603448046834480460344818
:101840000260344802603448036034480468344815
:101850000460344804683448046034480160344803
:1018600001603448036034480468344804603448F4
:1018700004683448046034484C4C046033480360C6
:1018800033480360334804683348046033480468CD
:10189000334804603348016033490A60334A1360B7
:1018A000364B334A1360344A1360384B344A136062
:1018B000354A13600123384A1370384A1370344A8A
:1018C0001370344A137032E6B0060020D8050020A9
:1018D000AC060020D4050020D0050020CC05002057
:1018E000C405002074060020C005002070060020FA
:1018F000BC050020B8050020B4050020AC05002080
:1019000098060020A805002094060020A4050020C9
:10191000A00500209C05002094050020A4060020BE
:1019200090050020A00600208C05002088050020DE
:10193000840500207C05002080060020780500201A
:101940007C06002074050020700500206C05002036
:10195000640500208C060020600500208806002019
:101960005C05002058050020540500204C0500208F
:10197000D80600200000F042D40600200000A44257
:10198000D006002000000543CC0600200000704374
:1019900034000020F4060020B6060020B506002022
:1019A00000005CC200005C4200009842000098C247
:1019B0002D4B2E4A13602E4A13602E4A2E4B1A606E
:1019C0002E492F4B19602F4B1A602F4B19600023A3
:1019D0002E4803602E482F4C20602F4C23602F4C44
:1019E00020602F4803602F4803602F4802602F4873
:1019F00002602F4802602F4802602F4803602F4882
:101A000001602F4801602F4801602F4801602F4876
:101A100003602F482F4C20602F4C23602F4C2060F8
:101A20002F4803602F4803602F4801602F48026051
:101A30002F4801602F490A602F4A13602F4B304A0C
:101A40001360304A1360304B304A1360304A1360E1
:101A50000123304A1370304A1370304A1370304AF1
:101A6000137064E5704700BF0000B44248050020D1
:101A7000DC06002000005CC2D805002000005C42AB
:101A8000D4050020D0050020CC050020C40500208E
:101A900000009842C0050020BC050020B8050020C9
:101AA000B4050020AC050020A8050020A4050020F6
:101AB000A00500209C050020940500209005002032
:101AC0008C05002088050020840500207C0500206E
:101AD000000098C2780500207405002070050020E1
:101AE0006C05002064050020600500205C050020D6
:101AF00058050020540500204C0500200000A44299
:101B0000D8060020D406002000007043D006002034
:101B1000CC060020B6060020B506002034000020C8
:101B2000F406002038B5774B1B7813BB764B0122A7
:101B30001A70B42393FBF1F307EE903AF8EEE77ACC
:101B4000724BC3ED007A724BC3ED007A714B1B6888
:101B5000934278D0022B00F04B815BB16D4A136841
:101B600001331360032B04DD0023674A1370694AB5
:101B7000136038BD0024684B1C60684B1C60684BC8
:101B8000684A1A600146684812F0CAFD674A684B05
:101B90001A60684B68490B6068490A60DFF840C208
:101BA0006749C1F800C067490C6067496748016030
:101BB0006748046067480160674868490860684989
:101BC0000C6068490A6068490A6068490A606849A7
:101BD000684D2960684D2C60684D2B60684D2B6006
:101BE000684D2B60684DC5F800C0684D2C60DFF86B
:101BF000F4C1674DC5F800C0664D2C60664DC5F850
:101C000000C0664D28606648046066480360664808
:101C10000260664A1360664B1960664B1C60664B37
:101C2000664A1360664A1360664B674A1360674AE8
:101C300013600123664A1370664A1370664A137074
:101C4000304A13708AE7654B304A1360304A13609C
:101C50003649374B1960624C374B1C60374B196063
:101C6000374B1C600023374A1360374A37480260FD
:101C70003948374D2860374D2A60384A1060384A55
:101C80001360384A11603A4A374D2A60374D29604F
:101C900038490A6038490B602649384D2960384D6B
:101CA0002C60384D2960384D2C60384C23604D4CE9
:101CB000374D2C60374D2860374D2C60374C2060F5
:101CC0003748036037480160374802603748016091
:101CD00037490A60374A1360384B374A1A60384B25
:101CE000414A1A60384B374A1A60384B3F4A1A60EB
:101CF0000123374A1370374A1370374A1370014A69
:101D000013702BE7F4060020B406002048050020DD
:101D1000DC060020C006002030000020EC06002079
:101D2000E806002000003443F807002000005CC2F1
:101D3000D805002000005C42D4050020D00500201A
:101D4000CC050020C405002000009842C0050020FA
:101D5000BC050020B805002000004842B405002062
:101D6000AC050020A8050020A4050020A005002047
:101D70000000A0C09C0500209405002090050020D4
:101D80008C05002088050020840500207C050020AB
:101D90007805002074050020700500206C050020E7
:101DA00064050020600500205C0500205805002027
:101DB000540500204C0500200000A442D806002055
:101DC000D406002000007043D0060020CC0600207E
:101DD000B6060020B5060020340000200000A04018
:101DE0000000D242000098C20000C041000007433A
:101DF0002E4B2F4A13602F4A13602F492F4B196027
:101E00002F4C304B1C60304B1960304B1C60002352
:101E10002F4A13602F4A304802603048304D286006
:101E2000304D2A60304A1060304A1360304A1160E9
:101E3000304A314D2A60314D296031490A603149BB
:101E40000B603149314D2960314D2C60314D296095
:101E5000314D2C60314C2360314C324D2C60324D71
:101E60002860324D2C60324C20603248036032488A
:101E70000160324802603248016032490A60324AE9
:101E80001360324B324A1360324A1360324B334A8A
:101E90001360334A13600123324A1370324A1370BD
:101EA000324A1370324A137058E600BF0000B44241
:101EB00048050020DC06002000005CC2D805002098
:101EC0000000D242D4050020D0050020CC0500201F
:101ED000C405002000009842C005002000004842D0
:101EE000BC050020B8050020B4050020AC0500208A
:101EF000A80500200000A0C0A4050020A005002027
:101F00009C0500209405002000005C429005002004
:101F10008C05002088050020840500207C05002019
:101F2000000098C27805002074050020700500208C
:101F30006C05002064050020600500205C05002081
:101F400058050020540500204C0500200000B84131
:101F5000D8060020D406002000000543D00600204B
:101F6000CC060020B6060020B50600203400002074
:101F7000F40600200000000008B52DED028B284B70
:101F800093ED008ADFED277AB4EEE78AF1EE10FADE
:101F90003CD8254BD3ED006A244B93ED007A37EE05
:101FA000667AB2EE046AC7EE067A77EEA77A204B1D
:101FB000C3ED007A68EE277ADFED1E5A87EEA57A28
:101FC00067EE067A76EEA77A17EE900AFEF7ACFA7D
:101FD00011A3D3E90023FEF7FFFAFEF797FD164B96
:101FE0001860164BD3ED007A38EE278A0C4B83ED40
:101FF000008ADFED0C7AB4EEE78AF1EE10FA05DD27
:102000000F4B00221A70064B00221A60BDEC028BA7
:1020100008BD00BFAFF3008048E17A14AE470B4023
:10202000C806002000003443D0060020CC06002063
:10203000E00600200000B443BC060020DC060020BF
:10204000B60600201F4BD3ED007A9FED1F7AF4EE09
:10205000C77AF1EE10FA34D81C4BD3ED006A1C4B52
:1020600093ED006A36EE666AF2EE045A86EE257A41
:1020700037EE077A174B83ED007A27EE877A9FEDCC
:10208000165A87EE056A26EE257A76EE876AFDEE09
:10209000E66A124BC3ED006A114B93ED007A77EEBE
:1020A000877A084BC3ED007A9FED077AF4EEC77A82
:1020B000F1EE10FA05DD0B4B00221A70014B0022E5
:1020C0001A607047C406002000003443D806002080
:1020D000D4060020E40600200000B443B806002027
:1020E000DC060020B506002008B54B4B1B78002B02
:1020F00035D14A4B1B78002B31D1494B01221A7044
:10210000B42393FBF0F307EE903AF8EEE77A454BF1
:10211000C3ED007A444B1B68052B15D8DFE803F0AC
:10212000032034455668414B414A1A60414B424AAC
:102130001A60424B424A1A60424B434A1A600123DA
:10214000354A1370354A1370374A136801331360E8
:10215000062B04DD0023324A1370334A136008BD96
:1021600028213A4812F0DCFA334B304A1360314AE6
:102170001360354B314A1360324A13600123264AFB
:102180001370264A1370DFE7284B2B4A1A60294B3D
:102190002F4A1A602C4B294A13602A4A13600123E4
:1021A0001D4A13701D4A1370CEE7294B1F4A136056
:1021B000204A1360214B244A1A60224B254A1A6098
:1021C0000123154A1370154A1370BDE7174B204AB7
:1021D0001A60184B164A1A60184B1E4A1A60194B9F
:1021E000174A1A6001230C4A13700C4A1370ABE7AC
:1021F0000C4B194A1A600E4B0C4A13600D4A1360BF
:102200000F4B0E4A13600F4A13600123024A1370EA
:10221000024A137098E700BFB6060020B5060020FA
:10222000B4060020DC060020C0060020D8060020EE
:102230000000A442D406002000007842D00600200E
:1022400000007043CC0600200000EA42F80700209E
:102250000000CC420000E0420000704208B5424B52
:102260001B78002B35D1414B1B78002B31D1404BD3
:1022700001221A70B42393FBF0F307EE903AF8EEC4
:10228000E77A3C4BC3ED007A3B4B1B68042B15D817
:10229000DFE803F0032034455700384B384A1A6012
:1022A000384B394A1A60394B394A1A60394B3A4A25
:1022B0001A6001232C4A13702C4A13702E4A13689B
:1022C00001331360052B04DD0023294A13702A4AC9
:1022D000136008BD2821314812F022FA2A4B274A00
:1022E0001360284A13602C4B284A1360294A136054
:1022F00001231D4A13701D4A1370DFE71F4B224A4A
:102300001A60204B264A1A60234B204A1360214A48
:1023100013600123144A1370144A1370CEE7174B4D
:102320001F4A1A60174B164A1A60184B1A4A1A604D
:10233000184B174A1A6001230B4A13700B4A13708B
:10234000BCE70C4B174A1A600D4B0C4A13600D4A40
:1023500013600F4B0D4A13600E4A13600123024AAB
:102360001370024A1370A9E7B6060020B5060020D4
:10237000B4060020DC060020C0060020D80600209D
:102380000000A442D406002000004842D0060020ED
:1023900000007043CC06002000000643F807002030
:1023A0000000B8420000704210B52DED028B90B0D5
:1023B000DFED837AC0EE277A17EE900AFEF7B4F8C5
:1023C0007DA3D3E90023FEF707F9FEF7C7FB08EE6C
:1023D000100A2422002107A819F07AFB4FF07E533F
:1023E0000F93B0EE480A19F09FFF10EE104A8DEDE2
:1023F000070AB0EE480A19F0D7FFF1EE407ACDEDAA
:10240000087A8DED0A0A0B94002204920592069236
:1024100001920292039231E002EB0C0310A800EB50
:10242000830313ED0C7A02EB4200084410AC04EB7A
:10243000800050ED097A0CEB010E624800EB8E0033
:10244000D0ED006A67EEA66A37EE267A03ED0C7AC5
:1024500013ED0F7A5C4800EB8E00D0ED006A67EE5A
:10246000A67A77EE277A43ED0F7A01310129D3DD81
:102470000CF1010CBCF1000F05DD0132012A04DC76
:102480004FF0000CF6E70021F0E7504BD3ED008A47
:10249000F5EEC08AF1EE10FA2ED4F5EEC08AF1EE18
:1024A00010FA25DDB5EEC08AF1EE10FA67D4B5EE6C
:1024B000C08AF1EE10FA1BDB9DED040A1AF002F857
:1024C000434B83ED000A9DED050A19F0FBFF414BDC
:1024D00083ED000A9DED010A19F0F4FF3E4B83EDF8
:1024E000000A9DED020A19F0EDFF3C4B83ED000A56
:1024F00010B0BDEC028B10BDB5EEC08AF1EE10FA43
:102500001BDB9DED040A19F0DDFF354B83ED000A5E
:102510009DED050A19F0D6FF324B83ED000A9DEDC3
:10252000010A19F0CFFF304B83ED000A9DED020A3E
:1025300019F0C8FF2D4B83ED000AB5EEC08AF1EE0D
:1025400010FAAAD59DED040A19F0BCFF204B83EDCB
:10255000000A9DED050A19F0B5FF1E4B83ED000A38
:102560009DED010A19F0AEFF1B4B83ED000A9DEDB6
:10257000020A19F0A7FF194B83ED000A8DE79DEDC4
:10258000040A19F09FFF164B83ED000A9DED050A22
:1025900019F098FF134B83ED000A9DED010A19F025
:1025A00091FF114B83ED000A9DED020A19F08AFF9D
:1025B0000E4B83ED000A7AE7182D4454FB210940A5
:1025C00000003443FCEA0108F0EA0108900400200E
:1025D0001C0600204C0600200C0600203C060020B3
:1025E0003406002064060020240600205406002043
:1025F00010B52DED028B10EE904AF3EE0E7AB4EE8C
:10260000E70AF1EE10FA01DDB0EE670AFBEE0E7A92
:10261000B4EEE70AF1EE10FA01D5B0EE670AAB4B63
:1026200083ED000A9FEDAA7AC7EE017AA94BC3EDAC
:10263000007AA94B1B78002B40F0B680A74B1B6893
:10264000032B00F2A880DFE813F00400B200B10110
:102650005402DFEDA38A77EEA87AA24BC3ED007A8D
:10266000A14BA24A1A60F6EE007A20EE278AB0EE5D
:10267000480AFFF799FEB1EE480AFFF795FE9C4B1A
:10268000D3ED006AF1EE664A9A4BC3ED004A9A4BCD
:1026900093ED005A994B83ED005A994B93ED006AE4
:1026A000B1EE464A974B83ED004A974BD3ED005A63
:1026B000964BC3ED005A964BC3ED008A954B1C60B8
:1026C000954B93ED007A954B83ED007A944B1A6805
:1026D000944B1A60944BD3ED007A944BC3ED007A7F
:1026E000934B1B6893490B609349C1ED008A934952
:1026F0000C60934981ED004AB1EE654A914981ED44
:10270000004A9149C1ED004AF1EE454A8F49C1EDB9
:10271000004A8F49C1ED008A8E490C608E49C1ED97
:10272000006A8E4981ED005A8D4981ED006A8D491C
:10273000C1ED005A8C49C1ED008A8C49C1ED008A77
:10274000B1EE477A8A4981ED007A8A490A60F1EE52
:10275000677A894AC2ED007A884A1360884BC3EDD4
:10276000008A884BC3ED008A874B83ED006A874B54
:1027700083ED004A864BC3ED006A864BC3ED004AE9
:10278000854BC3ED008A854BC3ED008A0123844A43
:102790001370514A1370514A136801331360032BAD
:1027A00002DD134600221A60BDEC028B10BD9FEDC6
:1027B0007D7A77EE877A4B4BC3ED007A4A4B83EDF7
:1027C000007A4F4BD3ED006AF1EE664A494BC3EDF8
:1027D000004A4D4B93ED005A484B83ED005A444B51
:1027E00093ED006AB1EE464A464B83ED004A424BF8
:1027F000D3ED005A454BC3ED005A0023444A136001
:10280000444A1360484A92ED007A444A82ED007AC5
:10281000474A1168434A11603F4AD2ED007A434A61
:10282000C2ED007A3E4A12684248026042480360A4
:1028300042480360424880ED004AB1EE654A414893
:1028400080ED004A4048C0ED004AF1EE454A3F485D
:10285000C0ED004A3E4803603E4803603E48C0ED7C
:10286000006A3E4880ED005A3D4880ED006A3D48D0
:10287000C0ED005A3C4803603C480460B1EE477A22
:102880003B4880ED007A3B480160F1EE677A3A49B7
:10289000C1ED007A39490A60394A1360394A146037
:1028A000394A82ED006A394A82ED004A384AC2ED5F
:1028B000006A384AC2ED004A374A1360374B1C6041
:1028C0000123374A1370044A137064E79004002010
:1028D0000000344348050020F4060020F0060020E4
:1028E00000000000EC060020E80600200000344351
:1028F0001C060020D80500204C060020D40500202E
:1029000034060020D005002064060020CC050020FD
:10291000C8050020C405002024060020C0050020B2
:1029200054060020BC0500200C060020B80500203D
:102930003C060020B4050020B0050020AC050020B6
:10294000A8050020A4050020A00500209C0500206B
:102950009805002094050020900500208C0500209B
:102960008805002084050020800500207C050020CB
:102970007805002074050020700500206C050020FB
:102980006805002064050020600500205C0500202B
:102990005805002054050020500500204C0500205B
:1029A000340000200000B442000000005FED028A05
:1029B00077EEA87A964BC3ED007A964B964A1A604A
:1029C000F6EE007A20EE278AB0EE480AFFF7ECFC1C
:1029D000B1EE480AFFF7E8FC904BD3ED006AF1EE48
:1029E000664A8F4BC3ED004A8E4B93ED005A8E4BD7
:1029F00083ED005A8D4B93ED006AB1EE464A8C4B45
:102A000083ED004A8B4BD3ED005A8B4BC3ED005A3C
:102A10008A4BC3ED008A8A4BC3ED008A894B93ED44
:102A2000007A894B83ED007A884B1A68884B1A60CC
:102A3000884BD3ED007A884BC3ED007A874B1B6837
:102A400087490B608749C1ED008A8749C1ED008A3B
:102A5000864981ED004AB1EE654A854981ED004A1B
:102A60008449C1ED004AF1EE454A8349C1ED004A6F
:102A70008249C1ED008A8249C1ED008A8149C1EDD8
:102A8000006A814981ED005A804981ED006A8049E0
:102A9000C1ED005A7F49C1ED008A7F490C60B1EE5B
:102AA000477A7E4981ED007A7D490A60F1EE677AC6
:102AB0007C4AC2ED007A7C4A13607C4BC3ED008AED
:102AC0007B4B1C607B4B83ED006A7B4B83ED004AA4
:102AD0007A4BC3ED006A7A4BC3ED004A794BC3EDE4
:102AE000008A794B1C600123784A1370784A13706E
:102AF00051E69FED787A77EE877A454BC3ED007A01
:102B0000444B83ED007A494BD3ED006AF1EE664AFF
:102B1000434BC3ED004A474B93ED005A424B83EDC4
:102B2000005A3E4B93ED006AB1EE464A404B83EDAE
:102B3000004A3C4BD3ED005A3F4BC3ED005A0023F3
:102B40003E4A13603E4A1460424A92ED007A3E4A81
:102B500082ED007A414A11683D4A1160394AD2ED4E
:102B6000007A3D4AC2ED007A384A12683C48026059
:102B70003C4803603C4804603C4880ED004AB1EEAC
:102B8000654A3B4880ED004A3A48C0ED004AF1EE04
:102B9000454A3948C0ED004A384803603848046067
:102BA0003848C0ED006A384880ED005A374880ED5B
:102BB000006A3748C0ED005A364803603648036063
:102BC000B1EE477A354880ED007A35480160F1EE84
:102BD000677A3449C1ED007A33490A60334A136099
:102BE000334A1360334A82ED006A334A82ED004A69
:102BF000324AC2ED006A324AC2ED004A314A1360DD
:102C0000314A13600123314A1370314A1370C2E50F
:102C1000EC060020E80600200000344334060020C3
:102C2000D805002064060020D40500201C060020E2
:102C3000D00500204C060020CC050020C80500204F
:102C4000C40500200C060020C00500203C06002022
:102C5000BC05002024060020B805002054060020F2
:102C6000B4050020B0050020AC050020A805002018
:102C7000A4050020A00500209C0500209805002048
:102C800094050020900500208C0500208805002078
:102C900084050020800500207C05002078050020A8
:102CA00074050020700500206C05002068050020D8
:102CB00064050020600500205C0500205805002008
:102CC00054050020500500204C0500203400002051
:102CD000F40600200000B44210B400202A4B186013
:102CE00000232A4A13602A4A13602A4A2A490A60A2
:102CF0002A492B4C21602B4C22602B4C21602B4C01
:102D00002360DFF818C12A4CC4F800C0294C2360A6
:102D1000294CC4F800C0294C2360294C2360294C5D
:102D20002260294C2260294C2260294C2260294CC7
:102D30002360294C2160294C2160294C2160294CB9
:102D40002160294C2360DFF8D8C0284CC4F800C0AB
:102D5000274C2360274CC4F800C0274C2360274C25
:102D60002360274C2160274C2260274C2160274993
:102D70000A60274A1360274B01221A70264B1870ED
:102D80005DF8044B704700BFF006002030000020C3
:102D9000E806002000005CC2D805002000005C426C
:102DA000D4050020D0050020CC050020C40500205B
:102DB000C0050020BC050020B8050020B405002097
:102DC000AC050020A8050020A4050020A0050020D7
:102DD0009C05002094050020900500208C05002013
:102DE00088050020840500207C050020780500204F
:102DF00074050020700500206C050020640500208B
:102E0000600500205C0500205805002054050020C6
:102E10004C05002034000020F406002000009642FB
:102E2000000096C20000000038B52DED068BF0EED4
:102E3000408AB0EE608AF0EE41AA80EEA80A19F04E
:102E400099F9DFED959A60EE297A17EE900AFDF771
:102E50006BFB8BA3D3E90023FDF7E8FC00228F4B2B
:102E6000FDF704FA41EC100B19F0DCFA51EC100BF1
:102E7000FDF774FE07EE900A894B18609FED897A82
:102E800077EEC77A9FED887A77EE877AB0EE007A90
:102E900077EEC77A854B93ED007A77EE877A17EE57
:102EA000900AFDF741FB78A3D3E90023FDF794FBDB
:102EB000FDF754FE0AEE100A7D4B18607D4B93ED32
:102EC000009AB8EEC99A39EE2A9A7B4B83ED009AA4
:102ED00068EEA88A28EE088A38EE880A19F028F9E0
:102EE000764B83ED000AF3EE067A30EE678A744B78
:102EF00083ED008A28EE080A69EE097A30EE270A87
:102F000019F016F9F0EE408A6E4B83ED000A89EE57
:102F1000080A19F02FF9B0EE408A6B4B83ED000AD6
:102F200028EEA89A9FED690A39EE000ADFED687A6B
:102F300030EE670ADFED677A68EEA78A80EE280A2E
:102F400019F0CAF8644B83ED000A38EE008A634B2F
:102F500083ED008A68EE297A17EE900AFDF7E4FA0D
:102F600047A3D3E90023FDF761FC41EC100B19F0F6
:102F700059FA51EC100B0022594BFDF777F9024634
:102F80000B4643A1D1E90001FDF76EF904460D4659
:102F9000544B1868FDF7C8FA02460B4620462946EE
:102FA000FDF764F938A3D3E90023FDF715FBFDF71E
:102FB000D5FD08EE900A4C4B1860DFED4C7A77EEA9
:102FC000C97A9FED4B0A87EE800A19F085F8494BC4
:102FD00083ED000A60EE297A17EE900AFDF7A4FA55
:102FE00027A3D3E90023FDF721FC00223C4BFDF78A
:102FF0003BF941EC100B19F015FA53EC102B0020A3
:103000003749FDF731F902460B4621A1D1E900010C
:10301000FDF72AF904460D46374B1868FDF784FA88
:1030200002460B4620462946FDF720F916A3D3E9B0
:103030000023FDF7D1FAFDF791FD08EE100A2F4BA2
:103040001860B0EE4A0A19F03DFA2D4CBDEEC00AE8
:1030500084ED000AB0EE680A19F034FABDEEC00A39
:1030600084ED010AB0EE480A19F02CFABDEEC00A50
:1030700084ED020ABDEC068B38BD00BFAFF30080C3
:10308000182D4454FB21094048E17A14AE470B4007
:103090000000000000C07240000034430080664021
:1030A000E40400200000074300004343C004002064
:1030B000F80400202C000020FC040020E004002084
:1030C000D8040020DC040020D404002000902F4508
:1030D000002099450000D442D0040020EC040020D8
:1030E0000080564098040020F404002000E8F045D9
:1030F00000E0E745E8040020A4040020F0040020DC
:10310000000500200000000038B52DED068BF0EE24
:10311000408AB0EE608AB0EE41AA80EEA80A19F0AB
:1031200029F89FED9D9A60EE097A17EE900AFDF757
:10313000FBF993A3D3E90023FDF778FB0022974B1B
:10314000FDF794F841EC100B19F06CF951EC100BF1
:10315000FDF704FD07EE900A914B186077EEC97AEF
:103160009FED907A77EE877AB0EE080A37EEC00AC4
:1031700019F0A8F98C4B83ED000AB4EEC90AF1EE00
:1031800010FA05DDDFED897A30EE670A83ED000A7B
:10319000854C2068FDF7C8F97BA3D3E90023FDF730
:1031A0001BFAFDF7DBFC09EE900A2060804B93EDE3
:1031B000009AB8EEC99A39EE0A9A7E4B83ED009ACE
:1031C00068EEA88A28EE088A38EE880A18F0B0FF60
:1031D000794B83ED000AF3EE067A30EE678A774B7F
:1031E00083ED008A28EE080A69EE097A30EE270A94
:1031F00018F09EFFF0EE408A714B83ED000A89EED5
:10320000080A18F0B7FFB0EE408A6E4B83ED000A53
:1032100028EEA89ADFED6C7A79EE277A9FED6B7A2B
:1032200077EEC77A9FED6A7A68EE878A87EEA80AFA
:1032300018F052FF674B83ED000A30EE080A664B28
:1032400083ED000A9FED548A60EE087A17EE900A2B
:10325000FDF76AF94AA3D3E90023FDF7E7FA41EC49
:10326000100B19F0DFF851EC100B00225B4BFCF750
:10327000FDFF02460B4646A1D1E90001FCF7F4FF31
:103280000022574BFCF7F2FF04460D46554B1868D9
:10329000FDF74AF902460B4620462946FCF7E6FFB1
:1032A00039A3D3E90023FDF797F9FDF757FC08EEA2
:1032B000900A4D4B1860DFED4D7A77EEC97A9FED9D
:1032C0004C0A87EE800A18F007FF4A4B83ED000A8C
:1032D00060EE087A17EE900AFDF726F928A3D3E9E5
:1032E0000023FDF7A3FA00223C4BFCF7BDFF41ECA5
:1032F000100B19F097F853EC102B00203749FCF70E
:10330000B3FF02460B4622A1D1E90001FCF7ACFF56
:1033100004460D46384B1868FDF706F902460B4681
:1033200020462946FCF7A2FF0022344BFCF79EFF03
:1033300015A3D3E90023FDF74FF9FDF70FFC08EEC5
:10334000100A2F4B1860B0EE690A19F0BBF82D4C2B
:10335000BDEEC00A84ED030AB0EE680A19F0B2F8B7
:10336000BDEEC00A84ED040AB0EE480A19F0AAF8CE
:10337000BDEEC00A84ED050ABDEC068B38BD00BF6A
:10338000182D4454FB21094048E17A14AE470B4004
:103390000000000000C0724000003443008066401E
:1033A000E404002000001643F80400200000B443A9
:1033B00028000020FC040020E0040020D8040020A5
:1033C000DC040020D404002000902F450020994503
:1033D0000000D442D0040020EC04002000805640BD
:1033E00000001040B8040020F404002000E8F0457C
:1033F00000E0E745E8040020B40400200000084095
:10340000F00400200005002038B52DED068BF0EE0D
:10341000408AB0EE608AF0EE41AA80EEA80A18F069
:10342000A9FEDFED959A60EE297A17EE900AFDF776
:103430007BF88BA3D3E90023FDF7F8F900228F4B2B
:10344000FCF714FF41EC100B18F0ECFF51EC100BE3
:10345000FDF784FB07EE900A894B18609FED897A8F
:1034600077EEC77A9FED887A77EE877A874B93ED70
:10347000017A77EE877A17EE900AFDF755F87AA36E
:10348000D3E90023FDF7A8F8FDF768FB0AEE100A60
:103490007F4B18607F4B93ED009AB8EEC99A39EED6
:1034A0002A9A7D4B83ED009A68EEA88A28EE088A56
:1034B00038EE880A18F03CFE784B83ED000AF3EEF4
:1034C000067A30EE678A764B83ED008A28EE080A8A
:1034D00069EE097A30EE270A18F02AFEF0EE408AEB
:1034E000704B83ED000A89EE080A18F043FEB0EE37
:1034F000408A6D4B83ED000A28EEA89A9FED6B0A77
:1035000039EE000ADFED6A7A30EE670ADFED697A9C
:1035100068EEA78A80EE280A18F0DEFD664B83ED80
:10352000000A38EE008A654B83ED008A68EE297A3E
:1035300017EE900AFCF7F8FF49A3D3E90023FDF743
:1035400075F941EC100B18F06DFF51EC100B0022D7
:103550005B4BFCF78BFE02460B4645A1D1E900010F
:10356000FCF782FE04460D46564B1868FCF7DCFF5C
:1035700002460B4620462946FCF778FE3AA3D3E9DB
:103580000023FDF729F8FDF7E9FA08EE900A4E4B03
:103590001860DFED4E7A77EEC97A9FED4D0A87EE1F
:1035A000800A18F099FD4B4B83ED000A60EE297AF2
:1035B00017EE900AFCF7B8FF29A3D3E90023FDF723
:1035C00035F900223E4BFCF74FFE41EC100B18F092
:1035D00029FF53EC102B00203949FCF745FE024629
:1035E0000B4623A1D1E90001FCF73EFE00223A4B35
:1035F000FCF73AFE04460D46384B1868FCF794FF7A
:1036000002460B4620462946FCF730FE16A3D3E9B6
:103610000023FCF7E1FFFDF7A1FA08EE100A304B9A
:103620001860B0EE4A0A18F04DFF2E4CBDEEC00AED
:1036300084ED060AB0EE680A18F044FFBDEEC00A39
:1036400084ED070AB0EE480A18F03CFFBDEEC00A50
:1036500084ED080ABDEC068B38BD00BFAFF30080D7
:10366000182D4454FB21094048E17A14AE470B4021
:103670000000000000C0724000003443008066403B
:10368000E4040020000061430000D242C004002096
:10369000F804002024000020FC040020E0040020A6
:1036A000D8040020DC040020D404002000902F4522
:1036B000002099450000D442D0040020EC040020F2
:1036C00000805640A8040020F404002000E8F045E3
:1036D00000E0E745E804002000000840A4040020C2
:1036E000F00400200005002038B52DED068BF0EE2B
:1036F000408AB0EE608AF0EE41AA80EEA80A18F087
:1037000039FDDFED8D9A60EE297A17EE900AFCF70D
:103710000BFF85A3D3E90023FDF788F80022874B30
:10372000FCF7A4FD41EC100B18F07CFE51EC100BE3
:10373000FDF714FA07EE900A814B18609FED817A2D
:1037400077EEC77A9FED807A77EE877A7F4B93ED9D
:10375000027A77EE877A17EE900AFCF7E5FE74A3FB
:10376000D3E90023FCF738FFFDF7F8F90AEE100A59
:10377000774B1860774B93ED009AB8EEC99A39EE03
:103780002A9A754B83ED009A68EEA88A28EE088A7B
:1037900038EE880A18F0CCFC704B83ED000AF3EE8B
:1037A000067A30EE678A6E4B83ED008A28EE080AAF
:1037B00069EE097A30EE270A18F0BAFCF0EE408A7A
:1037C000684B83ED000A89EE080A18F0D3FCB0EECE
:1037D000408A654B83ED000A28EEA89A9FED630AA4
:1037E00039EE000ADFED627A30EE670ADFED617ACA
:1037F00068EEA78A80EE280A18F06EFC5E4B83ED17
:10380000000A38EE008A5D4B83ED008A68EE297A63
:1038100017EE900AFCF788FE43A3D3E90023FDF7D7
:1038200005F841EC100B18F0FDFD51EC100B0022D7
:10383000534BFCF71BFD04460D46524B1868FCF732
:1038400073FE02460B4620462946FCF70FFD002278
:103850004D4BFCF70BFD36A3D3E90023FCF7BCFE70
:10386000FDF77CF908EE900A484B1860DFED487AC6
:1038700077EEC97A9FED470A87EE800A18F02CFC94
:10388000454B83ED000A60EE297A17EE900AFCF7AB
:103890004BFE25A3D3E90023FCF7C8FF0022384BD9
:1038A000FCF7E2FC41EC100B18F0BCFD53EC102BC4
:1038B00000203349FCF7D8FC0022384BFCF7D6FC3B
:1038C00004460D46364B1868FCF72EFE02460B46A2
:1038D00020462946FCF7CAFC15A3D3E90023FCF7D0
:1038E0007BFEFDF73BF908EE100A2E4B1860B0EE98
:1038F0004A0A18F0E7FD2C4CBDEEC00A84ED090A17
:10390000B0EE680A18F0DEFDBDEEC00A84ED0A0ACA
:10391000B0EE480A18F0D6FDBDEEC00A84ED0B0AE1
:10392000BDEC068B38BD00BF182D4454FB21094067
:1039300048E17A14AE470B400000344300807640E3
:10394000E404002000809D4300004343C0040020A5
:10395000F804002018000020FC040020E0040020EF
:10396000D8040020DC040020D404002000902F455F
:10397000002099450000D442D0040020EC0400202F
:1039800000805640A004002000001840F4040020ED
:1039900000E8F04500E0E745E8040020000034407E
:1039A0009C040020F004002000050020000000001E
:1039B00038B52DED048BF0EE408AB0EE608A924B64
:1039C00093ED009AB8EEC99A39EE019A8F4B83EDC8
:1039D000009A80EEA80A18F0CDFBDFED8D9A60EE1C
:1039E000297A17EE900AFCF79FFD83A3D3E9002301
:1039F000FCF71CFF41EC100B18F014FD51EC100B00
:103A0000FDF7ACF800EE100A824B1860DFED827A09
:103A100030EE270ADFED817A30EE270A18F052FDEA
:103A20007F4B83ED000AB4EEE90AF1EE10FA05DDF2
:103A3000DFED7C7A30EE670A83ED000A784C20686F
:103A4000FCF772FD6EA3D3E90023FCF7C5FDFDF77B
:103A500085F809EE900A206068EEA88A28EE088AA8
:103A600038EE880A18F064FB6F4B83ED000AF3EE22
:103A7000067A30EE678A6D4B83ED008A28EE080ADD
:103A800069EE097A30EE270A18F052FBF0EE408A10
:103A9000674B83ED000A89EE080A18F06BFBB0EE65
:103AA000408A644B83ED000A28EEA89ADFED627A23
:103AB00079EE277A9FED617A77EEC77A9FED607A8B
:103AC00068EE878A87EEA80A18F006FB5D4B83ED47
:103AD000000A30EE080A5C4B83ED000A9FED4C8A29
:103AE00060EE087A17EE900AFCF71EFD42A3D3E9B8
:103AF0000023FCF79BFE41EC100B18F093FC51ECFB
:103B0000100B0022514BFCF7B1FB04460D46504B05
:103B10001868FCF709FD02460B4620462946FCF7CB
:103B2000A5FB37A3D3E90023FCF756FDFDF716F8F4
:103B300008EE900A474B1860DFED477A77EEC97AB6
:103B40009FED460A87EE800A18F0C6FA444B83EDD3
:103B5000000A60EE087A17EE900AFCF7E5FC26A34F
:103B6000D3E90023FCF762FE0022384BFCF77CFB14
:103B700041EC100B18F056FC53EC102B002033498D
:103B8000FCF772FB0022374BFCF770FB04460D4636
:103B9000354B1868FCF7C8FC02460B462046294600
:103BA000FCF764FB16A3D3E90023FCF715FDFCF733
:103BB000D5FF08EE100A2D4B1860B0EE690A18F018
:103BC00081FC2B4CBDEEC00A84ED0C0AB0EE680AF5
:103BD00018F078FCBDEEC00A84ED0D0AB0EE480A7C
:103BE00018F070FCBDEEC00A84ED0E0ABDEC048B2B
:103BF00038BD00BFAFF30080182D4454FB210940AD
:103C000048E17A14AE470B401C000020FC04002061
:103C100000003443E40400200000164300000000CC
:103C2000F80400200000B443E0040020D804002081
:103C3000DC040020D404002000902F45002099458A
:103C40000000D442D0040020EC0400200080564044
:103C5000B0040020F404002000E8F04500E0E7454F
:103C6000E804002000000840AC040020F00400201C
:103C7000000500200000000038B52DED068BF0EEA9
:103C8000408AB0EE608AF0EE41AA80EEA80A18F0F1
:103C900071FADFED8D9A60EE297A17EE900AFCF743
:103CA00043FC85A3D3E90023FCF7C0FD41EC100BD6
:103CB00018F0B8FB51EC100BFCF750FF07EE900A20
:103CC000824B18609FED827A77EEC77A9FED817AFA
:103CD00077EE877AB1EE047A77EEC77A7E4B93ED72
:103CE000037A77EE877A17EE900AFCF71DFC74A32F
:103CF000D3E90023FCF770FCFCF730FF0AEE100A52
:103D0000764B1860764B93ED009AB8EEC99A39EE6F
:103D10002A9A744B83ED009A68EEA88A28EE088AE6
:103D200038EE880A18F004FA6F4B83ED000AF3EEC0
:103D3000067A30EE678A6D4B83ED008A28EE080A1A
:103D400069EE097A30EE270A18F0F2F9F0EE408AAF
:103D5000674B83ED000A89EE080A18F00BFAB0EE03
:103D6000408A644B83ED000A28EEA89A9FED620A10
:103D700039EE000ADFED617A30EE670ADFED607A36
:103D800068EEA78A80EE280A18F0A6F95D4B83ED4D
:103D9000000A38EE008A5C4B83ED008A68EE297ACF
:103DA00017EE900AFCF7C0FB43A3D3E90023FCF70E
:103DB0003DFD41EC100B18F035FB51EC100B0022CF
:103DC000524BFCF753FA04460D46514B1868FCF76A
:103DD000ABFB02460B4620462946FCF747FA002279
:103DE0004FF08043FCF742FA35A3D3E90023FCF7F8
:103DF000F3FBFCF7B3FE08EE900A464B1860DFEDCC
:103E0000467A77EEC97A9FED450A87EE800A18F068
:103E100063F9434B83ED000A60EE297A17EE900AAE
:103E2000FCF782FB24A3D3E90023FCF7FFFC00226C
:103E3000364BFCF719FA41EC100B18F0F3FA53EC7F
:103E4000102B00203149FCF70FFA0022354BFCF70C
:103E50000DFA04460D46344B1868FCF765FB024624
:103E60000B4620462946FCF701FA15A3D3E90023A7
:103E7000FCF7B2FBFCF772FE08EE100A2B4B186041
:103E8000B0EE4A0A18F01EFB294CBDEEC00A84EDC4
:103E90000F0AB0EE680A18F015FBBDEEC00A84EDFB
:103EA000100AB0EE480A18F00DFBBDEEC00A84ED12
:103EB000110ABDEC068B38BD182D4454FB21094076
:103EC00048E17A14AE470B4000003443E40400207C
:103ED000000034420000D242C0040020F804002058
:103EE00020000020FC040020E0040020D804002072
:103EF000DC040020D404002000902F4500209945C8
:103F00000000D442D0040020EC0400200080564081
:103F1000BC040020F404002000E8F04500E0E74580
:103F2000E8040020000008409C040020F004002069
:103F30000005002000B595B01348FDF7C0F8E8B1C2
:103F4000114BB3F96430CBB10F4AB2F96230009330
:103F5000B2F910201392934213DB13AA106802B235
:103F600009490A82934209D0013008826846FDF768
:103F700002F84C226946054817F083FE15B05DF83B
:103F800004FB6A46EAE700BF4C0800200008002056
:103F900010B50446012116F09BFD0021204616F0C5
:103FA00015FE02200FF0C0FA0121204616F00EFE89
:103FB00003200FF0B9FA0021204616F007FE002179
:103FC000204616F085FD084A0121204616F052FED3
:103FD000064B1860064B83FB00230344C017C0EB5D
:103FE0006310044B186010BD40420F000C07002006
:103FF00009CB3D8D1007002038B52DED028B0C4606
:10400000FFF7C6FF284D28602046FFF7C1FF274B6A
:104010001860274B93ED007AF7EE008A78EEC78A96
:10402000244B93ED000A28EE800AD5ED007AF8EED5
:10403000E77A67EE877A30EE270A83ED000A1E4B97
:10404000D3ED007A68EEA78A07EE900AF8EEE77AD9
:1040500067EE877A78EEA78AC3ED008A18F032FA05
:10406000B0EE408AB0EE680A18F02CFA38EE408ABA
:10407000F0EE087A28EE278AFDEEC87A17EE903A1D
:104080000E4AC2ED007A192B02DD134619221A607E
:104090000A4B1B6813F1190F03DA084B6FF0180273
:1040A0001A60BDEC028B38BDFC0600200007002022
:1040B0000C000020540400205004002008070020B9
:1040C00008B500213E2016F081FD02200FF02CFAE9
:1040D00001213E2016F07AFD05200FF025FA00217F
:1040E0003E2016F073FD084A0121CC2016F0C2FDD7
:1040F000064A1060064B83FB00130344C017C0EB55
:104100006310106008BD00BF40420F00F806002099
:1041100009CB3D8D0000000008B52DED028B1E4B34
:10412000D3ED008A1D4B93ED008A28EE888A1C4B44
:1041300083ED008A1B4B1868FCF7F6F914A3D3E94A
:104140000023FCF7BBFC10B1164B174A1A60174B43
:10415000D3ED007A78EEE78A124B93ED007AC8EE41
:10416000877A134B93ED007A67EE877A114BC3ED94
:10417000007A38EE278AF2EE047A28EE278A0E4B70
:1041800083ED008ABDEC028B08BD00BFAFF3008059
:1041900095D626E80B2E113E8C040020140000203A
:1041A00088040020780400205F70893070040020AB
:1041B0006C040020840400208004002070B50C46AC
:1041C0001D461046FFF7E4FE354E30602846FFF7E7
:1041D000DFFE344B186033681B1A07EE903AF8EE96
:1041E000E77A314BC3ED007AFFF796FF07EE904A6E
:1041F000F8EEE77A2D4B93ED007AF4EEC77AF1EE04
:1042000010FA01D8C3ED007A644207EE904AF8EE46
:10421000E77A264B93ED007AF4EEC77AF1EE10FAC6
:1042200001DBC3ED007A214BD3ED007AF5EEC07AC5
:10423000F1EE10FA21DD1E4BC3ED007A1D4B00227A
:104240001A601D4C1D4D2B68236016F0B7FD07EE5C
:10425000900AF8EE677AC5ED007A94ED007A77EE71
:10426000C77ADFED176A87EEA67A164B83ED007AE0
:104270000D4B1A68144B1A6070BDF5EEC07AF1EE62
:1042800010FA05D400230B4A1360094A1360D8E7DB
:10429000084BC3ED007A064B00221A60D1E700BF3D
:1042A000FC060020000700208C0400208004002071
:1042B0006404002068040020740400207C040020B2
:1042C00000007A4478040020700400200023054A8E
:1042D0001360054A1360054A1360054A1360054AD6
:1042E0001360704788040020840400208C040020A0
:1042F00070040020800400200A4A00239360D360E9
:10430000094A1360094A1360094A1360094A136095
:10431000094A1360094A1360094A1360094A136085
:10432000704700BFC0040020A8040020A40400209F
:10433000A00400209C040020B8040020B404002045
:10434000B0040020AC04002070B5044615460846B1
:10435000FFF71EFE3A4E30602846FFF719FE394B34
:10436000186033681B1A07EE903AF8EEE77A364B7E
:10437000C3ED007AFFF7D0FE07EE904AF8EEE77A39
:10438000324B93ED007AF4EEC77AF1EE10FA01D8D1
:10439000C3ED007A644207EE904AF8EEE77A2B4BC1
:1043A00093ED007AF4EEC77AF1EE10FA01DBC3ED7B
:1043B000007A264BD3ED007AF5EEC07AF1EE10FAD2
:1043C00026DDF1EE677A224BC3ED007A214BC3ED77
:1043D000007A214B00221A60204C214D2B6823606B
:1043E00016F0ECFC07EE900AF8EE677AC5ED007A5D
:1043F00094ED007A77EEC77ADFED1A6A87EEA67A37
:10440000194B83ED007A104B1A68184B1A6070BD77
:10441000F5EEC07AF1EE10FA07D400230C4A1360CF
:104420000C4A13600C4A1360D6E70A4B00221A604C
:10443000094BC3ED007A064BC3ED007ACCE700BF11
:10444000FC060020000700208C04002080040020CF
:10445000600400206804002064040020740400202C
:104460007C04002000007A447804002070040020BE
:1044700070B5044615460846FFF78AFD3A4E30608F
:104480002846FFF785FD394B18603368C01A07EEE0
:10449000900AF8EEE77A364BC3ED007AFFF73CFE60
:1044A00007EE904AF8EEE77A324B93ED007AF4EE9D
:1044B000C77AF1EE10FA01D8C3ED007A644207EE34
:1044C000904AF8EEE77A2B4B93ED007AF4EEC77A38
:1044D000F1EE10FA01DBC3ED007A264BD3ED007A42
:1044E000F5EEC07AF1EE10FA24DD234B00221A60BB
:1044F000224BC3ED007A224BC3ED007A214C224DB2
:104500002B68236016F05AFC07EE900AF8EE677AE3
:10451000C5ED007A94ED007A77EEC77ADFED1B6A7D
:1045200087EEA67A1A4B83ED007A114B1A68194B65
:104530001A6070BDF5EEC07AF1EE10FA07D40023D0
:104540000F4A13600C4A13600C4A1360D6E7F1EE71
:10455000677A0B4BC3ED007A074BC3ED007A074B2C
:1045600000221A60CAE700BFFC06002000070020F6
:104570008C040020800400206804002064040020D3
:1045800060040020740400207C04002000007A44B1
:10459000780400207004002070B5044615460846D3
:1045A000FFF7F6FC3A4E30602846FFF7F1FC394B36
:1045B000186033681B1A07EE903AF8EEE77A364B2C
:1045C000C3ED007AFFF7A8FD07EE904AF8EEE77A10
:1045D000324B93ED007AF4EEC77AF1EE10FA01D87F
:1045E000C3ED007A644207EE904AF8EEE77A2B4B6F
:1045F00093ED007AF4EEC77AF1EE10FA01DBC3ED29
:10460000007A264BD3ED007AF5EEC07AF1EE10FA7F
:1046100026DDF1EE677A224BC3ED007A214B0022B2
:104620001A60214BC3ED007A204C214D2B6823608A
:1046300016F0C4FB07EE900AF8EE677AC5ED007A33
:1046400094ED007A77EEC77ADFED1A6A87EEA67AE4
:10465000194B83ED007A104B1A68184B1A6070BD25
:10466000F5EEC07AF1EE10FA07D400230C4A13607D
:104670000C4A13600C4A1360D6E70A4BC3ED007A6C
:10468000094B00221A60064BC3ED007ACCE700BF4D
:10469000FC060020000700208C040020800400207D
:1046A00060040020680400206404002074040020DA
:1046B0007C04002000007A4478040020700400206C
:1046C00070B5044615460846FFF762FC3A4E306066
:1046D0002846FFF75DFC394B186033681B1A07EE5C
:1046E000903AF8EEE77A364BC3ED007AFFF714FD07
:1046F00007EE904AF8EEE77A324B93ED007AF4EE4B
:10470000C77AF1EE10FA01D8C3ED007A644207EEE1
:10471000904AF8EEE77A2B4B93ED007AF4EEC77AE5
:10472000F1EE10FA01DBC3ED007A264BD3ED007AEF
:10473000F5EEC07AF1EE10FA24DD234B00221A6068
:10474000224BC3ED007A224BC3ED007A214C224D5F
:104750002B68236016F032FB07EE900AF8EE677ABA
:10476000C5ED007A94ED007A77EEC77ADFED1B6A2B
:1047700087EEA67A1A4B83ED007A114B1A68194B13
:104780001A6070BDF5EEC07AF1EE10FA07D400237E
:104790000F4A13600C4A13600C4A1360D6E7F1EE1F
:1047A000677A0B4BC3ED007A074BC3ED007A074BDA
:1047B00000221A60CAE700BFFC06002000070020A4
:1047C0008C04002080040020680400206404002081
:1047D00060040020740400207C04002000007A445F
:1047E00078040020700400209FED275A35EE406ABF
:1047F00076EE017A254BC3ED007A70EE055A75EE20
:10480000C17A234BC3ED007ADFED227A77EEC06ADE
:1048100036EEE07A204B83ED007A70EE277A37EEA1
:10482000A07A1E4B83ED007A9FED1D7A37EE407A19
:1048300077EE014A1B4BC3ED004A30EE450A30EEDD
:10484000415A194B83ED005A75EEA05A174BC3ED30
:10485000005A36EE606A164B83ED006A77EEC17A35
:10486000144BC3ED007A76EE816A134BC3ED006AF8
:1048700030EE200A114B83ED000A37EE607A104BC0
:1048800083ED007A704700BF00005C42680600209C
:104890005006002000000000540600203C060020C6
:1048A00000005CC25C060020440600206406002074
:1048B0004C0600205806002040060020600600201C
:1048C00048060020844B1B78002B40F0518210B525
:1048D0002DED028B10EE904AF0EE410AB42393FBCB
:1048E000F0F307EE903AF8EEE77A7C4BC3ED007AEE
:1048F0007B4B1B68032B73D8DFE813F004007E00AA
:104900005E01CD019FED778A77EE887A764BC3ED15
:10491000007A764B764A1A60B0EE611AFFF764FFB0
:10492000744B754A1360754A1168754A1160754A6F
:104930001360754A1168754A1160754A1460754AAA
:1049400075490A60754908687549086075490A60C3
:10495000754A1168754A1160754A1460754A13608A
:10496000754A1168754A1160754A1360754B1A686B
:10497000754B1A60754B1C60754B764A1360764A0E
:104980001168764A1160764A1360764A1168764A51
:104990001160764A82ED008A754A76490A60764946
:1049A00008687649086076490A60764A1168764A4E
:1049B0001160764A82ED008A754A1360754A116863
:1049C000754A1160754A1360754B1A68754B1A6009
:1049D000754B83ED008A0123744A13703E4A1370AD
:1049E0003F4A136801331360032B02DD1346002294
:1049F0001A60BDEC028B10BD9FED6D7A77EE877A61
:104A0000394BC3ED007A394B83ED007AB0EE611A71
:104A1000FFF7EAFE374B384A13603B4A1168384AC1
:104A20001160384A1360354A1168384A1160002213
:104A300037490A603749384801603B48D0F800C020
:104A40003748C0F800C03748016034490868374922
:104A5000086037490A6037490B603A4908683749A6
:104A6000086037490B60344B1968374B1960374B76
:104A70001A60374B374A13603A4A1168374A116057
:104A8000374A1360344A1168374A1160374A146054
:104A9000374A38490A603B4908683849086038494C
:104AA0000A60354A1168384A1160384A1460384A39
:104AB00013603B4A1168384A1160384A1360354B1D
:104AC0001A68384B1A60384B1C600123374A137040
:104AD000014A137084E700BFF40600204805002057
:104AE000F006002000000000EC060020E806002090
:104AF0000000344300005CC2D80500206806002096
:104B0000D4050020D005002050060020CC05002050
:104B1000C405002000009842C00500205406002073
:104B2000BC050020B80500203C060020B40500208C
:104B3000AC050020A80500205C060020A40500208C
:104B4000A0050020440600209C05002094050020BC
:104B500000005C4290050020640600208C050020C7
:104B6000880500204C060020840500207C050020DC
:104B7000000098C278050020580600207405002027
:104B800070050020400600206C0500206405002010
:104B900060050020600600205C050020580500200C
:104BA00048060020540500204C0500203400002059
:104BB0000000B442000000001FED028A77EE887A00
:104BC0006C4BC3ED007A6C4B6C4A1A60B0EE611A04
:104BD000FFF70AFE6A4B6B4A13606B4A11686B4A17
:104BE00011606B4A13606B4A11686B4A11606B4A23
:104BF00082ED008A6A4A6B490A606B4908686B4912
:104C000008606B490A606B4A11686B4A11606B4A15
:104C100082ED008A6A4A13606A4A11686A4A116022
:104C20006A4A13606A4B1A686A4B1A606A4B83EDD2
:104C3000008A6A4B6A4A13606A4A11686A4A1160BC
:104C40006A4A13606A4A11686A4A11606A4A1460C3
:104C50006A4A6B490A606B4908686B4908606B498E
:104C60000A606B4A11686B4A11606B4A14606B4AA8
:104C700013606B4A11686B4A11606B4A13606B4B8F
:104C80001A686B4B1A606B4B1C6001236A4A1370E5
:104C90006A4A1370A4E69FED6A7A77EE877A354BFD
:104CA000C3ED007A344B83ED007AB0EE611AFFF762
:104CB0009BFD334B334A1360364A1168334A116007
:104CC000334A1360304A1168334A1160334A146022
:104CD000334A34490A60374908683449086034491E
:104CE0000A60314A1168344A1160344A1460344A07
:104CF0001360374A1168344A1160344A1360314BEB
:104D00001A68344B1A60344B1C60344B344A1360BD
:104D1000374A1168344A1160344A1360314A1168C5
:104D2000344A1160002234490A6034493448016031
:104D300037480468344804603448016031490868E1
:104D40003449086034490A6034490B6037490868BF
:104D50003449086034490B60314B1968344B196091
:104D6000344B1A600123344A1370344A137037E607
:104D7000704700BFEC060020E80600200000344326
:104D800000005CC2D805002050060020D405002099
:104D9000D005002068060020CC050020C4050020B6
:104DA00000009842C00500203C060020BC05002001
:104DB000B805002054060020B4050020AC050020F2
:104DC000A805002044060020A4050020A00500201E
:104DD0005C0600209C0500209405002000005C4239
:104DE000900500204C0600208C050020880500203E
:104DF00064060020840500207C050020000098C285
:104E00007805002040060020740500207005002071
:104E1000580600206C050020640500206005002075
:104E2000480600205C050020580500206006002090
:104E3000540500204C05002034000020F40600201A
:104E40000000B442DFED2A6A76EEC06A76EE817A1F
:104E5000284BC3ED007ADFED287A30EE676A36EE34
:104E6000417A264B83ED007A9FED257A77EE405A02
:104E700075EEA15A234BC3ED005A70EE075A75EE3A
:104E8000E15A214BC3ED005A76EEA06A1F4BC3EDE9
:104E9000006A36EE606A1E4B83ED006A70EE276A88
:104EA00036EEC16A1B4B83ED006A77EEC07A37EEAF
:104EB000811A194B83ED001A30EE477A37EE617A8A
:104EC000164B83ED007A9FED167A37EE407A37EE77
:104ED000217A144B83ED007A76EEE06A124BC3ED33
:104EE000006A77EEA07A114BC3ED007A704700BFDD
:104EF00000005CC23806002000005C422006002052
:104F000000009842240600200C0600202C060020F9
:104F100014060020340600201C060020280600206D
:104F2000000098C21006002030060020180600205D
:104F3000904B1B78002B40F0638210B52DED028B57
:104F400010EE904AF0EE410AB0EE611AF3EE047AE8
:104F5000B4EEE70AF1EE10FA01DDB0EE670AFBEEFF
:104F6000047AB4EEE70AF1EE10FA01D5B0EE670A62
:104F7000F6EE007A62EE271AB42393FBF0F307EE05
:104F8000903AF8EEE77A7C4BC3ED007A7B4B1B68D6
:104F9000032B73D8DFE813F004007E005A01C90127
:104FA0009FED778A77EE887A764BC3ED007A764B61
:104FB000764A1A60FFF746FF754B1A68754B1A6000
:104FC000754A764B1A60764B1968764B1960764BAA
:104FD0001A60764B1C60764B1968764B1960764BDD
:104FE00083ED008A754B1968754B1960754B83ED1D
:104FF000008A754B1C60754B1968754B1960754BB1
:1050000075490B60754908687549086075490B60FA
:1050100075490C60754908687549086075490A60EA
:10502000754908687549086075490A60754A82EDD6
:10503000008A754A1168754A1160754A82ED008AC6
:10504000744A1168744A1160744A82ED008A744A85
:1050500082ED008A734A1168734A1160734A1360C3
:10506000734A1168734A1160734A1360734B83ED7E
:10507000008A0123724A13703E4A13703F4A136834
:1050800001331360032B02DD134600221A60BDECCE
:10509000028B10BD9FED6B7A77EE877A394BC3EDAB
:1050A000007A394B83ED007AFFF7CCFE3C4B1A684F
:1050B000384B1A603849394B1960354B1A68394BEF
:1050C0001A60394B19600023384A13603B4A106854
:1050D000384A1060384A1360354A1068384A106000
:1050E000384A1360384A13603C4A1068384A1060E6
:1050F000384A394802603548D0F800C03848C0F80E
:1051000000C038480260384803603B48D0F800C00F
:105110003748C0F800C0374801603448D0F800C0B4
:105120003648C0F800C03648016036490C6039493D
:1051300008683649086036490B60334908683649C3
:10514000086036490B60364B1C60394B1968364B8A
:105150001960364B1A60334B1968364B1960364B61
:105160001A60364B1C600123354A1370014A1370D4
:1051700084E700BFF406002048050020F006002068
:1051800000000000EC060020E80600200000344388
:1051900038060020D805002000005C42D40500201D
:1051A00020060020D0050020CC050020C4050020EA
:1051B00024060020C0050020BC0500200C060020AD
:1051C000B8050020B4050020AC0500202C06002006
:1051D000A805002000005CC2A405002014060020E1
:1051E000A00500209C050020940500203406002026
:1051F000900500208C0500201C060020880500205A
:10520000840500207C050020280600207805002069
:105210007405002010060020700500206C05002099
:105220006405002030060020600500205C05002099
:105230001806002058050020540500204C050020C9
:10524000340000200000B442000000001FED028A7C
:1052500077EE887A6B4BC3ED007A6B4B6B4A1A6022
:10526000FFF7F0FD6A4B1A686A4B1A606A4A6B4B8B
:105270001A606B4B19686B4B19606B4B1A606B4B68
:1052800083ED008A6A4B19686A4B19606A4B83ED9B
:10529000008A6A4B19686A4B19606A4B83ED008A71
:1052A000694B83ED008A694B1968694B1960694B3A
:1052B00069490B60694908686949086069490B6078
:1052C000694981ED008A6949086869490860694946
:1052D0000A60694908686949086069490A60694A59
:1052E0001460694A1168694A1160694A82ED008A4E
:1052F000684A1168684A1160684A82ED008A684A03
:105300001460684A1168684A1160684A1360684A04
:105310001168684A1160684A1360684B1C60012379
:10532000674A1370674A1370A8E69FED677A77EEB5
:10533000877A344BC3ED007A334B83ED007AFFF765
:1053400081FD374B1A68334B1A603349334B196070
:105350002F4B1A68334B1A60334B1960334B1C6068
:10536000364B1A68334B1A600023334A1360304AB5
:105370001068334A1060334A1360334A1460374A66
:105380001068334A1060334A334802602F48D0F81F
:1053900000C03348C0F800C03248026032480460A0
:1053A0003548046832480460324801602F48046878
:1053B000324804603248016032490B603549086860
:1053C0003249086032490B602F4908683249086049
:1053D00032490B6032490B60354908683249086030
:1053E00032490A602F4908683249086032490A6028
:1053F000324A13600123324A1370324A13703DE679
:10540000704700BFEC060020E8060020000034438F
:1054100020060020D805002000005C42D4050020B2
:1054200038060020D0050020CC050020C40500204F
:105430000C060020C0050020BC050020240600202A
:10544000B8050020B4050020AC050020140600209B
:10545000A805002000005CC2A40500202C06002046
:10546000A00500209C050020940500201C060020BB
:10547000900500208C0500203406002088050020BF
:10548000840500207C0500201006002078050020FF
:105490007405002028060020700500206C050020FF
:1054A0006405002018060020600500205C0500202F
:1054B0003006002058050020540500204C0500202F
:1054C00034000020F40600200000B4429FED2A7A48
:1054D00037EE607A77EE227A284BC3ED007ADFED63
:1054E000287A30EE676A76EE626A264BC3ED006A70
:1054F000DFED255A70EEE50A70EEC30A234BC3EDCB
:10550000000ADFED236A36EEC00A30EE030A214BB3
:1055100083ED000A37EE027A1F4B83ED007A36EEF8
:10552000426A1E4B83ED006A31EEA77A77EE626A1B
:105530001B4BC3ED006A77EEC17A77EEA22A194BB6
:10554000C3ED002A75EEE11A71EE831A164BC3ED16
:10555000001A31EE251A31EE433A144B83ED003A2E
:1055600037EE427A124B83ED007A77EE827A114B56
:10557000C3ED007A704700BF00005CC2380600200F
:1055800000005C422006002000009842280600200F
:10559000000098C2100600202C06002014060020EF
:1055A000340600201C060020240600200C060020E3
:1055B0003006002018060020874B1B78002B40F097
:1055C000518210B52DED028B12EE104AB0EE622A18
:1055D000F0EE432AF6EE007A23EEA73AB42393FBCB
:1055E000F0F307EE903AF8EEE77A7C4BC3ED007AE1
:1055F0007B4B1B68032B73D8DFE813F004007E009D
:105600005A01C9019FED778A77EE887A764BC3ED10
:10561000007A764B764A1A60FFF758FF754B1A6886
:10562000754B1A60754A764B1A60764B1968764B43
:105630001960764B1A60764B1C60764B1968764B76
:105640001960764B83ED008A754B1968754B1960AC
:10565000754B83ED008A754B1C60754B1968754B53
:105660001960754B75490B60754908687549086084
:1056700075490B6075490C60754908687549086083
:1056800075490A60754908687549086075490A6076
:10569000754A82ED008A754A1168754A1160754A2B
:1056A00082ED008A744A1168744A1160744A82ED6E
:1056B000008A744A82ED008A734A1168734A116045
:1056C000734A1360734A1168734A1160734A136016
:1056D000734B83ED008A0123724A13703E4A1370A4
:1056E0003F4A136801331360032B02DD1346002287
:1056F0001A60BDEC028B10BD9FED6B7A77EE877A56
:10570000394BC3ED007A394B83ED007AFFF7DEFEAB
:105710003C4B1A68384B1A603849394B1960354B85
:105720001A68394B1A60394B19600023384A1360E4
:105730003B4A1068384A1060384A1360354A10688E
:10574000384A1060384A1360384A13603C4A10687F
:10575000384A1060384A394802603548D0F800C0ED
:105760003848C0F800C038480260384803603B48F9
:10577000D0F800C03748C0F800C03748016034484E
:10578000D0F800C03648C0F800C03648016036493D
:105790000C60394908683649086036490B6033495E
:1057A00008683649086036490B60364B1C60394B37
:1057B0001968364B1960364B1A60334B1968364BF3
:1057C0001960364B1A60364B1C600123354A137042
:1057D000014A137084E700BFF4060020480500204A
:1057E000F006002000000000EC060020E806002083
:1057F0000000344338060020D805002000005C4239
:10580000D405002020060020D0050020CC05002073
:10581000C405002024060020C0050020BC0500208F
:105820000C060020B8050020B4050020AC050020BF
:105830002C060020A805002000005CC2A405002062
:1058400014060020A00500209C05002094050020DF
:1058500034060020900500208C0500201C06002046
:1058600088050020840500207C05002028060020F3
:105870007805002074050020100600207005002027
:105880006C05002064050020300600206005002023
:105890005C05002018060020580500205405002053
:1058A0004C050020340000200000B442000000003D
:1058B0001FED028A77EE887A6B4BC3ED007A6B4B53
:1058C0006B4A1A60FFF702FE6A4B1A686A4B1A604D
:1058D0006A4A6B4B1A606B4B19686B4B19606B4BC8
:1058E0001A606B4B83ED008A6A4B19686A4B19602A
:1058F0006A4B83ED008A6A4B19686A4B19606A4BE0
:1059000083ED008A694B83ED008A694B1968694B06
:105910001960694B69490B60694908686949086001
:1059200069490B60694981ED008A694908686949DC
:10593000086069490A6069490868694908606949F5
:105940000A60694A1460694A1168694A1160694AC3
:1059500082ED008A684A1168684A1160684A82EDDF
:10596000008A684A1460684A1168684A1160684A87
:105970001360684A1168684A1160684A1360684B8E
:105980001C600123674A1370674A1370A8E69FEDF5
:10599000677A77EE877A344BC3ED007A334B83ED29
:1059A000007AFFF793FD374B1A68334B1A6033497F
:1059B000334B19602F4B1A68334B1A60334B196005
:1059C000334B1C60364B1A68334B1A600023334A42
:1059D0001360304A1068334A1060334A1360334A08
:1059E0001460374A1068334A1060334A3348026003
:1059F0002F48D0F800C03348C0F800C032480260D9
:105A00003248046035480468324804603248016016
:105A10002F480468324804603248016032490B6004
:105A2000354908683249086032490B602F490868D7
:105A30003249086032490B6032490B6035490868C9
:105A40003249086032490A602F49086832490860C3
:105A500032490A60324A13600123324A1370324AD3
:105A600013703DE6704700BFEC060020E8060020FA
:105A70000000344320060020D805002000005C42CE
:105A8000D405002038060020D0050020CC050020D9
:105A9000C40500200C060020C0050020BC05002025
:105AA00024060020B8050020B4050020AC05002025
:105AB00014060020A805002000005CC2A4050020F8
:105AC0002C060020A00500209C0500209405002045
:105AD0001C060020900500208C05002034060020C4
