:020000040800F2
:1000000000000220D92701082928010847B100086B
:10001000292801084FB1000857B10008000000006E
:10002000000000000000000000000000E1B2000835
:10003000292801080000000081B3000839080108E0
:100040002928010829280108292801082928010848
:1000500029280108292801086D0A0108770A0108E2
:10006000810A01088B0A0108950A0108292801085C
:100070002928010829280108292801082928010818
:100080002928010829280108292801082928010808
:100090002928010829280108292801089F0A0108A0
:1000A000D5000108F5FF0008E90001081500010866
:1000B000290001083D00010851000108A59200082F
:1000C000B5920008C5920008D592000829280108B9
:1000D00029280108311B0108491B0108611B01087F
:1000E000B50A01082928010829280108FD0001088E
:1000F000A100010811010108C10001082928010817
:100100002928010829280108650001082928010873
:10011000791B0108911B0108790001088D00010875
:100120002928010829280108292801082928010867
:100130002928010829280108292801082928010857
:100140002928010829280108292801082928010847
:10015000292801082928010829280108A91B0108C4
:10016000E5920008F59200082928010829280108CD
:100170002928010829280108292801080000000071
:080180002928010829280108C3
:1001900010F8012B11F8013B012A28BF9A42F7D031
:1001A000D01A7047000000000000000000000000AE
:1001B00001F0FF01102A2BDB10F0070F08D010F818
:1001C000013B013A8B422DD010F0070F42B3F6D11C
:1001D000F0B441EA012141EA014122F007047FF035
:1001E00000070023F0E80256083C85EA010586EA8C
:1001F000010685FA47F5A3FA87F586FA47F6A5FAC8
:1002000087F68EB9EED1F0BC01F0FF0102F00702D3
:1002100032B110F8013B013A83EA010313B1F8D17E
:100220000020704701387047002D06BF354603385F
:10023000073815F0010F07D1013015F4807F02BF98
:10024000013015F4C03F0130F0BC0138704700BFE9
:10025000034613F8012B002AFBD1181A0138704706
:1002600081F0004102E000BF83F0004330B54FEA67
:1002700041044FEA430594EA050F08BF90EA020FD4
:100280001FBF54EA000C55EA020C7FEA645C7FEA67
:10029000655C00F0E2804FEA5454D4EB5555B8BF8A
:1002A0006D420CDD2C4480EA020281EA030382EAFB
:1002B000000083EA010180EA020281EA0303362D8D
:1002C00088BF30BD11F0004F4FEA01314FF4801C60
:1002D0004CEA113102D0404261EB410113F0004F72
:1002E0004FEA03334CEA133302D0524263EB430329
:1002F00094EA050F00F0A780A4F10104D5F1200EC7
:100300000DDB02FA0EFC22FA05F2801841F1000121
:1003100003FA0EF2801843FA05F359410EE0A5F1F5
:1003200020050EF1200E012A03FA0EFC28BF4CF026
:10033000020C43FA05F3C01851EBE37101F00045DC
:1003400007D54FF0000EDCF1000C7EEB00006EEBE9
:100350000101B1F5801F1BD3B1F5001F0CD3490873
:100360005FEA30004FEA3C0C04F101044FEA4452CA
:1003700012F5800F80F09A80BCF1004F08BF5FEA51
:10038000500C50F1000041EB045141EA050130BD31
:100390005FEA4C0C404141EB0101013C28BFB1F543
:1003A000801FE9D291F0000F04BF01460020B1FA8E
:1003B00081F308BF2033A3F10B03B3F120020CDA61
:1003C0000C3208DD02F1140CC2F10C0201FA0CF03F
:1003D00021FA02F10CE002F11402D8BFC2F1200CA4
:1003E00001FA02F120FA0CFCDCBF41EA0C0190405A
:1003F000E41AA2BF01EB0451294330BD6FEA0404A3
:100400001F3C1CDA0C340EDC04F11404C4F120028D
:1004100020FA04F001FA02F340EA030021FA04F39F
:1004200045EA030130BDC4F10C04C4F1200220FAF6
:1004300002F001FA04F340EA0300294630BD21FA34
:1004400004F0294630BD94F0000F83F4801306BFFA
:1004500081F480110134013D4EE77FEA645C18BFEE
:100460007FEA655C29D094EA050F08BF90EA020F85
:1004700005D054EA000C04BF1946104630BD91EA7D
:10048000030F1EBF0021002030BD5FEA545C05D180
:100490004000494128BF41F0004130BD14F58004BF
:1004A0003CBF01F5801130BD01F0004545F0FE4133
:1004B00041F470014FF0000030BD7FEA645C1ABF68
:1004C000194610467FEA655C1CBF0B46024650EA9F
:1004D000013406BF52EA033591EA030F41F40021CB
:1004E00030BD00BF90F0000F04BF0021704730B551
:1004F0004FF4806404F132044FF000054FF0000126
:1005000050E700BF90F0000F04BF0021704730B5E6
:100510004FF4806404F1320410F0004548BF4042BB
:100520004FF000013EE700BF42004FEAE2014FEA10
:1005300031014FEA02701FBF12F07F4393F07F4FEB
:1005400081F06051704732F07F4208BF704793F0EE
:100550007F4F04BF41F40021704730B54FF4607401
:1005600001F0004521F000411CE700BF50EA010204
:1005700008BF704730B54FF000050AE050EA0102AD
:1005800008BF704730B511F0004502D5404261EB1D
:1005900041014FF4806404F132045FEA915C3FF45E
:1005A000D8AE4FF003025FEADC0C18BF03325FEAFB
:1005B000DC0C18BF033202EBDC02C2F1200300FAAC
:1005C00003FC20FA02F001FA03FE40EA0E0021FAD1
:1005D00002F11444BDE600BF70B54FF0FF0C4CF4BF
:1005E000E06C1CEA11541DBF1CEA135594EA0C0F71
:1005F00095EA0C0F00F0DEF82C4481EA030621EAAC
:100600004C5123EA4C5350EA013518BF52EA0335E6
:1006100041F4801143F4801338D0A0FB02CE4FF098
:100620000005E1FB02E506F00042E0FB03E54FF0C8
:100630000006E1FB03569CF0000F18BF4EF0010EC0
:10064000A4F1FF04B6F5007F64F5407404D25FEABC
:100650004E0E6D4146EB060642EAC62141EA55516F
:100660004FEAC52040EA5E504FEACE2EB4F1FD0CB1
:1006700088BFBCF5E06F1ED8BEF1004F08BF5FEA2F
:10068000500E50F1000041EB045170BD06F00046E1
:1006900046EA010140EA020081EA0301B4EB5C048E
:1006A000C2BFD4EB0C0541EA045170BD41F4801186
:1006B0004FF0000E013C00F3AB8014F1360FDEBFAB
:1006C000002001F0004170BDC4F10004203C35DA87
:1006D0000C341BDC04F11404C4F1200500FA05F30A
:1006E00020FA04F001FA05F240EA020001F00042AB
:1006F00021F0004110EBD37021FA04F642EB060121
:100700005EEA430E08BF20EAD37070BDC4F10C044A
:10071000C4F1200500FA04F320FA05F001FA04F20E
:1007200040EA020001F0004110EBD37041F10001FA
:100730005EEA430E08BF20EAD37070BDC4F1200505
:1007400000FA05F24EEA020E20FA04F301FA05F26D
:1007500043EA020321FA04F001F0004121FA04F215
:1007600020EA020000EBD3705EEA430E08BF20EAE5
:10077000D37070BD94F0000F0FD101F0004640001F
:1007800041EB010111F4801F08BF013CF7D041EAA1
:10079000060195F0000F18BF704703F000465200A5
:1007A00043EB030313F4801F08BF013DF7D043EA76
:1007B0000603704794EA0C0F0CEA135518BF95EA2C
:1007C0000C0F0CD050EA410618BF52EA4306D1D1B3
:1007D00081EA030101F000414FF0000070BD50EAD2
:1007E000410606BF1046194652EA430619D094EA5C
:1007F0000C0F02D150EA013613D195EA0C0F05D146
:1008000052EA03361CBF104619460AD181EA030199
:1008100001F0004141F0FE4141F470014FF0000051
:1008200070BD41F0FE4141F4780170BD70B54FF0EC
:10083000FF0C4CF4E06C1CEA11541DBF1CEA13556C
:1008400094EA0C0F95EA0C0F00F0A7F8A4EB05044E
:1008500081EA030E52EA03354FEA013100F0888045
:100860004FEA03334FF0805545EA131343EA12630E
:100870004FEA022245EA111545EA10654FEA0026C3
:100880000EF000419D4208BF964244F1FD0404F57C
:10089000407402D25B084FEA3202B61A65EB0305D8
:1008A0005B084FEA32024FF480104FF4002CB6EB95
:1008B000020E75EB030E22BFB61A754640EA0C0015
:1008C0005B084FEA3202B6EB020E75EB030E22BF55
:1008D000B61A754640EA5C005B084FEA3202B6EB96
:1008E000020E75EB030E22BFB61A754640EA9C0055
:1008F0005B084FEA3202B6EB020E75EB030E22BF25
:10090000B61A754640EADC0055EA060E18D04FEAE2
:10091000051545EA16754FEA06164FEAC30343EA82
:1009200052734FEAC2025FEA1C1CC0D111F4801F4F
:100930000BD141EA00014FF000004FF0004CB6E748
:1009400011F4801F04BF01430020B4F1FD0C88BFE7
:10095000BCF5E06F3FF6AFAEB5EB030C04BFB6EBF2
:10096000020C5FEA500C50F1000041EB045170BDE5
:100970000EF0004E4EEA113114EB5C04C2BFD4EB12
:100980000C0541EA045170BD41F480114FF0000E96
:10099000013C90E645EA060E8DE60CEA135594EA12
:1009A0000C0F08BF95EA0C0F3FF43BAF94EA0C0F15
:1009B0000AD150EA01347FF434AF95EA0C0F7FF48A
:1009C00025AF104619462CE795EA0C0F06D152EADE
:1009D00003353FF4FDAE1046194622E750EA4106C2
:1009E00018BF52EA43067FF4C5AE50EA41047FF4D3
:1009F0000DAF52EA43057FF4EBAE12E74FF0FF3C38
:100A000006E000BF4FF0010C02E000BF4FF0010C08
:100A10004DF804CD4FEA410C7FEA6C5C4FEA430C81
:100A200018BF7FEA6C5C1BD001B050EA410C0CBFD0
:100A300052EA430C91EA030F02BF90EA020F002032
:100A4000704710F1000F91EA030F58BF994208BF99
:100A500090422CBFD8176FEAE37040F00100704756
:100A60004FEA410C7FEA6C5C02D150EA013C07D1AD
:100A70004FEA430C7FEA6C5CD6D152EA033CD3D0F8
:100A80005DF8040B704700BF8446104662468C46F2
:100A90001946634600E000BF01B5FFF7B7FF002825
:100AA00048BF10F1000F01BD4DF808EDFFF7F4FF4E
:100AB0000CBF012000205DF808FB00BF4DF808EDD9
:100AC000FFF7EAFF34BF012000205DF808FB00BFFC
:100AD0004DF808EDFFF7E0FF94BF012000205DF81E
:100AE00008FB00BF4DF808EDFFF7CEFF94BF0120D3
:100AF00000205DF808FB00BF4DF808EDFFF7C4FFCC
:100B000034BF012000205DF808FB00BF4FEA410C14
:100B10007FEA6C5C02D150EA013C0AD14FEA430CF7
:100B20007FEA6C5C02D152EA033C02D14FF0000034
:100B300070474FF0010070474FEA410212F5001272
:100B400015D211D56FF47873B3EB625212D94FEA14
:100B5000C12343F0004343EA505311F0004F23FAFE
:100B600002F018BF404270474FF00000704750EA53
:100B7000013005D111F0004008BF6FF00040704710
:100B80004FF00000704700BF4FEA4102B2F1E0436E
:100B900024BFB3F5001CDCF1FE5C0DD901F0004C64
:100BA0004FEAC0024CEA5070B2F1004F40EB8300B4
:100BB00008BF20F00100704711F0804F21D113F1E0
:100BC0003872BCBF01F00040704741F480114FEA19
:100BD0005252C2F11802C2F1200C10FA0CF320FAA2
:100BE00002F018BF40F001004FEAC1234FEAD323BF
:100BF00003FA0CFC40EA0C0023FA02F34FEA430329
:100C0000CCE77FEA625307D150EA01331EBF4FF0B1
:100C1000FE4040F44000704701F0004040F0FE40CC
:100C200040F40000704700BF53B94AB9002908BF1B
:100C300000281CBF4FF0FF314FF0FF3000F00CB820
:100C4000ADF1080C6DE904CE16F0E0FADDF804E031
:100C5000DDE9022304B07047704700BF10B5054CB2
:100C6000237833B9044B13B10448AFF30080012358
:100C7000237010BD6001002000000000D074010846
:100C800008B5034B1BB103490348AFF3008008BD0F
:100C90000000000064010020D074010808B503685A
:100CA000984708BD00B583B00023019301A9094B03
:100CB000186809F020F8019B4BB14FF0E0234FF08A
:100CC0008052C3F8042DBFF34F8FBFF36F8F03B073
:100CD0005DF804FB48040020F0B585B004460D46DD
:100CE000012806D01CB94FF6FF739D4251D005B0C4
:100CF000F0BD4FF6FF739942F4D12B4F1822192102
:100D0000384607F08DFC294B0293294B01930026AE
:100D100000963B4620228021264806F0ADF9324657
:100D20002549264811F0F0F832462549254811F0AA
:100D3000EBF832462449254811F0E6F8244B6422AA
:100D40009A601E82C3F8AC601E605E60FF2283F86A
:100D5000B0204FF6FF72A3F8B220A3F8B420A3F896
:100D6000B620A3F8B820A3F8BA201A480AF0FAFD72
:100D700019480AF0F7FD19480AF0F4FD18480AF07E
:100D8000F1FD18480AF0EEFD174918480FF024FA53
:100D9000A8E716480FF0AAF8064806F09DF90248A1
:100DA00007F0CAFCA3E700BF100A0020A0860100DC
:100DB000801A0600A4090020004400408C0800208E
:100DC0000048004074070020001401405C06002029
:100DD00060050020100500200C05002008050020FB
:100DE0000405002000050020001000404C040020F5
:100DF00010B50446836813B1032201469847204684
:100E000010BD70B504460E461546006860B132212B
:100E100007F0E0FC206803685B682A463146984783
:100E2000206807F001FE70BD60680028FBD00368F1
:100E30005B689847F7E710B504460068E0B10368BF
:100E40001B69984778B1206803681B69984780B18F
:100E5000206803685B699847C0B20AF0BFFB03468D
:100E60000028F0D006E010223221206807F0D5FDDE
:100E7000E9E70023184610BD6368002BFAD06068CC
:100E800003681B69984750B1606803685B699847BD
:100E9000C0B20AF0A3FB03460028F0D0EAE7002323
:100EA000E8E738B504460D4611F04EFEE06011F05B
:100EB0004BFEE368C01AA36898420DD82046FFF79E
:100EC000BAFF03460028F2D03DB128460AF0C8FB1D
:100ED00003460028EBD000E00023184638BD10B5CB
:100EE00004461346B1F962209A4208DDD1F8AC10ED
:100EF0004C2202FB031112F01AFD204610BD4C22B9
:100F0000B03112F014FDF8E738B5044610460A7007
:100F10000AF0F6FB05460AF01FFC02462946204669
:100F2000FFF76FFF38BD30B595B005460024042C9F
:100F30000CDC2C2201A92846FFF7E6FF2E212846CB
:100F4000FFF7AFFF034610B90134F0E7002318465E
:100F500015B030BD70B50C46154610460AF080FB42
:100F6000064608B9304670BD25700AF091FB6080D6
:100F70000AF08EFBA0800AF08BFBE0800AF088FB71
:100F800020810AF085FB60810AF0A2FBEAE7F0B558
:100F900083B00446002303822921FFF782FF07461E
:100FA00010B9384603B0F0BD292204F16001204693
:100FB000FFF7D0FFD4F8AC00B4F9623000930122FF
:100FC0000192002B0ADD6B461B684C2103FB01F1EB
:100FD00011F096FEC4F8AC00002602E001ABF3E786
:100FE0000136B4F96230B342DBDD00212046FFF761
:100FF00058FFB0B1D4F8AC104C2506FB05F52A22F9
:1010000029442046FFF7A6FF0028E9D1D4F8AC1008
:101010002B2229442046FFF79DFF0028E0D10746F8
:10102000BFE70746BDE710B594B00446202201A9EA
:10103000FFF76AFF2046FFF7AAFF14B010BD70B596
:1010400005460C4610460A700AF05AFB0646B4F9EB
:1010500002000AF06BFB0AF07FFB0246314628468D
:10106000FFF7CFFE70BD10B594B00446ADF8061082
:101070002D2201A9FFF7E3FF2E212046FFF711FFE4
:1010800014B010BD704700007C4B1B78002B40F063
:10109000F38010B57A4B01221A70B42393FBF0F35E
:1010A00007EE903AF8EEE77A764BC3ED007A764B8E
:1010B000C3ED007A754B1B6863B1934279D001335D
:1010C000724A1360022B04DD00236D4A13706F4ACD
:1010D000136010BD00226E490A606E490A606E49B5
:1010E0006E4808606E496F480160DFED6F7A6F48A7
:1010F000C0ED007A6E4801606E4802606E48026082
:101100006E486F4C20609FED6F7A6F4C84ED007AD3
:101110006E4C20606E4801606E4802606E4801604F
:10112000DFF838E26D48C0F800E06D480160DFF894
:1011300028C26C48C0F800C06B4802606B486C4C19
:1011400020606C4CC4ED007A6B4C20606B4C2260CC
:101150006B4C2260DFED6B7A6B4CC4ED007A6B4C0C
:1011600084ED007A6A4CC4ED007A6A4C21606A49C9
:101170000A606A4908606A49C1F800E06949086084
:101180006949C1F800C069490A60694A69490A6049
:1011900069490A60694A6A490A606A490A60012223
:1011A00069490A7069490A7069490A7033490A70C5
:1011B00085E7684A33490A6033490A603849394A41
:1011C00011600022394802603948016039480260E4
:1011D0003948026039483A4C20603B4C21603B4C16
:1011E00020603B4801603B4802603B4801605A4830
:1011F0003A4C20603A4C21603A4C20603A4C2260D4
:10120000DFF8E8C03A4CC4F800C03A4C22603A4CCF
:10121000C4F800C0394C2260394C2260DFF840E14C
:10122000394CC4F800E0394C2160394CC4F800E076
:10123000384C216038490A603849C1F800C0384943
:1012400008603849C1F800C03749086037490A606A
:10125000374A38490A6038490A60384A38490A60CA
:1012600038490A60012238490A7038490A703849F9
:101270000A7002490A7022E7704700BF1404002078
:10128000D403002068020020FC030020E0030020BB
:10129000180000200C040020080400200000344343
:1012A00000005CC2F80200200000D242F4020020DC
:1012B000F0020020EC020020E4020020000098422E
:1012C000E002002000004842DC020020D80200209A
:1012D000D4020020CC020020C8020020C40200205A
:1012E000C0020020BC020020B402002000005C42CA
:1012F000B0020020AC020020A8020020A4020020BE
:101300009C020020000098C2980200209402002055
:10131000900200208C020020840200208002002025
:101320007C02002078020020740200206C02002061
:1013300000008841F8030020F4030020000004436B
:10134000F0030020EC030020D6030020D50300208A
:101350001C000020000070420000ACC20000A0C0D1
:10136000000098C2874B1B78002B40F02F8310B5EC
:10137000854B01221A70B42393FBF0F307EE903AE9
:10138000F8EEE77A814BC3ED007A814BC3ED007A2A
:10139000804B1B68042B7ED8DFE813F00500890022
:1013A0007201DD01BE027C4B784A1360784A1360FB
:1013B00000247A4B1C607A4B1C607A4B7A4A1A6084
:1013C00008217A480AF004FB794B1A68794B1A60B5
:1013D000794B1B6879490B6079490A60794A136037
:1013E000794B1C60794B1A68794B1A60794B1B68F2
:1013F00079490B6079490A60794A1360794B1C601E
:10140000794B1A68794B1A60794B1B6879490B60E4
:1014100079490A60794A1360794B1C60794B1A68E4
:10142000794B1A60794B1B6879490B6079490A60DE
:10143000794A1360794B1C60794B1A68794B1A60B2
:10144000794B1B6879490B6079490A60794A1360C6
:10145000794B1C60794B1A68794B1A60794B1B6881
:1014600079490B6079490A60794A1360794B1C60AD
:10147000794B7A4A13607A4A13607A4B7A4A13603E
:101480007A4A136001237A4A13703E4A1370794AEC
:101490001370794A13703F4A136801331360052BA8
:1014A00004DD0023384A13703A4A136010BD404BE4
:1014B0001A68404B1A60404B1B6840490B6040491A
:1014C0000A60404A136000233F4A13603F4A116894
:1014D0003F4A11603F4A12683F4802603F4801603E
:1014E0003F490A603F4A13603F4A11683F4A116012
:1014F0003F4A12683F4802603F4801603F490A6026
:101500003F4A13603F4A11683F4A11603F4A1268E0
:101510003F4802603F4801603F490A603F4A13600C
:101520003F4A11683F4A11603F4A12683F480260D3
:101530003F4801603F490A603F4A13603F4A1168D3
:101540003F4A11603F4A12683F4802603F480160CD
:101550003F490A603F4A1360404B3F4A1A60404B84
:10156000464A1A603F4B404A1360404A13600123C9
:101570003F4A1370034A13703E4A13703E4A137079
:1015800089E700BF14040020D40300206802002073
:10159000FC030020E0030020000040411800002070
:1015A0000C04002008040020000034430C05002037
:1015B000D0030020F8020020CC030020F402002019
:1015C000F0020020EC020020E4020020940300203E
:1015D000E002002090030020DC020020D80200205E
:1015E000D4020020CC020020B8030020C802002052
:1015F000B4030020C4020020C0020020BC0200206E
:10160000B4020020C4030020B0020020C003002068
:10161000AC020020A8020020A40200209C020020AE
:10162000A0030020980200209C03002094020020C8
:10163000900200208C02002084020020AC030020D5
:1016400080020020A80300207C02002078020020F5
:10165000740200206C02002000008841F803002082
:10166000F403002000000443F0030020EC030020FA
:101670001C000020D6030020D50300200000F0420B
:101680006B4B1A686B4B1A606B4B1B686B490B609A
:101690006B490A606B4A136000236B4A13606B4A04
:1016A00011686B4A11606B4A12686B4802606B48A4
:1016B00001606B490A606B4A13606B4A11686B4AA0
:1016C00011606B4A12686B4802606B4801606B499D
:1016D0000A606B4A13606B4A11686B4A11606B4A6F
:1016E00012686B4802606B4801606B490A606B4A84
:1016F00013606B4A11686B4A11606B4A12686B4841
:1017000002606B4801606B490A606B4A13606B4A68
:1017100011686B4A11606B4A12686B4802606B4833
:1017200001606B490A606B4A13606B4B6B4A1A602D
:101730006B4B6C4A1A606C4B6C4A1A606C4B6D4A6E
:101740001A6001236C4A13706C4A13706C4A137050
:101750006C4A13709FE6364B1A68364B1A60364B4C
:101760001A68364B1A60684A354B1A606749354B20
:101770001960002334480360344804683448046026
:1017800034480468344804603448614C0460344888
:1017900003603448036034480468344804603448C3
:1017A00004683448046034480260344802603448B5
:1017B000036034480468344804603448046834489A
:1017C00004603448016034480160344803603448A0
:1017D0000468344804603448046834480460344879
:1017E0004C4C04603348036033480360334804685A
:1017F0003348046033480468334804603348016068
:1018000033490A60334A1360364B334A1360344A13
:101810001360384B344A1360354A13600123384A49
:101820001370384A1370344A1370344A137032E616
:10183000D0030020F8020020CC030020F402002096
:10184000F0020020EC020020E402002094030020BB
:10185000E002002090030020DC020020D8020020DB
:10186000D4020020CC020020B8030020C8020020CF
:10187000B4030020C4020020C0020020BC020020EB
:10188000B4020020C4030020B0020020C0030020E6
:10189000AC020020A8020020A40200209C0200202C
:1018A000A0030020980200209C0300209402002046
:1018B000900200208C02002084020020AC03002053
:1018C00080020020A80300207C0200207802002073
:1018D000740200206C020020F80300200000F04297
:1018E000F40300200000A442F003002000000443A1
:1018F000EC030020000070431C00002014040020B2
:10190000D6030020D503002000005CC200005C422A
:1019100000009842000098C22D4B2E4A13602E4AB8
:1019200013602E4A2E4B1A602E492F4B19602F4BF5
:101930001A602F4B196000232E4803602E482F4C4D
:1019400020602F4C23602F4C20602F4803602F48CD
:1019500003602F4802602F4802602F4802602F4822
:1019600002602F4803602F4801602F4801602F4814
:1019700001602F4801602F4803602F482F4C2060E2
:101980002F4C23602F4C20602F4803602F480360AA
:101990002F4801602F4802602F4801602F490A60DC
:1019A0002F4A13602F4B304A1360304A1360304B7C
:1019B000304A1360304A13600123304A1370304AB2
:1019C0001370304A1370304A137064E5704700BFDB
:1019D0000000704268020020FC03002000005CC28E
:1019E000F802002000005C42F4020020F002002017
:1019F000EC020020E402002000009842E0020020F7
:101A0000DC020020D8020020D4020020CC020020FA
:101A1000C8020020C4020020C0020020BC02002036
:101A2000B4020020B0020020AC020020A802002076
:101A3000A40200209C020020000098C2980200200E
:101A400094020020900200208C02002084020020DA
:101A5000800200207C020020780200207402002016
:101A60006C0200200000A442F8030020F4030020D0
:101A700000007043F0030020EC030020D603002098
:101A8000D50300201C000020140400207E4B1B788E
:101A9000002B40F0D48110B57C4B01221A70B42386
:101AA00093FBF0F307EE903AF8EEE77A784BC3ED4C
:101AB000007A784BC3ED007A774B1B6893427BD05A
:101AC000022B00F057815BB1734A13680133136036
:101AD000032B04DD00236D4A13706F4A136010BDA1
:101AE00032216E4809F074FF00236D4A13606D4A7D
:101AF00013606D4A6D4911606D496E4A11606E4AFE
:101B00006E4802606E480160DFF860E26D48C0F820
:101B100000E06D4803606D486D4C20606D4C2360A3
:101B20006D4C2060DFF838C26C48C0F800C06C48CB
:101B300003606C4801606C4801606C4801606C484F
:101B40006C4C20606C4C23606C4C22606C4C2260AE
:101B50006C4C22606C4CC4F800E06C4C2360DFF8E5
:101B600010E26B4CC4F800E06A4C23606A4CC4F885
:101B700000E06A4CC4F800C0694C2360694C2260E4
:101B8000694C216069490A60694A1060694A1360BA
:101B9000694B6A4A13606A4A13606A4B6A4A136067
:101BA0006A4A136001236A4A13706A4A13706A4AC8
:101BB0001370354A137087E7684B354A1360354A0E
:101BC00013603B493B4B1960DFF8A0C13B4BC3F8A6
:101BD00000C03B4B19603B4BC3F800C000233A4A9E
:101BE00013603A4A3A4802605D483A4C20603A4CE9
:101BF00022603A4A10603A4A13603A4A11603C4AFD
:101C0000394C2260394C21603A490A603A490B60EC
:101C100029493A4C21603A4CC4F800C0394C216043
:101C2000394CC4F800C0394C2360DFF844C1384C4B
:101C3000C4F800C0374C2060374CC4F800C0374CA3
:101C400020603748036037480160374802603748F2
:101C5000016037490A60374A1360384B364A1A60C8
:101C6000374B404A1A60384B364A1A60374B3E4A67
:101C70001A600123364A1370364A1370364A1370BD
:101C8000014A137020E700BF14040020D403002091
:101C900068020020FC030020E00300200C05002067
:101CA000180000200C040020080400200000344329
:101CB00000005CC2F802002000005C42F402002038
:101CC000F0020020EC020020E40200200000984214
:101CD000E0020020DC020020D8020020D402002014
:101CE000CC020020C8020020C4020020C002002054
:101CF0000000A0C0BC020020B4020020B0020020FE
:101D0000AC020020A8020020A40200209C020020B7
:101D10009802002094020020900200208C020020F3
:101D200084020020800200207C0200207802002033
:101D3000740200206C0200200000A442F80300207E
:101D4000F403002000007043F0030020EC030020A7
:101D5000D6030020D50300201C0000200000A04076
:101D60000000484200008841000004430000D242C5
:101D7000000098C2324B334A1360334A1360334930
:101D8000334B1960DFF878C1324BC3F800C0324BD7
:101D90001960324BC3F800C00023314A1360314A46
:101DA000314802603148324C2060324C2260324A65
:101DB0001060324A1360324A1160324A324C22605B
:101DC000324C216032490A6032490B603249334C4F
:101DD0002160334CC4F800C0324C2160324CC4F84E
:101DE00000C0324C2360DFF81CC1314CC4F800C085
:101DF000304C2060304CC4F800C0304C206030487B
:101E0000036030480160304802603048016030496A
:101E10000A60304A1360304B304A1360304A136016
:101E2000304B314A1360314A13600123304A13703A
:101E3000304A1370304A1370304A137044E67047CA
:101E40000000704268020020FC03002000005CC219
:101E5000F8020020F4020020F0020020EC02002032
:101E6000E402002000009842E00200200000484206
:101E7000DC020020D8020020D4020020CC02002086
:101E8000C80200200000A0C0C4020020C002002040
:101E9000BC020020B402002000005C42B00200201E
:101EA000AC020020A8020020A40200209C02002016
:101EB0009802002094020020900200208C02002052
:101EC00084020020800200207C0200207802002092
:101ED000740200206C02002000008841F8030020FA
:101EE000F403002000000443F0030020EC03002072
:101EF000D6030020D50300201C000020140400207D
:101F00000000D242000098C208B52DED028B284B8C
:101F100093ED008ADFED277AB4EEE78AF1EE10FA4E
:101F20003CD8254BD3ED006A244B93ED007A37EE75
:101F3000667AB2EE046AC7EE067A77EEA77A204B8D
:101F4000C3ED007A68EE277ADFED1E5A87EEA57A98
:101F500067EE067A76EEA77A17EE900AFEF7E4FAB5
:101F600011A3D3E90023FEF737FBFEF7E5FD164B7F
:101F70001860164BD3ED007A38EE278A0C4B83EDB0
:101F8000008ADFED0C7AB4EEE78AF1EE10FA05DD97
:101F90000F4B00221A70064B00221A60BDEC028B18
:101FA00008BD00BFAFF3008048E17A14AE470B4094
:101FB000E803002000003443F0030020EC0300207D
:101FC000000400200000B443DC030020FC030020D8
:101FD000D60300201F4BD3ED007A9FED1F7AF4EE5D
:101FE000C77AF1EE10FA34D81C4BD3ED006A1C4BC3
:101FF00093ED006A36EE666AF2EE045A86EE257AB2
:1020000037EE077A174B83ED007A27EE877A9FED3C
:10201000165A87EE056A26EE257A76EE876AFDEE79
:10202000E66A124BC3ED006A114B93ED007A77EE2E
:10203000877A084BC3ED007A9FED077AF4EEC77AF2
:10204000F1EE10FA05DD0B4B00221A70014B002255
:102050001A607047E403002000003443F8030020B6
:10206000F4030020040400200000B443D80300203F
:10207000FC030020D503002010B52DED028B90B09D
:10208000DFED837AC0EE277A17EE900AFEF74CFA5E
:102090007DA3D3E90023FEF79FFAFEF775FD08EE56
:1020A000100A2422002107A811F068FB4FF07E538C
:1020B0000F93B0EE480A12F007F810EE104A8DEDBB
:1020C000070AB0EE480A12F03FF8F1EE407ACDED83
:1020D000087A8DED0A0A0B9400220492059206926A
:1020E00001920292039231E002EB0C0310A800EB84
:1020F000830313ED0C7A02EB4200084410AC04EBAE
:10210000800050ED097A0CEB010E624800EB8E0066
:10211000D0ED006A67EEA66A37EE267A03ED0C7AF8
:1021200013ED0F7A5C4800EB8E00D0ED006A67EE8D
:10213000A67A77EE277A43ED0F7A01310129D3DDB4
:102140000CF1010CBCF1000F05DD0132012A04DCA9
:102150004FF0000CF6E70021F0E7504BD3ED008A7A
:10216000F5EEC08AF1EE10FA2ED4F5EEC08AF1EE4B
:1021700010FA25DDB5EEC08AF1EE10FA67D4B5EE9F
:10218000C08AF1EE10FA1BDB9DED040A12F076F81E
:10219000434B83ED000A9DED050A12F06FF8414BA9
:1021A00083ED000A9DED010A12F068F83E4B83EDC5
:1021B000000A9DED020A12F061F83C4B83ED000A23
:1021C00010B0BDEC028B10BDB5EEC08AF1EE10FA76
:1021D0001BDB9DED040A12F051F8354B83ED000A2C
:1021E0009DED050A12F04AF8324B83ED000A9DED91
:1021F000010A12F043F8304B83ED000A9DED020A0C
:1022000012F03CF82D4B83ED000AB5EEC08AF1EEDA
:1022100010FAAAD59DED040A12F030F8204B83ED98
:10222000000A9DED050A12F029F81E4B83ED000A05
:102230009DED010A12F022F81B4B83ED000A9DED83
:10224000020A12F01BF8194B83ED000A8DE79DED91
:10225000040A12F013F8164B83ED000A9DED050AEF
:1022600012F00CF8134B83ED000A9DED010A12F0F9
:1022700005F8114B83ED000A9DED020A11F0FEFFF7
:102280000E4B83ED000A7AE7182D4454FB210940D8
:1022900000003443E8750108DC750108BC0100202A
:1022A0003C0300206C0300202C0300205C03002072
:1022B0005403002084030020440300207403002002
:1022C00010B52DED028B10EE904AF3EE0E7AB4EEBF
:1022D000E70AF1EE10FA01DDB0EE670AFBEE0E7AC6
:1022E000B4EEE70AF1EE10FA01D5B0EE670AAB4B97
:1022F00083ED000A9FEDAA7AC7EE017AA94BC3EDE0
:10230000007AA94B1B78002B40F0B680A74B1B68C6
:10231000032B00F2A880DFE813F00400B200B10143
:102320005402DFEDA38A77EEA87AA24BC3ED007AC0
:10233000A14BA24A1A60F6EE007A20EE278AB0EE90
:10234000480AFFF799FEB1EE480AFFF795FE9C4B4D
:10235000D3ED006AF1EE664A9A4BC3ED004A9A4B00
:1023600093ED005A994B83ED005A994B93ED006A17
:10237000B1EE464A974B83ED004A974BD3ED005A96
:10238000964BC3ED005A964BC3ED008A954B1C60EB
:10239000954B93ED007A954B83ED007A944B1A6838
:1023A000944B1A60944BD3ED007A944BC3ED007AB2
:1023B000934B1B6893490B609349C1ED008A934985
:1023C0000C60934981ED004AB1EE654A914981ED77
:1023D000004A9149C1ED004AF1EE454A8F49C1EDED
:1023E000004A8F49C1ED008A8E490C608E49C1EDCB
:1023F000006A8E4981ED005A8D4981ED006A8D4950
:10240000C1ED005A8C49C1ED008A8C49C1ED008AAA
:10241000B1EE477A8A4981ED007A8A490A60F1EE85
:10242000677A894AC2ED007A884A1360884BC3ED07
:10243000008A884BC3ED008A874B83ED006A874B87
:1024400083ED004A864BC3ED006A864BC3ED004A1C
:10245000854BC3ED008A854BC3ED008A0123844A76
:102460001370514A1370514A136801331360032BE0
:1024700002DD134600221A60BDEC028B10BD9FEDF9
:102480007D7A77EE877A4B4BC3ED007A4A4B83ED2A
:10249000007A4F4BD3ED006AF1EE664A494BC3ED2B
:1024A000004A4D4B93ED005A484B83ED005A444B84
:1024B00093ED006AB1EE464A464B83ED004A424B2B
:1024C000D3ED005A454BC3ED005A0023444A136034
:1024D000444A1360484A92ED007A444A82ED007AF9
:1024E000474A1168434A11603F4AD2ED007A434A95
:1024F000C2ED007A3E4A12684248026042480360D8
:1025000042480360424880ED004AB1EE654A4148C6
:1025100080ED004A4048C0ED004AF1EE454A3F4890
:10252000C0ED004A3E4803603E4803603E48C0EDAF
:10253000006A3E4880ED005A3D4880ED006A3D4803
:10254000C0ED005A3C4803603C480460B1EE477A55
:102550003B4880ED007A3B480160F1EE677A3A49EA
:10256000C1ED007A39490A60394A1360394A14606A
:10257000394A82ED006A394A82ED004A384AC2ED92
:10258000006A384AC2ED004A374A1360374B1C6074
:102590000123374A1370044A137064E7BC0100201A
:1025A00000003443680200201404002010040020BE
:1025B000000000000C040020080400200000344348
:1025C0003C030020F80200206C030020F4020020ED
:1025D00054030020F002002084030020EC020020BD
:1025E000E8020020E402002044030020E002002072
:1025F00074030020DC0200202C030020D8020020FD
:102600005C030020D4020020D0020020CC02002075
:10261000C8020020C4020020C0020020BC0200202A
:10262000B8020020B4020020B0020020AC0200205A
:10263000A8020020A4020020A00200209C0200208A
:102640009802002094020020900200208C020020BA
:102650008802002084020020800200207C020020EA
:102660007802002074020020700200206C0200201A
:102670001C0000200000B442000000005FED028A50
:1026800077EEA87A964BC3ED007A964B964A1A607D
:10269000F6EE007A20EE278AB0EE480AFFF7ECFC4F
:1026A000B1EE480AFFF7E8FC904BD3ED006AF1EE7B
:1026B000664A8F4BC3ED004A8E4B93ED005A8E4B0A
:1026C00083ED005A8D4B93ED006AB1EE464A8C4B78
:1026D00083ED004A8B4BD3ED005A8B4BC3ED005A70
:1026E0008A4BC3ED008A8A4BC3ED008A894B93ED78
:1026F000007A894B83ED007A884B1A68884B1A6000
:10270000884BD3ED007A884BC3ED007A874B1B686A
:1027100087490B608749C1ED008A8749C1ED008A6E
:10272000864981ED004AB1EE654A854981ED004A4E
:102730008449C1ED004AF1EE454A8349C1ED004AA2
:102740008249C1ED008A8249C1ED008A8149C1ED0B
:10275000006A814981ED005A804981ED006A804913
:10276000C1ED005A7F49C1ED008A7F490C60B1EE8E
:10277000477A7E4981ED007A7D490A60F1EE677AF9
:102780007C4AC2ED007A7C4A13607C4BC3ED008A20
:102790007B4B1C607B4B83ED006A7B4B83ED004AD7
:1027A0007A4BC3ED006A7A4BC3ED004A794BC3ED17
:1027B000008A794B1C600123784A1370784A1370A1
:1027C00051E69FED787A77EE877A454BC3ED007A34
:1027D000444B83ED007A494BD3ED006AF1EE664A33
:1027E000434BC3ED004A474B93ED005A424B83EDF8
:1027F000005A3E4B93ED006AB1EE464A404B83EDE2
:10280000004A3C4BD3ED005A3F4BC3ED005A002326
:102810003E4A13603E4A1460424A92ED007A3E4AB4
:1028200082ED007A414A11683D4A1160394AD2ED81
:10283000007A3D4AC2ED007A384A12683C4802608C
:102840003C4803603C4804603C4880ED004AB1EEDF
:10285000654A3B4880ED004A3A48C0ED004AF1EE37
:10286000454A3948C0ED004A38480360384804609A
:102870003848C0ED006A384880ED005A374880ED8E
:10288000006A3748C0ED005A364803603648036096
:10289000B1EE477A354880ED007A35480160F1EEB7
:1028A000677A3449C1ED007A33490A60334A1360CC
:1028B000334A1360334A82ED006A334A82ED004A9C
:1028C000324AC2ED006A324AC2ED004A314A136010
:1028D000314A13600123314A1370314A1370C2E543
:1028E0000C0400200804002000003443540300209E
:1028F000F802002084030020F40200203C030020A2
:10290000F00200206C030020EC020020E80200200E
:10291000E40200202C030020E00200205C030020E1
:10292000DC02002044030020D802002074030020B1
:10293000D4020020D0020020CC020020C8020020D7
:10294000C4020020C0020020BC020020B802002007
:10295000B4020020B0020020AC020020A802002037
:10296000A4020020A00200209C0200209802002067
:1029700094020020900200208C0200208802002097
:1029800084020020800200207C02002078020020C7
:1029900074020020700200206C0200201C00002045
:1029A000140400200000B44210B400202A4B186028
:1029B00000232A4A13602A4A13602A4A2A490A60D5
:1029C0002A492B4C21602B4C22602B4C21602B4C34
:1029D0002360DFF818C12A4CC4F800C0294C2360DA
:1029E000294CC4F800C0294C2360294C2360294C91
:1029F0002260294C2260294C2260294C2260294CFB
:102A00002360294C2160294C2160294C2160294CEC
:102A10002160294C2360DFF8D8C0284CC4F800C0DE
:102A2000274C2360274CC4F800C0274C2360274C58
:102A30002360274C2160274C2260274C21602749C6
:102A40000A60274A1360274B01221A70264B187020
:102A50005DF8044B704700BF1004002018000020F0
:102A60000804002000005CC2F802002000005C4264
:102A7000F4020020F0020020EC020020E40200201A
:102A8000E0020020DC020020D8020020D402002056
:102A9000CC020020C8020020C4020020C002002096
:102AA000BC020020B4020020B0020020AC020020D2
:102AB000A8020020A40200209C020020980200200E
:102AC00094020020900200208C020020840200204A
:102AD000800200207C020020780200207402002086
:102AE0006C0200201C00002014040020000096420C
:102AF000000096C20000000038B52DED068BF0EE08
:102B0000408AB0EE608AF0EE41AA80EEA80A11F089
:102B100001FADFED959A60EE297A17EE900AFDF73B
:102B200003FD8BA3D3E90023FDF780FE00228F4B2A
:102B3000FDF79CFB41EC100B11F050FB51EC100B1E
:102B4000FEF722F807EE900A894B18609FED897A0C
:102B500077EEC77A9FED887A77EE877AB0EE007AC3
:102B600077EEC77A854B93ED007A77EE877A17EE8A
:102B7000900AFDF7D9FC78A3D3E90023FDF72CFDDB
:102B8000FEF702F80AEE100A7D4B18607D4B93EDBC
:102B9000009AB8EEC99A39EE2A9A7B4B83ED009AD7
:102BA00068EEA88A28EE088A38EE880A11F090F9B3
:102BB000764B83ED000AF3EE067A30EE678A744BAB
:102BC00083ED008A28EE080A69EE097A30EE270ABA
:102BD00011F07EF9F0EE408A6E4B83ED000A89EE2B
:102BE000080A11F097F9B0EE408A6B4B83ED000AAA
:102BF00028EEA89A9FED690A39EE000ADFED687A9F
:102C000030EE670ADFED677A68EEA78A80EE280A61
:102C100011F032F9644B83ED000A38EE008A634B01
:102C200083ED008A68EE297A17EE900AFDF77CFCA6
:102C300047A3D3E90023FDF7F9FD41EC100B11F098
:102C4000CDFA51EC100B0022594BFDF70FFB024659
:102C50000B4643A1D1E90001FDF706FB04460D46F2
:102C6000544B1868FDF760FC02460B462046294687
:102C7000FDF7FCFA38A3D3E90023FDF7ADFCFDF71F
:102C800083FF08EE900A4C4B1860DFED4C7A77EE2C
:102C9000C97A9FED4B0A87EE800A11F0EDF8494B97
:102CA00083ED000A60EE297A17EE900AFDF73CFCEE
:102CB00027A3D3E90023FDF7B9FD00223C4BFDF724
:102CC000D3FA41EC100B11F089FA53EC102B0020D1
:102CD0003749FDF7C9FA02460B4621A1D1E90001A7
:102CE000FDF7C2FA04460D46374B1868FDF71CFC89
:102CF00002460B4620462946FDF7B8FA16A3D3E94B
:102D00000023FDF769FCFDF73FFF08EE100A2F4B8B
:102D10001860B0EE4A0A11F0B1FA2D4CBDEEC00AAF
:102D200084ED000AB0EE680A11F0A8FABDEEC00A00
:102D300084ED010AB0EE480A11F0A0FABDEEC00A17
:102D400084ED020ABDEC068B38BD00BFAFF30080F6
:102D5000182D4454FB21094048E17A14AE470B403A
:102D60000000000000C07240000034430080664054
:102D7000040200200000074300004343E00100205C
:102D800018020020140000201C0200200002002075
:102D9000F8010020FC010020F401002000902F45E4
:102DA000002099450000D442F00100200C020020D0
:102DB00000805640CC0100201402002000E8F045BD
:102DC00000E0E74508020020C801002010020020B2
:102DD000200200200000000038B52DED068BF0EE3B
:102DE000408AB0EE608AB0EE41AA80EEA80A11F0E7
:102DF00091F89FED9B9A60EE097A17EE900AFDF725
:102E000093FB91A3D3E90023FDF710FD0022954B1E
:102E1000FDF72CFA41EC100B11F0E0F951EC100B1E
:102E2000FDF7B2FE07EE900A8F4B186077EEC97A75
:102E30009FED8E7A77EE877AB0EE080A37EEC00AF9
:102E400011F01CFA8A4B83ED000AB4EEC90AF1EEC8
:102E500010FA05DDDFED877A30EE670A83ED000AB0
:102E6000834C2068FDF760FB79A3D3E90023FDF7CD
:102E7000B3FBFDF789FE09EE900A20607E4B93EDCF
:102E8000009AB8EEC99A39EE0A9A7C4B83ED009A03
:102E900068EEA88A28EE088A38EE880A11F018F839
:102EA000774B83ED000AF3EE067A30EE678A754BB6
:102EB00083ED008A28EE080A69EE097A30EE270AC7
:102EC00011F006F8F0EE408A6F4B83ED000A89EEB0
:102ED000080A11F01FF8B0EE408A6C4B83ED000A2F
:102EE00028EEA89ADFED6A7A79EE277A9FED697A63
:102EF00077EEC77A9FED687A68EE878A87EEA80A30
:102F000010F0BAFF654B83ED000A30EE080A644BFF
:102F100083ED000A9FED528A60EE087A17EE900A60
:102F2000FDF702FB48A3D3E90023FDF77FFC41EC4A
:102F3000100B11F053F951EC100B0022594BFDF717
:102F400095F902460B4644A1D1E90001FDF78CF941
:102F500000224FF08043FDF789F904460D46524B9D
:102F60001868FDF7E1FA02460B4620462946FDF7B0
:102F70007DF937A3D3E90023FDF72EFBFDF704FE0F
:102F800008EE900A494B1860DFED497A77EEC97A6E
:102F90009FED480A87EE800A10F06EFF464B83EDE6
:102FA000000A60EE087A17EE900AFDF7BDFA26A334
:102FB000D3E90023FDF73AFC00223A4BFDF754F920
:102FC00041EC100B11F00AF953EC102B002035499D
:102FD000FDF74AF902460B461FA1D1E90001FDF7B2
:102FE00043F904460D46354B1868FDF79DFA024635
:102FF0000B4620462946FDF739F915A3D3E90023EE
:10300000FDF7EAFAFDF7C0FD08EE100A2C4B186038
:10301000B0EE690A11F032F92A4CBDEEC00A84ED17
:10302000030AB0EE680A11F029F9BDEEC00A84ED7A
:10303000040AB0EE480A11F021F9BDEEC00A84ED91
:10304000050ABDEC068B38BD182D4454FB21094000
:1030500048E17A14AE470B400000000000C0724007
:103060000000344300806640040200200000164344
:10307000180200200000B443100000201C020020B1
:1030800000020020F8010020FC010020F4010020D3
:1030900000902F45002099450000D442F001002007
:1030A0000C02002000805640DC01002014020020A9
:1030B00000E8F04500E0E74508020020D8010020C4
:1030C000100200202002002038B52DED068BF0EE16
:1030D000408AB0EE608AF0EE41AA80EEA80A10F0B5
:1030E00019FFDFED959A60EE297A17EE900AFDF749
:1030F0001BFA8BA3D3E90023FDF798FB00228F4B2B
:10310000FDF7B4F841EC100B11F068F851EC100B1E
:10311000FDF73AFD07EE900A894B18609FED897A1A
:1031200077EEC77A9FED887A77EE877A874B93EDB3
:10313000017A77EE877A17EE900AFDF7F5F97AA310
:10314000D3E90023FDF748FAFDF71EFD0AEE100A49
:103150007F4B18607F4B93ED009AB8EEC99A39EE19
:103160002A9A7D4B83ED009A68EEA88A28EE088A99
:1031700038EE880A10F0ACFE784B83ED000AF3EECF
:10318000067A30EE678A764B83ED008A28EE080ACD
:1031900069EE097A30EE270A10F09AFEF0EE408AC6
:1031A000704B83ED000A89EE080A10F0B3FEB0EE12
:1031B000408A6D4B83ED000A28EEA89A9FED6B0ABA
:1031C00039EE000ADFED6A7A30EE670ADFED697AE0
:1031D00068EEA78A80EE280A10F04EFE664B83ED5B
:1031E000000A38EE008A654B83ED008A68EE297A82
:1031F00017EE900AFDF798F949A3D3E90023FDF7EC
:1032000015FB41EC100B10F0E9FF51EC100B002204
:103210005B4BFDF72BF802460B4645A1D1E90001B7
:10322000FDF722F804460D46564B1868FDF77CF969
:1032300002460B4620462946FDF718F83AA3D3E983
:103240000023FDF7C9F9FDF79FFC08EE900A4E4BED
:103250001860DFED4E7A77EEC97A9FED4D0A87EE62
:10326000800A10F009FE4B4B83ED000A60EE297ACC
:1032700017EE900AFDF758F929A3D3E90023FDF7CB
:10328000D5FA00223E4BFCF7EFFF41EC100B10F09B
:10329000A5FF53EC102B00203949FCF7E5FF02464F
:1032A0000B4623A1D1E90001FCF7DEFF00223A4BD7
:1032B000FCF7DAFF04460D46384B1868FDF734F981
:1032C00002460B4620462946FCF7D0FF16A3D3E959
:1032D0000023FDF781F9FDF757FC08EE100A304B8B
:1032E0001860B0EE4A0A10F0C9FF2E4CBDEEC00ABD
:1032F00084ED060AB0EE680A10F0C0FFBDEEC00A09
:1033000084ED070AB0EE480A10F0B8FFBDEEC00A1F
:1033100084ED080ABDEC068B38BD00BFAFF300801A
:10332000182D4454FB21094048E17A14AE470B4064
:103330000000000000C0724000003443008066407E
:1033400004020020000061430000D242E00100209E
:10335000180200200C0000201C02002000020020A7
:10336000F8010020FC010020F401002000902F450E
:10337000002099450000D442F00100200C020020FA
:1033800000805640CC0100201402002000E8F045E7
:1033900000E0E7450802002000000840C8010020C6
:1033A000100200202002002038B52DED068BF0EE33
:1033B000408AB0EE608AF0EE41AA80EEA80A10F0D2
:1033C000A9FDDFED8D9A60EE297A17EE900AFDF7E0
:1033D000ABF885A3D3E90023FDF728FA0022874B39
:1033E000FCF744FF41EC100B10F0F8FE51EC100B11
:1033F000FDF7CAFB07EE900A814B18609FED817ABA
:1034000077EEC77A9FED807A77EE877A7F4B93EDE0
:10341000027A77EE877A17EE900AFDF785F874A3A3
:10342000D3E90023FDF7D8F8FDF7AEFB0AEE100A4A
:10343000774B1860774B93ED009AB8EEC99A39EE46
:103440002A9A754B83ED009A68EEA88A28EE088ABE
:1034500038EE880A10F03CFD704B83ED000AF3EE65
:10346000067A30EE678A6E4B83ED008A28EE080AF2
:1034700069EE097A30EE270A10F02AFDF0EE408A54
:10348000684B83ED000A89EE080A10F043FDB0EEA8
:10349000408A654B83ED000A28EEA89A9FED630AE7
:1034A00039EE000ADFED627A30EE670ADFED617A0D
:1034B00068EEA78A80EE280A10F0DEFC5E4B83EDF2
:1034C000000A38EE008A5D4B83ED008A68EE297AA7
:1034D00017EE900AFDF728F843A3D3E90023FDF780
:1034E000A5F941EC100B10F079FE51EC100B002205
:1034F000534BFCF7BBFE04460D46524B1868FDF7D4
:1035000013F802460B4620462946FCF7AFFE002280
:103510004FF08043FCF7AAFE35A3D3E90023FDF763
:103520005BF8FDF731FB08EE900A474B1860DFEDC2
:10353000477A77EEC97A9FED460A87EE800A10F047
:103540009BFC444B83ED000A60EE297A17EE900A4B
:10355000FCF7EAFF24A3D3E90023FDF767F9002273
:10356000374BFCF781FE41EC100B10F037FE53ECAB
:10357000102B00203249FCF777FE0022364BFCF777
:1035800075FE04460D46354B1868FCF7CDFF024624
:103590000B4620462946FCF769FE15A3D3E9002314
:1035A000FDF71AF8FDF7F0FA08EE100A2C4B186038
:1035B000B0EE4A0A10F062FE2A4CBDEEC00A84ED5D
:1035C000090AB0EE680A10F059FEBDEEC00A84ED9B
:1035D0000A0AB0EE480A10F051FEBDEEC00A84EDB2
:1035E0000B0ABDEC068B38BD182D4454FB21094055
:1035F00048E17A14AE470B40000034430080764027
:103600000402002000809D4300004343E0010020AD
:10361000180200200C0000201C02002000020020E4
:10362000F8010020FC010020F401002000902F454B
:10363000002099450000D442F00100200C02002037
:1036400000805640C40100201402002000E8F0452C
:1036500000E0E7450802002000003140C0010020E2
:10366000100200202002002038B52DED048BF0EE72
:10367000408AB0EE608A944B93ED009AB8EEC99AF6
:1036800039EE019A914B83ED009A80EEA80A10F072
:1036900041FCDFED8F9A60EE297A17EE900AFCF775
:1036A00043FF85A3D3E90023FDF7C0F841EC100BDD
:1036B00010F094FD51EC100BFDF766FA00EE100AC5
:1036C000844B1860DFED847A30EE270ADFED837AD1
:1036D00030EE270A10F0D2FD814B83ED000AB4EEE4
:1036E000E90AF1EE10FA05DDDFED7E7A30EE670AC9
:1036F00083ED000A7A4C2068FCF716FF70A3D3E92B
:103700000023FCF769FFFDF73FFA09EE900A2060FD
:1037100068EEA88A28EE088A38EE880A10F0D8FBEE
:10372000714B83ED000AF3EE067A30EE678A6F4B39
:1037300083ED008A28EE080A69EE097A30EE270A3E
:1037400010F0C6FBF0EE408A694B83ED000A89EE6B
:10375000080A10F0DFFBB0EE408A664B83ED000AEA
:1037600028EEA89ADFED647A79EE277A9FED637AE6
:1037700077EEC77A9FED627A68EE878A87EEA80AAD
:1037800010F07AFB5F4B83ED000A30EE080A5E4BC7
:1037900083ED000A9FED4E8A60EE087A17EE900ADC
:1037A000FCF7C2FE44A3D3E90023FDF73FF841EC48
:1037B000100B10F013FD51EC100B0022534BFCF7D3
:1037C00055FD00224FF08043FCF74EFD04460D46A8
:1037D0004F4B1868FCF7A8FE02460B4620462946C8
:1037E000FCF744FD36A3D3E90023FCF7F5FEFDF713
:1037F000CBF908EE900A474B1860DFED477A77EE79
:10380000C97A9FED460A87EE800A10F035FB444BDB
:1038100083ED000A60EE087A17EE900AFCF784FE4A
:1038200025A3D3E90023FDF701F80022374BFCF76D
:103830001BFD41EC100B10F0D1FC53EC102B0020C1
:103840003249FCF711FD0022364BFCF70FFD044610
:103850000D46354B1868FCF767FE02460B462046BE
:103860002946FCF703FD16A3D3E90023FCF7B4FEB9
:10387000FDF78AF908EE100A2C4B1860B0EE690AC1
:1038800010F0FCFC2A4CBDEEC00A84ED0C0AB0EE30
:10389000680A10F0F3FCBDEEC00A84ED0D0AB0EE2C
:1038A000480A10F0EBFCBDEEC00A84ED0E0ABDEC38
:1038B000048B38BDAFF30080182D4454FB21094020
:1038C00048E17A14AE470B40100000201C02002093
:1038D00000003443040200200000164300000000F2
:1038E000180200200000B44300020020F80100206C
:1038F000FC010020F401002000902F450020994594
:103900000000D442F00100200C020020008056404C
:10391000D40100201402002000E8F04500E0E74553
:103920000802002000000840D00100201002002002
:10393000200200200000000038B52DED068BF0EECF
:10394000408AB0EE608AF0EE41AA80EEA80A10F03C
:10395000E1FADFED8D9A60EE297A17EE900AFCF716
:10396000E3FD85A3D3E90023FCF760FF41EC100BD6
:1039700010F034FC51EC100BFDF706F907EE900A3D
:10398000824B18609FED827A77EEC77A9FED817A3D
:1039900077EE877AB0EE087A77EEC77A7E4B93EDB2
:1039A000037A77EE877A17EE900AFCF7BDFD74A3D1
:1039B000D3E90023FCF710FEFDF7E6F80AEE100A43
:1039C000764B1860764B93ED009AB8EEC99A39EEB3
:1039D0002A9A744B83ED009A68EEA88A28EE088A2A
:1039E00038EE880A10F074FA6F4B83ED000AF3EE9C
:1039F000067A30EE678A6D4B83ED008A28EE080A5E
:103A000069EE097A30EE270A10F062FAF0EE408A89
:103A1000674B83ED000A89EE080A10F07BFAB0EEDE
:103A2000408A644B83ED000A28EEA89A9FED620A53
:103A300039EE000ADFED617A30EE670ADFED607A79
:103A400068EEA78A80EE280A10F016FA5D4B83ED27
:103A5000000A38EE008A5C4B83ED008A68EE297A12
:103A600017EE900AFCF760FD43A3D3E90023FCF7AF
:103A7000DDFE41EC100B10F0B1FB51EC100B0022FD
:103A8000524BFCF7F3FB04460D46514B1868FCF70C
:103A90004BFD02460B4620462946FCF7E7FB002279
:103AA0004FF08043FCF7E2FB35A3D3E90023FCF79A
:103AB00093FDFDF769F808EE900A464B1860DFEDBC
:103AC000467A77EEC97A9FED450A87EE800A10F0B4
:103AD000D3F9434B83ED000A60EE297A17EE900A82
:103AE000FCF722FD24A3D3E90023FCF79FFE00226C
:103AF000364BFCF7B9FB41EC100B10F06FFB53ECAD
:103B0000102B00203149FCF7AFFB0022354BFCF7AE
:103B1000ADFB04460D46344B1868FCF705FD024624
:103B20000B4620462946FCF7A1FB15A3D3E9002349
:103B3000FCF752FDFDF728F808EE100A2B4B186031
:103B4000B0EE4A0A10F09AFB294CBDEEC00A84ED93
:103B50000F0AB0EE680A10F091FBBDEEC00A84EDCA
:103B6000100AB0EE480A10F089FBBDEEC00A84EDE1
:103B7000110ABDEC068B38BD182D4454FB210940B9
:103B800048E17A14AE470B400000344304020020A1
:103B9000000034420000D242E00100201802002060
:103BA000140000201C02002000020020F801002068
:103BB000FC010020F401002000902F4500209945D1
:103BC0000000D442F00100200C020020008056408A
:103BD000C40100201402002000E8F04500E0E745A1
:103BE0000802002000000840C00100201002002050
:103BF0002002002000B595B01348FDF714FAE8B193
:103C0000114BB3F96430CBB10F4AB2F96230009373
:103C1000B2F910201392934213DB13AA106802B278
:103C200009490A82934209D0013008826846FDF7AB
:103C300056F94C22694605480FF079FE15B05DF83B
:103C400004FB6A46EAE700BF600500201405002077
:103C500010B5044601210EF02BFE002120460EF087
:103C6000A5FE022006F0B8FD012120460EF09EFEC2
:103C7000032006F0B1FD002120460EF097FE002142
:103C800020460EF015FE084A012120460EF0B8FE2F
:103C9000064B1860064B83FB00230344C017C0EBA0
:103CA0006310044B186010BD40420F002804002030
:103CB00009CB3D8D2C04002038B52DED028B0C4630
:103CC000FFF7C6FF284D28602046FFF7C1FF274BAE
:103CD0001860274B93ED007AF7EE008A78EEC78ADA
:103CE000244B93ED000A28EE800AD5ED007AF8EE19
:103CF000E77A67EE877A30EE270A83ED000A1E4BDB
:103D0000D3ED007A68EEA78A07EE900AF8EEE77A1C
:103D100067EE877A78EEA78AC3ED008A10F0AEFAD4
:103D2000B0EE408AB0EE680A10F0A8FA38EE408A89
:103D3000F0EE087A28EE278AFDEEC87A17EE903A60
:103D40000E4AC2ED007A192B02DD134619221A60C1
:103D50000A4B1B6813F1190F03DA084B6FF01802B6
:103D60001A60BDEC028B38BD1C040020200400202A
:103D700000000020800100207C010020240400209D
:103D800008B500213E200EF011FE022006F024FDB1
:103D900001213E200EF00AFE052006F01DFD002147
:103DA0003E200EF003FE084A0121CC200EF028FE32
:103DB000064A1060064B83FB00130344C017C0EB98
:103DC0006310106008BD00BF40420F0018040020BF
:103DD00009CB3D8D012906DD01F1FF3C00239C4507
:103DE00014DD10B403E0704701339C450BDD50F83F
:103DF00023105A1C50F82240A142F5DD40F8234020
:103E000040F82210F0E75DF8044B7047704700005F
:103E100030B59DB00546002408E028460EF01AFD96
:103E20001CAB03EB840343F8640C0134182CF4DD61
:103E3000192103A8FFF7CEFF41F288330093002336
:103E400040F2FF3219460F980EF0E1FAFCF75AFBE8
:103E500000220F4BFCF7EAFC9FED091B41EC100B15
:103E60000FF04AFF51EC100B07A3D3E90023FCF736
:103E7000B3FBFCF761FE1DB030BD00BFAFF30080A7
:103E80001283C0CAA145F3BFEE7C3F355EBA3B400A
:103E900000408F4008B5FFF7BBFF034B18600220BE
:103EA00006F09AFC08BD00BFFC04002000000000E2
:103EB00008B52DED028B1E4BD3ED008A1D4B93ED03
:103EC000008A28EE888A1C4B83ED008A1B4B1868F9
:103ED000FCF72AFB14A3D3E90023FCF7EFFD10B194
:103EE000164B174A1A60174BD3ED007A78EEE78A23
:103EF000124B93ED007AC8EE877A134B93ED007A5C
:103F000067EE877A114BC3ED007A38EE278AF2EE1E
:103F1000047A28EE278A0E4B83ED008ABDEC028BD3
:103F200008BD00BFAFF3008095D626E80B2E113EEA
:103F3000B801002008000020B4010020A4010020E6
:103F40005F7089309C01002098010020B0010020A2
:103F5000AC0100200023054A1360054A1360054A9E
:103F60001360054A1360054A13607047B4010020CE
:103F7000B0010020B80100209C010020AC0100200D
:103F800070B5044615460846FFF762FE3A4E3060AB
:103F90002846FFF75DFE394B186033681B1A07EEA1
:103FA000903AF8EEE77A364BC3ED007AFFF780FFE0
:103FB00007EE904AF8EEE77A324B93ED007AF4EE92
:103FC000C77AF1EE10FA01D8C3ED007A644207EE29
:103FD000904AF8EEE77A2B4B93ED007AF4EEC77A2D
:103FE000F1EE10FA01DBC3ED007A264BD3ED007A37
:103FF000F5EEC07AF1EE10FA26DDF1EE677A224B8B
:10400000C3ED007A214BC3ED007A214B00221A60E8
:10401000204C214D2B6823600EF096FD07EE900A90
:10402000F8EE677AC5ED007A94ED007A77EEC77AFC
:10403000DFED1A6A87EEA67A194B83ED007A104BF2
:104040001A68184B1A6070BDF5EEC07AF1EE10FADE
:1040500007D400230C4A13600C4A13600C4A136007
:10406000D6E70A4B00221A60094BC3ED007A064BD3
:10407000C3ED007ACCE700BF1C0400202004002020
:10408000B8010020AC0100208C0100209401002028
:1040900090010020A0010020A801002000007A4427
:1040A000A40100209C0100209FED275A35EE406AB4
:1040B00076EE017A254BC3ED007A70EE055A75EE67
:1040C000C17A234BC3ED007ADFED227A77EEC06A26
:1040D00036EEE07A204B83ED007A70EE277A37EEE9
:1040E000A07A1E4B83ED007A9FED1D7A37EE407A61
:1040F00077EE014A1B4BC3ED004A30EE450A30EE25
:10410000415A194B83ED005A75EEA05A174BC3ED77
:10411000005A36EE606A164B83ED006A77EEC17A7C
:10412000144BC3ED007A76EE816A134BC3ED006A3F
:1041300030EE200A114B83ED000A37EE607A104B07
:1041400083ED007A704700BF00005C4288030020C6
:104150007003002000000000740300205C030020B6
:1041600000005CC27C030020640300208403002064
:104170006C030020780300206003002080030020EF
:1041800068030020844B1B78002B40F0518210B54F
:104190002DED028B10EE904AF0EE410AB42393FB12
:1041A000F0F307EE903AF8EEE77A7C4BC3ED007A35
:1041B0007B4B1B68032B73D8DFE813F004007E00F1
:1041C0005E01CD019FED778A77EE887A764BC3ED5D
:1041D000007A764B764A1A60B0EE611AFFF764FFF8
:1041E000744B754A1360754A1168754A1160754AB7
:1041F0001360754A1168754A1160754A1460754AF2
:1042000075490A60754908687549086075490A600A
:10421000754A1168754A1160754A1460754A1360D1
:10422000754A1168754A1160754A1360754B1A68B2
:10423000754B1A60754B1C60754B764A1360764A55
:104240001168764A1160764A1360764A1168764A98
:104250001160764A82ED008A754A76490A6076498D
:1042600008687649086076490A60764A1168764A95
:104270001160764A82ED008A754A1360754A1168AA
:10428000754A1160754A1360754B1A68754B1A6050
:10429000754B83ED008A0123744A13703E4A1370F4
:1042A0003F4A136801331360032B02DD13460022DB
:1042B0001A60BDEC028B10BD9FED6D7A77EE877AA8
:1042C000394BC3ED007A394B83ED007AB0EE611AB9
:1042D000FFF7EAFE374B384A13603B4A1168384A09
:1042E0001160384A1360354A1168384A116000225B
:1042F00037490A603749384801603B48D0F800C068
:104300003748C0F800C03748016034490868374969
:10431000086037490A6037490B603A4908683749ED
:10432000086037490B60344B1968374B1960374BBD
:104330001A60374B374A13603A4A1168374A11609E
:10434000374A1360344A1168374A1160374A14609B
:10435000374A38490A603B49086838490860384993
:104360000A60354A1168384A1160384A1460384A80
:1043700013603B4A1168384A1160384A1360354B64
:104380001A68384B1A60384B1C600123374A137087
:10439000014A137084E700BF140400206802002063
:1043A00010040020000000000C040020080400207D
:1043B0000000344300005CC2F802002088030020A3
:1043C000F4020020F002002070030020EC02002024
:1043D000E402002000009842E00200207403002064
:1043E000DC020020D80200205C030020D402002060
:1043F000CC020020C80200207C030020C402002060
:10440000C002002064030020BC020020B40200208F
:1044100000005C42B002002084030020AC020020B7
:10442000A80200206C030020A40200209C020020AF
:10443000000098C298020020780300209402002017
:1044400090020020600300208C02002084020020E3
:1044500080020020800300207C02002078020020DF
:1044600068030020740200206C0200201C00002061
:104470000000B442000000001FED028A77EE887A47
:104480006C4BC3ED007A6C4B6C4A1A60B0EE611A4B
:10449000FFF70AFE6A4B6B4A13606B4A11686B4A5E
:1044A00011606B4A13606B4A11686B4A11606B4A6A
:1044B00082ED008A6A4A6B490A606B4908686B4959
:1044C00008606B490A606B4A11686B4A11606B4A5D
:1044D00082ED008A6A4A13606A4A11686A4A11606A
:1044E0006A4A13606A4B1A686A4B1A606A4B83ED1A
:1044F000008A6A4B6A4A13606A4A11686A4A116004
:104500006A4A13606A4A11686A4A11606A4A14600A
:104510006A4A6B490A606B4908686B4908606B49D5
:104520000A606B4A11686B4A11606B4A14606B4AEF
:1045300013606B4A11686B4A11606B4A13606B4BD6
:104540001A686B4B1A606B4B1C6001236A4A13702C
:104550006A4A1370A4E69FED6A7A77EE877A354B44
:10456000C3ED007A344B83ED007AB0EE611AFFF7A9
:104570009BFD334B334A1360364A1168334A11604E
:10458000334A1360304A1168334A1160334A146069
:10459000334A34490A603749086834490860344965
:1045A0000A60314A1168344A1160344A1460344A4E
:1045B0001360374A1168344A1160344A1360314B32
:1045C0001A68344B1A60344B1C60344B344A136005
:1045D000374A1168344A1160344A1360314A11680D
:1045E000344A1160002234490A6034493448016079
:1045F0003748046834480460344801603149086829
:104600003449086034490A6034490B603749086806
:104610003449086034490B60314B1968344B1960D8
:10462000344B1A600123344A1370344A137037E64E
:10463000704700BF0C040020080400200000344331
:1046400000005CC2F802002070030020F402002089
:10465000F002002088030020EC020020E402002089
:1046600000009842E00200205C030020DC020020F1
:10467000D802002074030020D4020020CC020020C5
:10468000C802002064030020C4020020C0020020F1
:104690007C030020BC020020B402002000005C4229
:1046A000B00200206C030020AC020020A802002011
:1046B00084030020A40200209C020020000098C275
:1046C0009802002060030020940200209002002045
:1046D000780300208C020020840200208002002049
:1046E000680300207C020020780200208003002064
:1046F000740200206C0200201C0000201404002022
:104700000000B442DFED2A6A76EEC06A76EE817A66
:10471000284BC3ED007ADFED287A30EE676A36EE7B
:10472000417A264B83ED007A9FED257A77EE405A49
:1047300075EEA15A234BC3ED005A70EE075A75EE81
:10474000E15A214BC3ED005A76EEA06A1F4BC3ED30
:10475000006A36EE606A1E4B83ED006A70EE276ACF
:1047600036EEC16A1B4B83ED006A77EEC07A37EEF6
:10477000811A194B83ED001A30EE477A37EE617AD1
:10478000164B83ED007A9FED167A37EE407A37EEBE
:10479000217A144B83ED007A76EEE06A124BC3ED7A
:1047A000006A77EEA07A114BC3ED007A704700BF24
:1047B00000005CC25803002000005C42400300205F
:1047C00000009842440300202C0300204C030020EA
:1047D00034030020540300203C0300204803002041
:1047E000000098C23003002050030020380300204E
:1047F000904B1B78002B40F0638210B52DED028B9F
:1048000010EE904AF0EE410AB0EE611AF3EE047A2F
:10481000B4EEE70AF1EE10FA01DDB0EE670AFBEE46
:10482000047AB4EEE70AF1EE10FA01D5B0EE670AA9
:10483000F6EE007A62EE271AB42393FBF0F307EE4C
:10484000903AF8EEE77A7C4BC3ED007A7B4B1B681D
:10485000032B73D8DFE813F004007E005A01C9016E
:104860009FED778A77EE887A764BC3ED007A764BA8
:10487000764A1A60FFF746FF754B1A68754B1A6047
:10488000754A764B1A60764B1968764B1960764BF1
:104890001A60764B1C60764B1968764B1960764B24
:1048A00083ED008A754B1968754B1960754B83ED64
:1048B000008A754B1C60754B1968754B1960754BF8
:1048C00075490B60754908687549086075490B6042
:1048D00075490C60754908687549086075490A6032
:1048E000754908687549086075490A60754A82ED1E
:1048F000008A754A1168754A1160754A82ED008A0E
:10490000744A1168744A1160744A82ED008A744ACC
:1049100082ED008A734A1168734A1160734A13600A
:10492000734A1168734A1160734A1360734B83EDC5
:10493000008A0123724A13703E4A13703F4A13687B
:1049400001331360032B02DD134600221A60BDEC15
:10495000028B10BD9FED6B7A77EE877A394BC3EDF2
:10496000007A394B83ED007AFFF7CCFE3C4B1A6896
:10497000384B1A603849394B1960354B1A68394B36
:104980001A60394B19600023384A13603B4A10689B
:10499000384A1060384A1360354A1068384A106047
:1049A000384A1360384A13603C4A1068384A10602D
:1049B000384A394802603548D0F800C03848C0F855
:1049C00000C038480260384803603B48D0F800C057
:1049D0003748C0F800C0374801603448D0F800C0FC
:1049E0003648C0F800C03648016036490C60394985
:1049F00008683649086036490B603349086836490B
:104A0000086036490B60364B1C60394B1968364BD1
:104A10001960364B1A60334B1968364B1960364BA8
:104A20001A60364B1C600123354A1370014A13701B
:104A300084E700BF14040020680200201004002056
:104A4000000000000C040020080400200000344393
:104A500058030020F802002000005C42F40200200D
:104A600040030020F0020020EC020020E4020020BD
:104A700044030020E0020020DC0200202C03002080
:104A8000D8020020D4020020CC0200204C030020D9
:104A9000C802002000005CC2C402002034030020D1
:104AA000C0020020BC020020B402002054030020F9
:104AB000B0020020AC0200203C030020A80200202D
:104AC000A40200209C02002048030020980200203D
:104AD0009402002030030020900200208C0200206D
:104AE0008402002050030020800200207C0200206D
:104AF0003803002078020020740200206C0200209D
:104B00001C0000200000B442000000001FED028ADB
:104B100077EE887A6B4BC3ED007A6B4B6B4A1A6069
:104B2000FFF7F0FD6A4B1A686A4B1A606A4A6B4BD2
:104B30001A606B4B19686B4B19606B4B1A606B4BAF
:104B400083ED008A6A4B19686A4B19606A4B83EDE2
:104B5000008A6A4B19686A4B19606A4B83ED008AB8
:104B6000694B83ED008A694B1968694B1960694B81
:104B700069490B60694908686949086069490B60BF
:104B8000694981ED008A694908686949086069498D
:104B90000A60694908686949086069490A60694AA0
:104BA0001460694A1168694A1160694A82ED008A95
:104BB000684A1168684A1160684A82ED008A684A4A
:104BC0001460684A1168684A1160684A1360684A4C
:104BD0001168684A1160684A1360684B1C600123C1
:104BE000674A1370674A1370A8E69FED677A77EEFD
:104BF000877A344BC3ED007A334B83ED007AFFF7AD
:104C000081FD374B1A68334B1A603349334B1960B7
:104C10002F4B1A68334B1A60334B1960334B1C60AF
:104C2000364B1A68334B1A600023334A1360304AFC
:104C30001068334A1060334A1360334A1460374AAD
:104C40001068334A1060334A334802602F48D0F866
:104C500000C03348C0F800C03248026032480460E7
:104C60003548046832480460324801602F480468BF
:104C7000324804603248016032490B6035490868A7
:104C80003249086032490B602F4908683249086090
:104C900032490B6032490B60354908683249086077
:104CA00032490A602F4908683249086032490A606F
:104CB000324A13600123324A1370324A13703DE6C0
:104CC000704700BF0C04002008040020000034439B
:104CD00040030020F802002000005C42F4020020A3
:104CE00058030020F0020020EC020020E402002023
:104CF0002C030020E0020020DC02002044030020FE
:104D0000D8020020D4020020CC020020340300206E
:104D1000C802002000005CC2C40200204C03002036
:104D2000C0020020BC020020B40200203C0300208E
:104D3000B0020020AC02002054030020A802002092
:104D4000A40200209C0200203003002098020020D2
:104D50009402002048030020900200208C020020D2
:104D60008402002038030020800200207C02002002
:104D70005003002078020020740200206C02002002
:104D80001C000020140400200000B44200000000B9
:104D90002DE9F84F2DED068B664B1B78002B00F0AC
:104DA000B980654BD3ED006A644BD3ED007A76EEA3
:104DB000E76AF2EE047A86EEA77A37EE077A604B5E
:104DC00083ED007A5F4BD3ED006A5F4B93ED007A81
:104DD00076EEC76A86EEA77A37EE077A5B4B83EDED
:104DE000007A5B4BD3ED006A5A4B93ED007A76EE76
:104DF000C76A86EEA77A37EE077A574B83ED007ABB
:104E0000564BD3ED006A564B93ED007A76EEC76AA7
:104E100086EEA77A37EE077A524B83ED007A524B33
:104E2000D3ED006A514B93ED007A76EEC76A86EEB9
:104E3000A77A37EE077A4E4B83ED007A4D4BD3EDD0
:104E4000006A4D4B93ED007A76EEC76A86EEA77A3C
:104E500037EE077A494B83ED007A494BD3ED006A70
:104E6000484B93ED007A76EEC76A86EEA77A37EE66
:104E7000077A454B83ED007A444BD3ED006A444BEF
:104E800093ED007A76EEC76A86EEA77A37EE077A58
:104E9000404B83ED007A404BD3ED006A3F4B93EDDE
:104EA000007A76EEC76A86EEA77A37EE077A3C4B31
:104EB00083ED007A3B4BD3ED006A3B4B93ED007AD8
:104EC00076EEC76A86EEA77A37EE077A374B83ED20
:104ED000007A374BD3ED006A364B93ED007A76EECD
:104EE000C76A86EEA77A37EE077A334B83ED007AEE
:104EF000324BD3ED006A324B93ED007A76EEC76AFF
:104F000086EEA77A37EE077A2E4B83ED007A094BAF
:104F100000221A702C4B93ED008A2C4BD3ED007AB3
:104F2000B4EEE78AF1EE10FA52D9BDEC068BBDE87B
:104F3000F88F00BF1C000020F0020020F8020020C3
:104F400028030020EC020020F402002024030020AB
:104F5000D8020020E002002008030020D402002034
:104F6000DC02002004030020C0020020C802002050
:104F700018030020BC020020C402002014030020FB
:104F8000A8020020B002002000030020A40200209C
:104F9000AC020020FC0200209002002098020020B9
:104FA000200300208C020020940200201C0300201B
:104FB00078020020800200201003002074020020EC
:104FC0007C0200200C0300201800002008040020B0
:104FD000C94BD3ED007A68EE277A9FEDC89AC7EEE9
:104FE000899AF2EE048A69EEA89AC54BD3ED007A4D
:104FF00079EEA79AC34BC3ED009AC34BD3ED007A69
:1050000068EE277A87EE89AA2AEE28AABF4BD3ED4D
:10501000007A3AEE27AABE4B83ED00AABD4B186872
:10502000FBF782FA04460D4618EE100AFBF77CFAED
:10503000AFA3D3E90023FBF7CFFA41EC100B0EF03E
:10504000D3FE57EC106B32463B4620462946FBF711
:10505000C3FAFBF799FD0AEE900AAF4B1860AF4B0D
:1050600093ED007A28EE077AC7EE097A67EEA87A00
:10507000AB4B93ED007A77EE877AAA4BC3ED007ABB
:10508000A94B93ED007A28EE077AC7EE097A67EE0E
:10509000A87AA64B93ED007A77EE877AA44AC2ED00
:1050A000007AA44B1868FBF73FFA02460B463046DD
:1050B0003946FBF791FAFBF767FD9F4908609F4B64
:1050C00093ED007A28EE077AC7EE097A67EEA87AA0
:1050D0009B4B93ED007A77EE877A9A48C0ED007A81
:1050E000994B93ED007A28EE077AC7EE097A67EEBE
:1050F000A87A964B93ED007A77EE877A944CC4EDBC
:10510000007A944B1868FBF70FFA02460B463046BC
:105110003946FBF761FAFBF737FDDFF8A482C8F8E0
:1051200000008D4B93ED007A28EE077AC7EE097ADE
:1051300067EEA87A894B93ED007A77EE877A884DEF
:10514000C5ED007A874B93ED007A28EE077AC7EE1B
:10515000097A67EEA87A844B93ED007A77EE877A26
:10516000824CC4ED007A824B1868FBF7DDF90246E9
:105170000B4630463946FBF72FFAFBF705FD7D4C11
:1051800020607D4B93ED007A28EE077AC7EE097A0E
:1051900067EEA87A794B93ED007A77EE877ADFF89D
:1051A0002492C9ED007A764B93ED007A28EE077AC7
:1051B000C7EE097A67EEA87A724B93ED007A77EE24
:1051C000877ADFF804A2CAED007A6F4B1868FBF704
:1051D000ABF902460B4630463946FBF7FDF9FBF7C3
:1051E000D3FCDFF8E8B1CBF80000684B93ED007A10
:1051F00028EE077AC7EE097A67EEA87A644B93ED3A
:10520000007A77EE877A634DC5ED007A624BD3ED75
:10521000007A28EE278AC8EE097A67EEA87A5F4BF3
:1052200093ED007A77EE877A5D4BC3ED007A5D4BA4
:105230001868FBF779F902460B4630463946FBF70A
:10524000CBF9FBF7A1FC584F3860B0EE6A1AF0EECC
:105250004A0AB0EE690AFDF74FFC9BED001ADAED41
:10526000000A99ED000AFDF7B7FD98ED001A384ED7
:10527000D6ED000A334890ED000AFDF725FF97EDC3
:10528000001A4748D0ED000A95ED000AFEF78CF8A9
:10529000294991ED001A264AD2ED000A214B93EDDF
:1052A000000AFEF7E1F994ED001A304CD4ED000A43
:1052B0002B4D95ED000AFEF73FFB3C4BD3ED007AFA
:1052C0003B4A92ED007A77EE877AC3ED007A394B4C
:1052D00093ED007AF4EEC77AF1EE10FA7FF725AE7F
:1052E000354B1A68314B1A60344B00221A701CE699
:1052F000399D52A246DF913F280300200000B443AD
:10530000F8020020D003002024030020F402002033
:10531000CC030020E4020020C80300200803002082
:10532000E00200209403002004030020DC0200209F
:1053300090030020CC0200208C03002018030020E2
:10534000C8020020B803002014030020C40200207B
:10535000B4030020B402002000030020B0020020AB
:10536000C4030020FC020020AC020020C003002087
:105370009C020020BC030020200300209802002093
:105380001C0300209402002084020020100300204F
:1053900080020020AC0300200C0300207C020020CF
:1053A000A80300206C020020A403002018000020A5
:1053B00068020020080400200C04002014040020CF
:1053C000B0030020A00300209C03002098030020CD
:1053D000022A05D8DFE802F0020608000023036075
:1053E000002070470160FBE70B680360F8E7012AC3
:1053F00002D101600020704708B5FFF7E9FF0020E7
:1054000008BD08B54FF6FF710120FBF765FC08BD2C
:1054100008B54FF6FF710020FBF75EFC08BD0000E9
:1054200070B505460E46002404E0315D03480CF0DB
:1054300071FC0134A542F8DC70BD00BF8C0800206F
:1054400000B585B0FF238DF800308DF80130FE23C4
:105450008DF8023009238DF8033083238DF8043052
:105460001E238DF8053004238DF80630C0F3072283
:10547000C0B2831813218DF807108DF808008DF83D
:1054800009200C228DF80A2003228DF80B20C3F18D
:105490007F4303F57F0303F57E4331338DF80C30F2
:1054A00069460D20FFF7BCFF05B05DF804FB000066
:1054B00070B505460E46002404E0315D03480CF04B
:1054C00029FC0134A542F8DC70BD00BF8C08002027
:1054D00030B59BB0C0F30723C0B2FF228DF8042083
:1054E0008DF80520FE228DF806205E228DF807201B
:1054F00083228DF808201E228DF809204FF0040E1B
:105500008DF80AE0C54A1168C1F30725CCB26119CC
:105510000144194401F202214FF0010C8DF80BC037
:105520008DF80C408DF80D508DF80E008DF80F3071
:105530005468C4F30725E4B204EB050C84449C448E
:105540000CF1020C8C4402218DF810108DF81140E2
:105550008DF812508DF813008DF814309168C1F356
:105560000725CCB2611901441944033161444FF05D
:10557000030C8DF815C08DF816408DF817508DF876
:1055800018008DF81930D468C4F30725E4B204EB91
:10559000050C84449C44F4448C448DF81AE08DF846
:1055A0001B408DF81C508DF81D008DF81E301169C0
:1055B000C1F3072ECCB204EB0E01014419440531AE
:1055C000614405258DF81F508DF820408DF821E0AD
:1055D0008DF822008DF823305469C4F3072EE4B20D
:1055E00004EB0E0C84449C440CF1060C8C44062104
:1055F0008DF824108DF825408DF826E08DF82700D1
:105600008DF828309169C1F3072ECCB204EB0E015E
:10561000014419440731614407258DF829508DF85C
:105620002A408DF82BE08DF82C008DF82D30D469B0
:10563000C4F3072EE4B204EB0E0C84449C440CF13A
:10564000080C8C4408218DF82E108DF82F408DF811
:1056500030E08DF831008DF83230116AC1F3072E39
:10566000CCB204EB0E01014419440931614409250F
:105670008DF833508DF834408DF835E08DF83600D4
:105680008DF83730546AC4F3072EE4B204EB0E0CE5
:1056900084449C440CF10A0C8C440A218DF8381087
:1056A0008DF839408DF83AE08DF83B008DF83C30AC
:1056B000916AC1F3072ECCB204EB0E0101441944E8
:1056C0000B3161440B258DF83D508DF83E408DF82F
:1056D0003FE08DF840008DF84130D46AC4F3072EC6
:1056E000E4B204EB0E0C84449C440CF10C0C8C448E
:1056F0000C218DF842108DF843408DF844E08DF870
:1057000045008DF84630116BC1F3072ECCB204EB87
:105710000E01014419440D3161440D258DF84750A7
:105720008DF848408DF849E08DF84A008DF84B30EF
:10573000546BC4F3072EE4B204EB0E0C84449C4477
:105740000CF10E0C8C440E218DF84C108DF84D4050
:105750008DF84EE08DF84F008DF85030916BC1F30D
:10576000072ECCB204EB0E01014419440F31614401
:105770000F258DF851508DF852408DF853E08DF87B
:1057800054008DF85530D46BC4F3072EE4B204EB0B
:105790000E0C84449C440CF1100C8C4410218DF8A8
:1057A00056108DF857408DF858E08DF859008DF857
:1057B0005A30116CC1F307245FFA81FE0EEB04012D
:1057C000014419441131614411258DF85B508DF865
:1057D0005CE08DF85D408DF85E008DF85F30526CB6
:1057E000C2F307245FFA82FC0CEB040202441A4461
:1057F00012320A4412218DF860108DF861C08DF8C4
:1058000062408DF863008DF86430D3438DF86530C5
:1058100001A96220FFF74CFE1BB030BD2002002022
:1058200008B52DED068BDFED3C8A9FED3C9AB3EE7B
:10583000041AF0EE680AB0EE490AFDF75DF99FED33
:10584000388A9FED38AAB3EE041AF0EE480AB0EE9B
:105850004A0AFDF7C1FAB3EE041AF0EE490AB0EEB7
:10586000490AFDF731FCB3EE041AF0EE490AB0EE36
:10587000680AFDF799FDDFED2C9AB3EE041AF0EEFD
:10588000480AB0EE690AFDF7EFFEB3EE041AF0EE37
:10589000680AB0EE680AFEF74FF84FF40070FFF7A1
:1058A00017FE4FF4FA700DF057F9B0EE481AF0EE0B
:1058B000680AB0EE490AFDF71FF9B0EE481AF0EE9B
:1058C000480AB0EE4A0AFDF787FAB0EE481AF0EE41
:1058D000490AB0EE490AFDF7F7FBB0EE481AF0EEC0
:1058E000490AB0EE680AFDF75FFDB0EE481AF0EE27
:1058F000480AB0EE690AFDF7B7FEB0EE481AF0EEBE
:10590000680AB0EE680AFEF717F84FF40070FFF768
:10591000DFFDBDEC068B08BD00005C4200005CC2F0
:1059200000000000000096C20000964208B50CE09E
:10593000234B1B78ABBB00231A461946214800684D
:1059400004F097F8112004F047FF4FF0FF311E4B91
:10595000186804F0D8FA4FF0FF311A4B186804F0B9
:10596000D2FA0128EED1FFF713FA184BD3ED007AE3
:10597000F4EE677AF1EE10FADAD6154BD3ED007A31
:10598000F4EE677AF1EE10FAD2D6124BD3ED007A2C
:10599000F4EE677AF1EE10FACAD60020FFF798FD10
:1059A000C6E7FCF717FBFCF7AFFA0B4B19680B487F
:1059B00006F00EF80A4B1868FFF742FDBBE700BF80
:1059C000D4030020440400204804002018020020D2
:1059D0001402002010020020D80300200805002037
:1059E000DC03002010B58AB0404803681B683121F1
:1059F00098473F4C214607A80CF05DFD214604A8BE
:105A00000CF059FD214601A80CF055FD002406E0DC
:105A100036480CF0E1FBC1B27C2911D10134334886
:105A20000CF052F9002834D0002CF1D0012C24D0F5
:105A30002E480CF0D1FBC1B201A80CF067FDEEE7D7
:105A400007A80CF063FD099B032BE8D929492A48D4
:105A50000CF022FC02E025480CF0BEFB26480CF0BE
:105A600033F90028F7D101A80CF0DDFC04A80CF0F4
:105A7000DAFC07A80CF0D7FC19E01C480CF0ACFBD2
:105A8000C1B27C2901D10234C9E704A80CF03EFD63
:105A9000C5E7174907A80CF047FD50B101A80CF065
:105AA000C2FC04A80CF0BFFC07A80CF0BCFC0AB0B8
:105AB00010BD0F4904A80CF037FD0028EED10C49A9
:105AC00001A80CF031FD0028E8D107A80CF046FD34
:105AD0000A4B186004A80CF041FD094B186001A89E
