:020000040800F2
:1000000000000220F94F01084950010817DA0008E2
:10001000495001081FDA000827DA00080000000034
:10002000000000000000000000000000B1DB00083C
:10003000495001080000000051DC000809310108A6
:100040004950010849500108495001084950010828
:1000500049500108495001083D3301084733010860
:10006000513301085B330108653301084950010829
:1000700049500108495001084950010849500108F8
:1000800049500108495001084950010849500108E8
:100090004950010849500108495001086F330108CF
:1000A000A5290108C5280108B9290108E528010882
:1000B000F92801080D2901082129010875BB00084C
:1000C00085BB000895BB0008A5BB00084950010886
:1000D000495001080144010819440108314401084C
:1000E000853301084950010849500108CD2901080C
:1000F00071290108E12901089129010849500108E5
:1001000049500108495001083529010849500108A2
:100110004944010861440108492901085D29010891
:100120004950010849500108495001084950010847
:100130004950010849500108495001084950010837
:100140004950010849500108495001084950010827
:1001500049500108495001084950010879440108F3
:10016000B5BB0008C5BB000849500108495001084B
:100170004950010849500108495001080000000099
:08018000495001084950010833
:1001900010F8012B11F8013B012A28BF9A42F7D031
:1001A000D01A7047000000000000000000000000AE
:1001B00001F0FF01102A2BDB10F0070F08D010F818
:1001C000013B013A8B422DD010F0070F42B3F6D11C
:1001D000F0B441EA012141EA014122F007047FF035
:1001E00000070023F0E80256083C85EA010586EA8C
:1001F000010685FA47F5A3FA87F586FA47F6A5FAC8
:1002000087F68EB9EED1F0BC01F0FF0102F00702D3
:1002100032B110F8013B013A83EA010313B1F8D17E
:100220000020704701387047002D06BF354603385F
:10023000073815F0010F07D1013015F4807F02BF98
:10024000013015F4C03F0130F0BC0138704700BFE9
:10025000034613F8012B002AFBD1181A0138704706
:1002600081F0004102E000BF83F0004330B54FEA67
:1002700041044FEA430594EA050F08BF90EA020FD4
:100280001FBF54EA000C55EA020C7FEA645C7FEA67
:10029000655C00F0E2804FEA5454D4EB5555B8BF8A
:1002A0006D420CDD2C4480EA020281EA030382EAFB
:1002B000000083EA010180EA020281EA0303362D8D
:1002C00088BF30BD11F0004F4FEA01314FF4801C60
:1002D0004CEA113102D0404261EB410113F0004F72
:1002E0004FEA03334CEA133302D0524263EB430329
:1002F00094EA050F00F0A780A4F10104D5F1200EC7
:100300000DDB02FA0EFC22FA05F2801841F1000121
:1003100003FA0EF2801843FA05F359410EE0A5F1F5
:1003200020050EF1200E012A03FA0EFC28BF4CF026
:10033000020C43FA05F3C01851EBE37101F00045DC
:1003400007D54FF0000EDCF1000C7EEB00006EEBE9
:100350000101B1F5801F1BD3B1F5001F0CD3490873
:100360005FEA30004FEA3C0C04F101044FEA4452CA
:1003700012F5800F80F09A80BCF1004F08BF5FEA51
:10038000500C50F1000041EB045141EA050130BD31
:100390005FEA4C0C404141EB0101013C28BFB1F543
:1003A000801FE9D291F0000F04BF01460020B1FA8E
:1003B00081F308BF2033A3F10B03B3F120020CDA61
:1003C0000C3208DD02F1140CC2F10C0201FA0CF03F
:1003D00021FA02F10CE002F11402D8BFC2F1200CA4
:1003E00001FA02F120FA0CFCDCBF41EA0C0190405A
:1003F000E41AA2BF01EB0451294330BD6FEA0404A3
:100400001F3C1CDA0C340EDC04F11404C4F120028D
:1004100020FA04F001FA02F340EA030021FA04F39F
:1004200045EA030130BDC4F10C04C4F1200220FAF6
:1004300002F001FA04F340EA0300294630BD21FA34
:1004400004F0294630BD94F0000F83F4801306BFFA
:1004500081F480110134013D4EE77FEA645C18BFEE
:100460007FEA655C29D094EA050F08BF90EA020F85
:1004700005D054EA000C04BF1946104630BD91EA7D
:10048000030F1EBF0021002030BD5FEA545C05D180
:100490004000494128BF41F0004130BD14F58004BF
:1004A0003CBF01F5801130BD01F0004545F0FE4133
:1004B00041F470014FF0000030BD7FEA645C1ABF68
:1004C000194610467FEA655C1CBF0B46024650EA9F
:1004D000013406BF52EA033591EA030F41F40021CB
:1004E00030BD00BF90F0000F04BF0021704730B551
:1004F0004FF4806404F132044FF000054FF0000126
:1005000050E700BF90F0000F04BF0021704730B5E6
:100510004FF4806404F1320410F0004548BF4042BB
:100520004FF000013EE700BF42004FEAE2014FEA10
:1005300031014FEA02701FBF12F07F4393F07F4FEB
:1005400081F06051704732F07F4208BF704793F0EE
:100550007F4F04BF41F40021704730B54FF4607401
:1005600001F0004521F000411CE700BF50EA010204
:1005700008BF704730B54FF000050AE050EA0102AD
:1005800008BF704730B511F0004502D5404261EB1D
:1005900041014FF4806404F132045FEA915C3FF45E
:1005A000D8AE4FF003025FEADC0C18BF03325FEAFB
:1005B000DC0C18BF033202EBDC02C2F1200300FAAC
:1005C00003FC20FA02F001FA03FE40EA0E0021FAD1
:1005D00002F11444BDE600BF70B54FF0FF0C4CF4BF
:1005E000E06C1CEA11541DBF1CEA135594EA0C0F71
:1005F00095EA0C0F00F0DEF82C4481EA030621EAAC
:100600004C5123EA4C5350EA013518BF52EA0335E6
:1006100041F4801143F4801338D0A0FB02CE4FF098
:100620000005E1FB02E506F00042E0FB03E54FF0C8
:100630000006E1FB03569CF0000F18BF4EF0010EC0
:10064000A4F1FF04B6F5007F64F5407404D25FEABC
:100650004E0E6D4146EB060642EAC62141EA55516F
:100660004FEAC52040EA5E504FEACE2EB4F1FD0CB1
:1006700088BFBCF5E06F1ED8BEF1004F08BF5FEA2F
:10068000500E50F1000041EB045170BD06F00046E1
:1006900046EA010140EA020081EA0301B4EB5C048E
:1006A000C2BFD4EB0C0541EA045170BD41F4801186
:1006B0004FF0000E013C00F3AB8014F1360FDEBFAB
:1006C000002001F0004170BDC4F10004203C35DA87
:1006D0000C341BDC04F11404C4F1200500FA05F30A
:1006E00020FA04F001FA05F240EA020001F00042AB
:1006F00021F0004110EBD37021FA04F642EB060121
:100700005EEA430E08BF20EAD37070BDC4F10C044A
:10071000C4F1200500FA04F320FA05F001FA04F20E
:1007200040EA020001F0004110EBD37041F10001FA
:100730005EEA430E08BF20EAD37070BDC4F1200505
:1007400000FA05F24EEA020E20FA04F301FA05F26D
:1007500043EA020321FA04F001F0004121FA04F215
:1007600020EA020000EBD3705EEA430E08BF20EAE5
:10077000D37070BD94F0000F0FD101F0004640001F
:1007800041EB010111F4801F08BF013CF7D041EAA1
:10079000060195F0000F18BF704703F000465200A5
:1007A00043EB030313F4801F08BF013DF7D043EA76
:1007B0000603704794EA0C0F0CEA135518BF95EA2C
:1007C0000C0F0CD050EA410618BF52EA4306D1D1B3
:1007D00081EA030101F000414FF0000070BD50EAD2
:1007E000410606BF1046194652EA430619D094EA5C
:1007F0000C0F02D150EA013613D195EA0C0F05D146
:1008000052EA03361CBF104619460AD181EA030199
:1008100001F0004141F0FE4141F470014FF0000051
:1008200070BD41F0FE4141F4780170BD70B54FF0EC
:10083000FF0C4CF4E06C1CEA11541DBF1CEA13556C
:1008400094EA0C0F95EA0C0F00F0A7F8A4EB05044E
:1008500081EA030E52EA03354FEA013100F0888045
:100860004FEA03334FF0805545EA131343EA12630E
:100870004FEA022245EA111545EA10654FEA0026C3
:100880000EF000419D4208BF964244F1FD0404F57C
:10089000407402D25B084FEA3202B61A65EB0305D8
:1008A0005B084FEA32024FF480104FF4002CB6EB95
:1008B000020E75EB030E22BFB61A754640EA0C0015
:1008C0005B084FEA3202B6EB020E75EB030E22BF55
:1008D000B61A754640EA5C005B084FEA3202B6EB96
:1008E000020E75EB030E22BFB61A754640EA9C0055
:1008F0005B084FEA3202B6EB020E75EB030E22BF25
:10090000B61A754640EADC0055EA060E18D04FEAE2
:10091000051545EA16754FEA06164FEAC30343EA82
:1009200052734FEAC2025FEA1C1CC0D111F4801F4F
:100930000BD141EA00014FF000004FF0004CB6E748
:1009400011F4801F04BF01430020B4F1FD0C88BFE7
:10095000BCF5E06F3FF6AFAEB5EB030C04BFB6EBF2
:10096000020C5FEA500C50F1000041EB045170BDE5
:100970000EF0004E4EEA113114EB5C04C2BFD4EB12
:100980000C0541EA045170BD41F480114FF0000E96
:10099000013C90E645EA060E8DE60CEA135594EA12
:1009A0000C0F08BF95EA0C0F3FF43BAF94EA0C0F15
:1009B0000AD150EA01347FF434AF95EA0C0F7FF48A
:1009C00025AF104619462CE795EA0C0F06D152EADE
:1009D00003353FF4FDAE1046194622E750EA4106C2
:1009E00018BF52EA43067FF4C5AE50EA41047FF4D3
:1009F0000DAF52EA43057FF4EBAE12E74FF0FF3C38
:100A000006E000BF4FF0010C02E000BF4FF0010C08
:100A10004DF804CD4FEA410C7FEA6C5C4FEA430C81
:100A200018BF7FEA6C5C1BD001B050EA410C0CBFD0
:100A300052EA430C91EA030F02BF90EA020F002032
:100A4000704710F1000F91EA030F58BF994208BF99
:100A500090422CBFD8176FEAE37040F00100704756
:100A60004FEA410C7FEA6C5C02D150EA013C07D1AD
:100A70004FEA430C7FEA6C5CD6D152EA033CD3D0F8
:100A80005DF8040B704700BF8446104662468C46F2
:100A90001946634600E000BF01B5FFF7B7FF002825
:100AA00048BF10F1000F01BD4DF808EDFFF7F4FF4E
:100AB0000CBF012000205DF808FB00BF4DF808EDD9
:100AC000FFF7EAFF34BF012000205DF808FB00BFFC
:100AD0004DF808EDFFF7E0FF94BF012000205DF81E
:100AE00008FB00BF4DF808EDFFF7CEFF94BF0120D3
:100AF00000205DF808FB00BF4DF808EDFFF7C4FFCC
:100B000034BF012000205DF808FB00BF4FEA410C14
:100B10007FEA6C5C02D150EA013C0AD14FEA430CF7
:100B20007FEA6C5C02D152EA033C02D14FF0000034
:100B300070474FF0010070474FEA410212F5001272
:100B400015D211D56FF47873B3EB625212D94FEA14
:100B5000C12343F0004343EA505311F0004F23FAFE
:100B600002F018BF404270474FF00000704750EA53
:100B7000013005D111F0004008BF6FF00040704710
:100B80004FF00000704700BF4FEA4102B2F1E0436E
:100B900024BFB3F5001CDCF1FE5C0DD901F0004C64
:100BA0004FEAC0024CEA5070B2F1004F40EB8300B4
:100BB00008BF20F00100704711F0804F21D113F1E0
:100BC0003872BCBF01F00040704741F480114FEA19
:100BD0005252C2F11802C2F1200C10FA0CF320FAA2
:100BE00002F018BF40F001004FEAC1234FEAD323BF
:100BF00003FA0CFC40EA0C0023FA02F34FEA430329
:100C0000CCE77FEA625307D150EA01331EBF4FF0B1
:100C1000FE4040F44000704701F0004040F0FE40CC
:100C200040F40000704700BF53B94AB9002908BF1B
:100C300000281CBF4FF0FF314FF0FF3000F00CB820
:100C4000ADF1080C6DE904CE18F0F0FEDDF804E01B
:100C5000DDE9022304B07047704700BF10B5054CB2
:100C6000237833B9044B13B10448AFF30080012358
:100C7000237010BD7801002000000000F09C0108E6
:100C800008B5034B1BB103490348AFF3008008BD0F
:100C9000000000007C010020F09C010808B50368FA
:100CA000984708BD00B583B00023019301A9094B03
:100CB00018680BF088FC019B4BB14FF0E0234FF01C
:100CC0008052C3F8042DBFF34F8FBFF36F8F03B073
:100CD0005DF804FB7C040020F0B585B004460D46A9
:100CE000012806D01CB94FF6FF739D4251D005B0C4
:100CF000F0BD4FF6FF739942F4D12B4F1822192102
:100D000038460AF0F5F8294B0293294B0193002647
:100D100000963B4620228021264808F015FE3246E8
:100D20002549264813F058FD32462549254813F039
:100D300053FD32462449254813F04EFD244B6422CE
:100D40009A601E82C3F8AC601E605E60FF2283F86A
:100D5000B0204FF6FF72A3F8B220A3F8B420A3F896
:100D6000B620A3F8B820A3F8BA201A480DF062FA0A
:100D700019480DF05FFA19480DF05CFA18480DF0AB
:100D800059FA18480DF056FA1749184811F08CFE18
:100D9000A8E7164811F012FD064808F005FE0248C3
:100DA0000AF032F9A3E700BF440A0020A086010040
:100DB000801A0600D809002000440040C008002026
:100DC00000480040A80700200014014090060020C1
:100DD0009405002044050020400500203C0500202B
:100DE0003805002034050020001000408004002059
:100DF00010B50446836813B1032201469847204684
:100E000010BD70B504460E461546006860B132212B
:100E10000AF048F9206803685B682A46314698471B
:100E200020680AF069FA70BD60680028FBD003688A
:100E30005B689847F7E710B504460068E0B10368BF
:100E40001B69984778B1206803681B69984780B18F
:100E5000206803685B699847C0B20DF027F8034625
:100E60000028F0D006E01022322120680AF03DFA76
:100E7000E9E70023184610BD6368002BFAD06068CC
:100E800003681B69984750B1606803685B699847BD
:100E9000C0B20DF00BF803460028F0D0EAE70023BB
:100EA000E8E738B504460D4614F05EFAE06014F049
:100EB0005BFAE368C01AA36898420DD82046FFF792
:100EC000BAFF03460028F2D03DB128460DF030F8B5
:100ED00003460028EBD000E00023184638BD10B5CB
:100EE00004461346B1F962209A4208DDD1F8AC10ED
:100EF0004C2202FB031115F02AF9204610BD4C22AA
:100F0000B03115F024F9F8E738B5044610460A70F8
:100F10000DF05EF805460DF087F80246294620469A
:100F2000FFF76FFF38BD30B595B005460024042C9F
:100F30000CDC2C2201A92846FFF7E6FF2E212846CB
:100F4000FFF7AFFF034610B90134F0E7002318465E
:100F500015B030BD70B50C46154610460CF0E8FFD4
:100F6000064608B9304670BD25700CF0F9FF608068
:100F70000CF0F6FFA0800CF0F3FFE0800CF0F0FF27
:100F800020810CF0EDFF60810DF00AF8EAE7F0B582
:100F900083B00446002303822921FFF782FF07461E
:100FA00010B9384603B0F0BD292204F16001204693
:100FB000FFF7D0FFD4F8AC00B4F9623000930122FF
:100FC0000192002B0ADD6B461B684C2103FB01F1EB
:100FD00014F0A6FAC4F8AC00002602E001ABF3E777
:100FE0000136B4F96230B342DBDD00212046FFF761
:100FF00058FFB0B1D4F8AC104C2506FB05F52A22F9
:1010000029442046FFF7A6FF0028E9D1D4F8AC1008
:101010002B2229442046FFF79DFF0028E0D10746F8
:10102000BFE70746BDE710B594B00446202201A9EA
:10103000FFF76AFF2046FFF7AAFF14B010BD70B596
:1010400005460C4610460A700CF0C2FF0646B4F97D
:1010500002000CF0D3FF0CF0E7FF024631462846B1
:10106000FFF7CFFE70BD10B594B00446ADF8061082
:101070002D2201A9FFF7E3FF2E212046FFF711FFE4
:1010800014B010BD704700007C4B1B78002B40F063
:10109000F38010B57A4B01221A70B42393FBF0F35E
:1010A00007EE903AF8EEE77A764BC3ED007A764B8E
:1010B000C3ED007A754B1B6863B1934279D001335D
:1010C000724A1360022B04DD00236D4A13706F4ACD
:1010D000136010BD00226E490A606E490A606E49B5
:1010E0006E4808606E496F480160DFED6F7A6F48A7
:1010F000C0ED007A6E4801606E4802606E48026082
:101100006E486F4C20609FED6F7A6F4C84ED007AD3
:101110006E4C20606E4801606E4802606E4801604F
:10112000DFF838E26D48C0F800E06D480160DFF894
:1011300028C26C48C0F800C06B4802606B486C4C19
:1011400020606C4CC4ED007A6B4C20606B4C2260CC
:101150006B4C2260DFED6B7A6B4CC4ED007A6B4C0C
:1011600084ED007A6A4CC4ED007A6A4C21606A49C9
:101170000A606A4908606A49C1F800E06949086084
:101180006949C1F800C069490A60694A69490A6049
:1011900069490A60694A6A490A606A490A60012223
:1011A00069490A7069490A7069490A7033490A70C5
:1011B00085E7684A33490A6033490A603849394A41
:1011C00011600022394802603948016039480260E4
:1011D0003948026039483A4C20603B4C21603B4C16
:1011E00020603B4801603B4802603B4801605A4830
:1011F0003A4C20603A4C21603A4C20603A4C2260D4
:10120000DFF8E8C03A4CC4F800C03A4C22603A4CCF
:10121000C4F800C0394C2260394C2260DFF840E14C
:10122000394CC4F800E0394C2160394CC4F800E076
:10123000384C216038490A603849C1F800C0384943
:1012400008603849C1F800C03749086037490A606A
:10125000374A38490A6038490A60384A38490A60CA
:1012600038490A60012238490A7038490A703849F9
:101270000A7002490A7022E7704700BF400400204C
:101280000004002094020020280400200C04002008
:1012900020000020380400203404002000003443E3
:1012A00000005CC2240300200000D2422003002082
:1012B0001C030020180300201003002000009842A7
:1012C0000C03002000004842080300200403002013
:1012D00000030020F8020020F4020020F0020020A9
:1012E000EC020020E8020020E002002000005C4246
:1012F000DC020020D8020020D4020020D00200200E
:10130000C8020020000098C2C4020020C0020020D1
:10131000BC020020B8020020B0020020AC02002075
:10132000A8020020A4020020A002002098020020B1
:101330000000884124040020200400200000044311
:101340001C040020180400200204002001040020D6
:10135000240000200000B4420000ACC20000A0C085
:10136000000098C2874B1B78002B40F02F8310B5EC
:10137000854B01221A70B42393FBF0F307EE903AE9
:10138000F8EEE77A814BC3ED007A814BC3ED007A2A
:10139000804B1B68042B7ED8DFE813F00500890022
:1013A0007201DD01BE027C4B784A1360784A1360FB
:1013B00000247A4B1C607A4B1C607A4B7A4A1A6084
:1013C00008217A480CF06CFF794B1A68794B1A6047
:1013D000794B1B6879490B6079490A60794A136037
:1013E000794B1C60794B1A68794B1A60794B1B68F2
:1013F00079490B6079490A60794A1360794B1C601E
:10140000794B1A68794B1A60794B1B6879490B60E4
:1014100079490A60794A1360794B1C60794B1A68E4
:10142000794B1A60794B1B6879490B6079490A60DE
:10143000794A1360794B1C60794B1A68794B1A60B2
:10144000794B1B6879490B6079490A60794A1360C6
:10145000794B1C60794B1A68794B1A60794B1B6881
:1014600079490B6079490A60794A1360794B1C60AD
:10147000794B7A4A13607A4A13607A4B7A4A13603E
:101480007A4A136001237A4A13703E4A1370794AEC
:101490001370794A13703F4A136801331360052BA8
:1014A00004DD0023384A13703A4A136010BD404BE4
:1014B0001A68404B1A60404B1B6840490B6040491A
:1014C0000A60404A136000233F4A13603F4A116894
:1014D0003F4A11603F4A12683F4802603F4801603E
:1014E0003F490A603F4A13603F4A11683F4A116012
:1014F0003F4A12683F4802603F4801603F490A6026
:101500003F4A13603F4A11683F4A11603F4A1268E0
:101510003F4802603F4801603F490A603F4A13600C
:101520003F4A11683F4A11603F4A12683F480260D3
:101530003F4801603F490A603F4A13603F4A1168D3
:101540003F4A11603F4A12683F4802603F480160CD
:101550003F490A603F4A1360404B3F4A1A60404B84
:10156000464A1A603F4B404A1360404A13600123C9
:101570003F4A1370034A13703E4A13703E4A137079
:1015800089E700BF400400200004002094020020EE
:10159000280400200C04002000004041200000200E
:1015A00038040020340400200000344340050020AB
:1015B000FC03002024030020F80300202003002067
:1015C0001C0300201803002010030020C00300208B
:1015D0000C030020BC0300200803002004030020AB
:1015E00000030020F8020020E4030020F4020020A1
:1015F000E0030020F0020020EC020020E8020020BE
:10160000E0020020F0030020DC020020EC030020B8
:10161000D8020020D4020020D0020020C8020020FE
:10162000CC030020C4020020C8030020C002002018
:10163000BC020020B8020020B0020020D803002025
:10164000AC020020D4030020A8020020A402002045
:10165000A0020020980200200000884124040020FD
:1016600020040020000004431C0400201804002073
:101670002400002002040020010400200000F042A9
:101680006B4B1A686B4B1A606B4B1B686B490B609A
:101690006B490A606B4A136000236B4A13606B4A04
:1016A00011686B4A11606B4A12686B4802606B48A4
:1016B00001606B490A606B4A13606B4A11686B4AA0
:1016C00011606B4A12686B4802606B4801606B499D
:1016D0000A606B4A13606B4A11686B4A11606B4A6F
:1016E00012686B4802606B4801606B490A606B4A84
:1016F00013606B4A11686B4A11606B4A12686B4841
:1017000002606B4801606B490A606B4A13606B4A68
:1017100011686B4A11606B4A12686B4802606B4833
:1017200001606B490A606B4A13606B4B6B4A1A602D
:101730006B4B6C4A1A606C4B6C4A1A606C4B6D4A6E
:101740001A6001236C4A13706C4A13706C4A137050
:101750006C4A13709FE6364B1A68364B1A60364B4C
:101760001A68364B1A60684A354B1A606749354B20
:101770001960002334480360344804683448046026
:1017800034480468344804603448614C0460344888
:1017900003603448036034480468344804603448C3
:1017A00004683448046034480260344802603448B5
:1017B000036034480468344804603448046834489A
:1017C00004603448016034480160344803603448A0
:1017D0000468344804603448046834480460344879
:1017E0004C4C04603348036033480360334804685A
:1017F0003348046033480468334804603348016068
:1018000033490A60334A1360364B334A1360344A13
:101810001360384B344A1360354A13600123384A49
:101820001370384A1370344A1370344A137032E616
:10183000FC03002024030020F803002020030020E4
:101840001C0300201803002010030020C003002008
:101850000C030020BC030020080300200403002028
:1018600000030020F8020020E4030020F40200201E
:10187000E0030020F0020020EC020020E80200203B
:10188000E0020020F0030020DC020020EC03002036
:10189000D8020020D4020020D0020020C80200207C
:1018A000CC030020C4020020C8030020C002002096
:1018B000BC020020B8020020B0020020D8030020A3
:1018C000AC020020D4030020A8020020A4020020C3
:1018D000A002002098020020240400200000F04212
:1018E000200400200000A4421C0400200000044347
:1018F0001804002000007043240000204004002051
:10190000020400200104002000005CC200005C42D0
:1019100000009842000098C22D4B2E4A13602E4AB8
:1019200013602E4A2E4B1A602E492F4B19602F4BF5
:101930001A602F4B196000232E4803602E482F4C4D
:1019400020602F4C23602F4C20602F4803602F48CD
:1019500003602F4802602F4802602F4802602F4822
:1019600002602F4803602F4801602F4801602F4814
:1019700001602F4801602F4803602F482F4C2060E2
:101980002F4C23602F4C20602F4803602F480360AA
:101990002F4801602F4802602F4801602F490A60DC
:1019A0002F4A13602F4B304A1360304A1360304B7C
:1019B000304A1360304A13600123304A1370304AB2
:1019C0001370304A1370304A137064E5704700BFDB
:1019D0000000B442940200202804002000005CC2F1
:1019E0002403002000005C42200300201C03002090
:1019F0001803002010030020000098420C03002070
:101A0000080300200403002000030020F802002047
:101A1000F4020020F0020020EC020020E802002086
:101A2000E0020020DC020020D8020020D4020020C6
:101A3000D0020020C8020020000098C2C40200208A
:101A4000C0020020BC020020B8020020B00200202A
:101A5000AC020020A8020020A4020020A002002066
:101A6000980200200000A44224040020200400204A
:101A7000000070431C040020180400200204002011
:101A80000104002024000020400400207E4B1B782D
:101A9000002B40F0D48110B57C4B01221A70B42386
:101AA00093FBF0F307EE903AF8EEE77A784BC3ED4C
:101AB000007A784BC3ED007A774B1B6893427BD05A
:101AC000022B00F057815BB1734A13680133136036
:101AD000032B04DD00236D4A13706F4A136010BDA1
:101AE00034216E480CF0DCFB00236D4A13606D4A14
:101AF00013606D4A6D4911606D496E4A11606E4AFE
:101B00006E4802606E480160DFF860E26D48C0F820
:101B100000E06D4803606D486D4C20606D4C2360A3
:101B20006D4C2060DFF838C26C48C0F800C06C48CB
:101B300003606C4801606C4801606C4801606C484F
:101B40006C4C20606C4C23606C4C22606C4C2260AE
:101B50006C4C22606C4CC4F800E06C4C2360DFF8E5
:101B600010E26B4CC4F800E06A4C23606A4CC4F885
:101B700000E06A4CC4F800C0694C2360694C2260E4
:101B8000694C216069490A60694A1060694A1360BA
:101B9000694B6A4A13606A4A13606A4B6A4A136067
:101BA0006A4A136001236A4A13706A4A13706A4AC8
:101BB0001370354A137087E7684B354A1360354A0E
:101BC00013603B493B4B1960DFF8A0C13B4BC3F8A6
:101BD00000C03B4B19603B4BC3F800C000233A4A9E
:101BE00013603A4A3A4802605D483A4C20603A4CE9
:101BF00022603A4A10603A4A13603A4A11603C4AFD
:101C0000394C2260394C21603A490A603A490B60EC
:101C100029493A4C21603A4CC4F800C0394C216043
:101C2000394CC4F800C0394C2360DFF844C1384C4B
:101C3000C4F800C0374C2060374CC4F800C0374CA3
:101C400020603748036037480160374802603748F2
:101C5000016037490A60374A1360384B364A1A60C8
:101C6000374B404A1A60384B364A1A60374B3E4A67
:101C70001A600123364A1370364A1370364A1370BD
:101C8000014A137020E700BF400400200004002038
:101C900094020020280400200C04002040050020AD
:101CA00020000020380400203404002000003443C9
:101CB00000005CC22403002000005C4220030020DE
:101CC0001C0300201803002010030020000098428D
:101CD0000C03002008030020040300200003002060
:101CE000F8020020F4020020F0020020EC020020A4
:101CF0000000A0C0E8020020E0020020DC0200207A
:101D0000D8020020D4020020D0020020C802002007
:101D1000C4020020C0020020BC020020B802002043
:101D2000B0020020AC020020A8020020A402002083
:101D3000A0020020980200200000A44224040020F9
:101D400020040020000070431C0400201804002020
:101D50000204002001040020240000200000A04014
:101D60000000484200008841000004430000D242C5
:101D7000000098C2324B334A1360334A1360334930
:101D8000334B1960DFF878C1324BC3F800C0324BD7
:101D90001960324BC3F800C00023314A1360314A46
:101DA000314802603148324C2060324C2260324A65
:101DB0001060324A1360324A1160324A324C22605B
:101DC000324C216032490A6032490B603249334C4F
:101DD0002160334CC4F800C0324C2160324CC4F84E
:101DE00000C0324C2360DFF81CC1314CC4F800C085
:101DF000304C2060304CC4F800C0304C206030487B
:101E0000036030480160304802603048016030496A
:101E10000A60304A1360304B304A1360304A136016
:101E2000304B314A1360314A13600123304A13703A
:101E3000304A1370304A1370304A137044E67047CA
:101E40000000B442940200202804002000005CC27C
:101E500024030020200300201C030020180300207E
:101E600010030020000098420C03002000004842AC
:101E7000080300200403002000030020F8020020D3
:101E8000F40200200000A0C0F0020020EC020020BC
:101E9000E8020020E002002000005C42DC0200209A
:101EA000D8020020D4020020D0020020C802002066
:101EB000C4020020C0020020BC020020B8020020A2
:101EC000B0020020AC020020A8020020A4020020E2
:101ED000A002002098020020000088412404002075
:101EE00020040020000004431C04002018040020EB
:101EF00002040020010400202400002040040020EF
:101F00000000D242000098C208B52DED028B284B8C
:101F100093ED008ADFED277AB4EEE78AF1EE10FA4E
:101F20003CD8254BD3ED006A244B93ED007A37EE75
:101F3000667AB2EE046AC7EE067A77EEA77A204B8D
:101F4000C3ED007A68EE277ADFED1E5A87EEA57A98
:101F500067EE067A76EEA77A17EE900AFEF7E4FAB5
:101F600011A3D3E90023FEF737FBFEF7E5FD164B7F
:101F70001860164BD3ED007A38EE278A0C4B83EDB0
:101F8000008ADFED0C7AB4EEE78AF1EE10FA05DD97
:101F90000F4B00221A70064B00221A60BDEC028B18
:101FA00008BD00BFAFF3008048E17A14AE470B4094
:101FB00014040020000034431C04002018040020F6
:101FC0002C0400200000B443080400202804002052
:101FD000020400201F4BD3ED007A9FED1F7AF4EE30
:101FE000C77AF1EE10FA34D81C4BD3ED006A1C4BC3
:101FF00093ED006A36EE666AF2EE045A86EE257AB2
:1020000037EE077A174B83ED007A27EE877A9FED3C
:10201000165A87EE056A26EE257A76EE876AFDEE79
:10202000E66A124BC3ED006A114B93ED007A77EE2E
:10203000877A084BC3ED007A9FED077AF4EEC77AF2
:10204000F1EE10FA05DD0B4B00221A70014B002255
:102050001A6070471004002000003443240400205C
:1020600020040020300400200000B44304040020B9
:10207000280400200104002008B5444B1B78002BE5
:1020800039D1434B1B78002B35D1424B01221A70BA
:10209000B42393FBF0F307EE903AF8EEE77A3E4B69
:1020A000C3ED007A3D4B1B68042B19D8DFE803F021
:1020B000032438495B00384B4FF081421A60384B9B
:1020C000384A1A60384B394A1A60394B394A1A6013
:1020D000394B3A4A1A6001232C4A13702C4A137068
:1020E0002E4A136801331360052B04DD0023294AAF
:1020F00013702A4A136008BD2D2131480CF0D0F826
:102100002A4B274A1360284A13602C4B284A136035
:10211000294A136001231D4A13701D4A1370DFE71B
:102120001F4B224A1A60204B264A1A60234B204A32
:102130001360214A13600123144A1370144A137068
:10214000CEE7174B1F4A1A60174B164A1A60184BF6
:102150001A4A1A60184B174A1A6001230B4A137067
:102160000B4A1370BCE70C4B174A1A600D4B0C4A14
:1021700013600D4A13600F4B0D4A13600E4A136033
:102180000123024A1370024A1370A9E702040020D7
:102190000104002000040020280400200C0400207A
:1021A000240400200000A442200400200000484233
:1021B0001C040020000070431804002000000843A5
:1021C000400500200000B8420000704200000000FE
:1021D00010B52DED028B90B0DFED837AC0EE277A3B
:1021E00017EE900AFEF7A0F97DA3D3E90023FEF7CE
:1021F000F3F9FEF7C9FC08EE100A2422002107A813
:1022000013F0CCFE4FF07E530F93B0EE480A14F05B
:102210006BFB10EE104A8DED070AB0EE480A14F081
:10222000A3FBF1EE407ACDED087A8DED0A0A0B940E
:10223000002204920592069201920292039231E0EA
:1022400002EB0C0310A800EB830313ED0C7A02EBF6
:102250004200084410AC04EB800050ED097A0CEB0E
:10226000010E624800EB8E00D0ED006A67EEA66AB0
:1022700037EE267A03ED0C7A13ED0F7A5C4800EB0B
:102280008E00D0ED006A67EEA67A77EE277A43EDEE
:102290000F7A01310129D3DD0CF1010CBCF1000FE3
:1022A00005DD0132012A04DC4FF0000CF6E70021C5
:1022B000F0E7504BD3ED008AF5EEC08AF1EE10FA4C
:1022C0002ED4F5EEC08AF1EE10FA25DDB5EEC08A07
:1022D000F1EE10FA67D4B5EEC08AF1EE10FA1BDB0E
:1022E0009DED040A14F0DAFB434B83ED000A9DEDEB
:1022F000050A14F0D3FB414B83ED000A9DED010A62
:1023000014F0CCFB3E4B83ED000A9DED020A14F065
:10231000C5FB3C4B83ED000A10B0BDEC028B10BD39
:10232000B5EEC08AF1EE10FA1BDB9DED040A14F045
:10233000B5FB354B83ED000A9DED050A14F0AEFBAD
:10234000324B83ED000A9DED010A14F0A7FB304BE0
:1023500083ED000A9DED020A14F0A0FB2D4B83EDE6
:10236000000AB5EEC08AF1EE10FAAAD59DED040A76
:1023700014F094FB204B83ED000A9DED050A14F048
:102380008DFB1E4B83ED000A9DED010A14F086FBC8
:102390001B4B83ED000A9DED020A14F07FFB194BE5
:1023A00083ED000A8DE79DED040A14F077FB164BD0
:1023B00083ED000A9DED050A14F070FB134B83EDCD
:1023C000000A9DED010A14F069FB114B83ED000A30
:1023D0009DED020A14F062FB0E4B83ED000A7AE7D2
:1023E000182D4454FB21094000003443049E010889
:1023F000F89D0108E00100206803002098030020F8
:10240000580300208803002080030020B003002030
:1024100070030020A003002010B52DED028B10EEFC
:10242000904AF3EE0E7AB4EEE70AF1EE10FA01DD0F
:10243000B0EE670AFBEE0E7AB4EEE70AF1EE10FAA0
:1024400001D5B0EE670AAB4B83ED000A9FEDAA7A87
:10245000C7EE017AA94BC3ED007AA94B1B78002B7C
:1024600040F0B680A74B1B68032B00F2A880DFE882
:1024700013F00400B200B1015402DFEDA38A77EE3D
:10248000A87AA24BC3ED007AA14BA24A1A60F6EEDD
:10249000007A20EE278AB0EE480AFFF799FEB1EEE7
:1024A000480AFFF795FE9C4BD3ED006AF1EE664AB1
:1024B0009A4BC3ED004A9A4B93ED005A994B83ED2A
:1024C000005A994B93ED006AB1EE464A974B83ED63
:1024D000004A974BD3ED005A964BC3ED005A964BEA
:1024E000C3ED008A954B1C60954B93ED007A954B9C
:1024F00083ED007A944B1A68944B1A60944BD3ED99
:10250000007A944BC3ED007A934B1B6893490B60A0
:102510009349C1ED008A93490C60934981ED004ACB
:10252000B1EE654A914981ED004A9149C1ED004AF9
:10253000F1EE454A8F49C1ED004A8F49C1ED008A4D
:102540008E490C608E49C1ED006A8E4981ED005ABA
:102550008D4981ED006A8D49C1ED005A8C49C1ED6C
:10256000008A8C49C1ED008AB1EE477A8A4981ED33
:10257000007A8A490A60F1EE677A894AC2ED007AE8
:10258000884A1360884BC3ED008A884BC3ED008AEC
:10259000874B83ED006A874B83ED004A864BC3ED82
:1025A000006A864BC3ED004A854BC3ED008A854B1C
:1025B000C3ED008A0123844A1370514A1370514AB3
:1025C000136801331360032B02DD134600221A60E7
:1025D000BDEC028B10BD9FED7D7A77EE877A4B4B79
:1025E000C3ED007A4A4B83ED007A4F4BD3ED006A7E
:1025F000F1EE664A494BC3ED004A4D4B93ED005A4C
:10260000484B83ED005A444B93ED006AB1EE464AC5
:10261000464B83ED004A424BD3ED005A454BC3ED88
:10262000005A0023444A1360444A1360484A92ED1A
:10263000007A444A82ED007A474A1168434A1160A1
:102640003F4AD2ED007A434AC2ED007A3E4A126810
:10265000424802604248036042480360424880EDBD
:10266000004AB1EE654A414880ED004A4048C0ED5D
:10267000004AF1EE454A3F48C0ED004A3E4803603B
:102680003E4803603E48C0ED006A3E4880ED005A77
:102690003D4880ED006A3D48C0ED005A3C4803606B
:1026A0003C480460B1EE477A3B4880ED007A3B48F5
:1026B0000160F1EE677A3A49C1ED007A39490A6062
:1026C000394A1360394A1460394A82ED006A394A3E
:1026D00082ED004A384AC2ED006A384AC2ED004A2B
:1026E000374A1360374B1C600123374A1370044A82
:1026F000137064E7E00100200000344394020020DE
:10270000400400203C0400200000000038040020A9
:102710003404002000003443680300202403002018
:102720009803002020030020800300201C030020C9
:10273000B003002018030020140300201003002021
:10274000700300200C030020A003002008030020D9
:102750005803002004030020880300200003002009
:10276000FC020020F8020020F4020020F002002009
:10277000EC020020E8020020E4020020E002002039
:10278000DC020020D8020020D4020020D002002069
:10279000CC020020C8020020C4020020C002002099
:1027A000BC020020B8020020B4020020B0020020C9
:1027B000AC020020A8020020A4020020A0020020F9
:1027C0009C02002098020020240000200000B44257
:1027D000000000005FED028A77EEA87A964BC3ED09
:1027E000007A964B964A1A60F6EE007A20EE278A17
:1027F000B0EE480AFFF7ECFCB1EE480AFFF7E8FC40
:10280000904BD3ED006AF1EE664A8F4BC3ED004A60
:102810008E4B93ED005A8E4B83ED005A8D4B93ED0A
:10282000006AB1EE464A8C4B83ED004A8B4BD3EDE8
:10283000005A8B4BC3ED005A8A4BC3ED008A8A4B7A
:10284000C3ED008A894B93ED007A894B83ED007AC2
:10285000884B1A68884B1A60884BD3ED007A884BF6
:10286000C3ED007A874B1B6887490B608749C1ED30
:10287000008A8749C1ED008A864981ED004AB1EEA0
:10288000654A854981ED004A8449C1ED004AF1EE6F
:10289000454A8349C1ED004A8249C1ED008A824917
:1028A000C1ED008A8149C1ED006A814981ED005A7C
:1028B000804981ED006A8049C1ED005A7F49C1ED30
:1028C000008A7F490C60B1EE477A7E4981ED007A3B
:1028D0007D490A60F1EE677A7C4AC2ED007A7C4A53
:1028E00013607C4BC3ED008A7B4B1C607B4B83EDFC
:1028F000006A7B4B83ED004A7A4BC3ED006A7A4B4A
:10290000C3ED004A794BC3ED008A794B1C6001236B
:10291000784A1370784A137051E69FED787A77EE13
:10292000877A454BC3ED007A444B83ED007A494BDF
:10293000D3ED006AF1EE664A434BC3ED004A474BC4
:1029400093ED005A424B83ED005A3E4B93ED006AE3
:10295000B1EE464A404B83ED004A3C4BD3ED005A62
:102960003F4BC3ED005A00233E4A13603E4A1460B9
:10297000424A92ED007A3E4A82ED007A414A11685D
:102980003D4A1160394AD2ED007A3D4AC2ED007AE3
:10299000384A12683C4802603C4803603C48046086
:1029A0003C4880ED004AB1EE654A3B4880ED004A64
:1029B0003A48C0ED004AF1EE454A3948C0ED004AB8
:1029C00038480360384804603848C0ED006A384829
:1029D00080ED005A374880ED006A3748C0ED005A54
:1029E0003648036036480360B1EE477A354880EDDB
:1029F000007A35480160F1EE677A3449C1ED007A1A
:102A000033490A60334A1360334A1360334A82ED14
:102A1000006A334A82ED004A324AC2ED006A324A05
:102A2000C2ED004A314A1360314A13600123314A32
:102A30001370314A1370C2E53804002034040020BA
:102A4000000034438003002024030020B003002052
:102A500020030020680300201C03002098030020AE
:102A60001803002014030020100300205803002046
:102A70000C030020880300200803002070030020BE
:102A800004030020A003002000030020FC0200201B
:102A9000F8020020F4020020F0020020EC020020E6
:102AA000E8020020E4020020E0020020DC02002016
:102AB000D8020020D4020020D0020020CC02002046
:102AC000C8020020C4020020C0020020BC02002076
:102AD000B8020020B4020020B0020020AC020020A6
:102AE000A8020020A4020020A00200209C020020D6
:102AF0009802002024000020400400200000B4427E
:102B000010B400202A4B186000232A4A13602A4A76
:102B100013602A4A2A490A602A492B4C21602B4C0F
:102B200022602B4C21602B4C2360DFF818C12A4C0B
:102B3000C4F800C0294C2360294CC4F800C0294CBB
:102B40002360294C2360294C2260294C2260294CA7
:102B50002260294C2260294C2360294C2160294C99
:102B60002160294C2160294C2160294C2360DFF829
:102B7000D8C0284CC4F800C0274C2360274CC4F8A8
:102B800000C0274C2360274C2360274C2160274C32
:102B90002260274C216027490A60274A1360274B8F
:102BA00001221A70264B18705DF8044B704700BF65
:102BB0003C040020200000203404002000005CC2FF
:102BC0002403002000005C42200300201C0300209E
:102BD00018030020100300200C030020080300202D
:102BE0000403002000030020F8020020F40200206B
:102BF000F0020020EC020020E8020020E0020020A9
:102C0000DC020020D8020020D4020020D0020020E4
:102C1000C8020020C4020020C0020020BC02002024
:102C2000B8020020B0020020AC020020A802002060
:102C3000A4020020A002002098020020240000200E
:102C40004004002000009642000096C200000000F0
:102C500038B52DED068BF0EE408AB0EE608AF0EECE
:102C600041AA80EEA80A13F065FDDFED959A60EEAB
:102C7000297A17EE900AFDF757FC8BA3D3E90023BE
:102C8000FDF7D4FD00228F4BFDF7F0FA41EC100B5D
:102C900013F0B4FE51EC100BFDF776FF07EE900A2F
:102CA000894B18609FED897A77EEC77A9FED887A15
:102CB00077EE877AB0EE007A77EEC77A854B93EDA0
:102CC000007A77EE877A17EE900AFDF72DFC78A34D
:102CD000D3E90023FDF780FCFDF756FF0AEE100A4A
:102CE0007D4B18607D4B93ED009AB8EEC99A39EE92
:102CF0002A9A7B4B83ED009A68EEA88A28EE088A10
:102D000038EE880A13F0F4FC764B83ED000AF3EEFC
:102D1000067A30EE678A744B83ED008A28EE080A43
:102D200069EE097A30EE270A13F0E2FCF0EE408AF1
:102D30006E4B83ED000A89EE080A13F0FBFCB0EE3F
:102D4000408A6B4B83ED000A28EEA89A9FED690A32
:102D500039EE000ADFED687A30EE670ADFED677A58
:102D600068EEA78A80EE280A13F096FC644B83ED88
:102D7000000A38EE008A634B83ED008A68EE297AF8
:102D800017EE900AFDF7D0FB47A3D3E90023FDF728
:102D90004DFD41EC100B13F031FE51EC100B0022F5
:102DA000594BFDF763FA02460B4643A1D1E90001F6
:102DB000FDF75AFA04460D46544B1868FDF7B4FB6C
:102DC00002460B4620462946FDF750FA38A3D3E9C0
:102DD0000023FDF701FCFDF7D7FE08EE900A4C4BEF
:102DE0001860DFED4C7A77EEC97A9FED4B0A87EEDB
:102DF000800A13F051FC494B83ED000A60EE297AFA
:102E000017EE900AFDF790FB27A3D3E90023FDF707
:102E10000DFD00223C4BFDF727FA41EC100B13F09F
:102E2000EDFD53EC102B00203749FDF71DFA02464B
:102E30000B4621A1D1E90001FDF716FA04460D4623
:102E4000374B1868FDF770FB02460B4620462946B3
:102E5000FDF70CFA16A3D3E90023FDF7BDFBFDF740
:102E600093FE08EE100A2F4B1860B0EE4A0A13F0DA
:102E700015FE2D4CBDEEC00A84ED000AB0EE680AC6
:102E800013F00CFEBDEEC00A84ED010AB0EE480A54
:102E900013F004FEBDEEC00A84ED020ABDEC068B01
:102EA00038BD00BFAFF30080182D4454FB2109400A
:102EB00048E17A14AE470B400000000000C07240A9
:102EC00000003443008066403002002000000743C9
:102ED000000043430C020020440200201C0000209C
:102EE000480200202C02002024020020280200209A
:102EF0002002002000902F45002099450000D44278
:102F00001C0200203802002000805640E80100200A
:102F10004002002000E8F04500E0E74534020020D0
:102F2000F40100203C0200204C02002000000000C0
:102F300038B52DED068BF0EE408AB0EE608AB0EE2B
:102F400041AA80EEA80A13F0F5FB9FED9B9A60EE74
:102F5000097A17EE900AFDF7E7FA91A3D3E9002367
:102F6000FDF764FC0022954BFDF780F941EC100B56
:102F700013F044FD51EC100BFDF706FE07EE900A2E
:102F80008F4B186077EEC97A9FED8E7A77EE877A4D
:102F9000B0EE080A37EEC00A13F080FD8A4B83EDCD
:102FA000000AB4EEC90AF1EE10FA05DDDFED877A0A
:102FB00030EE670A83ED000A834C2068FDF7B4FA0F
:102FC00079A3D3E90023FDF707FBFDF7DDFD09EE4B
:102FD000900A20607E4B93ED009AB8EEC99A39EEC4
:102FE0000A9A7C4B83ED009A68EEA88A28EE088A3C
:102FF00038EE880A13F07CFB774B83ED000AF3EE82
:10300000067A30EE678A754B83ED008A28EE080A4F
:1030100069EE097A30EE270A13F06AFBF0EE408A77
:103020006F4B83ED000A89EE080A13F083FBB0EEC4
:10303000408A6C4B83ED000A28EEA89ADFED6A7A8D
:1030400079EE277A9FED697A77EEC77A9FED687AF5
:1030500068EE878A87EEA80A13F01EFB654B83EDA6
:10306000000A30EE080A644B83ED000A9FED528A95
:1030700060EE087A17EE900AFDF756FA48A3D3E9F6
:103080000023FDF7D3FB41EC100B13F0B7FC51EC20
:10309000100B0022594BFDF7E9F802460B4644A1FC
:1030A000D1E90001FDF7E0F800224FF08043FDF781
:1030B000DDF804460D46524B1868FDF735FA024616
:1030C0000B4620462946FDF7D1F837A3D3E9002364
:1030D000FDF782FAFDF758FD08EE900A494B18609B
:1030E000DFED497A77EEC97A9FED480A87EE800ACC
:1030F00013F0D2FA464B83ED000A60EE087A17EE21
:10310000900AFDF711FA26A3D3E90023FDF78EFB01
:1031100000223A4BFDF7A8F841EC100B13F06EFCBF
:1031200053EC102B00203549FDF79EF802460B4664
:103130001FA1D1E90001FDF797F804460D46354B74
:103140001868FDF7F1F902460B4620462946FDF7BF
:103150008DF815A3D3E90023FDF73EFAFDF714FD22
:1031600008EE100A2C4B1860B0EE690A13F096FCBA
:103170002A4CBDEEC00A84ED030AB0EE680A13F0D3
:103180008DFCBDEEC00A84ED040AB0EE480A13F0CF
:1031900085FCBDEEC00A84ED050ABDEC068B38BD8A
:1031A000182D4454FB21094048E17A14AE470B40E6
:1031B0000000000000C07240000034430080664000
:1031C0003002002000001643440200200000B443F7
:1031D00018000020480200202C02002024020020B9
:1031E000280200202002002000902F450020994551
:1031F0000000D4421C02002038020020008056400B
:10320000080200204002002000E8F04500E0E74509
:1032100034020020040200203C0200204C02002066
:1032200038B52DED068BF0EE408AB0EE608AF0EEF8
:1032300041AA80EEA80A13F07DFADFED959A60EEC0
:10324000297A17EE900AFDF76FF98BA3D3E90023D3
:10325000FDF7ECFA00228F4BFDF708F841EC100B5C
:1032600013F0CCFB51EC100BFDF78EFC07EE900A2F
:10327000894B18609FED897A77EEC77A9FED887A3F
:1032800077EE877A874B93ED017A77EE877A17EEA0
:10329000900AFDF749F97AA3D3E90023FDF79CF9D9
:1032A000FDF772FC0AEE100A7F4B18607F4B93ED1E
:1032B000009AB8EEC99A39EE2A9A7D4B83ED009AAE
:1032C00068EEA88A28EE088A38EE880A13F010FA09
:1032D000784B83ED000AF3EE067A30EE678A764B80
:1032E00083ED008A28EE080A69EE097A30EE270A93
:1032F00013F0FEF9F0EE408A704B83ED000A89EE80
:10330000080A13F017FAB0EE408A6D4B83ED000AFD
:1033100028EEA89A9FED6B0A39EE000ADFED6A7A73
:1033200030EE670ADFED697A68EEA78A80EE280A38
:1033300013F0B2F9664B83ED000A38EE008A654B54
:1033400083ED008A68EE297A17EE900AFDF7ECF813
:1033500049A3D3E90023FDF769FA41EC100B13F000
:103360004DFB51EC100B00225B4BFCF77FFF02463C
:103370000B4645A1D1E90001FCF776FF04460D4656
:10338000564B1868FDF7D0F802460B4620462946F2
:10339000FCF76CFF3AA3D3E90023FDF71DF9FDF715
:1033A000F3FB08EE900A4E4B1860DFED4E7A77EE95
:1033B000C97A9FED4D0A87EE800A13F06DF94B4BE9
:1033C00083ED000A60EE297A17EE900AFDF7ACF85B
:1033D00029A3D3E90023FDF729FA00223E4BFCF78D
:1033E00043FF41EC100B13F009FB53EC102B0020B2
:1033F0003949FCF739FF02460B4623A1D1E9000108
:10340000FCF732FF00223A4BFCF72EFF04460D4634
:10341000384B1868FDF788F802460B4620462946C7
:10342000FCF724FF16A3D3E90023FDF7D5F8FDF739
:10343000ABFB08EE100A304B1860B0EE4A0A13F0EE
:103440002DFB2E4CBDEEC00A84ED060AB0EE680AD4
:1034500013F024FBBDEEC00A84ED070AB0EE480A63
:1034600013F01CFBBDEEC00A84ED080ABDEC068B10
:1034700038BD00BFAFF30080182D4454FB21094034
:1034800048E17A14AE470B400000000000C07240D3
:103490000000344300806640300200200000614399
:1034A0000000D2420C020020440200201400002040
:1034B000480200202C0200202402002028020020C4
:1034C0002002002000902F45002099450000D442A2
:1034D0001C0200203802002000805640F801002025
:1034E0004002002000E8F04500E0E74534020020FB
:1034F00000000840F40100203C0200204C020020A3
:1035000038B52DED068BF0EE408AB0EE608AF0EE15
:1035100041AA80EEA80A13F00DF9DFED8D9A60EE56
:10352000297A17EE900AFCF7FFFF85A3D3E9002361
:10353000FDF77CF90022874BFCF798FE41EC100B5D
:1035400013F05CFA51EC100BFDF71EFB07EE900A2E
:10355000814B18609FED817A77EEC77A9FED807A74
:1035600077EE877A7F4B93ED027A77EE877A17EEC4
:10357000900AFCF7D9FF74A3D3E90023FDF72CF8D8
:10358000FDF702FB0AEE100A774B1860774B93EDBC
:10359000009AB8EEC99A39EE2A9A754B83ED009AD3
:1035A00068EEA88A28EE088A38EE880A13F0A0F898
:1035B000704B83ED000AF3EE067A30EE678A6E4BAD
:1035C00083ED008A28EE080A69EE097A30EE270AB0
:1035D00013F08EF8F0EE408A684B83ED000A89EE16
:1035E000080A13F0A7F8B0EE408A654B83ED000A95
:1035F00028EEA89A9FED630A39EE000ADFED627AA1
:1036000030EE670ADFED617A68EEA78A80EE280A5D
:1036100013F042F85E4B83ED000A38EE008A5D4BF2
:1036200083ED008A68EE297A17EE900AFCF77CFF9A
:1036300043A3D3E90023FDF7F9F841EC100B13F095
:10364000DDF951EC100B0022534BFCF70FFE044642
:103650000D46524B1868FCF767FF02460B462046A2
:103660002946FCF703FE00224FF08043FCF7FEFDE5
:1036700035A3D3E90023FCF7AFFFFDF785FA08EE89
:10368000900A474B1860DFED477A77EEC97A9FEDD5
:10369000460A87EE800A12F0FFFF444B83ED000AD2
:1036A00060EE297A17EE900AFCF73EFF24A3D3E9D7
:1036B0000023FDF7BBF80022374BFCF7D5FD41ECAA
:1036C000100B13F09BF953EC102B00203249FCF740
:1036D000CBFD0022364BFCF7C9FD04460D46354BA9
:1036E0001868FCF721FF02460B4620462946FCF7E6
:1036F000BDFD15A3D3E90023FCF76EFFFDF744FAE7
:1037000008EE100A2C4B1860B0EE4A0A13F0C6F906
:103710002A4CBDEEC00A84ED090AB0EE680A13F027
:10372000BDF9BDEEC00A84ED0A0AB0EE480A13F0F6
:10373000B5F9BDEEC00A84ED0B0ABDEC068B38BDB1
:10374000182D4454FB21094048E17A14AE470B4040
:1037500000003443008076403002002000809D430A
:10376000000043430C02002044020020140000200B
:10377000480200202C020020240200202802002001
:103780002002002000902F45002099450000D442DF
:103790001C0200203802002000805640F00100206A
:1037A0004002002000E8F04500E0E7453402002038
:1037B00000003140EC0100203C0200204C020020BF
:1037C00038B52DED048BF0EE408AB0EE608A944B54
:1037D00093ED009AB8EEC99A39EE019A914B83EDB8
:1037E000009A80EEA80A12F0A5FFDFED8F9A60EE36
:1037F000297A17EE900AFCF797FE85A3D3E90023F8
:10380000FDF714F841EC100B13F0F8F851EC100B25
:10381000FDF7BAF900EE100A844B1860DFED847AE8
:1038200030EE270ADFED837A30EE270A13F036F9FF
:10383000814B83ED000AB4EEE90AF1EE10FA05DDE2
:10384000DFED7E7A30EE670A83ED000A7A4C20685D
:10385000FCF76AFE70A3D3E90023FCF7BDFEFDF779
:1038600093F909EE900A206068EEA88A28EE088A8B
:1038700038EE880A12F03CFF714B83ED000AF3EE3C
:10388000067A30EE678A6F4B83ED008A28EE080ACD
:1038900069EE097A30EE270A12F02AFFF0EE408A2C
:1038A000694B83ED000A89EE080A12F043FFB0EE7F
:1038B000408A664B83ED000A28EEA89ADFED647A11
:1038C00079EE277A9FED637A77EEC77A9FED627A79
:1038D00068EE878A87EEA80A12F0DEFE5F4B83ED62
:1038E000000A30EE080A5E4B83ED000A9FED4E8A17
:1038F00060EE087A17EE900AFCF716FE44A3D3E9AF
:103900000023FCF793FF41EC100B13F077F851EC18
:10391000100B0022534BFCF7A9FC00224FF0804310
:10392000FCF7A2FC04460D464F4B1868FCF7FCFD63
:1039300002460B4620462946FCF798FC36A3D3E9FD
:103940000023FCF749FEFDF71FF908EE900A474BEC
:103950001860DFED477A77EEC97A9FED460A87EE69
:10396000800A12F099FE444B83ED000A60EE087A5B
:1039700017EE900AFCF7D8FD25A3D3E90023FCF746
:1039800055FF0022374BFCF76FFC41EC100B13F096
:1039900035F853EC102B00203249FCF765FC00226F
:1039A000364BFCF763FC04460D46354B1868FCF7B4
:1039B000BBFD02460B4620462946FCF757FC16A3E2
:1039C000D3E90023FCF708FEFDF7DEF808EE100A45
:1039D0002C4B1860B0EE690A13F060F82A4CBDEE6B
:1039E000C00A84ED0C0AB0EE680A13F057F8BDEE79
:1039F000C00A84ED0D0AB0EE480A13F04FF8BDEE90
:103A0000C00A84ED0E0ABDEC048B38BDAFF3008014
:103A1000182D4454FB21094048E17A14AE470B406D
:103A2000180000204802002000003443300200202B
:103A30000000164300000000440200200000B443D0
:103A40002C02002024020020280200202002002056
:103A500000902F45002099450000D4421C02002010
:103A60003802002000805640000200204002002062
:103A700000E8F04500E0E74534020020000008407F
:103A8000FC0100203C0200204C020020000000004D
:103A900038B52DED068BF0EE408AB0EE608AF0EE80
:103AA00041AA80EEA80A12F045FEDFED8D9A60EE85
:103AB000297A17EE900AFCF737FD85A3D3E9002396
:103AC000FCF7B4FE41EC100B12F098FF51EC100B18
:103AD000FDF75AF807EE900A824B18609FED827A44
:103AE00077EEC77A9FED817A77EE877AB0EE087A23
:103AF00077EEC77A7E4B93ED037A77EE877A17EEEF
:103B0000900AFCF711FD74A3D3E90023FCF764FDD0
:103B1000FDF73AF80AEE100A764B1860764B93EDF3
:103B2000009AB8EEC99A39EE2A9A744B83ED009A3E
:103B300068EEA88A28EE088A38EE880A12F0D8FDC6
:103B40006F4B83ED000AF3EE067A30EE678A6D4B19
:103B500083ED008A28EE080A69EE097A30EE270A1A
:103B600012F0C6FDF0EE408A674B83ED000A89EE45
:103B7000080A12F0DFFDB0EE408A644B83ED000AC4
:103B800028EEA89A9FED620A39EE000ADFED617A0D
:103B900030EE670ADFED607A68EEA78A80EE280AC9
:103BA00012F07AFD5D4B83ED000A38EE008A5C4B23
:103BB00083ED008A68EE297A17EE900AFCF7B4FCD0
:103BC00043A3D3E90023FCF731FE41EC100B12F0C4
:103BD00015FF51EC100B0022524BFCF747FB04463B
:103BE0000D46514B1868FCF79FFC02460B462046D9
:103BF0002946FCF73BFB00224FF08043FCF736FBE5
:103C000035A3D3E90023FCF7E7FCFCF7BDFF08EE82
:103C1000900A464B1860DFED467A77EEC97A9FED41
:103C2000450A87EE800A12F037FD434B83ED000A08
:103C300060EE297A17EE900AFCF776FC24A3D3E90C
:103C40000023FCF7F3FD0022364BFCF70DFB41ECA3
:103C5000100B12F0D3FE53EC102B00203149FCF76F
:103C600003FB0022354BFCF701FB04460D46344BA9
:103C70001868FCF759FC02460B4620462946FCF71B
:103C8000F5FA15A3D3E90023FCF7A6FCFCF77CFFAB
:103C900008EE100A2B4B1860B0EE4A0A12F0FEFE36
:103CA000294CBDEEC00A84ED0F0AB0EE680A12F08E
:103CB000F5FEBDEEC00A84ED100AB0EE480A12F01F
:103CC000EDFEBDEEC00A84ED110ABDEC068B38BDD9
:103CD000182D4454FB21094048E17A14AE470B40AB
:103CE0000000344330020020000034420000D24281
:103CF0000C020020440200201C000020480200208A
:103D00002C02002024020020280200202002002093
:103D100000902F45002099450000D4421C0200204D
:103D20003802002000805640F001002040020020B0
:103D300000E8F04500E0E7453402002000000840BC
:103D4000EC0100203C0200204C02002000B595B0A0
:103D50001348FDF768F9E8B1114BB3F96430CBB102
:103D60000F4AB2F962300093B2F9102013929342D5
:103D700013DB13AA106802B209490A82934209D0E0
:103D8000013008826846FDF7AAF84C2269460548CA
:103D900012F0DDF915B05DF804FB6A46EAE700BFF2
:103DA000940500204805002010B50446012111F0BB
:103DB0008FF90021204611F009FA022009F074F968
:103DC0000121204611F002FA032009F06DF90021CB
:103DD000204611F0FBF90021204611F079F9084A3C
:103DE0000121204611F01CFA064B1860064B83FB9C
:103DF00000230344C017C0EB6310044B186010BDD0
:103E000040420F005804002009CB3D8D5C04002087
:103E100038B52DED028B0C46FFF7C6FF284D286004
:103E20002046FFF7C1FF274B1860274B93ED007A20
:103E3000F7EE008A78EEC78A244B93ED000A28EE4D
:103E4000800AD5ED007AF8EEE77A67EE877A30EEF1
:103E5000270A83ED000A1E4BD3ED007A68EEA78A8D
:103E600007EE900AF8EEE77A67EE877A78EEA78A8F
:103E7000C3ED008A12F012FEB0EE408AB0EE680A7E
:103E800012F00CFE38EE408AF0EE087A28EE278A0F
:103E9000FDEEC87A17EE903A0E4AC2ED007A192B61
:103EA00002DD134619221A600A4B1B6813F1190F21
:103EB00003DA084B6FF018021A60BDEC028B38BDB4
:103EC000480400204C04002008000020A00100202D
:103ED0009C0100205404002008B500213E2011F070
:103EE00075F9022009F0E0F801213E2011F06EF989
:103EF000052009F0D9F800213E2011F067F9084AA1
:103F00000121CC2011F08CF9064A1060064B83FB8E
:103F100000130344C017C0EB6310106008BD00BF5E
:103F200040420F004404002009CB3D8D012906DDED
:103F300001F1FF3C00239C4514DD10B403E0704701
:103F400001339C450BDD50F823105A1C50F82240D9
:103F5000A142F5DD40F8234040F82210F0E75DF87B
:103F6000044B70477047000030B59DB005460024F3
:103F700008E0284611F07EF81CAB03EB840343F8FD
:103F8000640C0134182CF4DD192103A8FFF7CEFFCF
:103F900041F288330093002340F2FF3219460F9814
:103FA00010F044FEFCF7AEFA00220F4BFCF73EFC8B
:103FB0009FED091B41EC100B12F0AEFA51EC100B07
:103FC00007A3D3E90023FCF707FBFCF7B5FD1DB001
:103FD00030BD00BFAFF300801283C0CAA145F3BF5C
:103FE000EE7C3F355EBA3B4000408F4008B5FFF79E
:103FF000BBFF034B1860022009F056F808BD00BF54
:104000003005002038B5C220FFF7F0FF1A4C1B4DD9
:10401000D5ED007AF8EEE77AC4ED007AC020FFF71C
:10402000E5FF95ED007AB8EEC77A154B83ED007A7F
:10403000F1EE0C7A37EE277A83ED007AD4ED007A30
:1040400077EEC77AB0EE087A67EE877AFDEEE77A08
:1040500017EE903A0B4AC2ED007A0F2B02DD1346A1
:104060000F221A60074B1B6813F10F0F03DA054B81
:104070006FF00E021A6038BD980100203005002054
:10408000940100205404002008B52DED028B1E4B36
:10409000D3ED008A1D4B93ED008A28EE888A1C4BD5
:1040A00083ED008A1B4B1868FCF73EFA14A3D3E992
:1040B0000023FCF703FD10B1164B174A1A60174B8B
:1040C000D3ED007A78EEE78A124B93ED007AC8EED2
:1040D000877A134B93ED007A67EE877A114BC3ED25
:1040E000007A38EE278AF2EE047A28EE278A0E4B01
:1040F00083ED008ABDEC028B08BD00BFAFF30080EA
:1041000095D626E80B2E113EDC0100201000002081
:10411000D8010020C80100205F708930C001002054
:10412000BC010020D4010020D00100200023054A5A
:104130001360054A1360054A1360054A1360054A77
:1041400013607047D8010020D4010020DC0100205A
:10415000C0010020D00100200A4A00239360D360F0
:10416000094A1360094A1360094A1360094A136037
:10417000094A1360094A1360094A1360094A136027
:10418000704700BF0C020020F8010020F40100205D
:10419000F0010020EC0100200802002004020020B1
:1041A00000020020FC01002070B5044615460846B8
:1041B000FFF7FAFD3A4E30602846FFF7F5FD394B20
:1041C000186033681B1A07EE903AF8EEE77A364B20
:1041D000C3ED007AFFF758FF07EE904AF8EEE77A52
:1041E000324B93ED007AF4EEC77AF1EE10FA01D873
:1041F000C3ED007A644207EE904AF8EEE77A2B4B63
:1042000093ED007AF4EEC77AF1EE10FA01DBC3ED1C
:10421000007A264BD3ED007AF5EEC07AF1EE10FA73
:1042200026DDF1EE677A224BC3ED007A214BC3ED18
:10423000007A214B00221A60204C214D2B6823600C
:1042400011F092F807EE900AF8EE677AC5ED007A61
:1042500094ED007A77EEC77ADFED1A6A87EEA67AD8
:10426000194B83ED007A104B1A68184B1A6070BD19
:10427000F5EEC07AF1EE10FA07D400230C4A136071
:104280000C4A13600C4A1360D6E70A4B00221A60EE
:10429000094BC3ED007A064BC3ED007ACCE700BFB3
:1042A000480400204C040020DC010020D001002044
:1042B000B0010020B8010020B4010020C40100209A
:1042C000CC01002000007A44C8010020C001002079
:1042D00070B5044615460846FFF766FD3A4E306055
:1042E0002846FFF761FD394B18603368C01A07EEA6
:1042F000900AF8EEE77A364BC3ED007AFFF7C4FE7A
:1043000007EE904AF8EEE77A324B93ED007AF4EE3E
:10431000C77AF1EE10FA01D8C3ED007A644207EED5
:10432000904AF8EEE77A2B4B93ED007AF4EEC77AD9
:10433000F1EE10FA01DBC3ED007A264BD3ED007AE3
:10434000F5EEC07AF1EE10FA24DD234B00221A605C
:10435000224BC3ED007A224BC3ED007A214C224D53
:104360002B68236011F000F807EE900AF8EE677AE8
:10437000C5ED007A94ED007A77EEC77ADFED1B6A1F
:1043800087EEA67A1A4B83ED007A114B1A68194B07
:104390001A6070BDF5EEC07AF1EE10FA07D4002372
:1043A0000F4A13600C4A13600C4A1360D6E7F1EE13
:1043B000677A0B4BC3ED007A074BC3ED007A074BCE
:1043C00000221A60CAE700BF480400204C04002005
:1043D000DC010020D0010020B8010020B401002041
:1043E000B0010020C4010020CC01002000007A446C
:1043F000C8010020C001002070B5044615460846DB
:10440000FFF7D2FC3A4E30602846FFF7CDFC394B1F
:10441000186033681B1A07EE903AF8EEE77A364BCD
:10442000C3ED007AFFF730FE07EE904AF8EEE77A28
:10443000324B93ED007AF4EEC77AF1EE10FA01D820
:10444000C3ED007A644207EE904AF8EEE77A2B4B10
:1044500093ED007AF4EEC77AF1EE10FA01DBC3EDCA
:10446000007A264BD3ED007AF5EEC07AF1EE10FA21
:1044700026DDF1EE677A224BC3ED007A214B002254
:104480001A60214BC3ED007A204C214D2B6823602C
:1044900010F06AFF07EE900AF8EE677AC5ED007A31
:1044A00094ED007A77EEC77ADFED1A6A87EEA67A86
:1044B000194B83ED007A104B1A68184B1A6070BDC7
:1044C000F5EEC07AF1EE10FA07D400230C4A13601F
:1044D0000C4A13600C4A1360D6E70A4BC3ED007A0E
:1044E000094B00221A60064BC3ED007ACCE700BFEF
:1044F000480400204C040020DC010020D0010020F2
:10450000B0010020B8010020B4010020C401002047
:10451000CC01002000007A44C8010020C001002026
:104520009FED275A35EE406A76EE017A254BC3EDB2
:10453000007A70EE055A75EEC17A234BC3ED007A0E
:10454000DFED227A77EEC06A36EEE07A204B83ED1B
:10455000007A70EE277A37EEA07A1E4B83ED007A50
:104560009FED1D7A37EE407A77EE014A1B4BC3ED83
:10457000004A30EE450A30EE415A194B83ED005A9D
:1045800075EEA05A174BC3ED005A36EE606A164B13
:1045900083ED006A77EEC17A144BC3ED007A76EEB4
:1045A000816A134BC3ED006A30EE200A114B83ED94
:1045B000000A37EE607A104B83ED007A704700BF37
:1045C00000005C42B40300209C03002000000000B7
:1045D000A00300208803002000005CC2A803002084
:1045E00090030020B003002098030020A4030020C3
:1045F0008C030020AC03002094030020844B1B7824
:10460000002B40F0518210B52DED028B10EE904A38
:10461000F0EE410AB42393FBF0F307EE903AF8EE84
:10462000E77A7C4BC3ED007A7B4B1B68032B73D876
:10463000DFE813F004007E005E01CD019FED778A74
:1046400077EE887A764BC3ED007A764B764A1A601D
:10465000B0EE611AFFF764FF744B754A1360754A38
:104660001168754A1160754A1360754A1168754A78
:104670001160754A1460754A75490A607549086881
:104680007549086075490A60754A1168754A116074
:10469000754A1460754A1360754A1168754A11604D
:1046A000754A1360754B1A68754B1A60754B1C6020
:1046B000754B764A1360764A1168764A1160764ADD
:1046C0001360764A1168764A1160764A82ED008A54
:1046D000754A76490A6076490868764908607649DD
:1046E0000A60764A1168764A1160764A82ED008A3D
:1046F000754A1360754A1168754A1160754A1360EE
:10470000754B1A68754B1A60754B83ED008A01234F
:10471000744A13703E4A13703F4A136801331360A2
:10472000032B02DD134600221A60BDEC028B10BD84
:104730009FED6D7A77EE877A394BC3ED007A394B6E
:1047400083ED007AB0EE611AFFF7EAFE374B384A84
:1047500013603B4A1168384A1160384A1360354A81
:104760001168384A1160002237490A6037493848D1
:1047700001603B48D0F800C03748C0F800C0374857
:104780000160344908683749086037490A60374989
:104790000B603A4908683749086037490B60344B69
:1047A0001968374B1960374B1A60374B374A13601B
:1047B0003A4A1168374A1160374A1360344A11681F
:1047C000374A1160374A1460374A38490A603B4912
:1047D00008683849086038490A60354A1168384A1B
:1047E0001160384A1460384A13603B4A1168384AED
:1047F0001160384A1360354B1A68384B1A60384BD1
:104800001C600123374A1370014A137084E700BF0C
:1048100040040020940200203C040020000000001E
:1048200038040020340400200000344300005CC23F
:1048300024030020B4030020200300201C030020D8
:104840009C03002018030020100300200000984261
:104850000C030020A0030020080300200403002014
:104860008803002000030020F8020020F40200204A
:10487000A8030020F0020020EC020020900300209A
:10488000E8020020E002002000005C42DC02002080
:10489000B0030020D8020020D4020020980300209A
:1048A000D0020020C8020020000098C2C4020020EC
:1048B000A4030020C0020020BC0200208C030020C2
:1048C000B8020020B0020020AC020020AC0300209F
:1048D000A8020020A402002094030020A0020020CF
:1048E00098020020240000200000B44200000000D4
:1048F0001FED028A77EE887A6C4BC3ED007A6C4B21
:104900006C4A1A60B0EE611AFFF70AFE6A4B6B4AF6
:1049100013606B4A11686B4A11606B4A13606B4AF3
:1049200011686B4A11606B4A82ED008A6A4A6B49D2
:104930000A606B4908686B4908606B490A606B4AFA
:1049400011686B4A11606B4A82ED008A6A4A1360F3
:104950006A4A11686A4A11606A4A13606A4B1A68A7
:104960006A4B1A606A4B83ED008A6A4B6A4A13608D
:104970006A4A11686A4A11606A4A13606A4A116891
:104980006A4A11606A4A14606A4A6B490A606B4954
:1049900008686B4908606B490A606B4A11686B4A8A
:1049A00011606B4A14606B4A13606B4A11686B4A62
:1049B00011606B4A13606B4B1A686B4B1A606B4B40
:1049C0001C6001236A4A13706A4A1370A4E69FEDC3
:1049D0006A7A77EE877A354BC3ED007A344B83EDF4
:1049E000007AB0EE611AFFF79BFD334B334A136038
:1049F000364A1168334A1160334A1360304A1168ED
:104A0000334A1160334A1460334A34490A603749E3
:104A100008683449086034490A60314A1168344AE8
:104A20001160344A1460344A1360374A1168344ABA
:104A30001160344A1360314B1A68344B1A60344B9E
:104A40001C60344B344A1360374A1168344A116091
:104A5000344A1360314A1168344A116000223449E3
:104A60000A603449344801603748046834480460B7
:104A700034480160314908683449086034490A60A3
:104A800034490B60374908683449086034490B6081
:104A9000314B1968344B1960344B1A600123344A86
:104AA0001370344A137037E6704700BF3804002093
:104AB000340400200000344300005CC224030020C2
:104AC0009C030020200300201C030020B4030020CE
:104AD0001803002010030020000098420C0300205F
:104AE000880300200803002004030020A003002006
:104AF00000030020F8020020F402002090030020B0
:104B0000F0020020EC020020A8030020E8020020B0
:104B1000E002002000005C42DC020020980300203C
:104B2000D8020020D4020020B0030020D0020020D0
:104B3000C8020020000098C2C40200208C0300209C
:104B4000C0020020BC020020A4030020B802002004
:104B5000B0020020AC02002094030020A802002034
:104B6000A4020020AC030020A00200209802002034
:104B700024000020400400200000B442DFED2A6A37
:104B800076EEC06A76EE817A284BC3ED007ADFEDCF
:104B9000287A30EE676A36EE417A264B83ED007A4A
:104BA0009FED257A77EE405A75EEA15A234BC3ED5F
:104BB000005A70EE075A75EEE15A214BC3ED005AC8
:104BC00076EEA06A1F4BC3ED006A36EE606A1E4B9C
:104BD00083ED006A70EE276A36EEC16A1B4B83EDE7
:104BE000006A77EEC07A37EE811A194B83ED001A0E
:104BF00030EE477A37EE617A164B83ED007A9FEDFF
:104C0000167A37EE407A37EE217A144B83ED007A2C
:104C100076EEE06A124BC3ED006A77EEA07A114B94
:104C2000C3ED007A704700BF00005CC2840300201F
:104C300000005C426C0300200000984270030020DA
:104C40005803002078030020600300208003002028
:104C50006803002074030020000098C25C03002059
:104C60007C03002064030020904B1B78002B40F055
:104C7000638210B52DED028B10EE904AF0EE410AE2
:104C8000B0EE611AF3EE047AB4EEE70AF1EE10FA30
:104C900001DDB0EE670AFBEE047AB4EEE70AF1EE4E
:104CA00010FA01D5B0EE670AF6EE007A62EE271A26
:104CB000B42393FBF0F307EE903AF8EEE77A7C4BDF
:104CC000C3ED007A7B4B1B68032B73D8DFE813F02E
:104CD00004007E005A01C9019FED778A77EE887A39
:104CE000764BC3ED007A764B764A1A60FFF746FFA3
:104CF000754B1A68754B1A60754A764B1A60764B7D
:104D00001968764B1960764B1A60764B1C60764BAF
:104D10001968764B1960764B83ED008A754B1968DC
:104D2000754B1960754B83ED008A754B1C60754B94
:104D30001968754B1960754B75490B6075490868A2
:104D40007549086075490B6075490C6075490868BC
:104D50007549086075490A607549086875490860B1
:104D600075490A60754A82ED008A754A1168754A6C
:104D70001160754A82ED008A744A1168744A1160A4
:104D8000744A82ED008A744A82ED008A734A11687F
:104D9000734A1160734A1360734A1168734A116051
:104DA000734A1360734B83ED008A0123724A1370B8
:104DB0003E4A13703F4A136801331360032B02DD30
:104DC000134600221A60BDEC028B10BD9FED6B7A7A
:104DD00077EE877A394BC3ED007A394B83ED007A51
:104DE000FFF7CCFE3C4B1A68384B1A603849394BF8
:104DF0001960354B1A68394B1A60394B196000231A
:104E0000384A13603B4A1068384A1060384A1360C9
:104E1000354A1068384A1060384A1360384A1360BF
:104E20003C4A1068384A1060384A394802603548B0
:104E3000D0F800C03848C0F800C038480260384890
:104E400003603B48D0F800C03748C0F800C037487E
:104E500001603448D0F800C03648C0F800C0364879
:104E6000016036490C60394908683649086036499E
:104E70000B60334908683649086036490B60364B89
:104E80001C60394B1968364B1960364B1A60334B2E
:104E90001968364B1960364B1A60364B1C6001237B
:104EA000354A1370014A137084E700BF40040020A4
:104EB000940200203C040020000000003804002080
:104EC0003404002000003443840300202403002025
:104ED00000005C42200300206C0300201C03002023
:104EE0001803002010030020700300200C03002092
:104EF00008030020580300200403002000030020C2
:104F0000F802002078030020F402002000005CC2B8
:104F1000F002002060030020EC020020E8020020E4
:104F2000E002002080030020DC020020D8020020E4
:104F300068030020D4020020D0020020C802002014
:104F400074030020C4020020C00200205C03002083
:104F5000BC020020B8020020B00200207C03002028
:104F6000AC020020A802002064030020A40200205C
:104F7000A002002098020020240000200000B4427B
:104F8000000000001FED028A77EE887A6B4BC3EDBC
:104F9000007A6B4B6B4A1A60FFF7F0FD6A4B1A6898
:104FA0006A4B1A606A4A6B4B1A606B4B19686B4B01
:104FB00019606B4B1A606B4B83ED008A6A4B196862
:104FC0006A4B19606A4B83ED008A6A4B19686A4B19
:104FD00019606A4B83ED008A694B83ED008A694B47
:104FE0001968694B1960694B69490B606949086820
:104FF0006949086069490B60694981ED008A69491E
:1050000008686949086069490A6069490868694926
:10501000086069490A60694A1460694A1168694A06
:105020001160694A82ED008A684A1168684A116015
:10503000684A82ED008A684A1460684A1168684AC2
:105040001160684A1360684A1168684A1160684ACA
:105050001360684B1C600123674A1370674A137022
:10506000A8E69FED677A77EE877A344BC3ED007A36
:10507000334B83ED007AFFF781FD374B1A68334BD2
:105080001A603349334B19602F4B1A68334B1A603F
:10509000334B1960334B1C60364B1A68334B1A6024
:1050A0000023334A1360304A1068334A1060334A91
:1050B0001360334A1460374A1068334A1060334A29
:1050C000334802602F48D0F800C03348C0F800C011
:1050D000324802603248046035480468324804604F
:1050E000324801602F480468324804603248016049
:1050F00032490B60354908683249086032490B6013
:105100002F4908683249086032490B6032490B6008
:10511000354908683249086032490A602F490868F1
:105120003249086032490A60324A13600123324A28
:105130001370324A13703DE6704700BF38040020F8
:1051400034040020000034436C03002024030020BA
:1051500000005C4220030020840300201C03002088
:105160001803002010030020580300200C03002027
:105170000803002070030020040300200003002027
:10518000F802002060030020F402002000005CC24E
:10519000F002002078030020EC020020E80200204A
:1051A000E002002068030020DC020020D80200207A
:1051B00080030020D4020020D0020020C80200207A
:1051C0005C030020C4020020C00200207403002001
:1051D000BC020020B8020020B002002064030020BE
:1051E000AC020020A80200207C030020A4020020C2
:1051F000A00200209802002024000020400400208B
:105200000000B4429FED2A7A37EE607A77EE227A78
:10521000284BC3ED007ADFED287A30EE676A76EE30
:10522000626A264BC3ED006ADFED255A70EEE50A8F
:1052300070EEC30A234BC3ED000ADFED236A36EE9E
:10524000C00A30EE030A214B83ED000A37EE027AE2
:105250001F4B83ED007A36EE426A1E4B83ED006AE7
:1052600031EEA77A77EE626A1B4BC3ED006A77EEE8
:10527000C17A77EEA22A194BC3ED002A75EEE11A26
:1052800071EE831A164BC3ED001A31EE251A31EE7A
:10529000433A144B83ED003A37EE427A124B83EDDA
:1052A000007A77EE827A114BC3ED007A704700BF27
:1052B00000005CC28403002000005C426C030020FC
:1052C0000000984274030020000098C25C03002094
:1052D0007803002060030020800300206803002082
:1052E00070030020580300207C030020640300208A
:1052F000874B1B78002B40F0518210B52DED028BAF
:1053000012EE104AB0EE622AF0EE432AF6EE007A70
:1053100023EEA73AB42393FBF0F307EE903AF8EEAE
:10532000E77A7C4BC3ED007A7B4B1B68032B73D869
:10533000DFE813F004007E005A01C9019FED778A6F
:1053400077EE887A764BC3ED007A764B764A1A6010
:10535000FFF758FF754B1A68754B1A60754A764B04
:105360001A60764B1968764B1960764B1A60764B4B
:105370001C60764B1968764B1960764B83ED008A7A
:10538000754B1968754B1960754B83ED008A754B29
:105390001C60754B1968754B1960754B75490B602E
:1053A000754908687549086075490B6075490C6056
:1053B000754908687549086075490A607549086843
:1053C0007549086075490A60754A82ED008A754A18
:1053D0001168754A1160754A82ED008A744A116835
:1053E000744A1160744A82ED008A744A82ED008A20
:1053F000734A1168734A1160734A1360734A1168E3
:10540000734A1160734A1360734B83ED008A012362
:10541000724A13703E4A13703F4A13680133136097
:10542000032B02DD134600221A60BDEC028B10BD77
:105430009FED6B7A77EE877A394BC3ED007A394B63
:1054400083ED007AFFF7DEFE3C4B1A68384B1A609A
:105450003849394B1960354B1A68394B1A60394B4A
:1054600019600023384A13603B4A1068384A1060BC
:10547000384A1360354A1068384A1060384A136059
:10548000384A13603C4A1068384A1060384A394834
:1054900002603548D0F800C03848C0F800C038482D
:1054A0000260384803603B48D0F800C03748C0F875
:1054B00000C0374801603448D0F800C03648C0F812
:1054C00000C03648016036490C60394908683649E1
:1054D000086036490B603349086836490860364928
:1054E0000B60364B1C60394B1968364B1960364BD4
:1054F0001A60334B1968364B1960364B1A60364BBD
:105500001C600123354A1370014A137084E700BF01
:1055100040040020940200203C0400200000000011
:1055200038040020340400200000344384030020A9
:105530002403002000005C42200300206C030020B4
:105540001C0300201803002010030020700300201B
:105550000C0300200803002058030020040300204F
:1055600000030020F802002078030020F40200204D
:1055700000005CC2F002002060030020EC0200206A
:10558000E8020020E002002080030020DC0200206E
:10559000D802002068030020D4020020D00200209E
:1055A000C802002074030020C4020020C0020020B2
:1055B0005C030020BC020020B8020020B0020020E2
:1055C0007C030020AC020020A8020020640300201D
:1055D000A4020020A0020020980200202400002045
:1055E0000000B442000000001FED028A77EE887AC6
:1055F0006B4BC3ED007A6B4B6B4A1A60FFF702FEF0
:105600006A4B1A686A4B1A606A4A6B4B1A606B4B9A
:1056100019686B4B19606B4B1A606B4B83ED008AFA
:105620006A4B19686A4B19606A4B83ED008A6A4BB2
:1056300019686A4B19606A4B83ED008A694B83EDE8
:10564000008A694B1968694B1960694B69490B609D
:10565000694908686949086069490B60694981EDD1
:10566000008A694908686949086069490A606949A6
:1056700008686949086069490A60694A1460694AAA
:105680001168694A1160694A82ED008A684A1168A6
:10569000684A1160684A82ED008A684A1460684A64
:1056A0001168684A1160684A1360684A1168684A5C
:1056B0001160684A1360684B1C600123674A1370CD
:1056C000674A1370A8E69FED677A77EE877A344BC6
:1056D000C3ED007A334B83ED007AFFF793FD374B30
:1056E0001A68334B1A603349334B19602F4B1A68D1
:1056F000334B1A60334B1960334B1C60364B1A68BE
:10570000334B1A600023334A1360304A1068334A1F
:105710001060334A1360334A1460374A1068334AC2
:105720001060334A334802602F48D0F800C0334835
:10573000C0F800C03248026032480460354804684E
:1057400032480460324801602F48046832480460DF
:105750003248016032490B603549086832490860B7
:1057600032490B602F4908683249086032490B60A2
:1057700032490B60354908683249086032490A608D
:105780002F4908683249086032490A60324A13607A
:105790000123324A1370324A13703DE6704700BF4E
:1057A0003804002034040020000034436C0300203F
:1057B0002403002000005C4220030020840300201A
:1057C0001C030020180300201003002058030020B1
:1057D0000C030020080300207003002004030020B5
:1057E00000030020F802002060030020F4020020E3
:1057F00000005CC2F002002078030020EC020020D0
:10580000E8020020E002002068030020DC02002003
:10581000D802002080030020D4020020D002002003
:10582000C80200205C030020C4020020C002002047
:1058300074030020BC020020B8020020B002002047
:1058400064030020AC020020A80200207C0300209A
:10585000A4020020A00200209802002024000020C2
:10586000400400200000B442714B1B78002B40F034
:10587000538370B52DED088BF0EE408AB0EE609A40
:10588000F0EE419AB0EE61AA12EE105A0646F0EE22
:1058900062AAB0EE43BAB0EE638A664CA068FAF72B
:1058A00043FE51A3D3E90023FAF7DEFCFBF76CF9C2
:1058B000A060E068FAF738FE4BA3D3E90023FAF7BB
:1058C000D5FCFBF761F9E0605B4C2068FAF72CFE31
:1058D00047A3D3E90023FAF7C7FCFBF755F920608B
:1058E000564C2068FAF720FE43A3D3E90023FAF7C9
:1058F000BBFCFBF749F92060514C2068FAF714FE15
:105900003FA3D3E90023FAF7AFFCFBF73DF9206092
:105910004C4C2068FAF708FE3BA3D3E90023FAF7C2
:10592000A3FCFBF731F92060474C2068FAF7FCFD37
:1059300037A3D3E90023FAF797FCFBF725F920609A
:10594000424C2068FAF7F0FD33A3D3E90023FAF7BD
:105950008BFCFBF719F920603D4C2068FAF7E4FD59
:105960002FA3D3E90023FAF77FFCFBF70DF92060A2
:10597000384C2068FAF7D8FD23A3D3E90023FAF7BF
:1059800073FCFBF701F92060334C2068FAF7CCFD7B
:1059900025A3D3E90023FAF769FCFBF7F5F82060AB
:1059A0002E4A1368013B136013B92D4B00221A7065
:1059B000F6EE007A28EE273AB42393FBF6F307EECF
:1059C000903AF8EEE77A274BC3ED007A264B1B6836
:1059D000032B00F2C780DFE813F04B00D100AF01CA
:1059E0002A0200BFAFF30080333333333333034035
:1059F0003333333333330F403333333333330B40A9
:105A0000CDCCCCCCCCCC0C40CDCCCCCCCCCCFC3F7D
:105A10009A9999999999F93F333333333333134032
:105A20003333333333331740CDCCCCCCCCCCEC3FF9
:105A3000400400200C020020F8010020F4010020A6
:105A4000E8010020F0010020EC0100200802002005
:105A50000402002000020020FC010020E4010020DC
:105A600004000020940200203C04002000000000FC
:105A70001FED028A77EE887A7B4BC3ED007A7B4B71
:105A80007B4A1A60F0EE4B2AB0EE6A2AF0EE4A1A10
:105A9000B0EE691AF0EE490AB0EE680AFFF7B2FB01
:105AA000744B1A68744B1A60744A754B1A60754BC4
:105AB0001968754B1960754B1A60754B1D60754BF5
:105AC0001968754B1960754B83ED008A744B196822
:105AD000744B1960744B83ED008A744B1D60744BDA
