:020000040800F2
:1000000000000220D1DF000821E00008EB770008A3
:1000100021E00008F3770008FB77000800000000EB
:1000200000000000000000000000000091790008BE
:1000300021E0000800000000317A0008E9C2000851
:1000400021E0000821E0000821E0000821E000088C
:1000500021E0000821E000081DC5000827C50008B0
:1000600031C500083BC5000845C5000821E000086F
:1000700021E0000821E0000821E0000821E000085C
:1000800021E0000821E0000821E0000821E000084C
:1000900021E0000821E0000821E000084FC5000829
:1000A000A5BE0008C5BD0008B9BE0008E5BD000832
:1000B000F9BD00080DBE000821BE0008495900081E
:1000C00059590008695900087959000821E00008C9
:1000D00021E00008E1D50008F9D5000811D6000894
:1000E00065C5000821E0000821E00008CDBE000839
:1000F00071BE0008E1BE000891BE000821E00008C2
:1001000021E0000821E0000835BE000821E00008D9
:1001100029D6000841D6000849BE00085DBE000887
:1001200021E0000821E0000821E0000821E00008AB
:1001300021E0000821E0000821E0000821E000089B
:1001400021E0000821E0000821E0000821E000088B
:1001500021E0000821E0000821E0000859D600084D
:10016000895900089959000821E0000821E0000899
:1001700021E0000821E0000821E000080000000064
:0801800021E0000821E0000865
:1001900010F8012B11F8013B012A28BF9A42F7D031
:1001A000D01A7047000000000000000000000000AE
:1001B00001F0FF01102A2BDB10F0070F08D010F818
:1001C000013B013A8B422DD010F0070F42B3F6D11C
:1001D000F0B441EA012141EA014122F007047FF035
:1001E00000070023F0E80256083C85EA010586EA8C
:1001F000010685FA47F5A3FA87F586FA47F6A5FAC8
:1002000087F68EB9EED1F0BC01F0FF0102F00702D3
:1002100032B110F8013B013A83EA010313B1F8D17E
:100220000020704701387047002D06BF354603385F
:10023000073815F0010F07D1013015F4807F02BF98
:10024000013015F4C03F0130F0BC0138704700BFE9
:10025000034613F8012B002AFBD1181A0138704706
:1002600081F0004102E000BF83F0004330B54FEA67
:1002700041044FEA430594EA050F08BF90EA020FD4
:100280001FBF54EA000C55EA020C7FEA645C7FEA67
:10029000655C00F0E2804FEA5454D4EB5555B8BF8A
:1002A0006D420CDD2C4480EA020281EA030382EAFB
:1002B000000083EA010180EA020281EA0303362D8D
:1002C00088BF30BD11F0004F4FEA01314FF4801C60
:1002D0004CEA113102D0404261EB410113F0004F72
:1002E0004FEA03334CEA133302D0524263EB430329
:1002F00094EA050F00F0A780A4F10104D5F1200EC7
:100300000DDB02FA0EFC22FA05F2801841F1000121
:1003100003FA0EF2801843FA05F359410EE0A5F1F5
:1003200020050EF1200E012A03FA0EFC28BF4CF026
:10033000020C43FA05F3C01851EBE37101F00045DC
:1003400007D54FF0000EDCF1000C7EEB00006EEBE9
:100350000101B1F5801F1BD3B1F5001F0CD3490873
:100360005FEA30004FEA3C0C04F101044FEA4452CA
:1003700012F5800F80F09A80BCF1004F08BF5FEA51
:10038000500C50F1000041EB045141EA050130BD31
:100390005FEA4C0C404141EB0101013C28BFB1F543
:1003A000801FE9D291F0000F04BF01460020B1FA8E
:1003B00081F308BF2033A3F10B03B3F120020CDA61
:1003C0000C3208DD02F1140CC2F10C0201FA0CF03F
:1003D00021FA02F10CE002F11402D8BFC2F1200CA4
:1003E00001FA02F120FA0CFCDCBF41EA0C0190405A
:1003F000E41AA2BF01EB0451294330BD6FEA0404A3
:100400001F3C1CDA0C340EDC04F11404C4F120028D
:1004100020FA04F001FA02F340EA030021FA04F39F
:1004200045EA030130BDC4F10C04C4F1200220FAF6
:1004300002F001FA04F340EA0300294630BD21FA34
:1004400004F0294630BD94F0000F83F4801306BFFA
:1004500081F480110134013D4EE77FEA645C18BFEE
:100460007FEA655C29D094EA050F08BF90EA020F85
:1004700005D054EA000C04BF1946104630BD91EA7D
:10048000030F1EBF0021002030BD5FEA545C05D180
:100490004000494128BF41F0004130BD14F58004BF
:1004A0003CBF01F5801130BD01F0004545F0FE4133
:1004B00041F470014FF0000030BD7FEA645C1ABF68
:1004C000194610467FEA655C1CBF0B46024650EA9F
:1004D000013406BF52EA033591EA030F41F40021CB
:1004E00030BD00BF90F0000F04BF0021704730B551
:1004F0004FF4806404F132044FF000054FF0000126
:1005000050E700BF90F0000F04BF0021704730B5E6
:100510004FF4806404F1320410F0004548BF4042BB
:100520004FF000013EE700BF42004FEAE2014FEA10
:1005300031014FEA02701FBF12F07F4393F07F4FEB
:1005400081F06051704732F07F4208BF704793F0EE
:100550007F4F04BF41F40021704730B54FF4607401
:1005600001F0004521F000411CE700BF50EA010204
:1005700008BF704730B54FF000050AE050EA0102AD
:1005800008BF704730B511F0004502D5404261EB1D
:1005900041014FF4806404F132045FEA915C3FF45E
:1005A000D8AE4FF003025FEADC0C18BF03325FEAFB
:1005B000DC0C18BF033202EBDC02C2F1200300FAAC
:1005C00003FC20FA02F001FA03FE40EA0E0021FAD1
:1005D00002F11444BDE600BF70B54FF0FF0C4CF4BF
:1005E000E06C1CEA11541DBF1CEA135594EA0C0F71
:1005F00095EA0C0F00F0DEF82C4481EA030621EAAC
:100600004C5123EA4C5350EA013518BF52EA0335E6
:1006100041F4801143F4801338D0A0FB02CE4FF098
:100620000005E1FB02E506F00042E0FB03E54FF0C8
:100630000006E1FB03569CF0000F18BF4EF0010EC0
:10064000A4F1FF04B6F5007F64F5407404D25FEABC
:100650004E0E6D4146EB060642EAC62141EA55516F
:100660004FEAC52040EA5E504FEACE2EB4F1FD0CB1
:1006700088BFBCF5E06F1ED8BEF1004F08BF5FEA2F
:10068000500E50F1000041EB045170BD06F00046E1
:1006900046EA010140EA020081EA0301B4EB5C048E
:1006A000C2BFD4EB0C0541EA045170BD41F4801186
:1006B0004FF0000E013C00F3AB8014F1360FDEBFAB
:1006C000002001F0004170BDC4F10004203C35DA87
:1006D0000C341BDC04F11404C4F1200500FA05F30A
:1006E00020FA04F001FA05F240EA020001F00042AB
:1006F00021F0004110EBD37021FA04F642EB060121
:100700005EEA430E08BF20EAD37070BDC4F10C044A
:10071000C4F1200500FA04F320FA05F001FA04F20E
:1007200040EA020001F0004110EBD37041F10001FA
:100730005EEA430E08BF20EAD37070BDC4F1200505
:1007400000FA05F24EEA020E20FA04F301FA05F26D
:1007500043EA020321FA04F001F0004121FA04F215
:1007600020EA020000EBD3705EEA430E08BF20EAE5
:10077000D37070BD94F0000F0FD101F0004640001F
:1007800041EB010111F4801F08BF013CF7D041EAA1
:10079000060195F0000F18BF704703F000465200A5
:1007A00043EB030313F4801F08BF013DF7D043EA76
:1007B0000603704794EA0C0F0CEA135518BF95EA2C
:1007C0000C0F0CD050EA410618BF52EA4306D1D1B3
:1007D00081EA030101F000414FF0000070BD50EAD2
:1007E000410606BF1046194652EA430619D094EA5C
:1007F0000C0F02D150EA013613D195EA0C0F05D146
:1008000052EA03361CBF104619460AD181EA030199
:1008100001F0004141F0FE4141F470014FF0000051
:1008200070BD41F0FE4141F4780170BD70B54FF0EC
:10083000FF0C4CF4E06C1CEA11541DBF1CEA13556C
:1008400094EA0C0F95EA0C0F00F0A7F8A4EB05044E
:1008500081EA030E52EA03354FEA013100F0888045
:100860004FEA03334FF0805545EA131343EA12630E
:100870004FEA022245EA111545EA10654FEA0026C3
:100880000EF000419D4208BF964244F1FD0404F57C
:10089000407402D25B084FEA3202B61A65EB0305D8
:1008A0005B084FEA32024FF480104FF4002CB6EB95
:1008B000020E75EB030E22BFB61A754640EA0C0015
:1008C0005B084FEA3202B6EB020E75EB030E22BF55
:1008D000B61A754640EA5C005B084FEA3202B6EB96
:1008E000020E75EB030E22BFB61A754640EA9C0055
:1008F0005B084FEA3202B6EB020E75EB030E22BF25
:10090000B61A754640EADC0055EA060E18D04FEAE2
:10091000051545EA16754FEA06164FEAC30343EA82
:1009200052734FEAC2025FEA1C1CC0D111F4801F4F
:100930000BD141EA00014FF000004FF0004CB6E748
:1009400011F4801F04BF01430020B4F1FD0C88BFE7
:10095000BCF5E06F3FF6AFAEB5EB030C04BFB6EBF2
:10096000020C5FEA500C50F1000041EB045170BDE5
:100970000EF0004E4EEA113114EB5C04C2BFD4EB12
:100980000C0541EA045170BD41F480114FF0000E96
:10099000013C90E645EA060E8DE60CEA135594EA12
:1009A0000C0F08BF95EA0C0F3FF43BAF94EA0C0F15
:1009B0000AD150EA01347FF434AF95EA0C0F7FF48A
:1009C00025AF104619462CE795EA0C0F06D152EADE
:1009D00003353FF4FDAE1046194622E750EA4106C2
:1009E00018BF52EA43067FF4C5AE50EA41047FF4D3
:1009F0000DAF52EA43057FF4EBAE12E74FF0FF3C38
:100A000006E000BF4FF0010C02E000BF4FF0010C08
:100A10004DF804CD4FEA410C7FEA6C5C4FEA430C81
:100A200018BF7FEA6C5C1BD001B050EA410C0CBFD0
:100A300052EA430C91EA030F02BF90EA020F002032
:100A4000704710F1000F91EA030F58BF994208BF99
:100A500090422CBFD8176FEAE37040F00100704756
:100A60004FEA410C7FEA6C5C02D150EA013C07D1AD
:100A70004FEA430C7FEA6C5CD6D152EA033CD3D0F8
:100A80005DF8040B704700BF8446104662468C46F2
:100A90001946634600E000BF01B5FFF7B7FF002825
:100AA00048BF10F1000F01BD4DF808EDFFF7F4FF4E
:100AB0000CBF012000205DF808FB00BF4DF808EDD9
:100AC000FFF7EAFF34BF012000205DF808FB00BFFC
:100AD0004DF808EDFFF7E0FF94BF012000205DF81E
:100AE00008FB00BF4DF808EDFFF7CEFF94BF0120D3
:100AF00000205DF808FB00BF4DF808EDFFF7C4FFCC
:100B000034BF012000205DF808FB00BF4FEA41021E
:100B100012F5001215D211D56FF47873B3EB62524F
:100B200012D94FEAC12343F0004343EA505311F076
:100B3000004F23FA02F018BF404270474FF0000008
:100B4000704750EA013005D111F0004008BF6FF046
:100B5000004070474FF00000704700BF4FEA41026D
:100B6000B2F1E04324BFB3F5001CDCF1FE5C0DD90B
:100B700001F0004C4FEAC0024CEA5070B2F1004F55
:100B800040EB830008BF20F00100704711F0804F58
:100B900021D113F13872BCBF01F00040704741F41D
:100BA00080114FEA5252C2F11802C2F1200C10FA21
:100BB0000CF320FA02F018BF40F001004FEAC12305
:100BC0004FEAD32303FA0CFC40EA0C0023FA02F3A9
:100BD0004FEA4303CCE77FEA625307D150EA01337F
:100BE0001EBF4FF0FE4040F44000704701F000404F
:100BF00040F0FE4040F40000704700BF53B94AB9CE
:100C0000002908BF00281CBF4FF0FF314FF0FF3014
:100C100000F00CB8ADF1080C6DE904CE10F00CF842
:100C2000DDF804E0DDE9022304B07047704700BF3F
:100C300010B5054C237833B9044B13B10448AFF316
:100C400000800123237010BD30010020000000004F
:100C5000FC0E010808B5034B1BB103490348AFF371
:100C6000008008BD0000000034010020FC0E0108D7
:100C700008B50368984708BD00B583B00023019309
:100C800001A9094B186805F088FB019B4BB14FF097
:100C9000E0234FF08052C3F8042DBFF34F8FBFF312
:100CA0006F8F03B05DF804FB78030020F0B585B0CA
:100CB00004460D46012806D01CB94FF6FF739D422D
:100CC00051D005B0F0BD4FF6FF739942F4D12B4FD0
:100CD00018221921384604F0B7F8294B0293294B02
:100CE0000193002600963B4620228021264802F0F0
:100CF000D7FD3246254926480CF05EFE324625498E
:100D000025480CF059FE3246244925480CF054FE83
:100D1000244B64229A601E82C3F8AC601E605E6041
:100D2000FF2283F8B0204FF6FF72A3F8B220A3F899
:100D3000B420A3F8B620A3F8B820A3F8BA201A4824
:100D400007F06CF8194807F069F8194807F066F8D9
:100D5000184807F063F8184807F060F81749184872
:100D60000BF022F9A8E716480AF0A8FF064802F09F
:100D7000C7FD024804F0F4F8A3E700BFF008002024
:100D8000A0860100801A060084080020004400406C
:100D90006C07002000480040540600200014014069
:100DA0003C050020400400203C04002038040020C2
:100DB00034040020300400202C04002000100040E7
:100DC0007C03002010B50446836813B1032201465A
:100DD0009847204610BD704708B52DED028B284B73
:100DE00093ED008ADFED277AB4EEE78AF1EE10FA90
:100DF0003CD8254BD3ED006A244B93ED007A37EEB7
:100E0000667AB2EE046AC7EE067A77EEA77A204BCE
:100E1000C3ED007A68EE277ADFED1E5A87EEA57AD9
:100E200067EE067A76EEA77A17EE900AFFF77CFB5C
:100E300011A3D3E90023FFF7CFFBFFF767FE164BA3
:100E40001860164BD3ED007A38EE278A0C4B83EDF1
:100E5000008ADFED0C7AB4EEE78AF1EE10FA05DDD8
:100E60000F4B00221A70064B00221A60BDEC028B59
:100E700008BD00BFAFF3008048E17A14AE470B40D5
:100E80003C030020000034434403002040030020C2
:100E9000540300200000B44334030020500300201A
:100EA0002E0300201F4BD3ED007A9FED1F7AF4EE46
:100EB000C77AF1EE10FA34D81C4BD3ED006A1C4B04
:100EC00093ED006A36EE666AF2EE045A86EE257AF3
:100ED00037EE077A174B83ED007A27EE877A9FED7E
:100EE000165A87EE056A26EE257A76EE876AFDEEBB
:100EF000E66A124BC3ED006A114B93ED007A77EE70
:100F0000877A084BC3ED007A9FED077AF4EEC77A33
:100F1000F1EE10FA05DD0B4B00221A70014B002296
:100F20001A60704738030020000034434C0300204F
:100F300048030020580300200000B4433003002081
:100F4000500300202D0300200E4B0F4A9A600F4AD9
:100F5000DA600F4B0F4A1A600F4B104A1A60104BA1
:100F6000104A1A60104B114A1A60114B114A1A604C
:100F7000114B124A1A60124B124A1A60124B134A52
:100F80001A607047800100200000F041000008C294
:100F90006C0100200000204268010020000008428F
:100FA0006401002000004041600100200000104169
:100FB0007C010020000048427801002000006842C7
:100FC000740100200000604170010020000020C179
:100FD00038B52DED068BF0EE408AB0EE608AF0EE6B
:100FE00041AA80EEA80A0EF045FADFED959A60EE70
:100FF000297A17EE900AFFF797FA8BA3D3E900231B
:10100000FFF714FC00228F4BFFF730F941EC100B77
:101010000EF016FB51EC100BFFF7A0FD07EE900A47
:10102000894B18609FED897A77EEC77A9FED887AB1
:1010300077EE877AB0EE007A77EEC77A854B93ED3C
:10104000007A77EE877A17EE900AFFF76DFA78A3A9
:10105000D3E90023FFF7C0FAFFF780FD0AEE100A7C
:101060007D4B18607D4B93ED009AB8EEC99A39EE2E
:101070002A9A7B4B83ED009A68EEA88A28EE088AAC
:1010800038EE880A0EF0D4F9764B83ED000AF3EEC1
:10109000067A30EE678A744B83ED008A28EE080AE0
:1010A00069EE097A30EE270A0EF0C2F9F0EE408AB6
:1010B0006E4B83ED000A89EE080A0EF0DBF9B0EE04
:1010C000408A6B4B83ED000A28EEA89A9FED690ACF
:1010D00039EE000ADFED687A30EE670ADFED677AF5
:1010E00068EEA78A80EE280A0EF076F9644B83ED4D
:1010F000000A38EE008A634B83ED008A68EE297A95
:1011000017EE900AFFF710FA47A3D3E90023FFF781
:101110008DFB41EC100B0EF093FA51EC100B0022FA
:10112000594BFFF7A3F802460B4643A1D1E9000152
:10113000FFF79AF804460D46544B1868FFF7F4F988
:1011400002460B4620462946FFF790F838A3D3E91C
:101150000023FFF741FAFFF701FD08EE900A4C4B20
:101160001860DFED4C7A77EEC97A9FED4B0A87EE77
:10117000800A0EF031F9494B83ED000A60EE297ABE
:1011800017EE900AFFF7D0F927A3D3E90023FFF762
:101190004DFB00223C4BFFF767F841EC100B0EF0C3
:1011A0004FFA53EC102B00203749FFF75DF8024649
:1011B0000B4621A1D1E90001FFF756F804460D4680
:1011C000374B1868FFF7B0F902460B462046294610
:1011D000FFF74CF816A3D3E90023FFF7FDF9FFF75B
:1011E000BDFC08EE100A2F4B1860B0EE4A0A0EF054
:1011F00077FA2D4CBDEEC00A84ED000AB0EE680A05
:101200000EF06EFABDEEC00A84ED010AB0EE480A97
:101210000EF066FABDEEC00A84ED020ABDEC068B44
:1012200038BD00BFAFF30080182D4454FB210940A6
:1012300048E17A14AE470B400000000000C0724045
:101240000000344300806640A401002000000743F2
:101250000000434380010020B80100200800002066
:10126000BC010020A0010020980100209C0100206A
:101270009401002000902F45002099450000D442A1
:1012800090010020AC010020008056406C0100203D
:10129000B401002000E8F04500E0E745A801002087
:1012A00068010020B0010020C00100200000000003
:1012B00038B52DED068BF0EE408AB0EE608AB0EEC8
:1012C00041AA80EEA80A0EF0D5F89FED9B9A60EE39
:1012D000097A17EE900AFFF727F991A3D3E90023C3
:1012E000FFF7A4FA0022954BFEF7C0FF41EC100B6C
:1012F0000EF0A6F951EC100BFFF730FC07EE900A48
:101300008F4B186077EEC97A9FED8E7A77EE877AE9
:10131000B0EE080A37EEC00A0EF0E2F98A4B83ED10
:10132000000AB4EEC90AF1EE10FA05DDDFED877AA6
:1013300030EE670A83ED000A834C2068FFF7F4F86B
:1013400079A3D3E90023FFF747F9FFF707FC09EE7C
:10135000900A20607E4B93ED009AB8EEC99A39EE60
:101360000A9A7C4B83ED009A68EEA88A28EE088AD8
:1013700038EE880A0EF05CF8774B83ED000AF3EE46
:10138000067A30EE678A754B83ED008A28EE080AEC
:1013900069EE097A30EE270A0EF04AF8F0EE408A3C
:1013A0006F4B83ED000A89EE080A0EF063F8B0EE89
:1013B000408A6C4B83ED000A28EEA89ADFED6A7A2A
:1013C00079EE277A9FED697A77EEC77A9FED687A92
:1013D00068EE878A87EEA80A0DF0FEFF654B83ED65
:1013E000000A30EE080A644B83ED000A9FED528A32
:1013F00060EE087A17EE900AFFF796F848A3D3E953
:101400000023FFF713FA41EC100B0EF019F951EC21
:10141000100B0022594BFEF729FF02460B4644A150
:10142000D1E90001FEF720FF00224FF08043FEF7D4
:101430001DFF04460D46524B1868FFF775F802462B
:101440000B4620462946FEF711FF37A3D3E90023B8
:10145000FFF7C2F8FFF782FB08EE900A494B1860CD
:10146000DFED497A77EEC97A9FED480A87EE800A68
:101470000DF0B2FF464B83ED000A60EE087A17EEDE
:10148000900AFFF751F826A3D3E90023FFF7CEF91E
:1014900000223A4BFEF7E8FE41EC100B0EF0D0F8BC
:1014A00053EC102B00203549FEF7DEFE02460B46BA
:1014B0001FA1D1E90001FEF7D7FE04460D46354BCA
:1014C0001868FFF731F802460B4620462946FEF71A
:1014D000CDFE15A3D3E90023FFF77EF8FFF73EFB0F
:1014E00008EE100A2C4B1860B0EE690A0EF0F8F8FE
:1014F0002A4CBDEEC00A84ED030AB0EE680A0EF075
:10150000EFF8BDEEC00A84ED040AB0EE480A0EF012
:10151000E7F8BDEEC00A84ED050ABDEC068B38BDC8
:10152000182D4454FB21094048E17A14AE470B4082
:101530000000000000C0724000003443008066409C
:10154000A401002000001643B80100200000B443AD
:1015500004000020BC010020A00100209801002010
:101560009C0100209401002000902F450020994507
:101570000000D44290010020AC01002000805640C1
:101580007C010020B401002000E8F04500E0E745C0
:10159000A801002078010020B0010020C001002037
:1015A00038B52DED068BF0EE408AB0EE608AF0EE95
:1015B00041AA80EEA80A0DF05DFFDFED959A60EE7E
:1015C000297A17EE900AFEF7AFFF8BA3D3E9002329
:1015D000FFF72CF900228F4BFEF748FE41EC100B71
:1015E0000EF02EF851EC100BFFF7B8FA07EE900A48
:1015F000894B18609FED897A77EEC77A9FED887ADC
:1016000077EE877A874B93ED017A77EE877A17EE3C
:10161000900AFEF789FF7AA3D3E90023FEF7DCFFE7
:10162000FFF79CFA0AEE100A7F4B18607F4B93ED90
:10163000009AB8EEC99A39EE2A9A7D4B83ED009A4A
:1016400068EEA88A28EE088A38EE880A0DF0F0FEC7
:10165000784B83ED000AF3EE067A30EE678A764B1C
:1016600083ED008A28EE080A69EE097A30EE270A2F
:101670000DF0DEFEF0EE408A704B83ED000A89EE3D
:10168000080A0DF0F7FEB0EE408A6D4B83ED000ABC
:1016900028EEA89A9FED6B0A39EE000ADFED6A7A10
:1016A00030EE670ADFED697A68EEA78A80EE280AD5
:1016B0000DF092FE664B83ED000A38EE008A654B12
:1016C00083ED008A68EE297A17EE900AFEF72CFF68
:1016D00049A3D3E90023FFF7A9F841EC100B0DF063
:1016E000AFFF51EC100B00225B4BFEF7BFFD024633
:1016F0000B4645A1D1E90001FEF7B6FD04460D46B3
:10170000564B1868FEF710FF02460B462046294646
:10171000FEF7ACFD3AA3D3E90023FEF75DFFFFF728
:101720001DFA08EE900A4E4B1860DFED4E7A77EE08
:10173000C97A9FED4D0A87EE800A0DF04DFE4B4BA6
:1017400083ED000A60EE297A17EE900AFEF7ECFEB0
:1017500029A3D3E90023FFF769F800223E4BFEF7E7
:1017600083FD41EC100B0DF06BFF53EC102B0020B0
:101770003949FEF779FD02460B4623A1D1E9000164
:10178000FEF772FD00223A4BFEF76EFD04460D4651
:10179000384B1868FEF7C8FE02460B46204629461D
:1017A000FEF764FD16A3D3E90023FEF715FFFFF74C
:1017B000D5F908EE100A304B1860B0EE4A0A0DF069
:1017C0008FFF2E4CBDEEC00A84ED060AB0EE680A0B
:1017D0000DF086FFBDEEC00A84ED070AB0EE480AA0
:1017E0000DF07EFFBDEEC00A84ED080ABDEC068B4D
:1017F00038BD00BFAFF30080182D4454FB210940D1
:1018000048E17A14AE470B400000000000C072406F
:101810000000344300806640A401002000006143C2
:101820000000D24280010020B8010020000000200A
:10183000BC010020A0010020980100209C01002094
:101840009401002000902F45002099450000D442CB
:1018500090010020AC010020008056406C01002067
:10186000B401002000E8F04500E0E745A8010020B1
:101870000000084068010020B0010020C0010020E5
:1018800038B52DED068BF0EE408AB0EE608AF0EEB2
:1018900041AA80EEA80A0DF0EDFDDFED8D9A60EE15
:1018A000297A17EE900AFEF73FFE85A3D3E90023BD
:1018B000FEF7BCFF0022874BFEF7D8FC41EC100B73
:1018C0000DF0BEFE51EC100BFFF748F907EE900A41
:1018D000814B18609FED817A77EEC77A9FED807A11
:1018E00077EE877A7F4B93ED027A77EE877A17EE61
:1018F000900AFEF719FE74A3D3E90023FEF76CFEED
:10190000FFF72CF90AEE100A774B1860774B93ED2E
:10191000009AB8EEC99A39EE2A9A754B83ED009A6F
:1019200068EEA88A28EE088A38EE880A0DF080FD55
:10193000704B83ED000AF3EE067A30EE678A6E4B49
:1019400083ED008A28EE080A69EE097A30EE270A4C
:101950000DF06EFDF0EE408A684B83ED000A89EED3
:10196000080A0DF087FDB0EE408A654B83ED000A52
:1019700028EEA89A9FED630A39EE000ADFED627A3D
:1019800030EE670ADFED617A68EEA78A80EE280AFA
:101990000DF022FD5E4B83ED000A38EE008A5D4BB0
:1019A00083ED008A68EE297A17EE900AFEF7BCFDF7
:1019B00043A3D3E90023FEF739FF41EC100B0DF0F0
:1019C0003FFE51EC100B0022534BFEF74FFC044638
:1019D0000D46524B1868FEF7A7FD02460B462046FF
:1019E0002946FEF743FC00224FF08043FEF73EFC01
:1019F00035A3D3E90023FEF7EFFDFFF7AFF808EEBC
:101A0000900A474B1860DFED477A77EEC97A9FED71
:101A1000460A87EE800A0DF0DFFC444B83ED000A96
:101A200060EE297A17EE900AFEF77EFD24A3D3E933
:101A30000023FEF7FBFE0022374BFEF715FC41ECBE
:101A4000100B0DF0FDFD53EC102B00203249FEF77A
:101A50000BFC0022364BFEF709FC04460D46354BC5
:101A60001868FEF761FD02460B4620462946FEF740
:101A7000FDFB15A3D3E90023FEF7AEFDFFF76EF8DB
:101A800008EE100A2C4B1860B0EE4A0A0DF028FE42
:101A90002A4CBDEEC00A84ED090AB0EE680A0DF0CA
:101AA0001FFEBDEEC00A84ED0A0AB0EE480A0DF032
:101AB00017FEBDEEC00A84ED0B0ABDEC068B38BDE7
:101AC000182D4454FB21094048E17A14AE470B40DD
:101AD0000000344300807640A401002000809D4334
:101AE0000000434380010020B801002000000020D6
:101AF000BC010020A0010020980100209C010020D2
:101B00009401002000902F45002099450000D44208
:101B100090010020AC0100200080564064010020AC
:101B2000B401002000E8F04500E0E745A8010020EE
:101B30000000314060010020B0010020C001002001
:101B400038B52DED048BF0EE408AB0EE608A944BF0
:101B500093ED009AB8EEC99A39EE019A914B83ED54
:101B6000009A80EEA80A0DF085FCDFED8F9A60EEFA
:101B7000297A17EE900AFEF7D7FC85A3D3E9002354
:101B8000FEF754FE41EC100B0DF05AFD51EC100B1A
:101B9000FEF7E4FF00EE100A844B1860DFED847A54
:101BA00030EE270ADFED837A30EE270A0DF098FD3C
:101BB000814B83ED000AB4EEE90AF1EE10FA05DD7F
:101BC000DFED7E7A30EE670A83ED000A7A4C2068FA
:101BD000FEF7AAFC70A3D3E90023FEF7FDFCFEF795
:101BE000BDFF09EE900A206068EEA88A28EE088AF8
:101BF00038EE880A0DF01CFC714B83ED000AF3EE01
:101C0000067A30EE678A6F4B83ED008A28EE080A69
:101C100069EE097A30EE270A0DF00AFCF0EE408AF0
:101C2000694B83ED000A89EE080A0DF023FCB0EE43
:101C3000408A664B83ED000A28EEA89ADFED647AAD
:101C400079EE277A9FED637A77EEC77A9FED627A15
:101C500068EE878A87EEA80A0DF0BEFB5F4B83ED26
:101C6000000A30EE080A5E4B83ED000A9FED4E8AB3
:101C700060EE087A17EE900AFEF756FC44A3D3E90B
:101C80000023FEF7D3FD41EC100B0DF0D9FC51EC15
:101C9000100B0022534BFEF7E9FA00224FF080436D
:101CA000FEF7E2FA04460D464F4B1868FEF73CFC7F
:101CB00002460B4620462946FEF7D8FA36A3D3E95A
:101CC0000023FEF789FCFEF749FF08EE900A474B18
:101CD0001860DFED477A77EEC97A9FED460A87EE06
:101CE000800A0DF079FB444B83ED000A60EE087A20
:101CF00017EE900AFEF718FC25A3D3E90023FEF7A0
:101D000095FD0022374BFEF7AFFA41EC100B0DF0BA
:101D100097FC53EC102B00203249FEF7A5FA002265
:101D2000364BFEF7A3FA04460D46354B1868FEF70E
:101D3000FBFB02460B4620462946FEF797FA16A300
:101D4000D3E90023FEF748FCFEF708FF08EE100A6F
:101D50002C4B1860B0EE690A0DF0C2FC2A4CBDEEA7
:101D6000C00A84ED0C0AB0EE680A0DF0B9FCBDEEB5
:101D7000C00A84ED0D0AB0EE480A0DF0B1FCBDEECC
:101D8000C00A84ED0E0ABDEC048B38BDAFF30080B1
:101D9000182D4454FB21094048E17A14AE470B400A
:101DA00004000020BC01002000003443A4010020F6
:101DB0000000164300000000B80100200000B443FA
:101DC000A0010020980100209C0100209401002027
:101DD00000902F45002099450000D442900100203A
:101DE000AC0100200080564074010020B4010020A6
:101DF00000E8F04500E0E745A801002000000840A9
:101E000070010020B0010020C0010020000000008F
:101E100038B52DED068BF0EE408AB0EE608AF0EE1C
:101E200041AA80EEA80A0DF025FBDFED8D9A60EE49
:101E3000297A17EE900AFEF777FB85A3D3E90023F2
:101E4000FEF7F4FC41EC100B0DF0FAFB51EC100B1B
:101E5000FEF784FE07EE900A824B18609FED827AAF
:101E600077EEC77A9FED817A77EE877AB0EE087ABF
:101E700077EEC77A7E4B93ED037A77EE877A17EE8B
:101E8000900AFEF751FB74A3D3E90023FEF7A4FBED
:101E9000FEF764FE0AEE100A764B1860764B93ED5F
:101EA000009AB8EEC99A39EE2A9A744B83ED009ADB
:101EB00068EEA88A28EE088A38EE880A0DF0B8FA8B
:101EC0006F4B83ED000AF3EE067A30EE678A6D4BB6
:101ED00083ED008A28EE080A69EE097A30EE270AB7
:101EE0000DF0A6FAF0EE408A674B83ED000A89EE0A
:101EF000080A0DF0BFFAB0EE408A644B83ED000A89
:101F000028EEA89A9FED620A39EE000ADFED617AA9
:101F100030EE670ADFED607A68EEA78A80EE280A65
:101F20000DF05AFA5D4B83ED000A38EE008A5C4BE7
:101F300083ED008A68EE297A17EE900AFEF7F4FA2C
:101F400043A3D3E90023FEF771FC41EC100B0DF025
:101F500077FB51EC100B0022524BFEF787F9044639
:101F60000D46514B1868FEF7DFFA02460B46204635
:101F70002946FEF77BF900224FF08043FEF776F901
:101F800035A3D3E90023FEF727FBFEF7E7FD08EEB4
:101F9000900A464B1860DFED467A77EEC97A9FEDDE
:101FA000450A87EE800A0DF017FA434B83ED000ACD
:101FB00060EE297A17EE900AFEF7B6FA24A3D3E969
:101FC0000023FEF733FC0022364BFEF74DF941ECBF
:101FD000100B0DF035FB53EC102B00203149FEF7B0
:101FE00043F90022354BFEF741F904460D46344BC8
:101FF0001868FEF799FA02460B4620462946FEF776
:1020000035F915A3D3E90023FEF7E6FAFEF7A6FD9E
:1020100008EE100A2B4B1860B0EE4A0A0DF060FB78
:10202000294CBDEEC00A84ED0F0AB0EE680A0DF02F
:1020300057FBBDEEC00A84ED100AB0EE480A0DF061
:102040004FFBBDEEC00A84ED110ABDEC068B38BD16
:10205000182D4454FB21094048E17A14AE470B4047
:1020600000003443A4010020000034420000D242AA
:1020700080010020B801002008000020BC010020E1
:10208000A0010020980100209C0100209401002064
:1020900000902F45002099450000D4429001002077
:1020A000AC0100200080564064010020B4010020F3
:1020B00000E8F04500E0E745A801002000000840E6
:1020C00060010020B0010020C00100200023054A6B
:1020D0001360054A1360054A1360054A1360054AF8
:1020E0001360704758010020540100205C0100205B
:1020F0004C010020500100209FED2A7A37EE607AD3
:1021000077EE227A284BC3ED007ADFED287A30EEA5
:10211000676A76EE626A264BC3ED006ADFED255AE8
:1021200070EEE50A70EEC30A234BC3ED000ADFED43
:10213000236A36EEC00A30EE030A214B83ED000A13
:1021400037EE027A1F4B83ED007A36EE426A1E4B61
:1021500083ED006A31EEA77A77EE626A1B4BC3ED1E
:10216000006A77EEC17A77EEA22A194BC3ED002AF6
:1021700075EEE11A71EE831A164BC3ED001A31EEBB
:10218000251A31EE433A144B83ED003A37EE427A8A
:10219000124B83ED007A77EE827A114BC3ED007A11
:1021A000704700BF00005CC2E002002000005C42FB
:1021B000C802002000009842D0020020000098C20F
:1021C000B8020020D4020020BC020020DC02002063
:1021D000C4020020CC020020B4020020D80200205B
:1021E000C0020020874B1B78002B40F0518210B5B5
:1021F0002DED028B12EE104AB0EE622AF0EE432A69
:10220000F6EE007A23EEA73AB42393FBF0F307EE41
:10221000903AF8EEE77A7C4BC3ED007A7B4B1B6873
:10222000032B73D8DFE813F004007E005A01C901C4
:102230009FED778A77EE887A764BC3ED007A764BFE
:10224000764A1A60FFF758FF754B1A68754B1A608B
:10225000754A764B1A60764B1968764B1960764B47
:102260001A60764B1C60764B1968764B1960764B7A
:1022700083ED008A754B1968754B1960754B83EDBA
:10228000008A754B1C60754B1968754B1960754B4E
:1022900075490B60754908687549086075490B6098
:1022A00075490C60754908687549086075490A6088
:1022B000754908687549086075490A60754A82ED74
:1022C000008A754A1168754A1160754A82ED008A64
:1022D000744A1168744A1160744A82ED008A744A23
:1022E00082ED008A734A1168734A1160734A136061
:1022F000734A1168734A1160734A1360734B83ED1C
:10230000008A0123724A13703E4A13703F4A1368D1
:1023100001331360032B02DD134600221A60BDEC6B
:10232000028B10BD9FED6B7A77EE877A394BC3ED48
:10233000007A394B83ED007AFFF7DEFE3C4B1A68DA
:10234000384B1A603849394B1960354B1A68394B8C
:102350001A60394B19600023384A13603B4A1068F1
:10236000384A1060384A1360354A1068384A10609D
:10237000384A1360384A13603C4A1068384A106083
:10238000384A394802603548D0F800C03848C0F8AB
:1023900000C038480260384803603B48D0F800C0AD
:1023A0003748C0F800C0374801603448D0F800C052
:1023B0003648C0F800C03648016036490C603949DB
:1023C00008683649086036490B6033490868364961
:1023D000086036490B60364B1C60394B1968364B28
:1023E0001960364B1A60334B1968364B1960364BFF
:1023F0001A60364B1C600123354A1370014A137072
:1024000084E700BF68030020080200206403002066
:1024100000000000600300205C0300200000344343
:10242000E00200208002002000005C427C020020CC
:10243000C8020020780200207402002070020020F0
:10244000CC0200206C02002068020020B4020020B0
:1024500064020020600200205C020020D402002000
:102460005802002000005CC254020020BC02002080
:10247000500200204C02002048020020DC02002014
:102480004402002040020020C40200203C02002040
:102490003802002034020020D00200203002002048
:1024A0002C020020B8020020280200202402002074
:1024B00020020020D80200201C0200201802002068
:1024C000C002002014020020100200200C02002094
:1024D000100000200000B442000000001FED028A3E
:1024E00077EE887A6B4BC3ED007A6B4B6B4A1A60C0
:1024F000FFF702FE6A4B1A686A4B1A606A4A6B4B16
:102500001A606B4B19686B4B19606B4B1A606B4B05
:1025100083ED008A6A4B19686A4B19606A4B83ED38
:10252000008A6A4B19686A4B19606A4B83ED008A0E
:10253000694B83ED008A694B1968694B1960694BD7
:1025400069490B60694908686949086069490B6015
:10255000694981ED008A69490868694908606949E3
:102560000A60694908686949086069490A60694AF6
:102570001460694A1168694A1160694A82ED008AEB
:10258000684A1168684A1160684A82ED008A684AA0
:102590001460684A1168684A1160684A1360684AA2
:1025A0001168684A1160684A1360684B1C60012317
:1025B000674A1370674A1370A8E69FED677A77EE53
:1025C000877A344BC3ED007A334B83ED007AFFF703
:1025D00093FD374B1A68334B1A603349334B1960FC
:1025E0002F4B1A68334B1A60334B1960334B1C6006
:1025F000364B1A68334B1A600023334A1360304A53
:102600001068334A1060334A1360334A1460374A03
:102610001068334A1060334A334802602F48D0F8BC
:1026200000C03348C0F800C032480260324804603D
:102630003548046832480460324801602F48046815
:10264000324804603248016032490B6035490868FD
:102650003249086032490B602F49086832490860E6
:1026600032490B6032490B603549086832490860CD
:1026700032490A602F4908683249086032490A60C5
:10268000324A13600123324A1370324A13703DE616
:10269000704700BF600300205C030020000034434B
:1026A000C80200208002002000005C427C02002062
:1026B000E002002078020020740200207002002056
:1026C000B40200206C02002068020020CC0200202E
:1026D00064020020600200205C020020BC02002096
:1026E0005802002000005CC254020020D4020020E6
:1026F000500200204C02002048020020C4020020AA
:102700004402002040020020DC0200203C020020A5
:102710003802002034020020B802002030020020DD
:102720002C020020D00200202802002024020020D9
:1027300020020020C00200201C02002018020020FD
:10274000D802002014020020100200200C020020F9
:1027500010000020680300200000B44208B5FEF716
:10276000F3FB104C4FF0FF31206803F01EFFDFED4C
:102770000E2AF0EE623AB0EE623A1E209FED0B2A6E
:10278000F3EE0C1AB1EE041AF0EE610AB0EE410A53
:10279000FFF728FD00231A461946206803F0BBFC0A
:1027A000DDE700BF740300200000000000000C42C1
:1027B0002DE9F84F2DED068B664B1B78002B00F0B2
:1027C000B980654BD3ED006A644BD3ED007A76EEA9
:1027D000E76AF2EE047A86EEA77A37EE077A604B64
:1027E00083ED007A5F4BD3ED006A5F4B93ED007A87
:1027F00076EEC76A86EEA77A37EE077A5B4B83EDF3
:10280000007A5B4BD3ED006A5A4B93ED007A76EE7B
:10281000C76A86EEA77A37EE077A574B83ED007AC0
:10282000564BD3ED006A564B93ED007A76EEC76AAD
:1028300086EEA77A37EE077A524B83ED007A524B39
:10284000D3ED006A514B93ED007A76EEC76A86EEBF
:10285000A77A37EE077A4E4B83ED007A4D4BD3EDD6
:10286000006A4D4B93ED007A76EEC76A86EEA77A42
:1028700037EE077A494B83ED007A494BD3ED006A76
:10288000484B93ED007A76EEC76A86EEA77A37EE6C
:10289000077A454B83ED007A444BD3ED006A444BF5
:1028A00093ED007A76EEC76A86EEA77A37EE077A5E
:1028B000404B83ED007A404BD3ED006A3F4B93EDE4
:1028C000007A76EEC76A86EEA77A37EE077A3C4B37
:1028D00083ED007A3B4BD3ED006A3B4B93ED007ADE
:1028E00076EEC76A86EEA77A37EE077A374B83ED26
:1028F000007A374BD3ED006A364B93ED007A76EED3
:10290000C76A86EEA77A37EE077A334B83ED007AF3
:10291000324BD3ED006A324B93ED007A76EEC76A04
:1029200086EEA77A37EE077A2E4B83ED007A094BB5
:1029300000221A702C4B93ED008A2C4BD3ED007AB9
:10294000B4EEE78AF1EE10FA52D9BDEC068BBDE881
:10295000F88F00BF100000207802002080020020C5
:10296000B0020020740200207C020020AC02002093
:10297000640200206C02002090020020600200200F
:10298000680200208C020020500200205802002023
:10299000A00200204C020020540200209C020020D3
:1029A0003C0200204402002088020020380200205F
:1029B0004002002084020020280200203002002073
:1029C000A8020020240200202C020020A4020020E3
:1029D000140200201C020020980200201002002097
:1029E00018020020940200200C0000205C0300204C
:1029F000C94BD3ED007A68EE277A9FEDC89AC7EEEF
:102A0000899AF2EE048A69EEA89AC54BD3ED007A52
:102A100079EEA79AC34BC3ED009AC34BD3ED007A6E
:102A200068EE277A87EE89AA2AEE28AABF4BD3ED53
:102A3000007A3AEE27AABE4B83ED00AABD4B186878
:102A4000FDF772FD04460D4618EE100AFDF76CFD09
:102A5000AFA3D3E90023FDF7BFFD41EC100B0CF051
:102A600073FC57EC106B32463B4620462946FDF777
:102A7000B3FDFEF773F80AEE900AAF4B1860AF4B48
:102A800093ED007A28EE077AC7EE097A67EEA87A06
:102A9000AB4B93ED007A77EE877AAA4BC3ED007AC1
:102AA000A94B93ED007A28EE077AC7EE097A67EE14
:102AB000A87AA64B93ED007A77EE877AA44AC2ED06
:102AC000007AA44B1868FDF72FFD02460B463046EE
:102AD0003946FDF781FDFEF741F89F4908609F4B9D
:102AE00093ED007A28EE077AC7EE097A67EEA87AA6
:102AF0009B4B93ED007A77EE877A9A48C0ED007A87
:102B0000994B93ED007A28EE077AC7EE097A67EEC3
:102B1000A87A964B93ED007A77EE877A944CC4EDC1
:102B2000007A944B1868FDF7FFFC02460B463046CE
:102B30003946FDF751FDFEF711F8DFF8A482C8F819
:102B400000008D4B93ED007A28EE077AC7EE097AE4
:102B500067EEA87A894B93ED007A77EE877A884DF5
:102B6000C5ED007A874B93ED007A28EE077AC7EE21
:102B7000097A67EEA87A844B93ED007A77EE877A2C
:102B8000824CC4ED007A824B1868FDF7CDFC0246FA
:102B90000B4630463946FDF71FFDFDF7DFFF7D4C44
:102BA00020607D4B93ED007A28EE077AC7EE097A14
:102BB00067EEA87A794B93ED007A77EE877ADFF8A3
:102BC0002492C9ED007A764B93ED007A28EE077ACD
:102BD000C7EE097A67EEA87A724B93ED007A77EE2A
:102BE000877ADFF804A2CAED007A6F4B1868FDF708
:102BF0009BFC02460B4630463946FDF7EDFCFDF7DF
:102C0000ADFFDFF8E8B1CBF80000684B93ED007A38
:102C100028EE077AC7EE097A67EEA87A644B93ED3F
:102C2000007A77EE877A634DC5ED007A624BD3ED7B
:102C3000007A28EE278AC8EE097A67EEA87A5F4BF9
:102C400093ED007A77EE877A5D4BC3ED007A5D4BAA
:102C50001868FDF769FC02460B4630463946FDF719
:102C6000BBFCFDF77BFF584F3860B0EE6A1AF0EE00
:102C70004A0AB0EE690AFEF7ABF99BED001ADAEDED
:102C8000000A99ED000AFEF713FB98ED001A384E82
:102C9000D6ED000A334890ED000AFEF781FC97ED6F
:102CA000001A4748D0ED000A95ED000AFEF7E8FD4E
:102CB000294991ED001A264AD2ED000A214B93EDE5
:102CC000000AFEF73DFF94ED001A304CD4ED000AE7
:102CD0002B4D95ED000AFFF79BF83C4BD3ED007AA6
:102CE0003B4A92ED007A77EE877AC3ED007A394B52
:102CF00093ED007AF4EEC77AF1EE10FA7FF725AE85
:102D0000354B1A68314B1A60344B00221A701CE69E
:102D1000399D52A246DF913FB00200200000B4432B
:102D20008002002028030020AC0200207C0200204A
:102D300024030020700200202003002090020020C5
:102D40006C020020EC0200208C02002068020020AF
:102D5000E80200205C020020E4020020A002002023
:102D600058020020100300209C0200205402002082
:102D70000C030020480200208802002044020020AA
:102D80001C030020840200204002002018030020C1
:102D90003402002014030020A8020020300200208A
:102DA000A40200202C020020200200209802002013
:102DB0001C020020040300209402002018020020BE
:102DC000000300200C020020FC0200200C00002068
:102DD000080200205C03002060030020680300203C
:102DE00008030020F8020020F4020020F002002076
:102DF000022A05D8DFE802F002060800002303607B
:102E0000002070470160FBE70B680360F8E7012AC8
:102E100002D101600020704708B5FFF7E9FF0020EC
:102E200008BD08B54FF6FF710120FDF73FFF08BD53
:102E300008B54FF6FF710020FDF738FF08BD000010
:102E400070B505460E46002404E0315D03480AF0E3
:102E5000B9FC0134A542F8DC70BD00BF6C0700204E
:102E600000B585B0FF238DF800308DF80130FE23CA
:102E70008DF8023009238DF8033083238DF8043058
:102E80001E238DF8053004238DF80630C0F3072289
:102E9000C0B2831813218DF807108DF808008DF843
:102EA00009200C228DF80A2003228DF80B20C3F193
:102EB0007F4303F57F0303F57E4331338DF80C30F8
:102EC00069460D20FFF7BCFF05B05DF804FB00006C
:102ED00070B505460E46002404E0315D03480AF053
:102EE00071FC0134A542F8DC70BD00BF6C07002006
:102EF00030B59BB0C0F30723C0B2FF228DF8042089
:102F00008DF80520FE228DF806205E228DF8072020
:102F100083228DF808201E228DF809204FF0040E20
:102F20008DF80AE0C54A1168C1F30725CCB26119D2
:102F30000144194401F202214FF0010C8DF80BC03D
:102F40008DF80C408DF80D508DF80E008DF80F3077
:102F50005468C4F30725E4B204EB050C84449C4494
:102F60000CF1020C8C4402218DF810108DF81140E8
:102F70008DF812508DF813008DF814309168C1F35C
:102F80000725CCB2611901441944033161444FF063
:102F9000030C8DF815C08DF816408DF817508DF87C
:102FA00018008DF81930D468C4F30725E4B204EB97
:102FB000050C84449C44F4448C448DF81AE08DF84C
:102FC0001B408DF81C508DF81D008DF81E301169C6
:102FD000C1F3072ECCB204EB0E01014419440531B4
:102FE000614405258DF81F508DF820408DF821E0B3
:102FF0008DF822008DF823305469C4F3072EE4B213
:1030000004EB0E0C84449C440CF1060C8C44062109
:103010008DF824108DF825408DF826E08DF82700D6
:103020008DF828309169C1F3072ECCB204EB0E0164
:10303000014419440731614407258DF829508DF862
:103040002A408DF82BE08DF82C008DF82D30D469B6
:10305000C4F3072EE4B204EB0E0C84449C440CF140
:10306000080C8C4408218DF82E108DF82F408DF817
:1030700030E08DF831008DF83230116AC1F3072E3F
:10308000CCB204EB0E010144194409316144092515
:103090008DF833508DF834408DF835E08DF83600DA
:1030A0008DF83730546AC4F3072EE4B204EB0E0CEB
:1030B00084449C440CF10A0C8C440A218DF838108D
:1030C0008DF839408DF83AE08DF83B008DF83C30B2
:1030D000916AC1F3072ECCB204EB0E0101441944EE
:1030E0000B3161440B258DF83D508DF83E408DF835
:1030F0003FE08DF840008DF84130D46AC4F3072ECC
:10310000E4B204EB0E0C84449C440CF10C0C8C4493
:103110000C218DF842108DF843408DF844E08DF875
:1031200045008DF84630116BC1F3072ECCB204EB8D
:103130000E01014419440D3161440D258DF84750AD
:103140008DF848408DF849E08DF84A008DF84B30F5
:10315000546BC4F3072EE4B204EB0E0C84449C447D
:103160000CF10E0C8C440E218DF84C108DF84D4056
:103170008DF84EE08DF84F008DF85030916BC1F313
:10318000072ECCB204EB0E01014419440F31614407
:103190000F258DF851508DF852408DF853E08DF881
:1031A00054008DF85530D46BC4F3072EE4B204EB11
:1031B0000E0C84449C440CF1100C8C4410218DF8AE
:1031C00056108DF857408DF858E08DF859008DF85D
:1031D0005A30116CC1F307245FFA81FE0EEB040133
:1031E000014419441131614411258DF85B508DF86B
:1031F0005CE08DF85D408DF85E008DF85F30526CBC
:10320000C2F307245FFA82FC0CEB040202441A4466
:1032100012320A4412218DF860108DF861C08DF8C9
:1032200062408DF863008DF86430D3438DF86530CB
:1032300001A96220FFF74CFE1BB030BDC001002089
:1032400008B50CE0234B1B78ABBB00231A4619468C
:103250002148006802F05FFF112003F00FFE4FF0DD
:10326000FF311E4B186803F0A0F94FF0FF311A4BE5
:10327000186803F09AF90128EED1FFF799FA184B74
:10328000D3ED007AF4EE677AF1EE10FADAD6154B48
:10329000D3ED007AF4EE677AF1EE10FAD2D6124B43
:1032A000D3ED007AF4EE677AF1EE10FACAD6002078
:1032B000FFF71EFEC6E7FDF7F5FDFDF78DFD0B4B95
:1032C00019680B4804F0E0FD0A4B1868FFF7C8FDC9
:1032D000BBE700BF2C03002074030020780300200C
:1032E000B8010020B4010020B0010020300300200C
:1032F000340400203403002010B58AB0404803682D
:103300001B68312198473F4C214607A80AF0C4FDAD
:10331000214604A80AF0C0FD214601A80AF0BCFD20
:10332000002406E036480AF0AFFCC1B27C2911D176
:10333000013433480AF020FA002834D0002CF1D0B0
:10334000012C24D02E480AF09FFCC1B201A80AF03B
:10335000CEFDEEE707A80AF0CAFD099B032BE8D9CA
:1033600029492A480AF0DEFC02E025480AF08CFCD4
:1033700026480AF001FA0028F7D101A80AF044FD16
:1033800004A80AF041FD07A80AF03EFD19E01C4818
:103390000AF07AFCC1B27C2901D10234C9E704A841
:1033A0000AF0A5FDC5E7174907A80AF0AEFD50B120
:1033B00001A80AF029FD04A80AF026FD07A80AF0D2
:1033C00023FD0AB010BD0F4904A80AF09EFD002895
:1033D000EED10C4901A80AF098FD0028E8D107A811
:1033E0000AF0ADFD0A4B186004A80AF0A8FD094BCD
:1033F000186001A80AF0A3FD074B1860D8E700BFCA
:1034000054060020041D0108180F0108A00F002019
:1034100014000020700300206C0300202DE9F0430D
:103420002DED048B87B0BA4CC62120460AF09CFAD9
:10343000C72120460AF070FA0622B64920460AF053
:10344000CBFB4FF4FA700AF0B1FEB34C24212046B6
:103450000AF08AFA232120460AF05EFA06224FF487
:10346000E13120460AF0B8FBAC4C172120460AF0A7
:103470007BFA162120460AF04FFA06224FF4165125
:1034800020460AF0A9FB0021A54801F045FFA54C04
:10349000012500952B463C220221204600F028FB06
:1034A000204600F013FB4FF4FA600AF07FFE002183
:1034B000CC200AF0CFFD29463E200AF0CBFD0021AA
:1034C00047200AF0C7FDDFF8B48240F2DC52462103
:1034D000404604F031FD944F40F2DC524221384620
:1034E00004F02AFD914E40F2DC523C21304604F0BB
:1034F00023FDDFF88C9240F2DC524321484604F071
:103500001BFD4FF44D70FFF7ABFC4821484604F01B
:10351000BBFC2821404604F0B7FCB421384604F037
:10352000B3FC0021304604F0AFFC4FF4FA700AF00F
:103530003DFEFDF709FD9FED7E8ADFED7E8A9FED62
:103540007E9AB0EE481AF0EE680AB0EE490AFDF72E
:103550003FFDB0EE481AF0EE480A9FED780AFDF7FD
:10356000A7FEB0EE481AF0EE490AB0EE490AFEF79F
:1035700017F8B0EE481AF0EE490AB0EE680AFEF706
:103580007FF9B0EE481AF0EE480A9FED6D0AFEF79B
:10359000D7FAB0EE481AF0EE680AB0EE680AFEF705
:1035A00037FC4FF40070FFF7A3FC4FF47A700AF079
:1035B000FDFDFEF78BFD204600F088FA204600F066
:1035C0000BFF2B4600221146204600F0DEF82B466A
:1035D00000227F21204600F0D8F82B461F22002130
:1035E000204600F0D2F82B461F227F21204600F013
:1035F000CCF82946204601F0A2FBE582A5821423DF
:103600002382192363824F4920460AF07EFB20461D
:1036100000F0E2FE04E0FFF76FFE0F200AF0C6FDA7
:10362000494B1B68002BF6DB3E4C204600F04EFA5F
:103630000121204601F083FB0125E582A5821423A8
:10364000238219236382414920460AF05EFB20460B
:1036500000F0C2FE03220021284602F03BFD3C4C54
:103660002060284602F027FE3A4B18602368002BA2
:1036700048D0002401940126009623464FF480622E
:103680003549364803F05AFA019402230093234641
:103690004FF400723249334803F050FA324D284655
:1036A00008F01EF85321284608F09BFA324644F2EF
:1036B0006721284608F058FB02940394049405946B
:1036C0002A4B02932A4B05932A4B049302A92846BE
:1036D00008F0CEFC02A8FDF775FB00944FF0FF3315
:1036E00032463146284608F04FF9284608F04FFA8E
:1036F000284608F027F903F053FA07B0BDEC048B15
:10370000BDE8F0831C4905480AF00CFBB1E700BF97
:103710006C07002040420F0054060020A00F00203C
:10372000F008002084080020300400202C04002031
:103730000000000000005C4200005CC2000096C275
:10374000000096422C0F010814000020380F0108D9
:1037500078030020740300205C0F01085D27000837
:10376000640F0108413200087C030020790C000836
:10377000710C00080F2E0008400F010838040020CB
:10378000340400200020704770470029C0F2878071
:10379000B0F90CC0614580F28280002A7FDBB0F96D
:1037A0000EC062457BDA10B490F81AC0BCF1020F6B
:1037B0001AD0BCF1030F26D0BCF1010F08D0012BA9
:1037C0002DD0022B56D0002B3ED05DF8044B704715
:1037D000B0F808C0ACEB020C1FFA8CFC0CF1FF3CFB
:1037E0000A460FFA8CF1EAE7B0F808C0ACEB010129
:1037F00089B2013909B2B0F80AC0ACEB020292B248
:10380000013A12B2DBE7B0F80AC0ACEB010C1FFAC8
:103810008CFC0CF1FF3C11460FFA8CF2CFE7C46A26
:103820001346002A0EDB43F3CF03B0F9080000FB78
:103830000313E15C02F00702012000FA02F20A43DE
:10384000E254C2E7D31DEEE7C46A1346002A0FDB39
:1038500043F3CF03B0F9080000FB0311605C02F0F2
:10386000070201239340DB435BB203406354ACE7A0
:10387000D31DEDE7C46A1346002A0EDB43F3CF03E2
:10388000B0F9080000FB0311635C02F0070201209D
:1038900000FA02F25340635497E7D31DEEE77047F6
:1038A00038B504461D4600F0DDFF124B23600023AF
:1038B0006362E5B1A5620022E262FF2384F833303F
:1038C00084F8343084F8353084F836309DF910307F
:1038D00084F83730059BA365069BE365064B63665A
:1038E000012384F8683084F86920204638BD034DF0
:1038F000E0E700BF740F010800093D00D409002073
:1039000010B50446044B0360C06A18B10AF080FC8D
:103910000023E362204610BD740F010838B5044649
:103920000D46806A88B194F9301001F067FBA06AF7
:1039300003681B6800219847A06A03681B68294632
:103940009847A06A01F022FC38BD226C1368216DF3
:1039500023EA01031360606A00B30022294602F0E3
:1039600091F8F1E7A16B0A68A06C22EA00020A60F4
:10397000E16B0A68E06C02430A60E16B0A68E06C84
:1039800022EA00020A605B08002BDDD01D42E9D06C
:10399000A16B0A68A06C02430A60E9E78023F3E7A1
:1039A00038B504460D46806A68B1A16D01F006FB8A
:1039B000C5B1A7212046FFF7B1FFA06AA0B1E16D14
:1039C00001F0FCFA38BD606A28B104F1640393E8A1
:1039D000060002F033F8626C1368616D23EA01039C
:1039E0001360E5E7A621E5E7626C1368616D0B43A0
:1039F0001360606A0028E5D002F043F8E2E72DE9A1
:103A0000F04104460D461746806A68B394F93010B9
:103A100001F0F4FAA06A03681B68002198470126A8
:103A200008E0A06A03681B6815F8011B9847013677
:103A3000B6B247467B1E5FFA83F887B11F2EF0D9D6
:103A4000A06A01F0A3FB94F93010A06A01F0D6FA45
:103A5000A06A03681B68002198470126E1E7A06A75
:103A600001F094FBBDE8F081226C1368216D23EA1C
:103A7000010313601DE0A06B0268A76C22EA070235
:103A80000260E06B0268E76C3A430260E06B026838
:103A9000E76C22EA070202605B084BB11942EAD0E8
:103AA000A06B0268A76C3A430260EAE78023F4E760
:103AB00037467E1EF6B2002FD4D015F8011B606A7F
:103AC0000028F3D0002201F0DDFFF1E708B503463E
:103AD000C06AB3F90820B3F90A30073306D4DB1003
:103AE00003FB02F200210BF073F908BD0733F6E780
:103AF0002DE9F04184B004460F4615461E469DF858
:103B00002880C36A43B32046FFF7E0FFB4F90A00F8
:103B1000202833DDB4F90810523901EBD171403857
:103B200000EBD070012302934023019352230093B2
:103B3000B64B40F34F0241F34F01204600F0B0FE78
:103B400084F83170A76A002F7BD085BBB4F90A30A6
:103B5000202B2AD03D252BE0B0F90800B4F90A301B
:103B6000073309D4DB1003FB00F00AF049FBE062E5
:103B70000028C8D10020A2E20733F3E7B4F9081007
:103B8000733901EBD171203800EBD070012302931F
:103B900020230193732300939D4B40F34F0241F385
:103BA0004F01204600F07CFECAE73C2500E06DB2E4
:103BB00084F83050B8F1000F3ED126B194F93700A7
:103BC000002880F21382A06A002800F02882A16DEC
:103BD00001F0F4F904228F492046FFF710FFB4F9F1
:103BE0000A100139C9B22046FFF798FE04228A491B
:103BF0002046FFF704FF94F93130012B00F01E82BC
:103C000014212046FFF78AFE042284492046FFF74C
:103C1000F6FE8F2384F86030A368814A934200F057
:103C2000258202F50012934200F00A827D4A9342F7
:103C300000F0118202251AE20021384601F06CFBE7
:103C4000BBE7012194F935000AF004FA012194F947
:103C500036000AF0FFF994F93510CBB24A2B11D88F
:103C6000714A52F82320C2F30312082A57D84A2B6C
:103C70003ED86D4A52F82320C2F303126B4850F825
:103C8000222004E001F0C002C02A24D03A461432B7
:103C900022644A2B45D8644A52F8232002F00F02CE
:103CA000012393409BB2236594F93620D3B24A2B6B
:103CB00051D85D4951F82310C1F3031108294ED89A
:103CC0004A2B74D8584951F82310C1F303115748AF
:103CD00050F8217043E0CF2B1FD801F03F02544829
:103CE00050F82200504A52F82020C2F30312BCE7D9
:103CF00001F0C002C02A01D00F22BFE7CF2B0AD8A3
:103D000001F03F024A4850F82200474A52F820206A
:103D1000C2F30312B2E70F22B0E73A46B7E73A46DA
:103D2000B5E701F0C002C02A02D04FF40043BAE761
:103D3000CF2B0DD801F03F013D4B53F821203A4BDA
:103D400053F8222002F00F02012393409BB2AAE70E
:103D50004FF40043A7E702F0C001C0291AD014377E
:103D600067644A2B38D8304A52F8232002F00F02F9
:103D7000012393409BB263653A6813433B60656AD5
:103D8000002D57D0B8F1000F3FF417AF284601F0CF
:103D900033FE12E7CF2BE2D802F03F01244850F85F
:103DA0002100214951F82010C1F3031186E702F0E8
:103DB000C001C02901D00F2189E7CF2B0AD802F01A
:103DC0003F011B4850F82100174951F82010C1F35A
:103DD00003117CE70F217AE702F0C001C02902D06D
:103DE0004FF40043C7E7CF2B0DD802F03F02104B32
:103DF00053F822200C4B53F8222002F00F0201232B
:103E000093409BB2B7E74FF40043B4E7D0110108E9
:103E1000F00F0108EC0F0108E80F0108E40F01089A
:103E20008000200060001000A42401082800002069
:103E300064240108012194F933000AF00BF90121EF
:103E400094F934000AF006F994F93310CBB24A2BF6
:103E500011D8A44A52F82320C2F30312082A57D8D3
:103E60004A2B3ED89F4A52F82320C2F303129E48A1
:103E700050F8222004E001F0C002C02A24D02A46D3
:103E80001432A2634A2B45D8964A52F8232002F0F6
:103E90000F02012393409BB2A36494F93420D3B260
:103EA0004A2B51D88F4951F82310C1F30311082927
:103EB0004ED84A2B6BD88B4951F82310C1F303110C
:103EC000894850F8215043E0CF2B1FD801F03F0222
:103ED000864850F82200834A52F82020C2F3031289
:103EE000BCE701F0C002C02A01D00F22BFE7CF2BF0
:103EF0000AD801F03F027D4850F82200794A52F872
:103F00002020C2F30312B2E70F22B0E72A46B7E738
:103F10002A46B5E701F0C002C02A02D04FF40043A0
:103F2000BAE7CF2B0DD801F03F01704B53F8212099
:103F30006C4B53F8222002F00F02012393409BB2F6
:103F4000AAE74FF40043A7E702F0C001C02911D04F
:103F50001435E5634A2B2FD8624A52F8232002F029
:103F60000F02012393409BB2E3642A6822EA030311
:103F70002B6022E6CF2BEBD802F03F015B4850F8D4
:103F80002100584951F82010C1F303118FE702F0C6
:103F9000C001C02901D00F2192E7CF2B0AD802F02F
:103FA0003F01524850F821004E4951F82010C1F30A
:103FB000031185E70F2183E702F0C001C02902D079
:103FC0004FF40043D0E7CF2B0DD802F03F02474B10
:103FD00053F82220434B53F8222002F00F02012312
:103FE00093409BB2C0E74FF40043BDE701210AF0C4
:103FF00031F8012194F937000AF0AAF801200AF0FB
:10400000D5F8002194F937000AF0A2F80A200AF046
:10401000CDF8012194F937000AF09AF8D3E5606AE7
:1040200028B104F1640393E8060001F007FD626C17
:104030001368616D23EA01031360CBE51021E0E50D
:1040400094F93130012B04D0CF2384F8603012254D
:104050000DE09F23F9E794F93130012B04D0AF2311
:1040600084F86030022502E01023F9E70225DA2106
:104070002046FFF753FC29462046FFF74FFC8121DD
:104080002046FFF74BFC94F860102046FFF746FCF3
:10409000D9212046FFF742FC94F93130012B11D091
:1040A000F1212046FFF73AFC062211492046FFF78E
:1040B000A6FCA06A40B1E16D00F080FF012004B0D1
:1040C000BDE8F0812221ECE7626C1368616D0B435F
:1040D0001360606A18B101F0D4FC0120EFE7012001
:1040E000EDE700BFA4240108280000206424010893
:1040F000DC0F010830B5BDF80C40002A25DBB0F913
:104100000AC0944521DD002920DB0D4601EB030C9C
:10411000B0F908E0F44503DD1FFA8EF35B1A1BB219
:10412000002B12DDC06A1146002A13DBC91001FB07
:104130000E55284402F00702012101FA02F2D2B220
:104140008C4210D0022C29D094B130BD19440BB24E
:104150000021DAE7D11DE9E7034613F8014B1443C8
:10416000047018460B46591E09B2002BF4D1ECE737
:10417000D243D2B206E0034613F8014B1440047058
:1041800018460B46591E09B2002BF4D1DDE7034651
:1041900013F8014B5440047018460B46591E09B2DF
:1041A000002BF4D1D1E70000F0B5BDF81440002990
:1041B0004FDBB0F908C08C454BDD002A4ADBD5182F
:1041C000B0F90AE0754505DD1FFA8EFEAEEB020E72
:1041D0000FFA8EF3002B3CDDDBB2C66AC2F3C405D6
:1041E0000CFB0515711912F0070218D0C2F1080274
:1041F000D2B2314F17F802C0934206D2A2EB030E9F
:10420000FF2747FA0EF70CEA070C012C26D0022CE8
:1042100032D044B3B0F908502944934219D39B1AC1
:10422000DBB2072B0BD9022C2BD0ACB3FF250D70C2
:10423000B0F908201144083BDBB2072BF7D843B193
:1042400003F007031D4AD35C012C27D0022C2FD08A
:1042500044B3F0BD1A4413B20022B0E7775D47EAD9
:104260000C077755D6E7775D6FEA0C0C4FFA8CFC9C
:1042700007EA0C077755CDE7775D87EA0C07775596
:10428000C8E70A78D2430A70B0F908201144083B05
:10429000DBB2072BF5D8D2E70025C8E70A7813432D
:1042A0000B70D6E70A78DB435BB213400B70D0E7A4
:1042B0000A7853400B70CCE7D40F0108CC0F0108EB
:1042C00030B583B0BDF8184090F81AC0BCF1020FA9
:1042D00014D0BCF1030F22D0BCF1010F06D0002591
:1042E00085B30094FFF760FF03B030BD0589AD1AB8
:1042F000ADB2013D0A4629B20125F1E7B0F808C088
:10430000ACEB010189B2013989B24589AD1AADB270
:10431000013D2AB2C91A013109B20025E0E7B0F81F
:104320000AC0ACEB010C1FFA8CFC0CF1FF3C1FFA2D
:104330008CFCACEB030C0CF1010C11460FFA8CF267
:104340000125CDE70094FFF7D5FECDE730B583B06A
:10435000BDF8184090F81AC0BCF1020F1FD0BCF194
:10436000030F2DD0BCF1010F06D0002585B30094BA
:10437000FFF7C0FE03B030BDB0F808C0ACEB020CD4
:104380001FFA8CFC0CF1FF3C1FFA8CFCACEB030C0D
:104390000CF1010C0A460FFA8CF10125E6E70589BC
:1043A0006D1AADB2013D29B2B0F80AC0ACEB020201
:1043B00092B2013A92B2D21A013212B20025D5E776
:1043C00045896D1AADB2013D11462AB20125CDE7EE
:1043D0000094FFF7E9FECDE72DE9F0410446806A3D
:1043E00038B3A16D00F0EAFD05224D492046FFF7E4
:1043F00006FBB4F908100139C9B22046FFF78EFA5E
:10440000B4F90870B4F90A30073321D4DB1017FB74
:1044100003F7BFB2E56AA06A002844D094F93010CF
:1044200000F0ECFDA06A03681B6840219847012654
:1044300019E0606A28B104F1640393E8060001F012
:10444000FDFA626C1368616D23EA01031360CBE728
:104450000733DBE7A06A03681B6815F8011B984760
:104460000136B6B247467B1E1FFA83F887B11F2E6E
:10447000F0D9A06A00F08AFE94F93010A06A00F02A
:10448000BDFDA06A03681B68402198470126E1E74B
:10449000A06A00F07BFEA06A002835D0E16D00F034
:1044A0008DFDBDE8F081226C1368216D0B43136014
:1044B0001DE0A06B0268A76C22EA07020260E06BB5
:1044C0000268E76C3A430260E06B0268E76C22EA3C
:1044D000070202605B084BB11942EAD0A06B026888
:1044E000A76C3A430260EAE78023F4E737467E1E72
:1044F000B6B2002FCFD015F8011B606A0028F3D0A8
:10450000002201F0BFFAF1E7626C1368616D0B43A2
:104510001360606A0028C4D001F0B3FAC1E700BF9D
:10452000C40F01082DE9F04F85B0064690469A4623
:10453000BDF93850BDF83C300093A81A80EAE0720B
:10454000A2EBE072AAEB010C8CEAEC7BABEBEC7B10
:104550005A4505DC2C465546A24644468846214627
:10456000A84505DC54468A4621462C464546A046C9
:10457000A8EB0504A3B20293A1EB0A07002FB8BF72
:104580007F42C4F3C03E0EFA84F464108A4529DBEE
:104590004FF0FF33039301920EE03368D3F8189085
:1045A000009B524629463046C847E41BA3B224B2BA
:1045B000002C0FDB01352DB2454517DC019B5B4517
:1045C000EBDD3368D3F81890009B2A4651463046FD
:1045D000C847EAE7039A92440FFA8AFA029A134408
:1045E0001CB2E7E7012303930192E5E705B0BDE8BC
:1045F000F08F704710B504682469A04710BD30B52E
:1046000083B00468BDF818500095A46BA04703B0B0
:1046100030BD30B583B00468BDF818500095E46B28
:10462000A04703B030BD30B583B00468BDF81C505E
:104630000195BDF918500095246CA04703B030BD1A
:104640007047F0B583B005460E4617461C46036812
:104650005B6998473C44A4B2013C2B68BDF820201C
:10466000019224B200949C6A33463A463146284669
:10467000A0472B68DB6A2846984703B0F0BDF0B529
:1046800083B005460E4617461C4603685B6998478B
:1046900033199BB2013B2A68BDF8201001910097A5
:1046A000946A1BB23A4631462846A0472B68DB6A1B
:1046B0002846984703B0F0BD2DE9F04F83B005467A
:1046C0000E4690461F46BDF930A0BDF834900368F1
:1046D0005B69984734460BE02B68CDF80090D3F81F
:1046E00020B05346424621462846D847013424B2DA
:1046F000F0198442F0DB2B68DB6A2846984703B048
:10470000BDE8F08F10B582B002680191B0F90E10CB
:104710000091146CB0F90C3000221146A04702B091
:1047200010BD2DE9F04383B007460E461446BDF98F
:104730002880BDF82C90994218D01D46424528D0BB
:1047400003685B6998473B68CDF80490CDF800801A
:10475000D3F828802B46224631463846C0473B686E
:10476000DB6A3846984703B0BDE8F083424502DC77
:10477000434690461C46A4EB08039BB201333A68BB
:10478000CDF80090946B1BB2424631463846A047A4
:10479000E9E7994201DC0D461E46731B9BB20133CB
:1047A0003A68CDF80090D66B1BB2224629463846AF
:1047B000B047D8E72DE9F04782B004460D461646CB
:1047C0009946BDF92880BDF82C7003685B6998474D
:1047D00023680097D3F824A04B463246294620464A
:1047E000D04706EB080292B2013A23680097D3F84B
:1047F00024A04B4612B229462046D0472368009792
:10480000D3F820A04346324629462046D04705EB40
:10481000090189B20139236800971D6A434632466F
:1048200009B22046A8472368DB6A2046984702B0B1
:10483000BDE8F08701F003018176032910D8DFE895
:1048400001F002090209B0F908308381B0F90A3099
:10485000C3817047B0F90A308381B0F90830C38151
:104860007047704730B40C4C0460002444600B4D1A
:104870000560018142818181C28184760482448203
:104880000122427602764FF6FF71C1828182C276A2
:104890000477046230BC7047302601089814010880
:1048A0002DE9F04F85B08046019117460093BDF980
:1048B0003860BDF93C90BDF84030029316F1070A0C
:1048C0000DD44FEAEA0AD8F800305B6940469847B1
:1048D0004FF0000B5D46CDF80C90B9462FE00AF181
:1048E000070AEEE70AFB0BF11A46002B12DB42F334
:1048F000CF028B18009AD55C15F0800F0CD10134D3
:1049000023B2B34213DA9CB213F0070FEAD06D0062
:10491000EDB2F1E7DA1DEAE7019BE118D8F80030C3
:104920009F69029B4A4609B24046B847E7E70BF148
:1049300001000FFA80FB09F101020FFA82F9039BD3
:104940009B4501DA0023DCE7D8F80030DB6A4046FB
:10495000984705B0BDE8F08F2DE9F04F8FB0824643
:10496000069107929946BDF860300893BDF86470CF
:104970009DF868809DF86C300493026A3AB3137A0C
:10498000A9EB0303DBB2506800EBC3011268059288
:1049900030F8337091F8029091F803B091F9053036
:1049A0000C9391F906300D93B8F1010F40F2D180CC
:1049B0000C9B09930D9B0A93DAF800305B69504613
:1049C000984700231D461846CDF82CB016E1B0F9E3
:1049D0000C300A468B4240F31C81B0F90E30079927
:1049E0008B4240F3168108EB480302EB4303002B94
:1049F00040F30F81049B01EBC303002B40F30981BB
:104A0000037F33B9B9F1AF0F03D909F101035FFA9D
:104A100083F9DAF800305B69504698474FF0000B95
:104A20000297089F049E5CE0069B0BFB0831079BE6
:104A300004FB0632DAF8003001970096D3F81C9098
:104A4000434612B209B25046C847013464B26D08F9
:104A5000072C40DC15F0010F13D0B8F1010FE3D1A2
:104A6000012EE1D1069B0BEB0301079BE218DAF85C
:104A70000030D3F818903B4612B209B25046C847EE
:104A8000E3E7029B9F42E0D0B8F1010F12D0069BF2
:104A90000BFB0831079B04FB0632DAF80030029862
:104AA00001900096D3F81C90434612B209B25046CA
:104AB000C847CAE7012EEAD1069B0BEB0301079B0F
:104AC000E218DAF80030D3F81890029B12B209B25B
:104AD0005046C847B9E7DDF80C900BF101034FFAD7
:104AE00083FBBBF1040F08DC09EB89025A444A49F5
:104AF0008D5C0024CDF80C90AAE7029F089BBB4276
:104B000012D0B8F1010F15D008EB8801069B1944AB
:104B1000DAF800300197049AD2000092DC6943462B
:104B2000079A09B25046A047DAF80030DB6A5046CF
:104B300098476EE0049B012BE6D106990531DAF81F
:104B4000003000971C6A0823079A09B25046A04714
:104B5000EAE7049B012B3FF62BAF00230A9309934E
:104B60002AE715F0800F10D16D00EDB20134E4B2E8
:104B700033464C453FD25E1CF6B213F0070FF0D11E
:104B80007B1C059AD55D9FB2EBE7B8F1010F1AD0F7
:104B9000099B1919069B01FB08310A9B039A9A1875
:104BA000079B049802FB0032DAF800300293089B5E
:104BB00001930090029BD3F81CB0434612B209B295
:104BC0005046D847D0E7049B012BE1D10C9B069AB5
:104BD000991814FA81F10D9B079A9A18039B13FAFE
:104BE00082F2DAF80030D3F818B0089B12B209B29A
:104BF0005046D847B8E703980130C0B20B9A9042AC
:104C000002D200240390B4E7DAF80030DB6A5046A1
:104C100098470FB0BDE8F08FE814010870B584B074
:104C200004460B46026A002A3FD00A2974D00D2997
:104C30007AD0117A8B4277D3907A984274D3591AEA
:104C4000C9B2556805EBC105A978E87831B328B336
:104C500095F90500E67E96B1B4F9106094F818C095
:104C6000084400FB0C61B4F90C00814207DD00210F
:104C70002182618A607E127B00FB02126282627E68
:104C80000392227E0292E28A0192A28A0092B4F9F1
:104C90001220B4F910102046FFF75EFE238A29790E
:104CA000227E01FB023323823EE00A292CD00D290B
:104CB0003AD0C27E8AB1B0F91010027E02EB4202F5
:104CC00001EB4202B0F90C108A4206DD002202829A
:104CD000428A417E02EBC1024282627E0392227EC0
:104CE0000292E28A0192A28A0092B4F91220B4F9E7
:104CF00010102046FFF730FE228A237E03EB430389
:104D000002EB430323820FE000230382438A427EA7
:104D100003EBC203438207E000230382438A417E00
:104D2000127B01FB02334382012004B070BD0B46AD
:104D300001B90123037602B901224276704708B512
:104D40000A46FFF7F4FF08BDC0F30313082B0AD887
:104D5000074A52F8232000F00F00064B53F820308A
:104D600019B1936170470022F5E71B049361704706
:104D700028000020981B0108C0F30313082B0CD84F
:104D8000084A52F8232000F00F00074B53F8203058
:104D90001269934303D0002070470022F3E70120FB
:104DA000704700BF28000020981B0108028BC08AB2
:104DB000101A70470346C28A018B8A4204D20169E5
:104DC000885C0132DA8270474FF0FF307047C38A47
:104DD000028B934202D20269D05C70474FF0FF30E1
:104DE0007047000010B50446134B0360002141607A
:104DF000124B03604FF47A7383600346104A43F802
:104E0000C42BC0F8C41059609960C0F8D010C0F825
:104E1000D410C0F8D810C0F8DC10C0F8E0109C2204
:104E2000283009F0D5FF074B9A68C4F88420DB6866
:104E3000C4F88830204610BD3026010848260108F5
:104E4000081A0108A424010870B504460E46154648
:104E5000334B036000214160324B03604FF47A739F
:104E600083600346304A43F8C42BC0F8C41059602D
:104E70009960C0F8D010C0F8D410C0F8D810C0F8AD
:104E8000DC10C0F8E0109C22283009F0A1FFF3B23A
:104E90004A2B14D8254A52F8233006F4E0661E4304
:104EA000C4F88460EBB24A2B21D8204A52F8233050
:104EB00005F4E0651D43C4F88850204670BD06F037
:104EC000C002C02A02D04FF0FF36E9E7CF2B0BD843
:104ED00006F03F02164B53F82220144B53F82230B1
:104EE00006F4E0661E43DBE74FF0FF36D8E705F037
:104EF000C002C02A02D04FF0FF35DCE7CF2B0BD821
:104F000005F03F020A4B53F82220084B53F8223099
:104F100005F4E0651D43CEE74FF0FF35CBE700BF5A
:104F20003026010848260108081A0108A4240108AF
:104F30006424010810B50446283000F093FBE069B2
:104F400018B109F065F90023E36100232384206987
:104F500018B109F05DF9002323610023A38210BD7D
:104F600038B504460546074B45F8D43BFFF7E2FF4A
:104F70002846FBF727FF04F1C400FBF723FF204678
:104F800038BD00BF081A010838B504460D4601288F
:104F900005D01CB94FF6FF739D4208D038BD4FF6BF
:104FA000FF739942F5D10448FFF71CFFF1E702486F
:104FB000FFF7D6FFF2E700BFD409002038B504465A
:104FC00000F12805284600F05BFB94F8BE3003B1E1
:104FD00038BD0449284600F027FC0349284600F064
:104FE0001AFCF5E78F53000841530008012380F8AD
:104FF00024309940817600234384704708B5C9B2B4
:10500000FFF7F4FF08BD000038B5838A8B420BD24E
:1050100005460C461F2900D820242146286909F09E
:1050200099F910B12861AC8238BD2146014807F0DA
:1050300049FCF9E7E8190108B1F5806F19D870B596
:1050400005460C46038C8B4215D21F2909D90E4602
:105050003146E86909F07EF928B1E8612E842046DE
:105060000AE02026F4E73146044807F02BFC2046EE
:1050700002E000207047084670BD00BFE819010833
:1050800010B582B004468DF8071090F8243073B143
:10509000418C0131FFF7D0FF88B1E269638C9DF844
:1050A0000710D154638C01336384012007E001228F
:1050B0000DF10701283000F003FB10B9012002B008
:1050C00010BD0020FBE770B504460E46154690F86B
:1050D00024308BB1418C1144FFF7AEFF00B970BD95
:1050E000E069638C2A463146184409F04AFF638C14
:1050F0002B4463842846F2E792B2283000F0E0FAAD
:1051000008B92846EBE70020E9E708B5034600693F
:1051100018B19A8A002109F05BFE08BD08B5034664
:10512000C06918B11A8C002109F052FE08BD38B5CB
:10513000044649B94FF42A03836594F8BE30012B25
:1051400006D00425284638BD4FF02A438365F4E78E
:10515000638CE269A17E04F1280000F0F1FA0328D3
:1051600010D8DFE800F002110B0D00252046FFF7F4
:10517000D5FF0023638484F82430E3E70225F5E7B4
:105180000325F3E70425F1E70125EFE708B5012141
:10519000FFF7CDFF08BD38B504460025C58205835D
:1051A000FFF7B3FF65842046FFF7B8FF38BD000066
:1051B00038B50546D0F8840008F0F0FE002108F06C
:1051C00049FFD5F88400FFF7D7FD00B138BD04468C
:1051D000D5F8880008F0E2FE012108F03BFF2AE044
:1051E0000021D5F88800FFF7AFFD184B5968184B20
:1051F0001A68184BA3FB0232920C02EB8202520097
:10520000124B5B685B1A9A42FADC0121D5F88800E0
:10521000FFF79AFD0D4B59680D4B1A680D4BA3FB18
:105220000232920C02EB82025200084B5B685B1A5E
:105230009A42FADC0134132CD2DDD5F8880008F04C
:10524000ADFE002108F006FFC0E700BF001000E03F
:105250005400002083DE1B4310B5044683682BB145
:105260000322014698470023A360E360204610BD57
:105270002DE9F04104460E4690461F460025C582A2
:10528000058305618582FFF740FF6584A576E561AA
:1052900025842046FFF742FFC4F88040294604F1E8
:1052A000D400FFF7D9FF84F82450730084F8253028
:1052B000012E00D02E4684F8BE60B8F1000F18D041
:1052C000012384F8BF30B7B1012384F8C0302046F1
:1052D000FFF76EFF04F1280594F825304FF4804263
:1052E0000A49284600F0C6F894F8BE302BB1BDE854
:1052F000F0810023E5E70023E7E70549284600F0B1
:1053000093FA0449284600F086FAF0E7A0860100E7
:105310008F5300084153000808B50A4600230121B5
:10532000FFF7A6FF08BD00B583B0019183682BB1DC
:10533000C36801A9984703B05DF804FB0BF0DAFDE0
:1053400070B5856E846DD4F8CC302BB100F1740645
:10535000E28A238B9A4200D270BD29462046FFF78D
:1053600053FE2A463146206909F00BFE0023E382F2
:105370002583294604F1C400FFF7D5FFECE708B503
:10538000836813B1C368984708BD0BF0B3FD08B537
:10539000806DD0F8DC3023B100234384D430FFF794
:1053A000EEFF08BD38B50446002303604360836008
:1053B000C3608B6833B10D4602229847EB68E36007
:1053C000AB68A360204638BD82B002460B46EC466F
:1053D000D0E900018CE8030093E8030082E80300B1
:1053E0009CE8030083E8030002B0704738B5054627
:1053F0000C46FFF7E9FFAB68A268AA60A360EB6800
:10540000E268EA60E36038BD10B584B004466846DF
:10541000FFF7C8FF21466846FFF7E8FF6846FBF73D
:10542000D1FC204604B010BD08B54FF6FF71012035
:10543000FFF7AAFD08BD08B54FF6FF710020FFF782
:10544000A3FD08BD084B994207D9084B994206D9DC
:10545000074B994205D9002070470348704703481D
:1054600070470348704700BFA0860100801A0600FD
:1054700040420F00002800F0DE802DE9F04385B0A7
:105480000D4616461F46044600F104096A49C06DE0
:1054900007F0E0F980466949206E07F0DBF9B8F1C2
:1054A000000F5BD0002859D00146404607F002FAB1
:1054B0002060002858D0624B984259D02268614B36
:1054C0009A4273D02268604B9A4200F08D805B490B
:1054D000206E07F099F95849E06D07F095F92368B7
:1054E000636029462046FFF7ADFFA060574B9D4201
:1054F00040F298804FF48043E36027610023E3612A
:105500006661A36194F8973003B14023236294F855
:10551000983003B180236362002584F841502A4605
:10552000022194F9640002F0DBFD94F9640002F0BA
:10553000E7FD2A46022194F9650002F0D1FD94F9B5
:10554000650002F0DDFD484603F0E0F800286CD16C
:105550000023A366022384F8953002E03C4808F05B
:10556000F7FC05B0BDE8F0833A4808F0F1FCF8E735
:1055700000230193384B1A6C42F400121A641A6C1F
:1055800002F400120192019A1A6A42F400121A629D
:105590001A6A22F400121A621F2384F8643020234E
:1055A00084F865302D4BC3F8009087E70023029301
:1055B000294B1A6C42F480021A641A6C02F48002BD
:1055C0000292029A1A6A42F480021A621A6A22F459
:1055D00080021A62212384F86430222384F8653023
:1055E0001E4BC3F804906DE7002303931A4B1A6C0B
:1055F00042F400021A641A6C02F400020392039A45
:105600001A6A42F400021A621A6A22F400021A624A
:10561000482384F86430492384F865300F4BC3F87D
:10562000089054E70023E36067E74FF444710C48A7
:1056300007F048F98CE77047BC2301088023010874
:105640000054004000580040005C0040A08601006B
:105650002C1A01085C1A010800380240B80A002020
:10566000781A010810B5044690F9640002F04CFD68
:1056700094F9650002F048FD201D03F026F910BDE5
:1056800038B504460D46FFF7DDFE6268136823F067
:1056900001031360A060094B9D420BD94FF4804376
:1056A000E360201D03F032F86268136843F00103E1
:1056B000136038BD0023E360F3E700BFA08601005C
:1056C000202A17D800B5002309E090F894C09C4424
:1056D00011F803E084448CF874E00133DBB29342A8
:1056E000F3D390F894301344DBB280F89430002068
:1056F0005DF804FB0120704710B5044664230430B4
:1057000003F0FCF8022810D0032807D060B194F809
:105710004130DBB2202B11D0042005E094F8413059
:10572000DBB2202B08D0052010BD94F84130DBB24D
:10573000202BF9D00620F7E70220F5E70220F3E757
:105740002DE9F04F85B0074689469246984602F00B
:105750005BFC0390B8F1000F07D0D7F830B00026FB
:1057600002963B465F469B4618E001224946384672
:10577000FFF7C2FF029009E002F046FC039BC61A45
:10578000642E09D906230293029BBBB1029805B08F
:10579000BDE8F08F04230293022CF5D10BF1040530
:1057A0000097434652464946284603F071F904469D
:1057B0000228E1D00028EDD10290EDE702F024FCB0
:1057C0000446284604F0C0F8202809D0632E07D8E4
:1057D00002F01AFC061B284604F0B9F80028F0D0A5
:1057E000284604F0B4F8632E0AD810F0200F0AD12E
:1057F00010F0040F0AD10028C8D004230293C5E793
:1058000005230293C2E705230293BFE70323029314
:10581000BCE70438704730B108B519B1C16604302F
:1058200003F044FA08BD704730B108B519B10167FB
:10583000043003F03BFA08BD704770B506460D46CC
:10584000FFF7E7FF044690F89530DBB2012B13D049
:10585000EDB9002384F89530236F23B1002284F83A
:1058600094202046984794F89420202304F1740152
:10587000304603F08BF970BD836E002BE8D0C36E09
:105880009847022384F895300023A366E0E70023BD
:10589000A366012284F89520A36E7033E1180423D7
:1058A0001944304603F0BAF9E5E738B50546FFF785
:1058B000B0FF044690F89530DBB2012B08D00223EC
:1058C00084F895300023A366284603F0EFF938BD2D
:1058D000836E002BF3D0C36E9847F0E738B50546CA
:1058E000FFF797FF0446836E1F2B08DC836E01339E
:1058F000836694F89530DBB2012B04D038BD07489D
:1059000008F026FBF5E7A36E7033E11804230122AB
:105910001944284603F082F9F0E700BF9C1A0108F9
:1059200008B5FFF776FF002380F8943008BD10B566
:105930000446FFF76EFF90F8963003B110BD204685
:1059400003F0B4F9FAE7000008B5024B186803F059
:10595000CDFE08BDB80A002008B5024B186803F058
:1059600095FF08BDB80A002008B5024B586803F03F
:10597000BDFE08BDB80A002008B5024B586803F008
:1059800085FF08BDB80A002008B5024B986803F0EF
:10599000ADFE08BDB80A002008B5024B986803F0B8
:1059A00075FF08BDB80A0020094AC266012280F8C6
:1059B0007020002280F87120064AD2F82811C165B3
:1059C00091690166D26942664FF0FF328266704784
:1059D00000093D00A4240108012800D0704708B543
:1059E0004FF6FF73994200D008BD0248FFF7DCFF75
:1059F000FAE700BFC40A002000B583B08446002344
:105A000080F851300C4A009201228DF804208DF864
:105A100005300948CCF86C00BDF80430ACF87030A3
:105A20009CF870309CF87120DCF86C10604600F037
:105A300095F803B05DF804FB00093D0000B583B0A4
:105A4000844602AB03E90600C26E8A4212D0009877
:105A5000CCF86C00BDF80430ACF870309CF87030B5
:105A60009CF87120DCF86C10604600F077F803B009
:105A70005DF804FBB0F87020BDF804309A42E6D11E
:105A8000F5E7704700B583B08DF8071052B10022DA
:105A900001230DF1070100F09DF99DF8070003B007
:105AA0005DF804FB0DF10702F2E708B54FF6FF7150
:105AB0000120FFF791FF08BD10B4C46891FAA1F36B
:105AC000A3B1B3FA83F35B004FF0030C0CFA03F3BA
:105AD00024EA030391FAA1F151B1B1FA81F149002D
