:020000040000FA
:100000000C946F060C94AD130C9486130C94970605
:100010000C9497060C9497060C9497060C949706EC
:100020000C9497060C9497060C9497060C949706DC
:100030000C9497060C9497060C9497060C949706CC
:100040000C943C130C9497060C940A130C94E41231
:100050000C9497060C9497060C9497060C949706AC
:100060000C94D4130C949706084AD73B3BCE016EF0
:1000700084BCBFFDC12F3D6C74319ABD56833DDAFF
:100080003D00C77F11BED9E4BB4C3E916BAAAABE0E
:10009000000000803F0000000000240027002A002C
:1000A00000000000250028002B00040404040404C0
:1000B0000404020202020202030303030303010217
:1000C00004081020408001020408102001020408E6
:1000D00010200000000800020100000304070000D7
:1000E00000000000000000F8F62A3F68F57A0006DC
:1000F000FFFE0003000000650054FFEF0000FA80DF
:10010000000B12820001030C30C30A74562D0D62DD
:10011000DBC716F4BA023883F8833000F883258EE3
:10012000F8833000F883FFFFFFFF0CBDD8112400D7
:1001300004001A8279A10036003C00000000001083
:10014000000038836FA2003E03304000000002CA66
:10015000E3093E8000002000000000000000400095
:100160000000600000001FA4E8E4FFF5DCB9005BBC
:1001700079CF1F3F787600867C5A00862347FAB9EC
:1001800086310074878A0000000000004305FFFFED
:10019000E9A800002182FAB84D46FFFADF3DFFFFD3
:1001A000B2B3000000003FFFBA98005DAC08000A3F
:1001B000637800014621FFFF0000000042B5000601
:1001C0000064006400061406029F0F479132D90EA6
:1001D0009FC91DCF4C343BB67AE80064000600C8C6
:1001E00000000000FFFE1000000000000000000002
:1001F00000000000000000070000FFF10000FA46C8
:100200000000A2B800001000000004D6000004CCDA
:10021000000004CC0000000000000000000000000E
:1002200000000000000000060002000500070000BA
:10023000000000640000000000000000000C000549
:10024000006400200000000000000000000000002A
:1002500040000000030000000032F8980000FF6535
:100260000000830F000000060000FFF10000FA46C6
:100270000000A2B800000000000000000000000024
:10028000000000000000000000320000000000003C
:10029000000000001000000000010000000D000040
:1002A000B26A000200000001FB83007C0000FB1525
:1002B000FC001FB4FF83000000010065000700641C
:1002C00003E8006400280000FFFD0000000016A005
:1002D00000000000000000001000002F00000000DF
:1002E00001F40000100000280000FFFF4581FFFF1F
:1002F000FA72000000000000000000440001000548
:10030000BAC6004778A2000000000000000000000C
:10031000060000000014000023BB002EA25B0000BA
:100320000568000BCF490004FFFD0002000000003B
:10033000000200000000001B0000000000000000A0
:10034000000000000000006400070008000600062E
:10035000FFFE0000000000000000000000000000A0
:10036000000000000000000000000000000000008D
:10037000000000000000000000000000000000007D
:10038000000000000000002EA25B00000568000BCA
:10039000CF490000000000F8F62A3F68F57A000413
:1003A000FFFD00020000001B000000000000000034
:1003B0000000000E000EFFFFFFCF00040000000051
:1003C0000032FFFFFF9C000043050000000000001A
:1003D000000100000064FFE50000000000000000D4
:1003E000000000000000000000010000000000010B
:1003F00000000000000000018000000180000001FA
:100400008000002426D30001000100000000000647
:1004100000100096003C00000000000000000000FA
:1004200000001F9E655D0C0A4E68CDCF77095016FF
:100430006759C619CE8200000000000000000000CD
:1004400000000047711C000000000000000017D7EA
:100450008400030000000011DC4703000000C79384
:100460008F9D1E1B1C19FFFFFFFF000000000EDF09
:10047000A4381F9E655D000000000047711C020348
:10048000188500004000000000000000000300008C
:100490000000000000003FFFFFFDFFFFF4C9FFFF69
:1004A000BCF000010C0F0000000000000000000084
:1004B000000000000000000000000000000000003C
:1004C000000000000000F5B7BAB3677DDF7E7290D0
:1004D0002E554CF6E68800000000000000000000E9
:1004E000000000000000D8DCB4B8B0D8B9ABF3F815
:1004F000FAB3B7BB8E9EAEF132F51BF1B4B8B08043
:1005000097F1A9DFDFDFAADFDFDFF2AA4CCD6CA90C
:100510000CC92C97F1A989264666B28999A92D554F
:100520007DB0B08AA896365676F1BAA3B4B280C030
:10053000B8A89711B28398BAA3F02408441064189D
:10054000B2B9B49883F1A329557DBAB5B1A3839309
:10055000F0002850F5B2B6AA839328547CF1B9A3D1
:10056000829361BAA2DADEDFDB819AB9AEF5606808
:1005700070F1DABAA2DFD9BAA2FAB9A38292DB315A
:10058000BAA2D9BAA2F8DF85A4D0C1BBAD83C2C5D7
:10059000C7B8A2DFDFDFBAA0DFDFDFD8D8F1B8AAA3
:1005A000B38DB4980D355DB2B6BAAF8C96198F9FE6
:1005B000A70E161EB49AB8AA872C547CBAA4B08A87
:1005C000B691325676B28494A4C808CDD8B8B4B0E7
:1005D000F19982A82D557D98A80E161EA22C547C48
:1005E00092A4F02C5078F184A898C4CDFCD80DDBEF
:1005F000A8FC2DF3D9BAA6F8DABAA6DED8BAB2B6F4
:100600008696A6D0F3C841DAA6C8F8D8B0B4B882A6
:10061000A892F52C548898F135D9F418D8F1A2D0C5
:10062000F8F9A884D9C7DFF8F883C5DADF69DF8372
:10063000C1D8F40114F1A8824EA884F311D182F537
:10064000D992289788F109F41C1CD884A8F3C0F922
:10065000D1D99782F129F40DD8F3F9F9D1D982F4DF
:10066000C203D8DEDF1AD8F1A2FAF9A88498D9C754
:10067000DFF8F8F883C7DADF69DFF883C3D8F4015D
:1006800014F198A8822EA884F311D182F5D9925042
:100690009788F109F41CD884A8F3C0F8F9D1D99748
:1006A00082F149F40DD8F3F9F9D1D982F4C403D811
:1006B000DEDFD8F1AD8898CCA809F9D98292A8F5E7
:1006C0007CF1883ACF944A6E98DB6931DAADF2DE7C
:1006D000F9D88795A8F221D1DAA5F9F417D9F1AEA6
:1006E0008ED0C0C3AE82C684C3A88595C8A588F243
:1006F000C0F1F4010EF18E9EA8C63E56F554F18865
:1007000072F40115F19845856EF58E9E0488F142CC
:10071000985A8E9E068869F4011CF1981E1108D023
:10072000F504F11E970202983625DBF9D985A5F369
:10073000C1DA85A5F3DFD88595A8F309DAA5FAD83B
:100740008292A8F578F1881A849F26889821DAF495
:100750001DF3D8879F39D1AFD9DFDFFBF9F40CF354
:10076000D8FAD0F8DAF9F9D0DFD9F9D8F40BD8F300
:10077000879F39D1AFD9DFDFF41DF3D8FAFCA86920
:10078000F9F9AFD0DADEFAD9F88F9FA8F1CCF39857
:10079000DB45D9AFDFD0F8D8F18F9FA8CAF388091D
:1007A000DAAF8FCBF8D8F2AD978D0CD9A5DFF9BAB7
:1007B000A6F3FAF412F2D8950DD1D9BAA6F3FADA63
:1007C000A5F2C1BAA6F3DFD8F1BAB2B68696A6D022
:1007D000CAF349DAA6CBF8D8B0B4B8D8AD84F2C021
:1007E000DFF18FCBC3A8B2B68696C8C1CBC3F3B036
:1007F000B48898A821DB718D9D71859521D9ADF2C2
:10080000FAD88597A828D9F408D8F28D29DAF40502
:10081000D9F285A4C2F2D8A88D9401D1D9F411F2ED
:10082000D88721D8F40AD8F28498A8C801D1D9F47D
:1008300011D8F3A4C8BBAFD0F2DEF8F8F8F8F8F896
:10084000F8F8D8F1B8F6B5B9B08A95A3DE3CA3D9CB
:10085000F8D85CA3D9F8D87CA3D9F8D8F8F9D1A5F1
:10086000D9DFDAFAD8B18530F7D9DED8F830ADDA89
:10087000DED8F2B48C99A32D557DA083DFDFDFB5E0
:1008800091A0F629D9FBD8A0FC29D9FAD8A0D0513B
:10089000D9F8D8FC51D9F9D879D9FBD8A0D0FC79AE
:1008A000D9FAD8A1F9F9F9F9F9A0DADFDFDFD8A18F
:1008B000F8F8F8F8F8ACDEF8ADDE8393AC2C547C95
:1008C000F1A8DFDFDFF69D2CDAA0DFD9FADB2DF807
:1008D000D8A850DAA0D0DED9D0F8F8F8DB55F8D88F
:1008E000A878DAA0D0DFD9D0FAF8F8F8F8DB7DF8EC
:1008F000D89CA88CF530DB38D9D0DEDFA0D0DEDF85
:10090000D8A848DB58D9DFD0DEA0DFD0DED8A86871
:10091000DB70D9DFDFA0DFDFD8F1A888902C547C12
:1009200098A8D05C38D1DAF2AE8CDFF9D8B087A8BD
:10093000C1C1B188A8C6F9F9DA36D8A8F9DA36D82B
:10094000A8F9DA36D8A8F9DA36D8A8F9DA36D8F715
:100950008D9DADF818DAF2AEDFD8F7ADFA30D9A434
:10096000DEF9D8F2AEDEFAF983A7D9C3C5C7F1889C
:100970009BA77AADF7DEDFA4F8849408A797F3006D
:10098000AEF29819A488C6A39488F632DFF2839356
:10099000DB09D9F2AADFD8D8AEF8F9D1DAF3A4DEB0
:1009A000A7F1889B7AD8F38494AE19F9DAAAF1DF1B
:1009B000D8A881C0C3C5C7A39283F628ADDED9F8F5
:1009C000D8A350ADD9F8D8A378ADD9F8D8F8F9D1D3
:1009D000A1DADEC3C5C7D8A18194F818F2B089ACFA
:1009E000C3C5C7F1D8B8B4B09786A8319B0699079C
:1009F000AB9728889BF00C201440B0B4B8F0A88ABC
:100A00009A285078B79BA82951792470594469389D
:100A1000644831F1BBAB88002C547CF0B38BB8A890
:100A200004285078F1B088B49726A85998BBABB386
:100A30008B02264666B0B8F08A9CA82951798B298A
:100A400051798A2470598B2058718A4469388B39BE
:100A500040688A6448318B30496088F1AC002C547E
:100A60007CF08CA804285078F1889726A85998AC77
:100A70008C02264666F0899CA82951792470594435
:100A80006938644831A98809205970AB1138406928
:100A9000A8193148608CA83C415C207C00F1879803
:100AA0001986A86E767EA999882D557DD8B1B5B9DD
:100AB000A3DFDFDFAED0DFAAD0DEF2ABF8F9D9B02A
:100AC00087C4AAF1DFDFBBAFDFDFB9D8B1F1A397ED
:100AD0008E60DFB084F2C8F8F9D9DED89385F14A88
:100AE000B183A308B5839A0810B79F10D8F1B0BAA4
:100AF000AEB08AC2B2B68E9EF1FBD9F41DD8F9D938
:100B00000CF1D8F8F8AD61D9AEFBD8F40CF1D8F8F7
:100B1000F8AD19D9AEFBDFD8F416F1D8F8AD8D6178
:100B2000D9F4F4ACF59C9C8DDF2BBAB6AEFAF8F490
:100B30000BD8F1AED0F8AD51DAAEFAF8F1D8B9B1C0
:100B4000B6A3839C08B9B1839AB5AAC0FD3083B718
:100B50009F10B58B93F20202D1ABDADED8F1B080F0
:100B6000BAABC0C3B284C1C3D8B1B9F38BA391B639
:100B700009B4D9ABDEB0879CB9A3DDF1B38B8B8B05
:100B80008B8BB08720283038B28BB69BF2A3C0C8BD
:100B9000C2C4CCC6A3A3A3F1B087B59AD8F39BA3D4
:100BA000A3DCBAACDFB9A3FEF2ABC4AAF1DFDFBBB2
:100BB000AFDFDFA3A3A3D8D8D8BBB3B7F1AAF9DAC4
:100BC000FFD9809AAA28B48098A720B79787A866EB
:100BD00088F07951F1902C870CA781976293F0717E
:100BE000716085940129517990A5F1284C6C870C8E
:100BF00095188578A38390284C6C886CD8F3A282D2
:100C000000F210A8921980A2F2D926D8F188A84D36
:100C1000D948D896A83980D93CD89580A839A686D5
:100C200098D92CDA87A72CD8A8899519A980D93802
:100C3000D8A88939A980DA3CD8A82EA83990D90C2F
:100C4000D8A8953198D90CD8A809D9FFD801DAFFCE
:100C5000D89539A9DA26FFD890A80D8999A81080CF
:100C60009821DA2ED88999A83180DA2ED8A88696CC
:100C70003180DA2ED8A8873180DA2ED8A88292F374
:100C80004180F1D92ED8A882F31980F1D92ED882CB
:100C9000ACF3C0A28022F1A62EA72EA92298A829E3
:100CA000DAACDEFFD8A2F22AF1A92E8292A8F231A4
:100CB00080A696F1D900AC8C9C0C30ACDED0DEFF67
:100CC000D88C9CACD010ACDE8092A2F24C82A8F101
:100CD000CAF235F19688A6D900D8F1FFF314112491
:100CE0001FBECFEFD8E0DEBFCDBF11E0A0E0B1E086
:100CF000EAE6F0E402C005900D92A434B107D9F7FA
:100D000023E0A4E4B1E001C01D92AE34B207E1F7E4
:100D100016E0CFE6D6E004C02197FE010E94FB1E3C
:100D2000CE36D107C9F70E945E150C9433200C947F
:100D3000000081E08093E801089508950895AF923E
:100D4000BF92CF92DF92EF92FF920F931F93CF93B8
:100D5000DF936C017B018B01040F151FEB015E011A
:100D6000AE18BF08C017D10759F06991D601ED91AF
:100D7000FC910190F081E02DC6010995892B79F74E
:100D8000C501DF91CF911F910F91FF90EF90DF9000
:100D9000CF90BF90AF900895FC01538D448D252FC7
:100DA00030E0842F90E0821B930B541710F0CF9605
:100DB000089501970895FC01918D828D981761F037
:100DC000A28DAE0FBF2FB11D5D968C91928D9F5F4E
:100DD0009F73928F90E008958FEF9FEF0895FC012D
:100DE000918D828D981731F0828DE80FF11D858DE0
:100DF00090E008958FEF9FEF0895FC01918D228D73
:100E0000892F90E0805C9F4F821B91098F739927F7
:100E1000089580E692E00E94FD0621E0892B09F406
:100E200020E0822F089580E090E0892B29F00E9435
:100E3000090781110C9400000895FC01A48DA80FEE
:100E4000B92FB11DA35ABF4F2C91848D90E001960C
:100E50008F739927848FA689B7892C93A089B1892C
:100E60008C91837080648C93938D848D981306C0CD
:100E70000288F389E02D80818F7D80830895EF9231
:100E8000FF920F931F93CF93DF93EC0181E0888F44
:100E90009B8D8C8D98131AC0E889F989808185FF14
:100EA00015C09FB7F894EE89FF896083E889F989B6
:100EB00080818370806480839FBF81E090E0DF91B8
:100EC000CF911F910F91FF90EF900895F62E0B8D0B
:100ED00010E00F5F1F4F0F731127E02E8C8D8E11C6
:100EE0000CC00FB607FCFACFE889F989808185FF2D
:100EF000F5CFCE010E941D07F1CFEB8DEC0FFD2F3A
:100F0000F11DE35AFF4FF0829FB7F8940B8FEA89E7
:100F1000FB8980818062CFCF682F80E692E00C94BD
:100F20003F07CF93DF93EC01888D8823B9F0AA891E
:100F3000BB89E889F9898C9185FD03C0808186FD94
:100F40000DC00FB607FCF7CF8C9185FFF2CF8081E3
:100F500085FFEDCFCE010E941D07E9CFDF91CF9134
:100F6000089590E0FC01EE52FF4F2491FC01E25401
:100F7000FF4F3491FC01E655FF4FE491EE23C9F099
:100F8000222339F0233001F1A8F4213019F1223065
:100F900029F1F0E0EE0FFF1FE056FF4FA591B4914D
:100FA0008FB7F894EC91611126C030953E233C93A5
:100FB0008FBF08952730A9F02830C9F0243049F7B1
:100FC000809180008F7D03C0809180008F77809317
:100FD0008000DFCF84B58F7784BDDBCF84B58F7D74
:100FE000FBCF8091B0008F778093B000D2CF8091FB
:100FF000B0008F7DF9CF3E2BDACFCF93DF9390E017
:10100000FC01E254FF4F249186559F4FFC018491CF
:101010008823D1F090E0880F991FFC01EA56FF4F1A
:10102000A591B491FC01E056FF4FC591D491611197
:101030000EC09FB7F8948C91E22FE0958E238C938D
:101040002881E223E8839FBFDF91CF9108958FB776
:10105000F894EC91E22BEC938FBFF6CF3FB7F89466
:1010600080918D0190918E01A0918F01B09190019E
:1010700026B5A89B05C02F3F19F00196A11DB11DF3
:101080003FBFBA2FA92F982F8827BC01CD01620F2F
:10109000711D811D911D42E0660F771F881F991FEA
:1010A0004A95D1F708958F929F92AF92BF92CF92B7
:1010B000DF92EF92FF924B015C010E942E086B01C0
:1010C0007C010E942E086C197D098E099F09683EDB
:1010D000734081059105A8F321E0821A9108A108C7
:1010E000B10888EEC80E83E0D81EE11CF11C811403
:1010F0009104A104B10429F7FF90EF90DF90CF9005
:10110000BF90AF909F908F9008952FB7F894609103
:10111000890170918A0180918B0190918C012FBF80
:101120000895089520916501260F3327331F21323A
:101130003105ECF420915A02FC0190E080E024306B
:1011400069F082E00895A09165012191AC014B5BAB
:101150005E4FA40FB52FB11D2C930196861798F3FF
:1011600080916501680F6093650180E0089581E0DA
:10117000089510925A0281E080933902109234024D
:1011800061E082E10E94B10761E083E10E94B10762
:10119000E9EBF0E080818E7F808380818D7F80838A
:1011A00088E48093B80085E48093BC000895CF93D1
:1011B000DF9391E0909344018823B9F0C091B80087
:1011C000D091BA008091BC008A7B8093BC0060E023
:1011D00082E10E94B10760E083E10E94B1070E94B2
:1011E000B908D093BA00C093B800DF91CF910895A9
:1011F000CF92DF92EF92FF920F931F93CF93DF93E3
:10120000D82FC62F613208F098C00E942E086B01BB
:101210007C0180915A0281116BC081E080935A0257
:10122000809339029FEF90933802109237029C0FFF
:10123000909336028093350280913502DD0FD82BD2
:10124000D093350280913402813009F078C0109239
:1012500034020E942E086B017C018091350280933C
:10126000BB0080915C0290915D02A0915E02B09102
:101270005F02892B8A2B8B2BA1F00E942E080091F4
:101280005C0210915D0220915E0230915F026C1948
:101290007D098E099F09061717072807390708F4E3
:1012A00048C08091BC0083FDD8CF85EC8093BC0002
:1012B0000E942E086B017C0180915A02813009F452
:1012C00040C0809137028C1710F4C0913702E4E1DE
:1012D000F2E0AAE3B2E080E08C1355C08C2FDF91DE
:1012E000CF911F910F91FF90EF90DF90CF900895D5
:1012F00080915C0290915D02A0915E02B0915F02CC
:10130000892B8A2B8B2B09F484CF0E942E08009105
:101310005C0210915D0220915E0230915F026C19B7
:101320007D098E099F09061717072807390708F056
:1013300070CF80915B020E94D708C0E0CFCF85EECE
:10134000B5CF80915C0290915D02A0915E02B09158
:101350005F02892B8A2B8B2B09F4AECF0E942E08BB
:1013600000915C0210915D0220915E0230915F025B
:101370006C197D098E099F09061717072807390779
:1013800008F09ACFD6CF91919D938F5FA5CF8F9282
:101390009F92AF92BF92CF92DF92EF92FF920F9304
:1013A0001F93CF93DF93D0911302D13208F0D7C0AF
:1013B000182FC09112020E942E086B017C018091AF
:1013C0005A0281116BC082E080935A021093390255
:1013D0008FEF8093380210923702D0933602A2EF3B
:1013E000B1E0E4E1F2E080E0D81391C01092350260
:1013F00080913502CC0FC82BC09335028091340206
:10140000813009F088C0109234020E942E086B01CE
:101410007C01809135028093BB0080915C029091A9
:101420005D02A0915E02B0915F02892B8A2B8B2B0B
:10143000A1F00E942E0800915C0210915D022091A3
:101440005E0230915F026C197D098E099F090617B3
:1014500017072807390708F442C08091BC0083FDB4
:10146000D8CF85EC8093BC000E942E086B017C01D4
:1014700080915A02823009F450C0809138028F3F27
:1014800009F46FC080913802803209F46CC08091F9
:101490003802803309F469C084E026C080915C0280
:1014A00090915D02A0915E02B0915F02892B8A2B20
:1014B0008B2B09F484CF0E942E0880905C029090C0
:1014C0005D02A0905E02B0905F026C197D098E09EA
:1014D0009F0986169706A806B90608F070CF809176
:1014E0005B020E94D70885E01092F101109213026E
:1014F0001092F001DF91CF911F910F91FF90EF902B
:10150000DF90CF90BF90AF909F908F9008959D9166
:1015100091938F5F69CF85EEA5CF80915C0290910A
:101520005D02A0915E02B0915F02892B8A2B8B2B0A
:1015300009F49ECF0E942E0800915C0210915D027A
:1015400020915E0230915F026C197D098E099F091E
:10155000061717072807390708F08ACFC0CF81E0A0
:10156000C3CF80E0C1CF82E0BFCF83E0BDCF0F9378
:101570001F93CF93DF938A01E901209711F4CDEFF8
:10158000D2E091E09093F001809312021092F10169
:1015900010921302E881F9810190F081E02DCE01D3
:1015A0000995D80111966C91E881F9810190F0813B
:1015B000E02DCE010995E881F9810190F081E02DBF
:1015C000D8016C91CE01099581E00E94C70991E094
:1015D000811190E0892FDF91CF911F910F91089594
:1015E0000895E091960180919501E81730F4F0E0BC
:1015F000E65CFD4F808190E008958FEF9FEF0895A6
:1016000090919601809195012FEF3FEF981748F444
:10161000E92FF0E0E65CFD4F208130E09F5F909382
:101620009601C90108958091950190919601891BB9
:10163000990B0895CF92DF92EF92FF920F931F9331
:10164000CF93DF937C01CB018A012091F00122230B
:1016500089F0EB016B01C40ED51ECC15DD0569F0D8
:101660006991D701ED91FC910190F081E02DC701C6
:101670000995F3CF642F0E949208C801DF91CF91A2
:101680001F910F91FF90EF90DF90CF900895CF932F
:10169000DF931F92CDB7DEB769832091F00122233B
:1016A000F9F020911302203258F021E030E0FC01E3
:1016B0003383228390E080E00F90DF91CF910895F3
:1016C0008091F101E82FF0E0EE50FE4F9981908378
:1016D0008F5F8093F1018093130281E090E0ECCF63
:1016E00061E0CE0101960E949208F7CF90E080E081
:1016F0000895DF92EF92FF920F931F93CF93DF93A2
:10170000E42ED22EF32EE801209711F4CDEFD2E093
:1017100091E09093F001809312021092F1011092E7
:101720001302E881F9810190F081E02DCE01099545
:101730000D2D1F2DE00EF12EF11C0E151F0559F079
:10174000F80161918F01E881F9810190F081E02D2C
:10175000CE010995F2CF81E00E94C70991E0811185
:1017600090E0892FDF91CF911F910F91FF90EF9023
:10177000DF9008950F931F93CF93DF931F92CDB700
:10178000DEB7E5E2F3E001811281908189839E0159
:101790002F5F3F4F41E06EE6892F0E94790B0F903B
:1017A000DF91CF911F910F910895FC0101900020CE
:1017B000E9F73197AF01481B590BBC0180E692E075
:1017C0000C949F068F929F92AF92BF920F931F939C
:1017D000CF93DF93CDB7DEB7A1970FB6F894DEBFF6
:1017E0000FBECDBF19A2423008F44AE08E010F5D52
:1017F0001F4F842E912CB12CA12CA50194010E9485
:10180000961BE62FB901CA01EA30F4F4E05DD80175
:10181000EE938D01232B242B252B79F790E080E08C
:10182000109719F0CD010E94D50BA1960FB6F89430
:10183000DEBF0FBECDBFDF91CF911F910F91BF9043
:10184000AF909F908F900895E95CE1CF4F925F92A7
:101850006F927F928F929F92AF92BF92CF92DF92C0
:10186000EF92FF920F931F93CF936B017C01742E25
:10187000AC019B010E94E11E882399F08EE291E069
:10188000CF911F910F91FF90EF90DF90CF90BF907D
:10189000AF909F908F907F906F905F904F900C943F
:1018A000D50B46015701E894B7F82FEF3FEF4FE70C
:1018B0005FE7C501B4010E94E11E81110DC02FEF49
:1018C0003FEF4FE75FE7C501B4010E94971C181670
:1018D0001CF482E391E0D4CF2FEF3FEF4FE75FE4BA
:1018E000C701B6010E941D1E18161CF486E391E084
:1018F000C7CF2FEF3FEF4FE75FECC701B6010E9464
:10190000971C87FDF3CF20E030E0A901C701B601A5
:101910000E94971C10E000E087FF08C08DE20E9443
:101920008C078C01F7FAF094F7F8F094C0E060E0CF
:1019300070E080E09FE37C1641F020E030E040E280
:1019400051E40E949C1CCF5FF6CFA70196010E9434
:10195000B91B2B013C010E94151D4B015C014AE0A3
:101960000E94E20B7C01E00EF11ECC23B1F1C50117
:10197000B4010E94441D9B01AC01C301B2010E944D
:10198000B81B4B015C018EE20E948C07E80EF91E29
:10199000C15018F120E030E040E251E4C501B4014B
:1019A0000E942A1E2B013C010E94151D4B01B12CE7
:1019B000A12C4AE0C501B4010E94E20BE80EF91E19
:1019C000C501B4010E94441D9B01AC01C301B201D9
:1019D0000E94B81B4B015C01DBCFC701CF911F9167
:1019E0000F91FF90EF90DF90CF90BF90AF909F90BE
:1019F0008F907F906F905F904F900895CF92DF927D
:101A0000EF92FF92CF93DF9397FF19C06B017C0198
:101A10008DE20E948C07EC0166277727CB016C19B9
:101A20007D098E099F094AE00E94E20B8C0F9D1FE1
:101A3000DF91CF91FF90EF90DF90CF9008954AE033
:101A4000DF91CF91FF90EF90DF90CF900C94E20B5D
:101A50002F923F924F925F926F927F928F929F92BE
:101A6000AF92BF92CF92DF92EF92FF920F931F93AC
:101A7000CF93DF93CDB7DEB72B970FB6F894DEBFC9
:101A80000FBECDBFA82E6B83B42E3D832C8368017F
:101A9000FB86EA860E9485082B013C01EA84FB84D0
:101AA000EF2821F42DEF32E03B872A878B2C912CF5
:101AB000880C991C3B2D330F39838A82F12C10E05E
:101AC000EE24E394C601B0E0A0E08E839F83A88754
:101AD000B987F81419040CF068C0E092F001A092E4
:101AE00012021092F10110921302AA85BB85ED91AA
:101AF000FC9111970190F081E02D6B81CD0109954A
:101B000081E00E94C70969818A2D0E94F80810921D
:101B100096018093950101E0AA85BB85ED91FC912A
:101B200011970084F185E02DCD010995892B89F16C
:101B30001B1578F5C114D104E9F4212E312C220CA7
:101B4000331CEC81FD812E0E3F1EAA85BB85ED91D5
:101B5000FC910284F385E02D01111EC08A859B85CE
:101B60000995F10120813181822B932B9183808310
:101B70001F5F19C00E9485086419750986099709B5
:101B80002E813F8148855985621773078407950721
:101B9000A0F23A81F30E9DCF8A859B850995D101EC
:101BA0001C9211968C930E25B7CFC114D10481F0ED
:101BB0000E9485086419750986099709F12CE12CA2
:101BC0006C157D058E059F0518F01B1508F41FEF99
:101BD000812F2B960FB6F894DEBF0FBECDBFDF91DD
:101BE000CF911F910F91FF90EF90DF90CF90BF901A
:101BF000AF909F908F907F906F905F904F903F90AD
:101C00002F9008952F923F924F925F926F927F9202
:101C10008F929F92AF92BF92CF92DF92EF92FF92FC
:101C20000F931F93CF93DF9300D000D000D0CDB798
:101C3000DEB789836A83D42E3C832B83FE82ED82B8
:101C40000E9485084B015C01ED80FE80EF2821F4A5
:101C50008DEF92E09E838D83F12CE12CC12C2D2CF5
:101C6000312C2801712C612CE214F3040CF05DC0BE
:101C700091E09093F001A981A09312021092F101DA
:101C800010921302AD81BE81ED91FC9111970190EC
:101C9000F081E02D6A81CD01099581E00E94C7099C
:101CA000B1016E197F096132710514F060E270E0D4
:101CB000613208F060E289810E94F8081092960172
:101CC00080939501AD81BE81ED91FC9111970084C7
:101CD000F185E02DCD010995892BF9F0011511054C
:101CE00089F4AD81BE81ED91FC9111970284F38559
:101CF000E02DCD010995EB81FC81EC0DF11D808378
:101D0000C394E0CF0E948508681979098A099B0964
:101D1000641575058605970520F38D2DB0E2BD1578
:101D200008F480E2E80EF11C9FCF0115110589F03F
:101D30000E948508681979098A099B0930E020E02A
:101D4000601771078207930720F0CD1410F4CC249C
:101D5000CA948C2D26960FB6F894DEBF0FBECDBF69
:101D6000DF91CF911F910F91FF90EF90DF90CF9077
:101D7000BF90AF909F908F907F906F905F904F90AB
:101D80003F902F900895EF92FF920F931F93CF9360
:101D9000DF93C5E2D3E0E980FA8008EE13E028E2A1
:101DA00033E041E06AE388810E94020E8B81DF917B
:101DB000CF911F910F91FF90EF900895EF92FF92B6
:101DC0000F931F93CF93DF93C5E2D3E0E980FA80AE
:101DD00008EE13E028E233E042E062E788810E94E7
:101DE000020E8B819C81982789279827DF91CF91BC
:101DF0001F910F91FF90EF900895EF92FF920F9334
:101E00001F93CF93DF931F92CDB7DEB7E0902603E9
:101E1000F090270308EE13E09E012F5F3F4F41E053
:101E200065E7809125030E94020E882339F089819D
:101E30008E7790E09595879580932803809128036D
:101E40000F90DF91CF911F910F91FF90EF90089528
:101E50007F928F929F92AF92BF92CF92DF92EF923A
:101E6000FF920F931F93CF93DF9300D0CDB7DEB7D0
:101E7000A82E962E742E822EB02E08EE13E09E0110
:101E80002E5F3F4F41E00E94020E8823C9F1872D4B
:101E90008819990BAC014F5F5F4F81E090E002C061
:101EA000880F991F8A94E2F70197042E01C0880FCA
:101EB0000A94EAF72B2D01C0220F4A95EAF7B82EB3
:101EC000B0949A81B92282238B298A8389838701DE
:101ED0009E012F5F3F4F41E0692D8A2D0E94790BB3
:101EE0000F900F90DF91CF911F910F91FF90EF9086
:101EF000DF90CF90BF90AF909F908F907F9008958C
:101F000080E0EECF8F929F92AF92BF92CF92DF92FE
:101F1000EF92FF920F931F93CF93DF9300D0CDB733
:101F2000DEB7B82EA62E842E922E6801780108EE18
:101F300013E09E012E5F3F4F41E00E94020E21E020
:101F400030E001C0220F8A94EAF78A819920D9F003
:101F5000822B8A83898386019E012F5F3F4F41E058
:101F60006A2D8B2D0E94790B0F900F90DF91CF91EE
:101F70001F910F91FF90EF90DF90CF90BF90AF90A7
:101F80009F908F90089520958223E3CF2F923F92C8
:101F90004F925F926F927F928F929F92AF92BF9279
:101FA000CF92DF92EF92FF920F931F93CF93DF9325
:101FB000CDB7DEB7E7970FB6F894DEBF0FBECDBF43
:101FC0008F8F48A759A76AA77BA70CA71DA72EA785
:101FD0003FA78B3309F049C20E94FD0E883308F4F5
:101FE000B6C297E79F8BA3E0AA8FE0902603F090FC
:101FF000270308EE13E09E012F5F3F4F41E06CE1A5
:10200000809125030E94020E882351F089818871F6
:1020100090E023E0959587952A95E1F78093280332
:102020008091280320E030E4690102C0D594C79470
:102030008A95E2F76EE380E692E00E943F07CE01C8
:102040000D969E8B8D8BDE011196B98FA88F5C014A
:102050009F88E0902603F090270308EE13E09E018E
:102060002D5E3F4F41E0692D809125030E94280D90
:10207000EB88FC88B7010F2C000C880B990B0E9491
:10208000461DFF89F33109F4F8C121E0E222FF2463
:10209000D501ED92FC9220E030E040E051E40E9456
:1020A0002A1EE88DF98D6083718382839383BA8DB4
:1020B0009B0EE2E0AE0EB11C288D398D2C5F3F4F98
:1020C000398F288F8D899E892817390711F69F8DA2
:1020D0009B3309F0E0C18DEC9CECACE4BDE388AB34
:1020E00099ABAAABBBABA6E0B0E0BFA3AEA3C60161
:1020F000B0E0A0E08CAB9DABAEABBFAB19A218A219
:10210000312C212CDE011196BE8FAD8FFE013D9644
:10211000FBA3EAA3FF89FCA32F8D2DA3812C912C77
:1021200054011C8E1B8EE0902603F090270308EECE
:1021300013E09E012D5E3F4F41E06DA1809125038C
:102140000E94280D6B897C89072E000C880B990B47
:102150000E94461D6B017C013F8D3B3391F48B8DBA
:102160009C8D029771F46CA97DA98EA99FA90E94EC
:10217000441D9B01AC01C701B6010E94B81B6B0155
:102180007C012601370177FA709477F87094C501C5
:10219000B4010E94441D4B015C0120E030E0A90124
:1021A000C701B6010E941D1E181614F073016201CA
:1021B000A7019601C501B4010E94B91B0E94151D1B
:1021C0004B015C012FE632E143E85AE3C301B2015F
:1021D0000E942A1E2CA53DA54EA55FA50E942A1E81
:1021E000AD8DBE8D2D913D914D915C910E94B91B9D
:1021F0006B017C01ED8DFE8DC082D182E282F38283
:1022000028A539A54AA55BA5C301B2010E942A1ED3
:10221000A70196010E94B91BFF89F33109F445C15A
:1022200020E030E040E05EE30E942A1E6B017C016A
:1022300020E030E0A9010E941D1E20E030E040E0D7
:102240005FE387FD2DC1C701B6010E94B91B0E9443
:102250000E1D6E7FAAA1BBA18D919C91682B792B3D
:102260007C8B6B8B2091260330912703AE014D5E52
:102270005F4F6CA1809125030E94B70AEB8DFC8D06
:102280003196FC8FEB8FFDA1FE5FFDA32CA13A8D53
:10229000230F2CA38AA19BA102969BA38AA3AD8D99
:1022A000BE8D1496BE8FAD8FEB8DFC8D339709F0EC
:1022B0003ACFF3E62F16310471F429EE821623E0AB
:1022C0009206A104B10438F06AE280E692E00E942E
:1022D0003F07312C212CC501B4010E94441D28A9BF
:1022E00039A94AA95BA90E942A1E20E030E040EAF1
:1022F00050E40E94971C87FF05C088A199A1019610
:1023000099A388A394E689169104A104B10408F066
:10231000EBC0ABE02A1631040CF4E6C0E8A1F9A149
:102320003A970CF4E1C06EE280E692E00E943F072B
:1023300020E030E040E45FE368A579A58AA59BA58D
:102340000E942A1E68A779A78AA79BA720E030E0F1
:1023500040E45FE36CA57DA58EA59FA50E942A1E83
:102360006CA77DA78EA79FA79E01235F3F4F6901A2
:10237000FF88CE0101963C01F30161917191819139
:1023800091913F01FF89F33109F4C2C020E030E0B0
:1023900040E05EE30E942A1E4B015C0120E030E039
:1023A000A9010E941D1E20E030E040E05FE387FDB0
:1023B000AAC0C501B4010E94B91B0E940E1D6E7F08
:1023C000D6018D919C91682B792B7C8B6B8B209106
:1023D000260330912703AE014D5E5F4F6F2D809134
:1023E00025030E94B70ABA8DFB0EE2E0CE0ED11C87
:1023F000288D398D2615370509F0BECF8EA19FA1F6
:1024000001979FA38EA3892B09F078CE0091260314
:102410001091270321E042E06AE6809125030E94A3
:10242000820F009126031091270321E043E06AE622
:10243000809125030E94820FE7960FB6F894DEBFC5
:102440000FBECDBFDF91CF911F910F91FF90EF9005
:10245000DF90CF90BF90AF909F908F907F906F90C4
:102460005F904F903F902F90089523E12F8B32E0A3
:102470003A8FC12C80E2D82EDDCD20E030E040E85C
:1024800050E40E942A1EA88DB98D6D937D938D9383
:102490009C9313970CCE80E090E0A0E8BFE31FCEA2
:1024A000C701B6010E94B81BD2CE20E030E040E860
:1024B0005EE30E942A1E6B017C0120E030E0A9014E
:1024C0000E941D1E20E030E040E05FE387FD07C072
:1024D000C701B6010E94B91B0E940E1DC1CEC701E3
:1024E000B6010E94B81BF8CF61E070E080E090E098
:1024F0000E9453089FEF291A390AA4E62A163104CC
:1025000009F000CE10CFC501B4010E94B81B55CF11
:1025100020E030E040E85EE30E942A1E4B015C01AF
:1025200020E030E0A9010E941D1E20E030E040E0E4
:102530005FE387FD07C0C501B4010E94B91B0E947B
:102540000E1D43CFC501B4010E94B81BF8CFB6E001
:10255000BF8BE2E0EA8F49CD85ED8093BC0080918E
:102560005C0290915D02A0915E02B0915F020796BD
:10257000A11DB11D23E0B695A795979587952A953E
:10258000D1F72091BC0024FD03C010925A02089597
:1025900040915C0250915D0260915E0270915F0219
:1025A000452B462B472B69F30097A105B10541F058
:1025B00025E32A95F1F700000197A109B109E1CFC0
:1025C00080915B020C94D7081F920F920FB60F9266
:1025D00011242F933F934F935F936F937F938F9328
:1025E0009F93AF93BF93EF93FF9380E692E00E9497
:1025F0001D07FF91EF91BF91AF919F918F917F91B7
:102600006F915F914F913F912F910F900FBE0F905F
:102610001F9018951F920F920FB60F9211242F93AF
:102620008F939F93EF93FF93E0917002F09171026B
:102630008081E0917602F091770282FD1BC090814B
:10264000809179028F5F8F7320917A02821741F017
:10265000E0917902F0E0E05AFD4F958F8093790286
:10266000FF91EF919F918F912F910F900FBE0F903F
:102670001F9018958081F4CF1F920F920FB60F9282
:1026800011242F933F938F939F93AF93BF93809188
:10269000890190918A01A0918B01B0918C013091B8
:1026A000880123E0230F2D3758F50196A11DB11D98
:1026B000209388018093890190938A01A0938B01D4
:1026C000B0938C0180918D0190918E01A0918F012A
:1026D000B09190010196A11DB11D80938D01909341
:1026E0008E01A0938F01B0939001BF91AF919F9104
:1026F0008F913F912F910F900FBE0F901F901895C3
:1027000026E8230F0296A11DB11DD2CF1F920F9272
:102710000FB60F9211242F933F934F935F936F93B4
:102720007F938F939F93AF93BF93EF93FF93E0912A
:102730000201F09103010995FF91EF91BF91AF91D3
:102740009F918F917F916F915F914F913F912F91C9
:102750000F900FBE0F901F9018951F920F920FB6FB
:102760000F9211242F933F934F935F936F937F9317
:102770008F939F93AF93BF93EF93FF93E0910001EB
:10278000F09101010995FF91EF91BF91AF919F9158
:102790008F917F916F915F914F913F912F910F900A
:1027A0000FBE0F901F9018951F920F920FB60F92A9
:1027B00011242F933F934F935F936F937F938F9346
:1027C0009F93AF93BF93EF93FF938091B900887F5E
:1027D000803609F44AC0F0F5883209F4A7C018F52C
:1027E000803109F49BC0B8F4882309F4F9C088301B
:1027F00009F494C0FF91EF91BF91AF919F918F9198
:102800007F916F915F914F913F912F910F900FBEEC
:102810000F901F901895883109F488C0803251F7C5
:102820008093380214C0803409F49DC040F4803392
:10283000B9F38833F9F68093380285ECB0C080355F
:1028400009F485C0883509F496C0883499F60E9449
:10285000AC12D0CF883909F48CC038F5883729F00C
:1028600050F4883611F0803729F683E080935A02BD
:102870001092870157C0883809F47BC0803919F05D
:10288000803809F0B7CF80918701803208F071C09D
:10289000E091870181E08E0F809387018091BB00DA
:1028A000F0E0E959FE4F80833DC0803B39F0E0F411
:1028B000803A09F479C0883A09F09CCF84E080938B
:1028C0005A021092660110926501E0919301F09115
:1028D000940109958091650181110FC081E0809379
:1028E00065011092450109C0803C09F4A6CF883CDF
:1028F00009F4A3CF883B09F07DCFE091660181E028
:102900008E0F80936601F0E0EB5BFE4F8081809339
:10291000BB00909166018091650129C080913502CC
:102920008093BB0085EC8093BC0064CF909137020C
:1029300080913602981758F5E091370281E08E0FAA
:1029400080933702F0E0EC5EFD4F8081E9CFE091AB
:10295000370281E08E0F809337028091BB00F0E058
:10296000EC5EFD4F8083909137028091360298177C
:10297000C8F285E8D8CFE091370281E08E0F8093CE
:1029800037028091BB00F0E0EC5EFD4F80838091C8
:10299000390281115CCF81E08093340284EA809314
:1029A000BC0010925A0226CF85EC8093BC00109296
:1029B0005A0280918701803230F4E0918701F0E083
:1029C000E959FE4F10826091870170E0E09191011A
:1029D000F091920187E691E00995109287010ACF64
:1029E0001092380234CFE0E6F2E01382128288EED1
:1029F00093E0A0E0B0E084839583A683B7832EE0C4
:102A000031E03183208325EC30E03587248724ECC6
:102A100030E03787268720EC30E0318B208B21ECAB
:102A200030E0338B228B22EC30E0358B248B26EC8C
:102A300030E0378B268B118E128E138E148EEDEFB5
:102A4000F2E01382128284839583A683B78380E2A7
:102A500091E091838083E5E2F3E088E6808312824F
:102A6000118288EF9AE2A0E0B0E0818B928BA38B79
:102A7000B48BE5E1F3E080E090E0A0E8BFE3808381
:102A80009183A283B38314821582168217821086E3
:102A90001186128613861486158616861786E9E037
:102AA000F3E0108211821282138214821582168240
:102AB000178210861186128613860895CF93DF93AE
:102AC000CDB7DEB76E970FB6F894DEBF0FBECDBFA1
:102AD000789484B5826084BD84B5816084BD85B5F9
:102AE000826085BD85B5816085BD80916E00816005
:102AF00080936E00109281008091810082608093AB
:102B000081008091810081608093810080918000AC
:102B10008160809380008091B10084608093B100D7
:102B20008091B00081608093B00080917A008460D1
:102B300080937A0080917A00826080937A008091FD
:102B40007A00816080937A0080917A008068809317
:102B50007A001092C1001092960110929501109285
:102B6000F101109213020E94B9088DE996E090934A
:102B70009401809393018EE996E090939201809363
:102B80009101E0917002F091710282E08083E09106
:102B90006C02F0916D021082E0916E02F0916F0272
:102BA00080E1808310927802E0917402F0917502C6
:102BB00086E08083E0917202F091730280818061EF
:102BC0008083E0917202F09173028081886080833B
:102BD000E0917202F0917302808180688083E091BD
:102BE0007202F091730280818F7D8083E0902603D2
:102BF000F090270301E023E042E06BE6809125039B
:102C00000E94280FE0902603F090270300E022E0C6
:102C100044E06BE1809125030E94280FE090260399
:102C2000F090270322E044E06CE1809125030E94AC
:102C3000280F009126031091270320E046E06BE661
:102C4000809125030E94820F60E082E00E94FD07D0
:102C50000091260310912703DD24D394DE8221E026
:102C600047E06BE6809125030E94820F64E670E0E6
:102C700080E090E00E945308E0902603F090270344
:102C800087E08E8307E023E042E06AE68091250337
:102C90000E94280F64E670E080E090E00E945308F4
:102CA0000091260310912703DE829E012A5F3F4F89
:102CB00041E06BE6809125030E94790B0091260389
:102CC000109127031E829E012A5F3F4F41E068E377
:102CD000809125030E94790B009126031091270310
:102CE0001E829E012A5F3F4F41E063E280912503EF
:102CF0000E94790B00912603109127031E829E01EA
:102D00002A5F3F4F41E06CE1809125030E94790BDF
:102D1000009126031091270380E88E839E012A5F8D
:102D20003F4F41E067E3809125030E94790B0091BA
:102D3000260310912703DE829E012A5F3F4F41E068
:102D40006BE6809125030E94790B00912603109178
:102D5000270384E08E839E012A5F3F4F41E069E1B3
:102D6000809125030E94790B00912603109127037F
:102D7000DE829E012A5F3F4F41E06AE18091250398
:102D80000E94790B0091260310912703809125035F
:102D90001D829E012B5F3F4F41E06DE60E94790B43
:102DA00080E00E94BA0B80E190E00E94011F5C016C
:102DB00080E190E00E94011F1C011F82412CD12C58
:102DC000C12C612C77247394C601409626EF522EB5
:102DD0005C18873F9B4010F490E1592EC301841981
:102DE00091095816190619F014F0542C5194D10178
:102DF00090E080E096012A513F4F851538F4F901A3
:102E0000E80FF91FE491ED930196F7CF00912603A7
:102E1000109127039101452D6FE6809125030E94B3
:102E2000790B852C912CA114B10409F461C0009197
:102E3000260310912703809125039F819F719C8316
:102E40009E012C5F3F4F41E06DE60E94790B842D7F
:102E50000E94BA0BE0902603F090270308EE13E0DF
:102E60009501452D6FE6809125030E94020EA40175
:102E7000B501C1010E942620892BD1F1C5010E9414
:102E80009D1FC1010E949D1F61E08DE00E94FD0712
:102E900061E08DE00E94FD0760E08EE00E94FD078A
:102EA00060E08BE00E94B10780E0282E80E0382EA1
:102EB0008091E901882309F473C02091E6013091E3
:102EC000E7014091E4015091E5018091E801811111
:102ED00054C02417350708F050C08091E8018823BA
:102EE000A1F30E94DE0E9093E7018093E601E5CF07
:102EF000C80CD91C450C36EFC3163BE0D30608F0CE
:102F0000F2C2411003C08F818F5F8F83009126032F
:102F100010912703809125039F819F719B839E01C0
:102F20002D5F3F4F41E06DE60E94790B842D0E949A
:102F3000BA0B4ACFE0902603F090270308EE13E087
:102F40002AE333E041E067E7809125030E94280DE2
:102F5000E0902603F09027032CE333E041E06AE79A
:102F6000809125030E94280DE0902603F09027030E
:102F70002EE333E041E06DE73AC31092E8010E948E
:102F8000C30E8093E3010E94DE0E9093E7018093CD
:102F9000E6012091E4013091E5018217930798F44E
:102FA00080E692E00E94FD06892B09F490C280E63B
:102FB00092E00E94FD06892B09F451C280E692E05E
:102FC0000E94DB06F4CF2091E30124FD03C08115AC
:102FD000944060F0009126031091270321E042E025
:102FE0006AE6809125030E94820FDACF21FFD8CFB5
:102FF0004091E4015091E5018091E6019091E70153
:103000008417950708F14423E1F0E0902603F0903F
:10301000270308EE13E023EA31E064E780912503FB
:103020000E94020E8091E6019091E7012091E40157
:103030003091E501821B930B9093E7018093E601A9
:10304000D7CF1092A301EECF6090A7017090A80196
:10305000762467247624C090AB01D090AC01DC24A8
:10306000CD24DC24E090AF01F090B001FE24EF24E9
:10307000FE246091A3017091A4017627672776272B
:10308000072E000C880B990B0E94461D20E030E0B3
:1030900040E858E30E942A1E4B015C018092150310
:1030A00090921603A0921703B0921803B301770C05
:1030B000880B990B0E94461D20E030E040E858E361
:1030C0000E942A1E2B013C014092190350921A03C0
:1030D00060921B0370921C03B601DD0C880B990BE8
:1030E0000E94461D20E030E040E858E30E942A1E7E
:1030F0006F83788789879A8760931D0370931E0377
:1031000080931F0390932003B701FF0C880B990B4A
:103110000E94461D20E030E040E858E30E942A1E4D
:103120006B877C878D879E87609321037093220332
:1031300080932303909324039B01AC01C301B2014C
:103140000E942A1E6B017C012F81388549855A8592
:10315000C501B4010E942A1E9B01AC01C701B60142
:103160000E94B81B9B01AC010E94B91B6F8B788F2A
:10317000898F9A8F6093090370930A0380930B03DE
:1031800090930C03A3019201C501B4010E942A1E71
:103190006B017C012B853C854D855E856F81788533
:1031A00089859A850E942A1E9B01AC01C701B60140
:1031B0000E94B91B9B01AC010E94B91B6B8B7C8BDD
:1031C0008D8B9E8B60930D0370930E0380930F0382
:1031D00090931003A5019401C501B4010E942A1E19
:1031E0006B017C01A3019201C301B2010E942A1E5E
:1031F0009B01AC01C701B6010E94B81B6B017C01A9
:103200002F81388549855A85CA01B9010E942A1E35
:103210009B01AC01C701B6010E94B81B6B017C0188
:103220002B853C854D855E85CA01B9010E942A1E09
:103230009B01AC01C701B6010E94B91B6F87788B57
:10324000898B9A8B609311037093120380931303FD
:1032500090931403A5019401C501B4010E94B91B08
:103260006B017C01A3019201C301B2010E94B91B51
:103270006B8F7C8F8D8F9E8FA5019401C701B60146
:103280000E942A1E4B015C01A30192016B8D7C8D73
:103290008D8D9E8D0E942A1E9B01AC01C501B4013B
:1032A0000E94B91B20E030E040E85FE30E94B81BB9
:1032B0004B015C012F81388549855A856B8D7C8D4A
:1032C0008D8D9E8D0E942A1E2B013C012B853C85F5
:1032D0004D855E85C701B6010E942A1E9B01AC0187
:1032E000C301B2010E94B81BA50194010E94381CC1
:1032F0006B017C01C0929701D0929801E0929901F4
:10330000F0929A012B893C894D895E89CA01B901E5
:103310000E942A1E4B015C012F85388949895A89F0
:10332000CA01B9010E942A1E9B01AC01C501B4016A
:103330000E94B91B0E949D1E9B01AC016F89788D74
:10334000898D9A8D0E94381C4B015C0180929B01F3
:1033500090929C01A0929D01B0929E012F85388988
:1033600049895A896B897C898D899E890E94381C7C
:103370002B013C0140929F015092A0016092A1015B
:103380007092A20120E030E0A9016F8578898989D7
:103390009A890E94971C87FF1AC020E030E0A9019B
:1033A000C501B4010E941D1EA501940118160CF060
:1033B00051C06BED7FE089E490E40E94B81B6093FC
:1033C0009B0170939C0180939D0190939E0120E04E
:1033D00030E045E353E4C701B6010E942A1E2BEDFD
:1033E0003FE049E450E40E949C1C0E940E1D709333
:1033F000EF016093EE0120E030E045E353E460919B
:103400009B0170919C0180919D0190919E010E9471
:103410002A1E2BED3FE049E450E40E949C1C0E94D0
:103420000E1D7093ED016093EC0120E030E045E368
:1034300053E4C301B2010E942A1E2BED3FE049E490
:1034400050E40E949C1C0E940E1D7093EB0160933F
:10345000EA01A6CD6BED7FE089E490ECAECF8091E0
:10346000EE019091EF0197FF06C088599E4F90930F
:10347000EF018093EE016091EE017091EF01072E54
:10348000000C880B990B0E94FE0C8CE70E948C07A5
:103490006091EC017091ED01072E000C880B990BE7
:1034A0000E94FE0C8CE70E948C076091EA017091EB
:1034B000EB01072E000C880B990B0E94FE0C80E498
:1034C00091E00E94D50B80E692E00E9491072114C2
:1034D000310409F4EDCC0E940907882309F4E8CCF3
:1034E0000E940000E5CCC5010E949D1FC1010E9401
:1034F0009D1F209126033091270380E094E09A835A
:103500008983AE014F5F5F4F60E7809125030E9482
:10351000B70A009126031091270388E18E839E014C
:103520002A5F3F4F41E06BE1809125030E94790BB8
:10353000009126031091270380EC8E839E012A5F61
:103540003F4F41E06AE6809125030E94790B00918C
:1035500026031091270382E08E839E012A5F3F4F4E
:1035600041E068E3809125030E94790B00912603D6
:103570001091270321E042E06AE6809125030E9432
:10358000820F009126031091270320E047E06AE6AE
:10359000809125030E94820F8CE190E09093490373
:1035A0008093480300E010E028EA31E44EEA57E453
:1035B00061EA7EE38BE30E94C60F0FEF1FEF2CEB57
:1035C00032E44EEA57E461EA7EE383E40E94C60FE8
:1035D0000E94FD0E883308F0ADCCE0902603F090F9
:1035E000270308EE13E02AE333E043E066E080912E
:1035F00025030E94280DE0902603F090270308EE93
:1036000013E020E433E043E063E1809125030E946E
:10361000280D60913A0370913B03072E000C880B34
:10362000990B0E94461D45E00E94260C8AE391E01A
:103630000E94D50B60913C0370913D03072E000C56
:10364000880B990B0E94461D45E00E94260C8AE3D8
:1036500091E00E94D50B60913E0370913F03072ECD
:10366000000C880B990B0E94461D45E00E94260C19
:103670008AE391E00E94D50B609140037091410371
:10368000072E000C880B990B0E94461D45E00E94F6
:10369000260C8AE391E00E94D50B60914203709161
:1036A0004303072E000C880B990B0E94461D45E032
:1036B0000E94260C8AE391E00E94D50B609144039E
:1036C00070914503072E000C880B990B0E94461D34
:1036D00045E00E94260C8DE391E00E94D50B0091FD
:1036E00026031091270321E047E06AE68091250335
:1036F0000E94820F89E996E0909301018093000176
:1037000080916900836080936900E89A0E94C30EEB
:103710008093E30181E08093E901809148039091D7
:1037200049039093E5018093E401AECBA1E21A2E08
:10373000AA1BBB1BFD010DC0AA1FBB1FEE1FFF1F55
:10374000A217B307E407F50720F0A21BB30BE40BA5
:10375000F50B661F771F881F991F1A9469F76095EC
:103760007095809590959B01AC01BD01CF010895A6
:103770005058BB27AA270E94D01B0C94E31D0E941F
:10378000D51D38F00E94DC1D20F039F49F3F19F45C
:1037900026F40C94AB1D0EF4E095E7FB0C94A51DEC
:1037A000E92F0E94F41D58F3BA17620773078407C4
:1037B000950720F079F4A6F50C94161E0EF4E0950A
:1037C0000B2EBA2FA02D0B01B90190010C01CA01DB
:1037D000A0011124FF27591B99F0593F50F4503E86
:1037E00068F11A16F040A22F232F342F4427585F78
:1037F000F3CF469537952795A795F0405395C9F790
:103800007EF41F16BA0B620B730B840BBAF0915047
:10381000A1F0FF0FBB1F661F771F881FC2F70EC0E6
:10382000BA0F621F731F841F48F4879577956795B9
:10383000B795F7959E3F08F0B0CF9395880F08F0A5
:103840009927EE0F9795879508950E94D51D60F0F2
:1038500080E891E009F49EEF0E94DC1D28F040E82A
:1038600051E071F45EEF0CC00C94AB1D0C94161E6D
:10387000E92FE0780E94F41D40F3092E052AB1F3E8
:10388000261737074807590738F00E2E07F8E025A6
:1038900069F0E025E0640AC0EF6307F8009407FAD6
:1038A000DB01B9019D01DC01CA01AD01EF930E946A
:1038B000B31C0E94E31D0E94681C5F91552339F0E0
:1038C0002BED3FE049E450FD49EC0C94B91B089501
:1038D000DF93DD27B92FBF7740E85FE316161706A1
:1038E00048075B0718F4D92F0E94221E9F938F93DD
:1038F0007F936F930E94DD1EE8E6F0E00E94AE1D0C
:103900000E94E31D2F913F914F915F910E943D1EB8
:10391000DD2351F09058A2EA2AED3FE049EC5FE345
:10392000D0785D270E94D01BDF910C94E31D0E948C
:10393000811D08F481E008950E94B01C0C94E31DE1
:103940000E94DC1D58F00E94D51D40F029F45F3F15
:1039500029F00C94A51D51110C94171E0C94AB1D4D
:103960000E94F41D68F39923B1F3552391F3951B3D
:10397000550BBB27AA2762177307840738F09F5F90
:103980005F4F220F331F441FAA1FA9F335D00E2EFD
:103990003AF0E0E832D091505040E695001CCAF76A
:1039A0002BD0FE2F29D0660F771F881FBB1F26172D
:1039B00037074807AB07B0E809F0BB0B802DBF0104
:1039C000FF2793585F4F3AF09E3F510578F00C94D3
:1039D000A51D0C94171E5F3FE4F3983ED4F3869523
:1039E00077956795B795F7959F5FC9F7880F911DF4
:1039F0009695879597F90895E1E0660F771F881FE0
:103A0000BB1F621773078407BA0720F0621B730B92
:103A1000840BBA0BEE1F88F7E09508950E94151DE0
:103A20006894B1110C94171E08950E94FC1D88F033
:103A30009F5798F0B92F9927B751B0F0E1F0660F72
:103A4000771F881F991F1AF0BA95C9F714C0B130B3
:103A500091F00E94161EB1E008950C94161E672F77
:103A6000782F8827B85F39F0B93FCCF386957795E2
:103A70006795B395D9F73EF49095809570956195CB
:103A80007F4F8F4F9F4F0895E89409C097FB3EF4F6
:103A900090958095709561957F4F8F4F9F4F99239B
:103AA000A9F0F92F96E9BB279395F6958795779519
:103AB0006795B795F111F8CFFAF4BB0F11F460FFD9
:103AC0001BC06F5F7F4F8F4F9F4F16C0882311F031
:103AD00096E911C0772321F09EE8872F762F05C045
:103AE000662371F096E8862F70E060E02AF09A95E0
:103AF000660F771F881FDAF7880F9695879597F9D5
:103B00000895990F0008550FAA0BE0E8FEEF16166E
:103B10001706E807F907C0F012161306E407F507C1
:103B200098F0621B730B840B950B39F40A2661F035
:103B3000232B242B252B21F408950A2609F4A140D8
:103B4000A6958FEF811D811D089597F99F6780E8E5
:103B500070E060E008959FEF80EC0895DF93CF93CD
:103B60001F930F93FF92EF92DF927B018C01689479
:103B700006C0DA2EEF010E943D1EFE01E894A591D9
:103B80002591359145915591A6F3EF010E94D01BE7
:103B9000FE019701A801DA9469F7DF90EF90FF909A
:103BA0000F911F91CF91DF91089500240A9416166A
:103BB000170618060906089500240A94121613061B
:103BC000140605060895092E0394000C11F48823A9
:103BD00052F0BB0F40F4BF2B11F460FF04C06F5FC5
:103BE0007F4F8F4F9F4F089557FD9058440F551F9B
:103BF00059F05F3F71F04795880F97FB991F61F06F
:103C00009F3F79F087950895121613061406551FE5
:103C1000F2CF4695F1DF08C0161617061806991F51
:103C2000F1CF86957105610508940895E894BB2746
:103C300066277727CB0197F908950E94811D08F424
:103C40008FEF08959B01AC0160E070E080E89FE396
:103C50000C949C1C0E943D1E0C94E31D0E94D51DDB
:103C600038F00E94DC1D20F0952311F00C94A51D66
:103C70000C94AB1D11240C94171E0E94F41D70F3BC
:103C8000959FC1F3950F50E0551F629FF001729F01
:103C9000BB27F00DB11D639FAA27F00DB11DAA1F10
:103CA000649F6627B00DA11D661F829F2227B00D5D
:103CB000A11D621F739FB00DA11D621F839FA00DE8
:103CC000611D221F749F3327A00D611D231F849F38
:103CD000600D211D822F762F6A2F11249F5750408F
:103CE0009AF0F1F088234AF0EE0FFF1FBB1F661F0A
:103CF000771F881F91505040A9F79E3F510580F0D3
:103D00000C94A51D0C94171E5F3FE4F3983ED4F36A
:103D1000869577956795B795F795E7959F5FC1F776
:103D2000FE2B880F911D9695879597F9089519F4A4
:103D300016F40C94AB1D0C94E61E0E94FC1DB8F307
:103D40009923C9F3B6F39F57550B87FF0E94F41EC2
:103D50000024A0E640EA900180585695979528F4F3
:103D6000805C660F771F881F20F0261737074807EB
:103D700030F4621B730B840B202931294A2BA69542
:103D800017940794202531254A2758F7660F771F87
:103D9000881F20F026173707480730F4620B730B93
:103DA000840B200D311D411DA09581F7B901842F91
:103DB0009158880F9695879508959B01AC010C94B6
:103DC0002A1E0E94811D880B990B08959F3F31F098
:103DD000915020F4879577956795B795880F911D39
:103DE0009695879597F9089591505040660F771FE3
:103DF000881FD2F70895EE0FFF1F0590F491E02D74
:103E000009940F931F93CF93DF938230910510F4A1
:103E100082E090E0E0914C03F0914D0330E020E02F
:103E2000B0E0A0E0309799F42115310509F44AC0BB
:103E3000281B390B24303105D8F58A819B81611507
:103E4000710589F1FB0193838283FE0111C04081DA
:103E500051810281138148175907E0F0481759072B
:103E600099F4109761F012960C93129713961C9385
:103E70003296CF01DF91CF911F910F91089500935A
:103E80004C0310934D03F4CF2115310551F0421727
:103E9000530738F0A901DB019A01BD01DF01F801E8
:103EA000C1CFEF01F9CF90934D0380934C03CDCF59
:103EB000FE01E20FF31F8193919322503109398360
:103EC0002883D7CF20914A0330914B03232B41F411
:103ED000209106013091070130934B0320934A0350
:103EE00020910401309105012115310541F42DB7D0
:103EF0003EB74091080150910901241B350BE09118
:103F00004A03F0914B03E217F307A0F42E1B3F0B7B
:103F10002817390778F0AC014E5F5F4F241735073B
:103F200048F04E0F5F1F50934B0340934A03819319
:103F300091939FCFF0E0E0E09CCFCF93DF93009789
:103F4000E9F0FC01329713821282A0914C03B091E8
:103F50004D03ED0130E020E01097A1F42081318184
:103F6000820F931F20914A0330914B032817390782
:103F700009F061C0F0934B03E0934A03DF91CF91C6
:103F80000895EA01CE17DF07E8F54A815B819E01BB
:103F900041155105B1F7E901FB83EA834991599134
:103FA000C40FD51FEC17FD0761F480819181029643
:103FB000840F951FE90199838883828193819B8374
:103FC0008A83F0E0E0E012968D919C911397009720
:103FD000B9F52D913C911197CD010296820F931F57
:103FE00020914A0330914B032817390739F630974F
:103FF00051F510924D0310924C03B0934B03A093D4
:104000004A03BCCFD383C28340815181840F951F63
:10401000C817D90761F44E5F5F4F88819981480FB7
:10402000591F518340838A819B8193838283211509
:10403000310509F0B0CFF0934D03E0934C039ECFD0
:10404000FD01DC01C0CF13821282D7CFFB01DC015E
:1040500004C08D910190801921F441505040C8F75F
:10406000881B990B0895F894FFCF910891080000E0
:104070004E038000000000003F079F06CC0691071A
:10408000FD06DB06EF0600000000470B1A0B760B5F
:10409000F00A130B000BF10A6E616E00696E660088
:0E40A0006F7666002C09000A0A000D0A000067
:107800000C94343C0C94513C0C94513C0C94513CE1
:107810000C94513C0C94513C0C94513C0C94513CB4
:107820000C94513C0C94513C0C94513C0C94513CA4
:107830000C94513C0C94513C0C94513C0C94513C94
:107840000C94513C0C94513C0C94513C0C94513C84
:107850000C94513C0C94513C0C94513C0C94513C74
:107860000C94513C0C94513C11241FBECFEFD8E036
:10787000DEBFCDBF11E0A0E0B1E0ECE9FFE702C060
:1078800005900D92A230B107D9F712E0A2E0B1E065
:1078900001C01D92AD30B107E1F70E942D3D0C945F
:1078A000CC3F0C94003C982F959595959595959582
:1078B000905D8F708A307CF0282F295A8091C0000B
:1078C00085FFFCCF9093C6008091C00085FFFCCF60
:1078D0002093C6000895282F205DF0CF982F809127
:1078E000C00085FFFCCF9093C6000895EF92FF92F1
:1078F0000F931F93EE24FF2487018091C00087FD22
:1079000017C00894E11CF11C011D111D81E4E8164B
:1079100082E4F8068FE0080780E0180770F3E09132
:107920000401F091050109958091C00087FFE9CF1E
:107930008091C6001F910F91FF90EF9008950E94D3
:10794000763C982F8091C00085FFFCCF9093C600B5
:1079500091362CF490330CF09053892F089597555D
:10796000892F08951F930E949F3C182F0E949F3CCF
:107970001295107F810F1F9108951F93182F882350
:1079800021F00E94763C1150E1F71F9108951F935A
:10799000182F0E94763C803249F0809103018F5F5E
:1079A000809303018530C1F01F9108958091C0003C
:1079B00085FFFCCF84E18093C6008091C00085FFE5
:1079C000FCCF1093C6008091C00085FFFCCF80E102
:1079D0008093C6001F910895E0910401F091050184
:1079E00009951F9108950E94763C803241F0809164
:1079F00003018F5F80930301853081F008958091AA
:107A0000C00085FFFCCF84E18093C6008091C00058
:107A100085FFFCCF80E18093C6000895E0910401CA
:107A2000F09105010995089540E951E08823A1F0FE
:107A30002D9A28EE33E0FA013197F1F721503040CA
:107A4000D1F72D9828EE33E0FA013197F1F7215064
:107A50003040D1F7815061F708953F924F925F9285
:107A60006F927F928F929F92AF92BF92CF92DF924E
:107A7000EF92FF920F931F93CF93DF93000080E16B
:107A80008093C4001092C50088E18093C10086E015
:107A90008093C2005098589A259A81E00E94143D24
:107AA00024E1F22E9EE1E92E85E9D82E0FE0C02ECA
:107AB00010E1B12EAA24A394B1E49B2EA6E58A2E50
:107AC000F2E57F2EE0E26E2E79E4572E63E5462E36
:107AD00050E5352E0E94763C8033B1F18133B9F107
:107AE000803409F46FC0813409F476C0823409F41B
:107AF00085C0853409F488C0803531F1823521F1A3
:107B0000813511F1853509F485C0863509F48DC0BC
:107B1000843609F496C0843709F403C1853709F423
:107B200072C1863709F466C0809103018F5F80932C
:107B30000301853079F6E0910401F0910501099582
:107B40000E94763C803351F60E94F33CC3CF0E94E2
:107B5000763C803249F78091C00085FFFCCFF092DF
:107B6000C6008091C00085FFFCCF9092C600809136
:107B7000C00085FFFCCF8092C6008091C00085FFC9
:107B8000FCCF7092C6008091C00085FFFCCF609250
:107B9000C6008091C00085FFFCCF5092C600809146
:107BA000C00085FFFCCF4092C6008091C00085FFD9
:107BB000FCCF3092C6008091C00085FFFCCFB09210
:107BC000C60088CF0E94763C863808F4BDCF0E945C
:107BD000763C0E94F33C7ECF0E94763C803809F4CC
:107BE0009CC0813809F40BC1823809F43CC1883942
:107BF00009F48FC080E00E94C73C6CCF84E10E94F2
:107C0000BD3C0E94F33C66CF85E00E94BD3C0E94D3
:107C1000F33C60CF0E94763C809306010E94763C44
:107C2000809307010E94F33C55CF0E94763C80333D
:107C300009F41DC183E00E94BD3C80E00E94C73C66
:107C400049CF0E94763C809309020E94763C809343
:107C5000080280910C028E7F80930C020E94763C79
:107C6000853409F415C18091080290910902892B8D
:107C700089F000E010E00E94763CF801E85FFE4FDA
:107C800080830F5F1F4F80910802909109020817AF
:107C9000190788F30E94763C803209F045CF809125
:107CA0000C0280FF01C16091060170910701660F0F
:107CB000771F7093070160930601A0910802B091AD
:107CC00009021097C9F0E8E0F1E09B01AD014E0F09
:107CD0005F1FF999FECF32BD21BD819180BDFA9A17
:107CE000F99A2F5F3F4FE417F50799F76A0F7B1F4B
:107CF00070930701609306018091C00085FFFCCF5F
:107D0000F092C6008091C00085FFFCCFB092C60003
:107D1000E1CE83E00E94C73CDDCE82E00E94C73CFA
:107D2000D9CE0E94763C809309020E94763C8093D3
:107D300008028091060190910701880F991F909386
:107D40000701809306010E94763C853409F4A6C0A1
:107D500080910C028E7F80930C020E94763C8032D0
:107D600009F0B8CE8091C00085FFFCCFF092C6002C
:107D7000609108027091090261157105B9F140E046
:107D800050E080910C02A82FA170B82FB27011C0E2
:107D9000BB2309F45CC0E0910601F0910701319624
:107DA000F0930701E09306014F5F5F4F46175707B7
:107DB000E8F4AA2369F3F999FECF209106013091E6
:107DC000070132BD21BDF89A90B58091C00085FFB2
:107DD000FCCF9093C6002F5F3F4F30930701209355
:107DE00006014F5F5F4F4617570718F38091C00099
:107DF00085FDE5CE8091C00085FFF8CFE0CE81E023
:107E00000E94C73C67CE0E94763C803209F08CCE3F
:107E10008091C00085FFFCCFF092C6008091C00029
:107E200085FFFCCFE092C6008091C00085FFFCCFAB
:107E3000D092C6008091C00085FFFCCFC092C600E2
:107E40008091C00085FFFCCFB092C60043CEE09188
:107E50000601F091070194918091C00085FFFCCF4D
:107E60009093C6009CCF80E10E94C73C33CE0E9415
:107E7000763C0E94763C182F0E94763C112309F430
:107E800083C0113009F484C08FE00E94C73C22CE29
:107E900080910C02816080930C02E5CE80910C02EF
:107EA000816080930C0259CF809107018823880F4D
:107EB000880B8A2180930B02809106019091070123
:107EC000880F991F90930701809306018091080203
:107ED00080FF09C080910802909109020196909359
:107EE000090280930802F894F999FECF1127E091D6
:107EF0000601F0910701C8E0D1E08091080290915D
:107F00000902103091F40091570001700130D9F34B
:107F100003E000935700E89500915700017001308D
:107F2000D9F301E100935700E89509901990009169
:107F3000570001700130D9F301E000935700E89534
:107F40001395103498F011270091570001700130FB
:107F5000D9F305E000935700E895009157000170B0
:107F60000130D9F301E100935700E895329602976A
:107F700009F0C7CF103011F00296E5CF112480919F
:107F8000C00085FFB9CEBCCE8EE10E94C73CA2CD19
:0E7F900085E90E94C73C9ECDF894FFCF80008B
:00000001FF
